{
  "contractName": "Ico",
  "abi": [
    {
      "inputs": [],
      "stateMutability": "nonpayable",
      "type": "constructor"
    },
    {
      "anonymous": false,
      "inputs": [
        {
          "indexed": true,
          "internalType": "address",
          "name": "owner",
          "type": "address"
        },
        {
          "indexed": true,
          "internalType": "address",
          "name": "approved",
          "type": "address"
        },
        {
          "indexed": true,
          "internalType": "uint256",
          "name": "tokenId",
          "type": "uint256"
        }
      ],
      "name": "Approval",
      "type": "event"
    },
    {
      "anonymous": false,
      "inputs": [
        {
          "indexed": true,
          "internalType": "address",
          "name": "owner",
          "type": "address"
        },
        {
          "indexed": true,
          "internalType": "address",
          "name": "operator",
          "type": "address"
        },
        {
          "indexed": false,
          "internalType": "bool",
          "name": "approved",
          "type": "bool"
        }
      ],
      "name": "ApprovalForAll",
      "type": "event"
    },
    {
      "anonymous": false,
      "inputs": [
        {
          "indexed": true,
          "internalType": "address",
          "name": "previousOwner",
          "type": "address"
        },
        {
          "indexed": true,
          "internalType": "address",
          "name": "newOwner",
          "type": "address"
        }
      ],
      "name": "OwnershipTransferred",
      "type": "event"
    },
    {
      "anonymous": false,
      "inputs": [
        {
          "indexed": true,
          "internalType": "address",
          "name": "from",
          "type": "address"
        },
        {
          "indexed": true,
          "internalType": "address",
          "name": "to",
          "type": "address"
        },
        {
          "indexed": true,
          "internalType": "uint256",
          "name": "tokenId",
          "type": "uint256"
        }
      ],
      "name": "Transfer",
      "type": "event"
    },
    {
      "inputs": [
        {
          "internalType": "address",
          "name": "to",
          "type": "address"
        },
        {
          "internalType": "uint256",
          "name": "tokenId",
          "type": "uint256"
        }
      ],
      "name": "approve",
      "outputs": [],
      "stateMutability": "nonpayable",
      "type": "function"
    },
    {
      "inputs": [
        {
          "internalType": "address",
          "name": "owner",
          "type": "address"
        }
      ],
      "name": "balanceOf",
      "outputs": [
        {
          "internalType": "uint256",
          "name": "",
          "type": "uint256"
        }
      ],
      "stateMutability": "view",
      "type": "function",
      "constant": true
    },
    {
      "inputs": [
        {
          "internalType": "uint256",
          "name": "tokenId",
          "type": "uint256"
        }
      ],
      "name": "getApproved",
      "outputs": [
        {
          "internalType": "address",
          "name": "",
          "type": "address"
        }
      ],
      "stateMutability": "view",
      "type": "function",
      "constant": true
    },
    {
      "inputs": [
        {
          "internalType": "address",
          "name": "owner",
          "type": "address"
        },
        {
          "internalType": "address",
          "name": "operator",
          "type": "address"
        }
      ],
      "name": "isApprovedForAll",
      "outputs": [
        {
          "internalType": "bool",
          "name": "",
          "type": "bool"
        }
      ],
      "stateMutability": "view",
      "type": "function",
      "constant": true
    },
    {
      "inputs": [],
      "name": "name",
      "outputs": [
        {
          "internalType": "string",
          "name": "",
          "type": "string"
        }
      ],
      "stateMutability": "view",
      "type": "function",
      "constant": true
    },
    {
      "inputs": [],
      "name": "owner",
      "outputs": [
        {
          "internalType": "address",
          "name": "",
          "type": "address"
        }
      ],
      "stateMutability": "view",
      "type": "function",
      "constant": true
    },
    {
      "inputs": [
        {
          "internalType": "uint256",
          "name": "tokenId",
          "type": "uint256"
        }
      ],
      "name": "ownerOf",
      "outputs": [
        {
          "internalType": "address",
          "name": "",
          "type": "address"
        }
      ],
      "stateMutability": "view",
      "type": "function",
      "constant": true
    },
    {
      "inputs": [],
      "name": "renounceOwnership",
      "outputs": [],
      "stateMutability": "nonpayable",
      "type": "function"
    },
    {
      "inputs": [
        {
          "internalType": "address",
          "name": "from",
          "type": "address"
        },
        {
          "internalType": "address",
          "name": "to",
          "type": "address"
        },
        {
          "internalType": "uint256",
          "name": "tokenId",
          "type": "uint256"
        }
      ],
      "name": "safeTransferFrom",
      "outputs": [],
      "stateMutability": "nonpayable",
      "type": "function"
    },
    {
      "inputs": [
        {
          "internalType": "address",
          "name": "from",
          "type": "address"
        },
        {
          "internalType": "address",
          "name": "to",
          "type": "address"
        },
        {
          "internalType": "uint256",
          "name": "tokenId",
          "type": "uint256"
        },
        {
          "internalType": "bytes",
          "name": "data",
          "type": "bytes"
        }
      ],
      "name": "safeTransferFrom",
      "outputs": [],
      "stateMutability": "nonpayable",
      "type": "function"
    },
    {
      "inputs": [
        {
          "internalType": "address",
          "name": "operator",
          "type": "address"
        },
        {
          "internalType": "bool",
          "name": "approved",
          "type": "bool"
        }
      ],
      "name": "setApprovalForAll",
      "outputs": [],
      "stateMutability": "nonpayable",
      "type": "function"
    },
    {
      "inputs": [
        {
          "internalType": "bytes4",
          "name": "interfaceId",
          "type": "bytes4"
        }
      ],
      "name": "supportsInterface",
      "outputs": [
        {
          "internalType": "bool",
          "name": "",
          "type": "bool"
        }
      ],
      "stateMutability": "view",
      "type": "function",
      "constant": true
    },
    {
      "inputs": [],
      "name": "symbol",
      "outputs": [
        {
          "internalType": "string",
          "name": "",
          "type": "string"
        }
      ],
      "stateMutability": "view",
      "type": "function",
      "constant": true
    },
    {
      "inputs": [
        {
          "internalType": "uint256",
          "name": "tokenId",
          "type": "uint256"
        }
      ],
      "name": "tokenURI",
      "outputs": [
        {
          "internalType": "string",
          "name": "",
          "type": "string"
        }
      ],
      "stateMutability": "view",
      "type": "function",
      "constant": true
    },
    {
      "inputs": [
        {
          "internalType": "address",
          "name": "from",
          "type": "address"
        },
        {
          "internalType": "address",
          "name": "to",
          "type": "address"
        },
        {
          "internalType": "uint256",
          "name": "tokenId",
          "type": "uint256"
        }
      ],
      "name": "transferFrom",
      "outputs": [],
      "stateMutability": "nonpayable",
      "type": "function"
    },
    {
      "inputs": [
        {
          "internalType": "address",
          "name": "newOwner",
          "type": "address"
        }
      ],
      "name": "transferOwnership",
      "outputs": [],
      "stateMutability": "nonpayable",
      "type": "function"
    },
    {
      "inputs": [
        {
          "internalType": "uint256",
          "name": "supply",
          "type": "uint256"
        },
        {
          "internalType": "address",
          "name": "receiver",
          "type": "address"
        }
      ],
      "name": "ManualMinting",
      "outputs": [
        {
          "internalType": "uint256",
          "name": "",
          "type": "uint256"
        }
      ],
      "stateMutability": "nonpayable",
      "type": "function"
    },
    {
      "inputs": [
        {
          "internalType": "uint256",
          "name": "quantity",
          "type": "uint256"
        }
      ],
      "name": "checkPrice",
      "outputs": [
        {
          "internalType": "uint256",
          "name": "",
          "type": "uint256"
        }
      ],
      "stateMutability": "view",
      "type": "function",
      "constant": true
    },
    {
      "inputs": [
        {
          "internalType": "uint256",
          "name": "quantity",
          "type": "uint256"
        }
      ],
      "name": "publicMinting",
      "outputs": [
        {
          "internalType": "uint256",
          "name": "",
          "type": "uint256"
        }
      ],
      "stateMutability": "payable",
      "type": "function",
      "payable": true
    },
    {
      "inputs": [
        {
          "internalType": "uint256",
          "name": "_newPrice",
          "type": "uint256"
        }
      ],
      "name": "setPrice",
      "outputs": [],
      "stateMutability": "nonpayable",
      "type": "function"
    },
    {
      "inputs": [
        {
          "internalType": "uint256",
          "name": "_howMuch",
          "type": "uint256"
        }
      ],
      "name": "setSupply",
      "outputs": [],
      "stateMutability": "nonpayable",
      "type": "function"
    },
    {
      "inputs": [
        {
          "internalType": "uint256",
          "name": "_howMuch",
          "type": "uint256"
        }
      ],
      "name": "setRate",
      "outputs": [],
      "stateMutability": "nonpayable",
      "type": "function"
    },
    {
      "inputs": [],
      "name": "getRate",
      "outputs": [
        {
          "internalType": "uint256",
          "name": "",
          "type": "uint256"
        }
      ],
      "stateMutability": "view",
      "type": "function",
      "constant": true
    },
    {
      "inputs": [
        {
          "internalType": "address",
          "name": "coinAddress",
          "type": "address"
        },
        {
          "internalType": "uint256",
          "name": "price",
          "type": "uint256"
        }
      ],
      "name": "addCoin",
      "outputs": [],
      "stateMutability": "nonpayable",
      "type": "function"
    },
    {
      "inputs": [
        {
          "internalType": "address",
          "name": "coin",
          "type": "address"
        },
        {
          "internalType": "uint256",
          "name": "_newPrice",
          "type": "uint256"
        }
      ],
      "name": "setPriceERC20",
      "outputs": [],
      "stateMutability": "nonpayable",
      "type": "function"
    },
    {
      "inputs": [
        {
          "internalType": "address",
          "name": "_token_address",
          "type": "address"
        }
      ],
      "name": "PublicMintingERC20",
      "outputs": [
        {
          "internalType": "uint256",
          "name": "",
          "type": "uint256"
        }
      ],
      "stateMutability": "nonpayable",
      "type": "function"
    },
    {
      "inputs": [
        {
          "internalType": "uint256",
          "name": "_index",
          "type": "uint256"
        }
      ],
      "name": "get",
      "outputs": [
        {
          "components": [
            {
              "internalType": "uint256",
              "name": "tokenId",
              "type": "uint256"
            },
            {
              "internalType": "uint256",
              "name": "supply",
              "type": "uint256"
            }
          ],
          "internalType": "struct Ico.Entry",
          "name": "",
          "type": "tuple"
        }
      ],
      "stateMutability": "view",
      "type": "function",
      "constant": true
    },
    {
      "inputs": [
        {
          "internalType": "uint256",
          "name": "tokenId",
          "type": "uint256"
        }
      ],
      "name": "checkSupply",
      "outputs": [
        {
          "internalType": "uint256",
          "name": "",
          "type": "uint256"
        }
      ],
      "stateMutability": "view",
      "type": "function",
      "constant": true
    },
    {
      "inputs": [],
      "name": "getTotal",
      "outputs": [
        {
          "internalType": "uint256",
          "name": "",
          "type": "uint256"
        }
      ],
      "stateMutability": "view",
      "type": "function",
      "constant": true
    },
    {
      "inputs": [
        {
          "internalType": "uint256",
          "name": "tokenId",
          "type": "uint256"
        }
      ],
      "name": "burn",
      "outputs": [],
      "stateMutability": "nonpayable",
      "type": "function"
    }
  ],
  "bytecode": "0x60806040526402540be400600955614e20600b55611388600c55655af3107a4000600d553480156200003057600080fd5b506040518060400160405280600981526020017f49434f20546f6b656e00000000000000000000000000000000000000000000008152506040518060400160405280600381526020017f49434f00000000000000000000000000000000000000000000000000000000008152508160009080519060200190620000b5929190620001c5565b508060019080519060200190620000ce929190620001c5565b505050620000f1620000e5620000f760201b60201c565b620000ff60201b60201c565b620002da565b600033905090565b6000600660009054906101000a900473ffffffffffffffffffffffffffffffffffffffff16905081600660006101000a81548173ffffffffffffffffffffffffffffffffffffffff021916908373ffffffffffffffffffffffffffffffffffffffff1602179055508173ffffffffffffffffffffffffffffffffffffffff168173ffffffffffffffffffffffffffffffffffffffff167f8be0079c531659141344cd1fd0a4f28419497f9722a3daafe3b4186f6b6457e060405160405180910390a35050565b828054620001d39062000275565b90600052602060002090601f016020900481019282620001f7576000855562000243565b82601f106200021257805160ff191683800117855562000243565b8280016001018555821562000243579182015b828111156200024257825182559160200191906001019062000225565b5b50905062000252919062000256565b5090565b5b808211156200027157600081600090555060010162000257565b5090565b600060028204905060018216806200028e57607f821691505b60208210811415620002a557620002a4620002ab565b5b50919050565b7f4e487b7100000000000000000000000000000000000000000000000000000000600052602260045260246000fd5b61397e80620002ea6000396000f3fe6080604052600436106101cd5760003560e01c8063715018a6116100f7578063a22cb46511610095578063e96e2ced11610064578063e96e2ced1461069b578063e985e9c5146106d8578063f2fde38b14610715578063febc87861461073e576101cd565b8063a22cb465146105e3578063b40148791461060c578063b88d4fde14610635578063c87b56dd1461065e576101cd565b80638da5cb5b116100d15780638da5cb5b1461052757806391b7f5ed146105525780639507d39a1461057b57806395d89b41146105b8576101cd565b8063715018a6146104a8578063775a25e3146104bf5780637946a3a8146104ea576101cd565b806335a0ec6b1161016f578063571429ba1161013e578063571429ba146103da5780636352211e14610403578063679aefce1461044057806370a082311461046b576101cd565b806335a0ec6b1461032f5780633b4c4b251461035f57806342842e0e1461038857806342966c68146103b1576101cd565b8063095ea7b3116101ab578063095ea7b3146102775780631de7463a146102a057806323b872dd146102dd57806334fcf43714610306576101cd565b806301ffc9a7146101d257806306fdde031461020f578063081812fc1461023a575b600080fd5b3480156101de57600080fd5b506101f960048036038101906101f4919061288a565b61077b565b6040516102069190612daa565b60405180910390f35b34801561021b57600080fd5b5061022461085d565b6040516102319190612dc5565b60405180910390f35b34801561024657600080fd5b50610261600480360381019061025c91906128dc565b6108ef565b60405161026e9190612d0c565b60405180910390f35b34801561028357600080fd5b5061029e60048036038101906102999190612825565b610935565b005b3480156102ac57600080fd5b506102c760048036038101906102c291906128dc565b610a4d565b6040516102d49190613062565b60405180910390f35b3480156102e957600080fd5b5061030460048036038101906102ff919061271f565b610a64565b005b34801561031257600080fd5b5061032d600480360381019061032891906128dc565b610ac4565b005b610349600480360381019061034491906128dc565b610ad6565b6040516103569190613062565b60405180910390f35b34801561036b57600080fd5b50610386600480360381019061038191906128dc565b610be9565b005b34801561039457600080fd5b506103af60048036038101906103aa919061271f565b610bfb565b005b3480156103bd57600080fd5b506103d860048036038101906103d391906128dc565b610c1b565b005b3480156103e657600080fd5b5061040160048036038101906103fc9190612825565b610ca3565b005b34801561040f57600080fd5b5061042a600480360381019061042591906128dc565b610df7565b6040516104379190612d0c565b60405180910390f35b34801561044c57600080fd5b50610455610ea9565b6040516104629190613062565b60405180910390f35b34801561047757600080fd5b50610492600480360381019061048d91906126ba565b610eb3565b60405161049f9190613062565b60405180910390f35b3480156104b457600080fd5b506104bd610f6b565b005b3480156104cb57600080fd5b506104d4610f7f565b6040516104e19190613062565b60405180910390f35b3480156104f657600080fd5b50610511600480360381019061050c91906126ba565b610f90565b60405161051e9190613062565b60405180910390f35b34801561053357600080fd5b5061053c61127e565b6040516105499190612d0c565b60405180910390f35b34801561055e57600080fd5b50610579600480360381019061057491906128dc565b6112a8565b005b34801561058757600080fd5b506105a2600480360381019061059d91906128dc565b6112ba565b6040516105af9190613047565b60405180910390f35b3480156105c457600080fd5b506105cd6112fb565b6040516105da9190612dc5565b60405180910390f35b3480156105ef57600080fd5b5061060a600480360381019061060591906127e9565b61138d565b005b34801561061857600080fd5b50610633600480360381019061062e9190612825565b6113a3565b005b34801561064157600080fd5b5061065c6004803603810190610657919061276e565b611456565b005b34801561066a57600080fd5b50610685600480360381019061068091906128dc565b6114b8565b6040516106929190612dc5565b60405180910390f35b3480156106a757600080fd5b506106c260048036038101906106bd91906128dc565b611520565b6040516106cf9190613062565b60405180910390f35b3480156106e457600080fd5b506106ff60048036038101906106fa91906126e3565b611545565b60405161070c9190612daa565b60405180910390f35b34801561072157600080fd5b5061073c600480360381019061073791906126ba565b6115d9565b005b34801561074a57600080fd5b5061076560048036038101906107609190612905565b61165d565b6040516107729190613062565b60405180910390f35b60007f80ac58cd000000000000000000000000000000000000000000000000000000007bffffffffffffffffffffffffffffffffffffffffffffffffffffffff1916827bffffffffffffffffffffffffffffffffffffffffffffffffffffffff1916148061084657507f5b5e139f000000000000000000000000000000000000000000000000000000007bffffffffffffffffffffffffffffffffffffffffffffffffffffffff1916827bffffffffffffffffffffffffffffffffffffffffffffffffffffffff1916145b8061085657506108558261172c565b5b9050919050565b60606000805461086c906132e1565b80601f0160208091040260200160405190810160405280929190818152602001828054610898906132e1565b80156108e55780601f106108ba576101008083540402835291602001916108e5565b820191906000526020600020905b8154815290600101906020018083116108c857829003601f168201915b5050505050905090565b60006108fa82611796565b6004600083815260200190815260200160002060009054906101000a900473ffffffffffffffffffffffffffffffffffffffff169050919050565b600061094082610df7565b90508073ffffffffffffffffffffffffffffffffffffffff168373ffffffffffffffffffffffffffffffffffffffff1614156109b1576040517f08c379a00000000000000000000000000000000000000000000000000000000081526004016109a890612fc7565b60405180910390fd5b8073ffffffffffffffffffffffffffffffffffffffff166109d06117e1565b73ffffffffffffffffffffffffffffffffffffffff1614806109ff57506109fe816109f96117e1565b611545565b5b610a3e576040517f08c379a0000000000000000000000000000000000000000000000000000000008152600401610a3590612f07565b60405180910390fd5b610a4883836117e9565b505050565b600081600d54610a5d919061319d565b9050919050565b610a75610a6f6117e1565b826118a2565b610ab4576040517f08c379a0000000000000000000000000000000000000000000000000000000008152600401610aab90613027565b60405180910390fd5b610abf838383611937565b505050565b610acc611b9e565b80600d8190555050565b6000600b54610ae3610f7f565b10610b23576040517f08c379a0000000000000000000000000000000000000000000000000000000008152600401610b1a90612f47565b60405180910390fd5b6000600d5483610b33919061319d565b905080341015610b78576040517f08c379a0000000000000000000000000000000000000000000000000000000008152600401610b6f90612f87565b60405180910390fd5b610b826007611c1c565b6000610b8e6007611c32565b9050610b9a3382611c40565b6000604051806040016040528083815260200186815250905080600e60008481526020019081526020016000206000820151816000015560208201518160010155905050819350505050919050565b610bf1611b9e565b80600c8190555050565b610c1683838360405180602001604052806000815250611456565b505050565b6000610c2682610df7565b90503273ffffffffffffffffffffffffffffffffffffffff168173ffffffffffffffffffffffffffffffffffffffff1614610c96576040517f08c379a0000000000000000000000000000000000000000000000000000000008152600401610c8d90612fe7565b60405180910390fd5b610c9f82611e1a565b5050565b610cab611b9e565b60008111610cee576040517f08c379a0000000000000000000000000000000000000000000000000000000008152600401610ce590612e07565b60405180910390fd5b60005b600880549050811015610df2578273ffffffffffffffffffffffffffffffffffffffff1660088281548110610d4f577f4e487b7100000000000000000000000000000000000000000000000000000000600052603260045260246000fd5b9060005260206000200160009054906101000a900473ffffffffffffffffffffffffffffffffffffffff1673ffffffffffffffffffffffffffffffffffffffff161415610ddf5781600a60008573ffffffffffffffffffffffffffffffffffffffff1673ffffffffffffffffffffffffffffffffffffffff16815260200190815260200160002081905550610df2565b8080610dea90613344565b915050610cf1565b505050565b6000806002600084815260200190815260200160002060009054906101000a900473ffffffffffffffffffffffffffffffffffffffff169050600073ffffffffffffffffffffffffffffffffffffffff168173ffffffffffffffffffffffffffffffffffffffff161415610ea0576040517f08c379a0000000000000000000000000000000000000000000000000000000008152600401610e9790612fa7565b60405180910390fd5b80915050919050565b6000600d54905090565b60008073ffffffffffffffffffffffffffffffffffffffff168273ffffffffffffffffffffffffffffffffffffffff161415610f24576040517f08c379a0000000000000000000000000000000000000000000000000000000008152600401610f1b90612ee7565b60405180910390fd5b600360008373ffffffffffffffffffffffffffffffffffffffff1673ffffffffffffffffffffffffffffffffffffffff168152602001908152602001600020549050919050565b610f73611b9e565b610f7d6000611f37565b565b6000610f8b6007611c32565b905090565b6000816000805b600880549050811015611058578273ffffffffffffffffffffffffffffffffffffffff1660088281548110610ff5577f4e487b7100000000000000000000000000000000000000000000000000000000600052603260045260246000fd5b9060005260206000200160009054906101000a900473ffffffffffffffffffffffffffffffffffffffff1673ffffffffffffffffffffffffffffffffffffffff1614156110455760019150611058565b808061105090613344565b915050610f97565b5080611099576040517f08c379a000000000000000000000000000000000000000000000000000000000815260040161109090613007565b60405180910390fd5b600b546110a4610f7f565b106110e4576040517f08c379a00000000000000000000000000000000000000000000000000000000081526004016110db90612f47565b60405180910390fd5b6000600a60008673ffffffffffffffffffffffffffffffffffffffff1673ffffffffffffffffffffffffffffffffffffffff1681526020019081526020016000205490506000811161113557600080fd5b60008573ffffffffffffffffffffffffffffffffffffffff166323b872dd3330856040518463ffffffff1660e01b815260040161117493929190612d27565b602060405180830381600087803b15801561118e57600080fd5b505af11580156111a2573d6000803e3d6000fd5b505050506040513d601f19601f820116820180604052508101906111c69190612861565b905080611208576040517f08c379a00000000000000000000000000000000000000000000000000000000081526004016111ff90612ec7565b60405180910390fd5b6112126007611c1c565b600061121e6007611c32565b905061122a3382611c40565b60006040518060400160405280838152602001600c54815250905080600e60008481526020019081526020016000206000820151816000015560208201518160010155905050819650505050505050919050565b6000600660009054906101000a900473ffffffffffffffffffffffffffffffffffffffff16905090565b6112b0611b9e565b8060098190555050565b6112c26125ba565b600e6000838152602001908152602001600020604051806040016040529081600082015481526020016001820154815250509050919050565b60606001805461130a906132e1565b80601f0160208091040260200160405190810160405280929190818152602001828054611336906132e1565b80156113835780601f1061135857610100808354040283529160200191611383565b820191906000526020600020905b81548152906001019060200180831161136657829003601f168201915b5050505050905090565b61139f6113986117e1565b8383611ffd565b5050565b6113ab611b9e565b6008829080600181540180825580915050600190039060005260206000200160009091909190916101000a81548173ffffffffffffffffffffffffffffffffffffffff021916908373ffffffffffffffffffffffffffffffffffffffff16021790555080600a60008473ffffffffffffffffffffffffffffffffffffffff1673ffffffffffffffffffffffffffffffffffffffff168152602001908152602001600020819055505050565b6114676114616117e1565b836118a2565b6114a6576040517f08c379a000000000000000000000000000000000000000000000000000000000815260040161149d90613027565b60405180910390fd5b6114b28484848461216a565b50505050565b60606114c382611796565b60006114cd6121c6565b905060008151116114ed5760405180602001604052806000815250611518565b806114f7846121dd565b604051602001611508929190612ce8565b6040516020818303038152906040525b915050919050565b600080600e600084815260200190815260200160002060010154905080915050919050565b6000600560008473ffffffffffffffffffffffffffffffffffffffff1673ffffffffffffffffffffffffffffffffffffffff16815260200190815260200160002060008373ffffffffffffffffffffffffffffffffffffffff1673ffffffffffffffffffffffffffffffffffffffff16815260200190815260200160002060009054906101000a900460ff16905092915050565b6115e1611b9e565b600073ffffffffffffffffffffffffffffffffffffffff168173ffffffffffffffffffffffffffffffffffffffff161415611651576040517f08c379a000000000000000000000000000000000000000000000000000000000815260040161164890612e27565b60405180910390fd5b61165a81611f37565b50565b6000611667611b9e565b600b54611672610f7f565b106116b2576040517f08c379a00000000000000000000000000000000000000000000000000000000081526004016116a990612f47565b60405180910390fd5b6116bc6007611c1c565b60006116c86007611c32565b90506116d48382611c40565b600060405180604001604052806116eb6007611c32565b815260200186815250905080600e60008481526020019081526020016000206000820151816000015560208201518160010155905050819250505092915050565b60007f01ffc9a7000000000000000000000000000000000000000000000000000000007bffffffffffffffffffffffffffffffffffffffffffffffffffffffff1916827bffffffffffffffffffffffffffffffffffffffffffffffffffffffff1916149050919050565b61179f8161238a565b6117de576040517f08c379a00000000000000000000000000000000000000000000000000000000081526004016117d590612fa7565b60405180910390fd5b50565b600033905090565b816004600083815260200190815260200160002060006101000a81548173ffffffffffffffffffffffffffffffffffffffff021916908373ffffffffffffffffffffffffffffffffffffffff160217905550808273ffffffffffffffffffffffffffffffffffffffff1661185c83610df7565b73ffffffffffffffffffffffffffffffffffffffff167f8c5be1e5ebec7d5bd14f71427d1e84f3dd0314c0f7b2291e5b200ac8c7c3b92560405160405180910390a45050565b6000806118ae83610df7565b90508073ffffffffffffffffffffffffffffffffffffffff168473ffffffffffffffffffffffffffffffffffffffff1614806118f057506118ef8185611545565b5b8061192e57508373ffffffffffffffffffffffffffffffffffffffff16611916846108ef565b73ffffffffffffffffffffffffffffffffffffffff16145b91505092915050565b8273ffffffffffffffffffffffffffffffffffffffff1661195782610df7565b73ffffffffffffffffffffffffffffffffffffffff16146119ad576040517f08c379a00000000000000000000000000000000000000000000000000000000081526004016119a490612e47565b60405180910390fd5b600073ffffffffffffffffffffffffffffffffffffffff168273ffffffffffffffffffffffffffffffffffffffff161415611a1d576040517f08c379a0000000000000000000000000000000000000000000000000000000008152600401611a1490612e87565b60405180910390fd5b611a288383836123f6565b611a336000826117e9565b6001600360008573ffffffffffffffffffffffffffffffffffffffff1673ffffffffffffffffffffffffffffffffffffffff1681526020019081526020016000206000828254611a8391906131f7565b925050819055506001600360008473ffffffffffffffffffffffffffffffffffffffff1673ffffffffffffffffffffffffffffffffffffffff1681526020019081526020016000206000828254611ada9190613116565b92505081905550816002600083815260200190815260200160002060006101000a81548173ffffffffffffffffffffffffffffffffffffffff021916908373ffffffffffffffffffffffffffffffffffffffff160217905550808273ffffffffffffffffffffffffffffffffffffffff168473ffffffffffffffffffffffffffffffffffffffff167fddf252ad1be2c89b69c2b068fc378daa952ba7f163c4a11628f55a4df523b3ef60405160405180910390a4611b998383836123fb565b505050565b611ba66117e1565b73ffffffffffffffffffffffffffffffffffffffff16611bc461127e565b73ffffffffffffffffffffffffffffffffffffffff1614611c1a576040517f08c379a0000000000000000000000000000000000000000000000000000000008152600401611c1190612f67565b60405180910390fd5b565b6001816000016000828254019250508190555050565b600081600001549050919050565b600073ffffffffffffffffffffffffffffffffffffffff168273ffffffffffffffffffffffffffffffffffffffff161415611cb0576040517f08c379a0000000000000000000000000000000000000000000000000000000008152600401611ca790612f27565b60405180910390fd5b611cb98161238a565b15611cf9576040517f08c379a0000000000000000000000000000000000000000000000000000000008152600401611cf090612e67565b60405180910390fd5b611d05600083836123f6565b6001600360008473ffffffffffffffffffffffffffffffffffffffff1673ffffffffffffffffffffffffffffffffffffffff1681526020019081526020016000206000828254611d559190613116565b92505081905550816002600083815260200190815260200160002060006101000a81548173ffffffffffffffffffffffffffffffffffffffff021916908373ffffffffffffffffffffffffffffffffffffffff160217905550808273ffffffffffffffffffffffffffffffffffffffff16600073ffffffffffffffffffffffffffffffffffffffff167fddf252ad1be2c89b69c2b068fc378daa952ba7f163c4a11628f55a4df523b3ef60405160405180910390a4611e16600083836123fb565b5050565b6000611e2582610df7565b9050611e33816000846123f6565b611e3e6000836117e9565b6001600360008373ffffffffffffffffffffffffffffffffffffffff1673ffffffffffffffffffffffffffffffffffffffff1681526020019081526020016000206000828254611e8e91906131f7565b925050819055506002600083815260200190815260200160002060006101000a81549073ffffffffffffffffffffffffffffffffffffffff021916905581600073ffffffffffffffffffffffffffffffffffffffff168273ffffffffffffffffffffffffffffffffffffffff167fddf252ad1be2c89b69c2b068fc378daa952ba7f163c4a11628f55a4df523b3ef60405160405180910390a4611f33816000846123fb565b5050565b6000600660009054906101000a900473ffffffffffffffffffffffffffffffffffffffff16905081600660006101000a81548173ffffffffffffffffffffffffffffffffffffffff021916908373ffffffffffffffffffffffffffffffffffffffff1602179055508173ffffffffffffffffffffffffffffffffffffffff168173ffffffffffffffffffffffffffffffffffffffff167f8be0079c531659141344cd1fd0a4f28419497f9722a3daafe3b4186f6b6457e060405160405180910390a35050565b8173ffffffffffffffffffffffffffffffffffffffff168373ffffffffffffffffffffffffffffffffffffffff16141561206c576040517f08c379a000000000000000000000000000000000000000000000000000000000815260040161206390612ea7565b60405180910390fd5b80600560008573ffffffffffffffffffffffffffffffffffffffff1673ffffffffffffffffffffffffffffffffffffffff16815260200190815260200160002060008473ffffffffffffffffffffffffffffffffffffffff1673ffffffffffffffffffffffffffffffffffffffff16815260200190815260200160002060006101000a81548160ff0219169083151502179055508173ffffffffffffffffffffffffffffffffffffffff168373ffffffffffffffffffffffffffffffffffffffff167f17307eab39ab6107e8899845ad3d59bd9653f200f220920489ca2b5937696c318360405161215d9190612daa565b60405180910390a3505050565b612175848484611937565b61218184848484612400565b6121c0576040517f08c379a00000000000000000000000000000000000000000000000000000000081526004016121b790612de7565b60405180910390fd5b50505050565b606060405180602001604052806000815250905090565b60606000821415612225576040518060400160405280600181526020017f30000000000000000000000000000000000000000000000000000000000000008152509050612385565b600082905060005b6000821461225757808061224090613344565b915050600a82612250919061316c565b915061222d565b60008167ffffffffffffffff811115612299577f4e487b7100000000000000000000000000000000000000000000000000000000600052604160045260246000fd5b6040519080825280601f01601f1916602001820160405280156122cb5781602001600182028036833780820191505090505b5090505b6000851461237e576001826122e491906131f7565b9150600a856122f3919061338d565b60306122ff9190613116565b60f81b81838151811061233b577f4e487b7100000000000000000000000000000000000000000000000000000000600052603260045260246000fd5b60200101907effffffffffffffffffffffffffffffffffffffffffffffffffffffffffffff1916908160001a905350600a85612377919061316c565b94506122cf565b8093505050505b919050565b60008073ffffffffffffffffffffffffffffffffffffffff166002600084815260200190815260200160002060009054906101000a900473ffffffffffffffffffffffffffffffffffffffff1673ffffffffffffffffffffffffffffffffffffffff1614159050919050565b505050565b505050565b60006124218473ffffffffffffffffffffffffffffffffffffffff16612597565b1561258a578373ffffffffffffffffffffffffffffffffffffffff1663150b7a0261244a6117e1565b8786866040518563ffffffff1660e01b815260040161246c9493929190612d5e565b602060405180830381600087803b15801561248657600080fd5b505af19250505080156124b757506040513d601f19601f820116820180604052508101906124b491906128b3565b60015b61253a573d80600081146124e7576040519150601f19603f3d011682016040523d82523d6000602084013e6124ec565b606091505b50600081511415612532576040517f08c379a000000000000000000000000000000000000000000000000000000000815260040161252990612de7565b60405180910390fd5b805181602001fd5b63150b7a0260e01b7bffffffffffffffffffffffffffffffffffffffffffffffffffffffff1916817bffffffffffffffffffffffffffffffffffffffffffffffffffffffff19161491505061258f565b600190505b949350505050565b6000808273ffffffffffffffffffffffffffffffffffffffff163b119050919050565b604051806040016040528060008152602001600081525090565b60006125e76125e2846130a2565b61307d565b9050828152602081018484840111156125ff57600080fd5b61260a84828561329f565b509392505050565b600081359050612621816138ec565b92915050565b60008135905061263681613903565b92915050565b60008151905061264b81613903565b92915050565b6000813590506126608161391a565b92915050565b6000815190506126758161391a565b92915050565b600082601f83011261268c57600080fd5b813561269c8482602086016125d4565b91505092915050565b6000813590506126b481613931565b92915050565b6000602082840312156126cc57600080fd5b60006126da84828501612612565b91505092915050565b600080604083850312156126f657600080fd5b600061270485828601612612565b925050602061271585828601612612565b9150509250929050565b60008060006060848603121561273457600080fd5b600061274286828701612612565b935050602061275386828701612612565b9250506040612764868287016126a5565b9150509250925092565b6000806000806080858703121561278457600080fd5b600061279287828801612612565b94505060206127a387828801612612565b93505060406127b4878288016126a5565b925050606085013567ffffffffffffffff8111156127d157600080fd5b6127dd8782880161267b565b91505092959194509250565b600080604083850312156127fc57600080fd5b600061280a85828601612612565b925050602061281b85828601612627565b9150509250929050565b6000806040838503121561283857600080fd5b600061284685828601612612565b9250506020612857858286016126a5565b9150509250929050565b60006020828403121561287357600080fd5b60006128818482850161263c565b91505092915050565b60006020828403121561289c57600080fd5b60006128aa84828501612651565b91505092915050565b6000602082840312156128c557600080fd5b60006128d384828501612666565b91505092915050565b6000602082840312156128ee57600080fd5b60006128fc848285016126a5565b91505092915050565b6000806040838503121561291857600080fd5b6000612926858286016126a5565b925050602061293785828601612612565b9150509250929050565b61294a8161322b565b82525050565b6129598161323d565b82525050565b600061296a826130d3565b61297481856130e9565b93506129848185602086016132ae565b61298d8161347a565b840191505092915050565b60006129a3826130de565b6129ad81856130fa565b93506129bd8185602086016132ae565b6129c68161347a565b840191505092915050565b60006129dc826130de565b6129e6818561310b565b93506129f68185602086016132ae565b80840191505092915050565b6000612a0f6032836130fa565b9150612a1a8261348b565b604082019050919050565b6000612a32601b836130fa565b9150612a3d826134da565b602082019050919050565b6000612a556026836130fa565b9150612a6082613503565b604082019050919050565b6000612a786025836130fa565b9150612a8382613552565b604082019050919050565b6000612a9b601c836130fa565b9150612aa6826135a1565b602082019050919050565b6000612abe6024836130fa565b9150612ac9826135ca565b604082019050919050565b6000612ae16019836130fa565b9150612aec82613619565b602082019050919050565b6000612b046019836130fa565b9150612b0f82613642565b602082019050919050565b6000612b276029836130fa565b9150612b328261366b565b604082019050919050565b6000612b4a603e836130fa565b9150612b55826136ba565b604082019050919050565b6000612b6d6020836130fa565b9150612b7882613709565b602082019050919050565b6000612b906011836130fa565b9150612b9b82613732565b602082019050919050565b6000612bb36020836130fa565b9150612bbe8261375b565b602082019050919050565b6000612bd66021836130fa565b9150612be182613784565b604082019050919050565b6000612bf96018836130fa565b9150612c04826137d3565b602082019050919050565b6000612c1c6021836130fa565b9150612c27826137fc565b604082019050919050565b6000612c3f6019836130fa565b9150612c4a8261384b565b602082019050919050565b6000612c626011836130fa565b9150612c6d82613874565b602082019050919050565b6000612c85602e836130fa565b9150612c908261389d565b604082019050919050565b604082016000820151612cb16000850182612cca565b506020820151612cc46020850182612cca565b50505050565b612cd381613295565b82525050565b612ce281613295565b82525050565b6000612cf482856129d1565b9150612d0082846129d1565b91508190509392505050565b6000602082019050612d216000830184612941565b92915050565b6000606082019050612d3c6000830186612941565b612d496020830185612941565b612d566040830184612cd9565b949350505050565b6000608082019050612d736000830187612941565b612d806020830186612941565b612d8d6040830185612cd9565b8181036060830152612d9f818461295f565b905095945050505050565b6000602082019050612dbf6000830184612950565b92915050565b60006020820190508181036000830152612ddf8184612998565b905092915050565b60006020820190508181036000830152612e0081612a02565b9050919050565b60006020820190508181036000830152612e2081612a25565b9050919050565b60006020820190508181036000830152612e4081612a48565b9050919050565b60006020820190508181036000830152612e6081612a6b565b9050919050565b60006020820190508181036000830152612e8081612a8e565b9050919050565b60006020820190508181036000830152612ea081612ab1565b9050919050565b60006020820190508181036000830152612ec081612ad4565b9050919050565b60006020820190508181036000830152612ee081612af7565b9050919050565b60006020820190508181036000830152612f0081612b1a565b9050919050565b60006020820190508181036000830152612f2081612b3d565b9050919050565b60006020820190508181036000830152612f4081612b60565b9050919050565b60006020820190508181036000830152612f6081612b83565b9050919050565b60006020820190508181036000830152612f8081612ba6565b9050919050565b60006020820190508181036000830152612fa081612bc9565b9050919050565b60006020820190508181036000830152612fc081612bec565b9050919050565b60006020820190508181036000830152612fe081612c0f565b9050919050565b6000602082019050818103600083015261300081612c32565b9050919050565b6000602082019050818103600083015261302081612c55565b9050919050565b6000602082019050818103600083015261304081612c78565b9050919050565b600060408201905061305c6000830184612c9b565b92915050565b60006020820190506130776000830184612cd9565b92915050565b6000613087613098565b90506130938282613313565b919050565b6000604051905090565b600067ffffffffffffffff8211156130bd576130bc61344b565b5b6130c68261347a565b9050602081019050919050565b600081519050919050565b600081519050919050565b600082825260208201905092915050565b600082825260208201905092915050565b600081905092915050565b600061312182613295565b915061312c83613295565b9250827fffffffffffffffffffffffffffffffffffffffffffffffffffffffffffffffff03821115613161576131606133be565b5b828201905092915050565b600061317782613295565b915061318283613295565b925082613192576131916133ed565b5b828204905092915050565b60006131a882613295565b91506131b383613295565b9250817fffffffffffffffffffffffffffffffffffffffffffffffffffffffffffffffff04831182151516156131ec576131eb6133be565b5b828202905092915050565b600061320282613295565b915061320d83613295565b9250828210156132205761321f6133be565b5b828203905092915050565b600061323682613275565b9050919050565b60008115159050919050565b60007fffffffff0000000000000000000000000000000000000000000000000000000082169050919050565b600073ffffffffffffffffffffffffffffffffffffffff82169050919050565b6000819050919050565b82818337600083830152505050565b60005b838110156132cc5780820151818401526020810190506132b1565b838111156132db576000848401525b50505050565b600060028204905060018216806132f957607f821691505b6020821081141561330d5761330c61341c565b5b50919050565b61331c8261347a565b810181811067ffffffffffffffff8211171561333b5761333a61344b565b5b80604052505050565b600061334f82613295565b91507fffffffffffffffffffffffffffffffffffffffffffffffffffffffffffffffff821415613382576133816133be565b5b600182019050919050565b600061339882613295565b91506133a383613295565b9250826133b3576133b26133ed565b5b828206905092915050565b7f4e487b7100000000000000000000000000000000000000000000000000000000600052601160045260246000fd5b7f4e487b7100000000000000000000000000000000000000000000000000000000600052601260045260246000fd5b7f4e487b7100000000000000000000000000000000000000000000000000000000600052602260045260246000fd5b7f4e487b7100000000000000000000000000000000000000000000000000000000600052604160045260246000fd5b6000601f19601f8301169050919050565b7f4552433732313a207472616e7366657220746f206e6f6e20455243373231526560008201527f63656976657220696d706c656d656e7465720000000000000000000000000000602082015250565b7f70726963652068617320746f206265206d6f7265207468616e20300000000000600082015250565b7f4f776e61626c653a206e6577206f776e657220697320746865207a65726f206160008201527f6464726573730000000000000000000000000000000000000000000000000000602082015250565b7f4552433732313a207472616e736665722066726f6d20696e636f72726563742060008201527f6f776e6572000000000000000000000000000000000000000000000000000000602082015250565b7f4552433732313a20746f6b656e20616c7265616479206d696e74656400000000600082015250565b7f4552433732313a207472616e7366657220746f20746865207a65726f2061646460008201527f7265737300000000000000000000000000000000000000000000000000000000602082015250565b7f4552433732313a20617070726f766520746f2063616c6c657200000000000000600082015250565b7f4552433230207472616e73666572206469646e7420776f726b00000000000000600082015250565b7f4552433732313a2061646472657373207a65726f206973206e6f74206120766160008201527f6c6964206f776e65720000000000000000000000000000000000000000000000602082015250565b7f4552433732313a20617070726f76652063616c6c6572206973206e6f7420746f60008201527f6b656e206f776e6572206e6f7220617070726f76656420666f7220616c6c0000602082015250565b7f4552433732313a206d696e7420746f20746865207a65726f2061646472657373600082015250565b7f4861726420436170206163686965766564000000000000000000000000000000600082015250565b7f4f776e61626c653a2063616c6c6572206973206e6f7420746865206f776e6572600082015250565b7f4e65656420746f207265616368207468652070726963652070657220746f6b6560008201527f6e00000000000000000000000000000000000000000000000000000000000000602082015250565b7f4552433732313a20696e76616c696420746f6b656e2049440000000000000000600082015250565b7f4552433732313a20617070726f76616c20746f2063757272656e74206f776e6560008201527f7200000000000000000000000000000000000000000000000000000000000000602082015250565b7f6f6e6c79206f776e65722063616e206275726e20736861726500000000000000600082015250565b7f6e6f7420616363657074656420636f696e000000000000000000000000000000600082015250565b7f4552433732313a2063616c6c6572206973206e6f7420746f6b656e206f776e6560008201527f72206e6f7220617070726f766564000000000000000000000000000000000000602082015250565b6138f58161322b565b811461390057600080fd5b50565b61390c8161323d565b811461391757600080fd5b50565b61392381613249565b811461392e57600080fd5b50565b61393a81613295565b811461394557600080fd5b5056fea26469706673582212203131934b3ace695dcf52207f59cf9c4339f2d0312f573f3cc4513b2c77fa482464736f6c63430008030033",
  "immutableReferences": {},
  "source": "// SPDX-License-Identifier: MIT\npragma solidity ^0.8.0;\n\nimport \"@openzeppelin/contracts/token/ERC721/extensions/ERC721Burnable.sol\";\nimport \"@openzeppelin/contracts/token/ERC20/IERC20.sol\";\nimport \"@openzeppelin/contracts/utils/Counters.sol\";\nimport \"@openzeppelin/contracts/access/Ownable.sol\";\n\n\ncontract Ico is ERC721Burnable,Ownable{\n\n    using Counters for Counters.Counter;\n\n    ///////////////-----Variable-------------///////////\n    Counters.Counter private _tokenIds;\n    address[] acceptedCoins;\n\n    uint256 internal PRICE=10**10 wei;\n    mapping(address=>uint256) private COINS_PRICE;\n\n    uint256 internal HARD_CAP=20000;\n    uint256 internal SUPPLY=5000;\n\n    /**@dev How much native token for 1 $VRK */\n    uint256 internal RATE=10**14 wei;\n\n\n    constructor() ERC721(\"ICO Token\", \"ICO\") {\n\n    }\n\n    struct Entry {\n        uint256 tokenId;\n        uint256 supply;\n    }\n    \n    mapping(uint256=>Entry) LISTA;\n\n\n    modifier checkCap(){\n        require(getTotal()<HARD_CAP,'Hard Cap achieved');\n        _;\n    }\n\n    //Only the owner can call this function to mint the NFT.\n    function ManualMinting(\n        uint256 supply,\n        address receiver\n        ) external onlyOwner checkCap returns(uint256){\n\n        //Increment the counter\n        _tokenIds.increment();\n\n        uint256 newItemId = _tokenIds.current();\n        _mint(receiver, newItemId);\n\n\n        Entry memory newCerti= Entry(\n        _tokenIds.current(),//token id of initial coin offering NFT\n        supply\n        );\n\n        LISTA[newItemId] = newCerti;\n\n        return newItemId;\n\n    }\n\n    function checkPrice(uint256 quantity)external view returns(uint256){\n        return RATE*quantity;\n    }\n\n    /**\n    @dev Any user can call this function and mint their own supply tickets \n     */\n    function publicMinting(uint256 quantity) \n    external payable checkCap returns (uint256){\n        \n        uint256 finalPrice=quantity*RATE;\n        require(msg.value>=finalPrice,'Need to reach the price per token');\n        \n        _tokenIds.increment();\n\n        uint256 newItemId = _tokenIds.current();\n        _mint(msg.sender, newItemId);\n\n        Entry memory newCerti= Entry(\n        newItemId,//token id of the ico exchange\n        quantity\n        );\n\n        LISTA[newItemId] = newCerti;\n\n        return newItemId;\n\n    }\n    /**\n    @dev\n    This function set the price in native token.\n     */\n    function setPrice(uint256 _newPrice)external onlyOwner{\n        PRICE=_newPrice;\n    }\n\n    function setSupply(uint256 _howMuch)public onlyOwner{\n        SUPPLY=_howMuch;\n    }\n\n    function setRate(uint256 _howMuch)public onlyOwner{\n        RATE=_howMuch;\n    }\n\n    function getRate()external view returns(uint256){\n        return RATE;\n    }\n\n\n////////////////////////---ERC-20 Functions--------/////////////////////////////////////////////////////////////\n    modifier LegalCoin(address _coin){\n        bool pass=false;\n        for (uint256 index = 0; index < acceptedCoins.length; index++) {\n            if(acceptedCoins[index]==_coin){\n                pass=true;\n                break;\n            }\n        }\n        require(pass,'not accepted coin');\n        _;\n    }\n\n\n    function addCoin(address coinAddress,uint256 price)external onlyOwner{\n        acceptedCoins.push(coinAddress);\n        COINS_PRICE[coinAddress]=price;\n    }    \n\n    function setPriceERC20(address coin,uint256 _newPrice)external onlyOwner{\n        require(_newPrice>0,'price has to be more than 0');\n        for (uint256 index = 0; index < acceptedCoins.length; index++) {\n            \n            if(acceptedCoins[index]==coin){\n                COINS_PRICE[coin]=_newPrice;\n                break;\n            }\n        }\n        \n    }\n\n    function PublicMintingERC20(address _token_address) \n        external LegalCoin(_token_address) checkCap  returns (uint256){\n        \n        uint256 _price=COINS_PRICE[_token_address];\n        require(_price>0);\n        bool successful=IERC20(_token_address).transferFrom(msg.sender, address(this), _price);\n        require(successful,'ERC20 transfer didnt work');\n        _tokenIds.increment();\n\n        uint256 newItemId = _tokenIds.current();\n        _mint(msg.sender, newItemId);\n\n        Entry memory newCerti= Entry(\n        newItemId,//token id of the ico exchange\n        SUPPLY\n        );\n\n        LISTA[newItemId] = newCerti;\n\n        return newItemId;\n\n    }\n\n\n    function get(uint256 _index)public view returns(Entry memory){\n          return LISTA[_index];\n    }\n  \n    /**\n    @dev\n    This function is called by the Vrakka Smart contract to ask how many tokens\n    will mint.\n     */\n    function checkSupply(uint256 tokenId)external view returns(uint256){\n        uint256 ticketSupply=LISTA[tokenId].supply;\n        return ticketSupply;\n    }\n\n\n    function getTotal()public view returns(uint256){\n        return(_tokenIds.current());\n    }\n\n    function burn(uint256 tokenId)public override{\n      address _owner=ownerOf(tokenId);\n      require(_owner==tx.origin,'only owner can burn share');\n      _burn(tokenId);\n    }    \n  \n}",
  "sourcePath": "/Users/aarontolentino/Documents/A-Work/Vrakka/contracts/ICO.sol",
  "compiler": {
    "name": "solc",
    "version": "0.8.3+commit.8d00100c.Emscripten.clang"
  },
  "schemaVersion": "3.4.1",
  "updatedAt": "2023-05-09T04:46:40.395Z",
  "networkType": "ethereum",
  "devdoc": {
    "kind": "dev",
    "methods": {
      "approve(address,uint256)": {
        "details": "See {IERC721-approve}."
      },
      "balanceOf(address)": {
        "details": "See {IERC721-balanceOf}."
      },
      "burn(uint256)": {
        "details": "Burns `tokenId`. See {ERC721-_burn}. Requirements: - The caller must own `tokenId` or be an approved operator."
      },
      "checkSupply(uint256)": {
        "details": "This function is called by the Vrakka Smart contract to ask how many tokens will mint."
      },
      "getApproved(uint256)": {
        "details": "See {IERC721-getApproved}."
      },
      "isApprovedForAll(address,address)": {
        "details": "See {IERC721-isApprovedForAll}."
      },
      "name()": {
        "details": "See {IERC721Metadata-name}."
      },
      "owner()": {
        "details": "Returns the address of the current owner."
      },
      "ownerOf(uint256)": {
        "details": "See {IERC721-ownerOf}."
      },
      "publicMinting(uint256)": {
        "details": "Any user can call this function and mint their own supply tickets "
      },
      "renounceOwnership()": {
        "details": "Leaves the contract without owner. It will not be possible to call `onlyOwner` functions anymore. Can only be called by the current owner. NOTE: Renouncing ownership will leave the contract without an owner, thereby removing any functionality that is only available to the owner."
      },
      "safeTransferFrom(address,address,uint256)": {
        "details": "See {IERC721-safeTransferFrom}."
      },
      "safeTransferFrom(address,address,uint256,bytes)": {
        "details": "See {IERC721-safeTransferFrom}."
      },
      "setApprovalForAll(address,bool)": {
        "details": "See {IERC721-setApprovalForAll}."
      },
      "setPrice(uint256)": {
        "details": "This function set the price in native token."
      },
      "supportsInterface(bytes4)": {
        "details": "See {IERC165-supportsInterface}."
      },
      "symbol()": {
        "details": "See {IERC721Metadata-symbol}."
      },
      "tokenURI(uint256)": {
        "details": "See {IERC721Metadata-tokenURI}."
      },
      "transferFrom(address,address,uint256)": {
        "details": "See {IERC721-transferFrom}."
      },
      "transferOwnership(address)": {
        "details": "Transfers ownership of the contract to a new account (`newOwner`). Can only be called by the current owner."
      }
    },
    "stateVariables": {
      "RATE": {
        "details": "How much native token for 1 $VRK "
      }
    },
    "version": 1
  },
  "userdoc": {
    "kind": "user",
    "methods": {},
    "version": 1
  }
}