{
  "contractName": "Referido",
  "abi": [
    {
      "inputs": [
        {
          "internalType": "contract VrakkaNFT",
          "name": "vrakkaNFT",
          "type": "address"
        }
      ],
      "stateMutability": "nonpayable",
      "type": "constructor"
    },
    {
      "anonymous": false,
      "inputs": [
        {
          "indexed": true,
          "internalType": "address",
          "name": "owner",
          "type": "address"
        },
        {
          "indexed": true,
          "internalType": "address",
          "name": "approved",
          "type": "address"
        },
        {
          "indexed": true,
          "internalType": "uint256",
          "name": "tokenId",
          "type": "uint256"
        }
      ],
      "name": "Approval",
      "type": "event"
    },
    {
      "anonymous": false,
      "inputs": [
        {
          "indexed": true,
          "internalType": "address",
          "name": "owner",
          "type": "address"
        },
        {
          "indexed": true,
          "internalType": "address",
          "name": "operator",
          "type": "address"
        },
        {
          "indexed": false,
          "internalType": "bool",
          "name": "approved",
          "type": "bool"
        }
      ],
      "name": "ApprovalForAll",
      "type": "event"
    },
    {
      "anonymous": false,
      "inputs": [
        {
          "indexed": true,
          "internalType": "address",
          "name": "previousOwner",
          "type": "address"
        },
        {
          "indexed": true,
          "internalType": "address",
          "name": "newOwner",
          "type": "address"
        }
      ],
      "name": "OwnershipTransferred",
      "type": "event"
    },
    {
      "anonymous": false,
      "inputs": [
        {
          "indexed": false,
          "internalType": "bool",
          "name": "exito",
          "type": "bool"
        }
      ],
      "name": "Referal1",
      "type": "event"
    },
    {
      "anonymous": false,
      "inputs": [
        {
          "indexed": true,
          "internalType": "address",
          "name": "from",
          "type": "address"
        },
        {
          "indexed": true,
          "internalType": "address",
          "name": "to",
          "type": "address"
        },
        {
          "indexed": true,
          "internalType": "uint256",
          "name": "tokenId",
          "type": "uint256"
        }
      ],
      "name": "Transfer",
      "type": "event"
    },
    {
      "inputs": [
        {
          "internalType": "address",
          "name": "to",
          "type": "address"
        },
        {
          "internalType": "uint256",
          "name": "tokenId",
          "type": "uint256"
        }
      ],
      "name": "approve",
      "outputs": [],
      "stateMutability": "nonpayable",
      "type": "function"
    },
    {
      "inputs": [
        {
          "internalType": "address",
          "name": "owner",
          "type": "address"
        }
      ],
      "name": "balanceOf",
      "outputs": [
        {
          "internalType": "uint256",
          "name": "",
          "type": "uint256"
        }
      ],
      "stateMutability": "view",
      "type": "function"
    },
    {
      "inputs": [
        {
          "internalType": "uint256",
          "name": "tokenId",
          "type": "uint256"
        }
      ],
      "name": "getApproved",
      "outputs": [
        {
          "internalType": "address",
          "name": "",
          "type": "address"
        }
      ],
      "stateMutability": "view",
      "type": "function"
    },
    {
      "inputs": [
        {
          "internalType": "address",
          "name": "owner",
          "type": "address"
        },
        {
          "internalType": "address",
          "name": "operator",
          "type": "address"
        }
      ],
      "name": "isApprovedForAll",
      "outputs": [
        {
          "internalType": "bool",
          "name": "",
          "type": "bool"
        }
      ],
      "stateMutability": "view",
      "type": "function"
    },
    {
      "inputs": [],
      "name": "name",
      "outputs": [
        {
          "internalType": "string",
          "name": "",
          "type": "string"
        }
      ],
      "stateMutability": "view",
      "type": "function"
    },
    {
      "inputs": [],
      "name": "owner",
      "outputs": [
        {
          "internalType": "address",
          "name": "",
          "type": "address"
        }
      ],
      "stateMutability": "view",
      "type": "function"
    },
    {
      "inputs": [
        {
          "internalType": "uint256",
          "name": "tokenId",
          "type": "uint256"
        }
      ],
      "name": "ownerOf",
      "outputs": [
        {
          "internalType": "address",
          "name": "",
          "type": "address"
        }
      ],
      "stateMutability": "view",
      "type": "function"
    },
    {
      "inputs": [],
      "name": "renounceOwnership",
      "outputs": [],
      "stateMutability": "nonpayable",
      "type": "function"
    },
    {
      "inputs": [
        {
          "internalType": "address",
          "name": "from",
          "type": "address"
        },
        {
          "internalType": "address",
          "name": "to",
          "type": "address"
        },
        {
          "internalType": "uint256",
          "name": "tokenId",
          "type": "uint256"
        }
      ],
      "name": "safeTransferFrom",
      "outputs": [],
      "stateMutability": "nonpayable",
      "type": "function"
    },
    {
      "inputs": [
        {
          "internalType": "address",
          "name": "from",
          "type": "address"
        },
        {
          "internalType": "address",
          "name": "to",
          "type": "address"
        },
        {
          "internalType": "uint256",
          "name": "tokenId",
          "type": "uint256"
        },
        {
          "internalType": "bytes",
          "name": "data",
          "type": "bytes"
        }
      ],
      "name": "safeTransferFrom",
      "outputs": [],
      "stateMutability": "nonpayable",
      "type": "function"
    },
    {
      "inputs": [
        {
          "internalType": "address",
          "name": "operator",
          "type": "address"
        },
        {
          "internalType": "bool",
          "name": "approved",
          "type": "bool"
        }
      ],
      "name": "setApprovalForAll",
      "outputs": [],
      "stateMutability": "nonpayable",
      "type": "function"
    },
    {
      "inputs": [
        {
          "internalType": "bytes4",
          "name": "interfaceId",
          "type": "bytes4"
        }
      ],
      "name": "supportsInterface",
      "outputs": [
        {
          "internalType": "bool",
          "name": "",
          "type": "bool"
        }
      ],
      "stateMutability": "view",
      "type": "function"
    },
    {
      "inputs": [],
      "name": "symbol",
      "outputs": [
        {
          "internalType": "string",
          "name": "",
          "type": "string"
        }
      ],
      "stateMutability": "view",
      "type": "function"
    },
    {
      "inputs": [
        {
          "internalType": "uint256",
          "name": "tokenId",
          "type": "uint256"
        }
      ],
      "name": "tokenURI",
      "outputs": [
        {
          "internalType": "string",
          "name": "",
          "type": "string"
        }
      ],
      "stateMutability": "view",
      "type": "function"
    },
    {
      "inputs": [
        {
          "internalType": "address",
          "name": "from",
          "type": "address"
        },
        {
          "internalType": "address",
          "name": "to",
          "type": "address"
        },
        {
          "internalType": "uint256",
          "name": "tokenId",
          "type": "uint256"
        }
      ],
      "name": "transferFrom",
      "outputs": [],
      "stateMutability": "nonpayable",
      "type": "function"
    },
    {
      "inputs": [
        {
          "internalType": "address",
          "name": "newOwner",
          "type": "address"
        }
      ],
      "name": "transferOwnership",
      "outputs": [],
      "stateMutability": "nonpayable",
      "type": "function"
    },
    {
      "inputs": [
        {
          "internalType": "uint256",
          "name": "_newPrice",
          "type": "uint256"
        }
      ],
      "name": "setPrice",
      "outputs": [],
      "stateMutability": "nonpayable",
      "type": "function"
    },
    {
      "inputs": [
        {
          "internalType": "address",
          "name": "_newLider",
          "type": "address"
        }
      ],
      "name": "createLeader",
      "outputs": [],
      "stateMutability": "nonpayable",
      "type": "function"
    },
    {
      "inputs": [
        {
          "internalType": "address",
          "name": "_ID",
          "type": "address"
        }
      ],
      "name": "payment",
      "outputs": [],
      "stateMutability": "payable",
      "type": "function"
    },
    {
      "inputs": [],
      "name": "getPrice",
      "outputs": [
        {
          "internalType": "uint256",
          "name": "",
          "type": "uint256"
        }
      ],
      "stateMutability": "view",
      "type": "function"
    },
    {
      "inputs": [
        {
          "internalType": "address",
          "name": "_member",
          "type": "address"
        }
      ],
      "name": "getIsMember",
      "outputs": [
        {
          "internalType": "bool",
          "name": "",
          "type": "bool"
        }
      ],
      "stateMutability": "view",
      "type": "function"
    },
    {
      "inputs": [],
      "name": "Mint",
      "outputs": [],
      "stateMutability": "nonpayable",
      "type": "function"
    },
    {
      "inputs": [],
      "name": "withdrawAdmin",
      "outputs": [],
      "stateMutability": "nonpayable",
      "type": "function"
    },
    {
      "inputs": [],
      "name": "withdrawLeader",
      "outputs": [],
      "stateMutability": "nonpayable",
      "type": "function"
    }
  ],
  "bytecode": "0x6080604052620d2f0060115560006012556103e860135562031380601455663b3fcef31032896015553480156200003557600080fd5b5060405162003f5e38038062003f5e83398181016040528101906200005b9190620002f8565b6040518060400160405280600781526020017f5265666572616c000000000000000000000000000000000000000000000000008152506040518060400160405280600381526020017f52454600000000000000000000000000000000000000000000000000000000008152508160009080519060200190620000df92919062000231565b508060019080519060200190620000f892919062000231565b5050506200011b6200010f6200016360201b60201c565b6200016b60201b60201c565b80601660006101000a81548173ffffffffffffffffffffffffffffffffffffffff021916908373ffffffffffffffffffffffffffffffffffffffff16021790555050620003eb565b600033905090565b6000600660009054906101000a900473ffffffffffffffffffffffffffffffffffffffff16905081600660006101000a81548173ffffffffffffffffffffffffffffffffffffffff021916908373ffffffffffffffffffffffffffffffffffffffff1602179055508173ffffffffffffffffffffffffffffffffffffffff168173ffffffffffffffffffffffffffffffffffffffff167f8be0079c531659141344cd1fd0a4f28419497f9722a3daafe3b4186f6b6457e060405160405180910390a35050565b8280546200023f906200036c565b90600052602060002090601f016020900481019282620002635760008555620002af565b82601f106200027e57805160ff1916838001178555620002af565b82800160010185558215620002af579182015b82811115620002ae57825182559160200191906001019062000291565b5b509050620002be9190620002c2565b5090565b5b80821115620002dd576000816000905550600101620002c3565b5090565b600081519050620002f281620003d1565b92915050565b6000602082840312156200030b57600080fd5b60006200031b84828501620002e1565b91505092915050565b600062000331826200034c565b9050919050565b6000620003458262000324565b9050919050565b600073ffffffffffffffffffffffffffffffffffffffff82169050919050565b600060028204905060018216806200038557607f821691505b602082108114156200039c576200039b620003a2565b5b50919050565b7f4e487b7100000000000000000000000000000000000000000000000000000000600052602260045260246000fd5b620003dc8162000338565b8114620003e857600080fd5b50565b613b6380620003fb6000396000f3fe60806040526004361061014b5760003560e01c8063715018a6116100b6578063a22cb4651161006f578063a22cb4651461045b578063b88d4fde14610484578063c87b56dd146104ad578063da95a1ad146104ea578063e985e9c514610501578063f2fde38b1461053e5761014b565b8063715018a6146103715780638da5cb5b146103885780638dbe23b1146103b357806391b7f5ed146103dc57806395d89b411461040557806398d5fdca146104305761014b565b806323b872dd1161010857806323b872dd1461027257806334c738841461029b5780633b92f3df146102b257806342842e0e146102ce5780636352211e146102f757806370a08231146103345761014b565b806301ffc9a71461015057806304c76af01461018d57806306fdde03146101a4578063081812fc146101cf578063095ea7b31461020c5780631951c03714610235575b600080fd5b34801561015c57600080fd5b5061017760048036038101906101729190612a2e565b610567565b6040516101849190612f67565b60405180910390f35b34801561019957600080fd5b506101a2610649565b005b3480156101b057600080fd5b506101b961075e565b6040516101c69190612f82565b60405180910390f35b3480156101db57600080fd5b506101f660048036038101906101f19190612a80565b6107f0565b6040516102039190612ec9565b60405180910390f35b34801561021857600080fd5b50610233600480360381019061022e91906129f2565b610836565b005b34801561024157600080fd5b5061025c60048036038101906102579190612887565b61094e565b6040516102699190612f67565b60405180910390f35b34801561027e57600080fd5b50610299600480360381019061029491906128ec565b6109a4565b005b3480156102a757600080fd5b506102b0610a04565b005b6102cc60048036038101906102c79190612887565b610a1f565b005b3480156102da57600080fd5b506102f560048036038101906102f091906128ec565b611101565b005b34801561030357600080fd5b5061031e60048036038101906103199190612a80565b611121565b60405161032b9190612ec9565b60405180910390f35b34801561034057600080fd5b5061035b60048036038101906103569190612887565b6111d3565b6040516103689190613224565b60405180910390f35b34801561037d57600080fd5b5061038661128b565b005b34801561039457600080fd5b5061039d61129f565b6040516103aa9190612ec9565b60405180910390f35b3480156103bf57600080fd5b506103da60048036038101906103d59190612887565b6112c9565b005b3480156103e857600080fd5b5061040360048036038101906103fe9190612a80565b61139d565b005b34801561041157600080fd5b5061041a6113af565b6040516104279190612f82565b60405180910390f35b34801561043c57600080fd5b50610445611441565b6040516104529190613224565b60405180910390f35b34801561046757600080fd5b50610482600480360381019061047d91906129b6565b61144b565b005b34801561049057600080fd5b506104ab60048036038101906104a6919061293b565b611461565b005b3480156104b957600080fd5b506104d460048036038101906104cf9190612a80565b6114c3565b6040516104e19190612f82565b60405180910390f35b3480156104f657600080fd5b506104ff61152b565b005b34801561050d57600080fd5b50610528600480360381019061052391906128b0565b61192e565b6040516105359190612f67565b60405180910390f35b34801561054a57600080fd5b5061056560048036038101906105609190612887565b6119c2565b005b60007f80ac58cd000000000000000000000000000000000000000000000000000000007bffffffffffffffffffffffffffffffffffffffffffffffffffffffff1916827bffffffffffffffffffffffffffffffffffffffffffffffffffffffff1916148061063257507f5b5e139f000000000000000000000000000000000000000000000000000000007bffffffffffffffffffffffffffffffffffffffffffffffffffffffff1916827bffffffffffffffffffffffffffffffffffffffffffffffffffffffff1916145b80610642575061064182611a46565b5b9050919050565b610651611ab0565b6012544311610695576040517f08c379a000000000000000000000000000000000000000000000000000000000815260040161068c90613044565b60405180910390fd5b600047905060003373ffffffffffffffffffffffffffffffffffffffff16826040516106c090612eb4565b60006040518083038185875af1925050503d80600081146106fd576040519150601f19603f3d011682016040523d82523d6000602084013e610702565b606091505b5050905080610746576040517f08c379a000000000000000000000000000000000000000000000000000000000815260040161073d906131e4565b60405180910390fd5b6011544361075491906132e3565b6012819055505050565b60606000805461076d906134c0565b80601f0160208091040260200160405190810160405280929190818152602001828054610799906134c0565b80156107e65780601f106107bb576101008083540402835291602001916107e6565b820191906000526020600020905b8154815290600101906020018083116107c957829003601f168201915b5050505050905090565b60006107fb82611b2e565b6004600083815260200190815260200160002060009054906101000a900473ffffffffffffffffffffffffffffffffffffffff169050919050565b600061084182611121565b90508073ffffffffffffffffffffffffffffffffffffffff168373ffffffffffffffffffffffffffffffffffffffff1614156108b2576040517f08c379a00000000000000000000000000000000000000000000000000000000081526004016108a9906131a4565b60405180910390fd5b8073ffffffffffffffffffffffffffffffffffffffff166108d1611b79565b73ffffffffffffffffffffffffffffffffffffffff16148061090057506108ff816108fa611b79565b61192e565b5b61093f576040517f08c379a0000000000000000000000000000000000000000000000000000000008152600401610936906130e4565b60405180910390fd5b6109498383611b81565b505050565b6000600960008373ffffffffffffffffffffffffffffffffffffffff1673ffffffffffffffffffffffffffffffffffffffff16815260200190815260200160002060009054906101000a900460ff169050919050565b6109b56109af611b79565b82611c3a565b6109f4576040517f08c379a00000000000000000000000000000000000000000000000000000000081526004016109eb906131c4565b60405180910390fd5b6109ff838383611ccf565b505050565b6000610a106007611f36565b9050610a1c3382611f44565b50565b601554341015610a64576040517f08c379a0000000000000000000000000000000000000000000000000000000008152600401610a5b90613144565b60405180910390fd5b600960008273ffffffffffffffffffffffffffffffffffffffff1673ffffffffffffffffffffffffffffffffffffffff16815260200190815260200160002060009054906101000a900460ff16610af0576040517f08c379a0000000000000000000000000000000000000000000000000000000008152600401610ae790613204565b60405180910390fd5b6000349050600860008373ffffffffffffffffffffffffffffffffffffffff1673ffffffffffffffffffffffffffffffffffffffff16815260200190815260200160002060009054906101000a900460ff1615610d7257600a606482610b569190613339565b610b60919061336a565b600b60008473ffffffffffffffffffffffffffffffffffffffff1673ffffffffffffffffffffffffffffffffffffffff16815260200190815260200160002054610baa91906132e3565b600b60008473ffffffffffffffffffffffffffffffffffffffff1673ffffffffffffffffffffffffffffffffffffffff16815260200190815260200160002081905550601e606482610bfc9190613339565b610c06919061336a565b600c60008473ffffffffffffffffffffffffffffffffffffffff1673ffffffffffffffffffffffffffffffffffffffff16815260200190815260200160002054610c5091906132e3565b600c60008473ffffffffffffffffffffffffffffffffffffffff1673ffffffffffffffffffffffffffffffffffffffff168152602001908152602001600020819055506001600d60008473ffffffffffffffffffffffffffffffffffffffff1673ffffffffffffffffffffffffffffffffffffffff1681526020019081526020016000206000828254610ce391906132e3565b92505081905550603c606482610cf99190613339565b610d03919061336a565b600e54610d1091906132e3565b600e819055506001600b60008473ffffffffffffffffffffffffffffffffffffffff1673ffffffffffffffffffffffffffffffffffffffff1681526020019081526020016000206000828254610d6691906132e3565b92505081905550610eda565b6058606482610d819190613339565b610d8b919061336a565b600e54610d9891906132e3565b600e819055506002606482610dad9190613339565b610db7919061336a565b600a6000601060008673ffffffffffffffffffffffffffffffffffffffff1673ffffffffffffffffffffffffffffffffffffffff16815260200190815260200160002060009054906101000a900473ffffffffffffffffffffffffffffffffffffffff1673ffffffffffffffffffffffffffffffffffffffff1673ffffffffffffffffffffffffffffffffffffffff1681526020019081526020016000206000828254610e6491906132e3565b92505081905550600a606482610e7a9190613339565b610e84919061336a565b600a60008473ffffffffffffffffffffffffffffffffffffffff1673ffffffffffffffffffffffffffffffffffffffff1681526020019081526020016000206000828254610ed291906132e3565b925050819055505b601660009054906101000a900473ffffffffffffffffffffffffffffffffffffffff1673ffffffffffffffffffffffffffffffffffffffff16634f55d83933670de0b6b3a764000060006040518463ffffffff1660e01b8152600401610f4293929190612f30565b602060405180830381600087803b158015610f5c57600080fd5b505af1158015610f70573d6000803e3d6000fd5b505050506040513d601f19601f82011682018060405250810190610f949190612aa9565b50600960003373ffffffffffffffffffffffffffffffffffffffff1673ffffffffffffffffffffffffffffffffffffffff16815260200190815260200160002060009054906101000a900460ff166110c5576001600960003373ffffffffffffffffffffffffffffffffffffffff1673ffffffffffffffffffffffffffffffffffffffff16815260200190815260200160002060006101000a81548160ff02191690831515021790555081601060003373ffffffffffffffffffffffffffffffffffffffff1673ffffffffffffffffffffffffffffffffffffffff16815260200190815260200160002060006101000a81548173ffffffffffffffffffffffffffffffffffffffff021916908373ffffffffffffffffffffffffffffffffffffffff1602179055506110c4610a04565b5b7f2f0736fe3dc24b542a67d517a14fdfdb3cedf216a549afd9dea8ecdb42b7364160016040516110f59190612f67565b60405180910390a15050565b61111c83838360405180602001604052806000815250611461565b505050565b6000806002600084815260200190815260200160002060009054906101000a900473ffffffffffffffffffffffffffffffffffffffff169050600073ffffffffffffffffffffffffffffffffffffffff168173ffffffffffffffffffffffffffffffffffffffff1614156111ca576040517f08c379a00000000000000000000000000000000000000000000000000000000081526004016111c190613184565b60405180910390fd5b80915050919050565b60008073ffffffffffffffffffffffffffffffffffffffff168273ffffffffffffffffffffffffffffffffffffffff161415611244576040517f08c379a000000000000000000000000000000000000000000000000000000000815260040161123b906130c4565b60405180910390fd5b600360008373ffffffffffffffffffffffffffffffffffffffff1673ffffffffffffffffffffffffffffffffffffffff168152602001908152602001600020549050919050565b611293611ab0565b61129d600061211e565b565b6000600660009054906101000a900473ffffffffffffffffffffffffffffffffffffffff16905090565b6112d1611ab0565b6001600860008373ffffffffffffffffffffffffffffffffffffffff1673ffffffffffffffffffffffffffffffffffffffff16815260200190815260200160002060006101000a81548160ff0219169083151502179055506001600960008373ffffffffffffffffffffffffffffffffffffffff1673ffffffffffffffffffffffffffffffffffffffff16815260200190815260200160002060006101000a81548160ff021916908315150217905550600061138d6007611f36565b90506113998282611f44565b5050565b6113a5611ab0565b8060158190555050565b6060600180546113be906134c0565b80601f01602080910402602001604051908101604052809291908181526020018280546113ea906134c0565b80156114375780601f1061140c57610100808354040283529160200191611437565b820191906000526020600020905b81548152906001019060200180831161141a57829003601f168201915b5050505050905090565b6000601554905090565b61145d611456611b79565b83836121e4565b5050565b61147261146c611b79565b83611c3a565b6114b1576040517f08c379a00000000000000000000000000000000000000000000000000000000081526004016114a8906131c4565b60405180910390fd5b6114bd84848484612351565b50505050565b60606114ce82611b2e565b60006114d86123ad565b905060008151116114f85760405180602001604052806000815250611523565b80611502846123c4565b604051602001611513929190612e90565b6040516020818303038152906040525b915050919050565b600860003373ffffffffffffffffffffffffffffffffffffffff1673ffffffffffffffffffffffffffffffffffffffff16815260200190815260200160002060009054906101000a900460ff166115b7576040517f08c379a00000000000000000000000000000000000000000000000000000000081526004016115ae906130a4565b60405180910390fd5b6000600b60003373ffffffffffffffffffffffffffffffffffffffff1673ffffffffffffffffffffffffffffffffffffffff1681526020019081526020016000205411611639576040517f08c379a000000000000000000000000000000000000000000000000000000000815260040161163090612fa4565b60405180910390fd5b601254431161167d576040517f08c379a000000000000000000000000000000000000000000000000000000000815260040161167490613044565b60405180910390fd5b6000600b60003373ffffffffffffffffffffffffffffffffffffffff1673ffffffffffffffffffffffffffffffffffffffff1681526020019081526020016000205490506063600d60003373ffffffffffffffffffffffffffffffffffffffff1673ffffffffffffffffffffffffffffffffffffffff16815260200190815260200160002054111561175b57600c60003373ffffffffffffffffffffffffffffffffffffffff1673ffffffffffffffffffffffffffffffffffffffff168152602001908152602001600020548161175491906132e3565b90506117af565b600c60003373ffffffffffffffffffffffffffffffffffffffff1673ffffffffffffffffffffffffffffffffffffffff16815260200190815260200160002054600e546117a891906132e3565b600e819055505b60003373ffffffffffffffffffffffffffffffffffffffff16826040516117d590612eb4565b60006040518083038185875af1925050503d8060008114611812576040519150601f19603f3d011682016040523d82523d6000602084013e611817565b606091505b505090508061185b576040517f08c379a000000000000000000000000000000000000000000000000000000000815260040161185290613124565b60405180910390fd5b6000600d60003373ffffffffffffffffffffffffffffffffffffffff1673ffffffffffffffffffffffffffffffffffffffff168152602001908152602001600020819055506000600b60003373ffffffffffffffffffffffffffffffffffffffff1673ffffffffffffffffffffffffffffffffffffffff168152602001908152602001600020819055506000600c60003373ffffffffffffffffffffffffffffffffffffffff1673ffffffffffffffffffffffffffffffffffffffff168152602001908152602001600020819055505050565b6000600560008473ffffffffffffffffffffffffffffffffffffffff1673ffffffffffffffffffffffffffffffffffffffff16815260200190815260200160002060008373ffffffffffffffffffffffffffffffffffffffff1673ffffffffffffffffffffffffffffffffffffffff16815260200190815260200160002060009054906101000a900460ff16905092915050565b6119ca611ab0565b600073ffffffffffffffffffffffffffffffffffffffff168173ffffffffffffffffffffffffffffffffffffffff161415611a3a576040517f08c379a0000000000000000000000000000000000000000000000000000000008152600401611a3190612fe4565b60405180910390fd5b611a438161211e565b50565b60007f01ffc9a7000000000000000000000000000000000000000000000000000000007bffffffffffffffffffffffffffffffffffffffffffffffffffffffff1916827bffffffffffffffffffffffffffffffffffffffffffffffffffffffff1916149050919050565b611ab8611b79565b73ffffffffffffffffffffffffffffffffffffffff16611ad661129f565b73ffffffffffffffffffffffffffffffffffffffff1614611b2c576040517f08c379a0000000000000000000000000000000000000000000000000000000008152600401611b2390613164565b60405180910390fd5b565b611b3781612571565b611b76576040517f08c379a0000000000000000000000000000000000000000000000000000000008152600401611b6d90613184565b60405180910390fd5b50565b600033905090565b816004600083815260200190815260200160002060006101000a81548173ffffffffffffffffffffffffffffffffffffffff021916908373ffffffffffffffffffffffffffffffffffffffff160217905550808273ffffffffffffffffffffffffffffffffffffffff16611bf483611121565b73ffffffffffffffffffffffffffffffffffffffff167f8c5be1e5ebec7d5bd14f71427d1e84f3dd0314c0f7b2291e5b200ac8c7c3b92560405160405180910390a45050565b600080611c4683611121565b90508073ffffffffffffffffffffffffffffffffffffffff168473ffffffffffffffffffffffffffffffffffffffff161480611c885750611c87818561192e565b5b80611cc657508373ffffffffffffffffffffffffffffffffffffffff16611cae846107f0565b73ffffffffffffffffffffffffffffffffffffffff16145b91505092915050565b8273ffffffffffffffffffffffffffffffffffffffff16611cef82611121565b73ffffffffffffffffffffffffffffffffffffffff1614611d45576040517f08c379a0000000000000000000000000000000000000000000000000000000008152600401611d3c90613004565b60405180910390fd5b600073ffffffffffffffffffffffffffffffffffffffff168273ffffffffffffffffffffffffffffffffffffffff161415611db5576040517f08c379a0000000000000000000000000000000000000000000000000000000008152600401611dac90613064565b60405180910390fd5b611dc08383836125dd565b611dcb600082611b81565b6001600360008573ffffffffffffffffffffffffffffffffffffffff1673ffffffffffffffffffffffffffffffffffffffff1681526020019081526020016000206000828254611e1b91906133c4565b925050819055506001600360008473ffffffffffffffffffffffffffffffffffffffff1673ffffffffffffffffffffffffffffffffffffffff1681526020019081526020016000206000828254611e7291906132e3565b92505081905550816002600083815260200190815260200160002060006101000a81548173ffffffffffffffffffffffffffffffffffffffff021916908373ffffffffffffffffffffffffffffffffffffffff160217905550808273ffffffffffffffffffffffffffffffffffffffff168473ffffffffffffffffffffffffffffffffffffffff167fddf252ad1be2c89b69c2b068fc378daa952ba7f163c4a11628f55a4df523b3ef60405160405180910390a4611f318383836125e2565b505050565b600081600001549050919050565b600073ffffffffffffffffffffffffffffffffffffffff168273ffffffffffffffffffffffffffffffffffffffff161415611fb4576040517f08c379a0000000000000000000000000000000000000000000000000000000008152600401611fab90613104565b60405180910390fd5b611fbd81612571565b15611ffd576040517f08c379a0000000000000000000000000000000000000000000000000000000008152600401611ff490613024565b60405180910390fd5b612009600083836125dd565b6001600360008473ffffffffffffffffffffffffffffffffffffffff1673ffffffffffffffffffffffffffffffffffffffff168152602001908152602001600020600082825461205991906132e3565b92505081905550816002600083815260200190815260200160002060006101000a81548173ffffffffffffffffffffffffffffffffffffffff021916908373ffffffffffffffffffffffffffffffffffffffff160217905550808273ffffffffffffffffffffffffffffffffffffffff16600073ffffffffffffffffffffffffffffffffffffffff167fddf252ad1be2c89b69c2b068fc378daa952ba7f163c4a11628f55a4df523b3ef60405160405180910390a461211a600083836125e2565b5050565b6000600660009054906101000a900473ffffffffffffffffffffffffffffffffffffffff16905081600660006101000a81548173ffffffffffffffffffffffffffffffffffffffff021916908373ffffffffffffffffffffffffffffffffffffffff1602179055508173ffffffffffffffffffffffffffffffffffffffff168173ffffffffffffffffffffffffffffffffffffffff167f8be0079c531659141344cd1fd0a4f28419497f9722a3daafe3b4186f6b6457e060405160405180910390a35050565b8173ffffffffffffffffffffffffffffffffffffffff168373ffffffffffffffffffffffffffffffffffffffff161415612253576040517f08c379a000000000000000000000000000000000000000000000000000000000815260040161224a90613084565b60405180910390fd5b80600560008573ffffffffffffffffffffffffffffffffffffffff1673ffffffffffffffffffffffffffffffffffffffff16815260200190815260200160002060008473ffffffffffffffffffffffffffffffffffffffff1673ffffffffffffffffffffffffffffffffffffffff16815260200190815260200160002060006101000a81548160ff0219169083151502179055508173ffffffffffffffffffffffffffffffffffffffff168373ffffffffffffffffffffffffffffffffffffffff167f17307eab39ab6107e8899845ad3d59bd9653f200f220920489ca2b5937696c31836040516123449190612f67565b60405180910390a3505050565b61235c848484611ccf565b612368848484846125e7565b6123a7576040517f08c379a000000000000000000000000000000000000000000000000000000000815260040161239e90612fc4565b60405180910390fd5b50505050565b606060405180602001604052806000815250905090565b6060600082141561240c576040518060400160405280600181526020017f3000000000000000000000000000000000000000000000000000000000000000815250905061256c565b600082905060005b6000821461243e57808061242790613523565b915050600a826124379190613339565b9150612414565b60008167ffffffffffffffff811115612480577f4e487b7100000000000000000000000000000000000000000000000000000000600052604160045260246000fd5b6040519080825280601f01601f1916602001820160405280156124b25781602001600182028036833780820191505090505b5090505b60008514612565576001826124cb91906133c4565b9150600a856124da919061356c565b60306124e691906132e3565b60f81b818381518110612522577f4e487b7100000000000000000000000000000000000000000000000000000000600052603260045260246000fd5b60200101907effffffffffffffffffffffffffffffffffffffffffffffffffffffffffffff1916908160001a905350600a8561255e9190613339565b94506124b6565b8093505050505b919050565b60008073ffffffffffffffffffffffffffffffffffffffff166002600084815260200190815260200160002060009054906101000a900473ffffffffffffffffffffffffffffffffffffffff1673ffffffffffffffffffffffffffffffffffffffff1614159050919050565b505050565b505050565b60006126088473ffffffffffffffffffffffffffffffffffffffff1661277e565b15612771578373ffffffffffffffffffffffffffffffffffffffff1663150b7a02612631611b79565b8786866040518563ffffffff1660e01b81526004016126539493929190612ee4565b602060405180830381600087803b15801561266d57600080fd5b505af192505050801561269e57506040513d601f19601f8201168201806040525081019061269b9190612a57565b60015b612721573d80600081146126ce576040519150601f19603f3d011682016040523d82523d6000602084013e6126d3565b606091505b50600081511415612719576040517f08c379a000000000000000000000000000000000000000000000000000000000815260040161271090612fc4565b60405180910390fd5b805181602001fd5b63150b7a0260e01b7bffffffffffffffffffffffffffffffffffffffffffffffffffffffff1916817bffffffffffffffffffffffffffffffffffffffffffffffffffffffff191614915050612776565b600190505b949350505050565b6000808273ffffffffffffffffffffffffffffffffffffffff163b119050919050565b60006127b46127af84613264565b61323f565b9050828152602081018484840111156127cc57600080fd5b6127d784828561347e565b509392505050565b6000813590506127ee81613ad1565b92915050565b60008135905061280381613ae8565b92915050565b60008135905061281881613aff565b92915050565b60008151905061282d81613aff565b92915050565b600082601f83011261284457600080fd5b81356128548482602086016127a1565b91505092915050565b60008135905061286c81613b16565b92915050565b60008151905061288181613b16565b92915050565b60006020828403121561289957600080fd5b60006128a7848285016127df565b91505092915050565b600080604083850312156128c357600080fd5b60006128d1858286016127df565b92505060206128e2858286016127df565b9150509250929050565b60008060006060848603121561290157600080fd5b600061290f868287016127df565b9350506020612920868287016127df565b92505060406129318682870161285d565b9150509250925092565b6000806000806080858703121561295157600080fd5b600061295f878288016127df565b9450506020612970878288016127df565b93505060406129818782880161285d565b925050606085013567ffffffffffffffff81111561299e57600080fd5b6129aa87828801612833565b91505092959194509250565b600080604083850312156129c957600080fd5b60006129d7858286016127df565b92505060206129e8858286016127f4565b9150509250929050565b60008060408385031215612a0557600080fd5b6000612a13858286016127df565b9250506020612a248582860161285d565b9150509250929050565b600060208284031215612a4057600080fd5b6000612a4e84828501612809565b91505092915050565b600060208284031215612a6957600080fd5b6000612a778482850161281e565b91505092915050565b600060208284031215612a9257600080fd5b6000612aa08482850161285d565b91505092915050565b600060208284031215612abb57600080fd5b6000612ac984828501612872565b91505092915050565b612adb816133f8565b82525050565b612aea8161340a565b82525050565b6000612afb82613295565b612b0581856132ab565b9350612b1581856020860161348d565b612b1e81613659565b840191505092915050565b612b328161346c565b82525050565b6000612b43826132a0565b612b4d81856132c7565b9350612b5d81856020860161348d565b612b6681613659565b840191505092915050565b6000612b7c826132a0565b612b8681856132d8565b9350612b9681856020860161348d565b80840191505092915050565b6000612baf601a836132c7565b9150612bba8261366a565b602082019050919050565b6000612bd26032836132c7565b9150612bdd82613693565b604082019050919050565b6000612bf56026836132c7565b9150612c00826136e2565b604082019050919050565b6000612c186025836132c7565b9150612c2382613731565b604082019050919050565b6000612c3b601c836132c7565b9150612c4682613780565b602082019050919050565b6000612c5e6010836132c7565b9150612c69826137a9565b602082019050919050565b6000612c816024836132c7565b9150612c8c826137d2565b604082019050919050565b6000612ca46019836132c7565b9150612caf82613821565b602082019050919050565b6000612cc76012836132c7565b9150612cd28261384a565b602082019050919050565b6000612cea6029836132c7565b9150612cf582613873565b604082019050919050565b6000612d0d603e836132c7565b9150612d18826138c2565b604082019050919050565b6000612d306020836132c7565b9150612d3b82613911565b602082019050919050565b6000612d536014836132c7565b9150612d5e8261393a565b602082019050919050565b6000612d766015836132c7565b9150612d8182613963565b602082019050919050565b6000612d996020836132c7565b9150612da48261398c565b602082019050919050565b6000612dbc6018836132c7565b9150612dc7826139b5565b602082019050919050565b6000612ddf6021836132c7565b9150612dea826139de565b604082019050919050565b6000612e026000836132bc565b9150612e0d82613a2d565b600082019050919050565b6000612e25602e836132c7565b9150612e3082613a30565b604082019050919050565b6000612e486010836132c7565b9150612e5382613a7f565b602082019050919050565b6000612e6b6018836132c7565b9150612e7682613aa8565b602082019050919050565b612e8a81613462565b82525050565b6000612e9c8285612b71565b9150612ea88284612b71565b91508190509392505050565b6000612ebf82612df5565b9150819050919050565b6000602082019050612ede6000830184612ad2565b92915050565b6000608082019050612ef96000830187612ad2565b612f066020830186612ad2565b612f136040830185612e81565b8181036060830152612f258184612af0565b905095945050505050565b6000606082019050612f456000830186612ad2565b612f526020830185612b29565b612f5f6040830184612ae1565b949350505050565b6000602082019050612f7c6000830184612ae1565b92915050565b60006020820190508181036000830152612f9c8184612b38565b905092915050565b60006020820190508181036000830152612fbd81612ba2565b9050919050565b60006020820190508181036000830152612fdd81612bc5565b9050919050565b60006020820190508181036000830152612ffd81612be8565b9050919050565b6000602082019050818103600083015261301d81612c0b565b9050919050565b6000602082019050818103600083015261303d81612c2e565b9050919050565b6000602082019050818103600083015261305d81612c51565b9050919050565b6000602082019050818103600083015261307d81612c74565b9050919050565b6000602082019050818103600083015261309d81612c97565b9050919050565b600060208201905081810360008301526130bd81612cba565b9050919050565b600060208201905081810360008301526130dd81612cdd565b9050919050565b600060208201905081810360008301526130fd81612d00565b9050919050565b6000602082019050818103600083015261311d81612d23565b9050919050565b6000602082019050818103600083015261313d81612d46565b9050919050565b6000602082019050818103600083015261315d81612d69565b9050919050565b6000602082019050818103600083015261317d81612d8c565b9050919050565b6000602082019050818103600083015261319d81612daf565b9050919050565b600060208201905081810360008301526131bd81612dd2565b9050919050565b600060208201905081810360008301526131dd81612e18565b9050919050565b600060208201905081810360008301526131fd81612e3b565b9050919050565b6000602082019050818103600083015261321d81612e5e565b9050919050565b60006020820190506132396000830184612e81565b92915050565b600061324961325a565b905061325582826134f2565b919050565b6000604051905090565b600067ffffffffffffffff82111561327f5761327e61362a565b5b61328882613659565b9050602081019050919050565b600081519050919050565b600081519050919050565b600082825260208201905092915050565b600081905092915050565b600082825260208201905092915050565b600081905092915050565b60006132ee82613462565b91506132f983613462565b9250827fffffffffffffffffffffffffffffffffffffffffffffffffffffffffffffffff0382111561332e5761332d61359d565b5b828201905092915050565b600061334482613462565b915061334f83613462565b92508261335f5761335e6135cc565b5b828204905092915050565b600061337582613462565b915061338083613462565b9250817fffffffffffffffffffffffffffffffffffffffffffffffffffffffffffffffff04831182151516156133b9576133b861359d565b5b828202905092915050565b60006133cf82613462565b91506133da83613462565b9250828210156133ed576133ec61359d565b5b828203905092915050565b600061340382613442565b9050919050565b60008115159050919050565b60007fffffffff0000000000000000000000000000000000000000000000000000000082169050919050565b600073ffffffffffffffffffffffffffffffffffffffff82169050919050565b6000819050919050565b600061347782613462565b9050919050565b82818337600083830152505050565b60005b838110156134ab578082015181840152602081019050613490565b838111156134ba576000848401525b50505050565b600060028204905060018216806134d857607f821691505b602082108114156134ec576134eb6135fb565b5b50919050565b6134fb82613659565b810181811067ffffffffffffffff8211171561351a5761351961362a565b5b80604052505050565b600061352e82613462565b91507fffffffffffffffffffffffffffffffffffffffffffffffffffffffffffffffff8214156135615761356061359d565b5b600182019050919050565b600061357782613462565b915061358283613462565b925082613592576135916135cc565b5b828206905092915050565b7f4e487b7100000000000000000000000000000000000000000000000000000000600052601160045260246000fd5b7f4e487b7100000000000000000000000000000000000000000000000000000000600052601260045260246000fd5b7f4e487b7100000000000000000000000000000000000000000000000000000000600052602260045260246000fd5b7f4e487b7100000000000000000000000000000000000000000000000000000000600052604160045260246000fd5b6000601f19601f8301169050919050565b7f6c65616465722062616c616e63652063616e6e6f742062652030000000000000600082015250565b7f4552433732313a207472616e7366657220746f206e6f6e20455243373231526560008201527f63656976657220696d706c656d656e7465720000000000000000000000000000602082015250565b7f4f776e61626c653a206e6577206f776e657220697320746865207a65726f206160008201527f6464726573730000000000000000000000000000000000000000000000000000602082015250565b7f4552433732313a207472616e736665722066726f6d20696e636f72726563742060008201527f6f776e6572000000000000000000000000000000000000000000000000000000602082015250565b7f4552433732313a20746f6b656e20616c7265616479206d696e74656400000000600082015250565b7f4e6f74207468652074696d652079657400000000000000000000000000000000600082015250565b7f4552433732313a207472616e7366657220746f20746865207a65726f2061646460008201527f7265737300000000000000000000000000000000000000000000000000000000602082015250565b7f4552433732313a20617070726f766520746f2063616c6c657200000000000000600082015250565b7f68617320746f2062652061206c65616465720000000000000000000000000000600082015250565b7f4552433732313a2061646472657373207a65726f206973206e6f74206120766160008201527f6c6964206f776e65720000000000000000000000000000000000000000000000602082015250565b7f4552433732313a20617070726f76652063616c6c6572206973206e6f7420746f60008201527f6b656e206f776e6572206e6f7220617070726f76656420666f7220616c6c0000602082015250565b7f4552433732313a206d696e7420746f20746865207a65726f2061646472657373600082015250565b7f4661696c20696e20746865207769746864726177000000000000000000000000600082015250565b7f6e6f742074686520636f72726563742070726963650000000000000000000000600082015250565b7f4f776e61626c653a2063616c6c6572206973206e6f7420746865206f776e6572600082015250565b7f4552433732313a20696e76616c696420746f6b656e2049440000000000000000600082015250565b7f4552433732313a20617070726f76616c20746f2063757272656e74206f776e6560008201527f7200000000000000000000000000000000000000000000000000000000000000602082015250565b50565b7f4552433732313a2063616c6c6572206973206e6f7420746f6b656e206f776e6560008201527f72206e6f7220617070726f766564000000000000000000000000000000000000602082015250565b7f4e6f20636f6f6c20776974686472617700000000000000000000000000000000600082015250565b7f6163636f756e742068617320746f206265206d656d6265720000000000000000600082015250565b613ada816133f8565b8114613ae557600080fd5b50565b613af18161340a565b8114613afc57600080fd5b50565b613b0881613416565b8114613b1357600080fd5b50565b613b1f81613462565b8114613b2a57600080fd5b5056fea2646970667358221220103a1772ff659e2228028e99ac5a085c2bc3f4c151673950ef7d6f5c7dc90bb164736f6c63430008030033",
  "immutableReferences": {},
  "source": "// SPDX-License-Identifier: MIT\npragma solidity ^0.8.0;\n\nimport \"@openzeppelin/contracts/token/ERC20/IERC20.sol\";\nimport \"@openzeppelin/contracts/access/Ownable.sol\";\nimport \"@openzeppelin/contracts/utils/Counters.sol\";\nimport \"./VrakkaNFT.sol\";\n\n\ncontract Referido is ERC721,Ownable{\n\n    constructor(VrakkaNFT vrakkaNFT)ERC721(\"Referal\", \"REF\") {\n        VRAKKA=vrakkaNFT;\n    }\n\n\n    using Counters for Counters.Counter;\n\n    Counters.Counter private IDs;\n\n    mapping(address=>bool) isLeader;\n    //Lista de todos los que interactuan con \n    //el contrato\n    mapping(address=>bool) isMember;\n    //Balance de los miembros\n    mapping(address=>uint256) memberBalance;\n\n    //Acumulado de los lideres\n    mapping(address=>uint256) leaderBalance;\n    //Acumulado de los lideres si alcanzan el objetivo\n    mapping(address=>uint256) leaderBalanceReward;\n    //Contador del total de los lideres\n    mapping(address=>uint256) leaderCounter;\n\n    //Balance del total acumulado por el admin \n    //Son las ganancias seguras del contrato\n    \n    uint256 private BOVEDA;\n    mapping(address=>uint256) lookBalance;\n    mapping(address=>address) REFERALS;\n\n    //Cuanto tiempo tiene que pasar hasta que los usuarios \n    //puedan sacar el dinero final\n    uint256 MONTH=864000;\n    uint256 POINT=0;\n    uint256 SELL_TARGET=1000;\n    \n    uint256 WEEK=201600;\n\n    uint256 MIN_PRICE=9**17 wei;\n\n    VrakkaNFT VRAKKA;\n\n\n    event Referal1(bool exito);\n\n    ///SETTERS\n    function setPrice(uint256 _newPrice)external onlyOwner{\n        MIN_PRICE=_newPrice;\n    }\n\n    //Solo el administrador del contrato puede definir nuevos 'lideres'\n    function createLeader(address _newLider)public onlyOwner{\n        isLeader[_newLider]=true;\n        isMember[_newLider]=true;\n        uint256 newItemId = IDs.current();\n        _mint(_newLider, newItemId);\n    }\n\n\n    //Funcion que se encarga del sistema de pago\n    function payment(address _ID)public payable{\n        require(msg.value>=MIN_PRICE,'not the correct price');\n        //El referido tiene que ser miembro\n        require(isMember[_ID],'account has to be member');\n        uint256 _value=msg.value;\n        if(isLeader[_ID]){\n            //Proceso si el referido es un lider--------------------LIDER--------------\n            //Se guarda el 40% del pago\n            //Se guarda el 10% directo al referido\n\n            //10% ya es propiedad del lider\n            leaderBalance[_ID]=leaderBalance[_ID]+(_value/100)*10;\n            //Actualizo el acumulado de rewards a un 30%\n            leaderBalanceReward[_ID]=leaderBalanceReward[_ID]+(_value/100)*30;\n\n            //Sumo 1 al contador del lider\n            leaderCounter[_ID]+=1;\n            \n            //Si es lider, la cantidad ganada es 60% porque el otro\n            //no es ganancia asegurada para el admin\n            BOVEDA=BOVEDA+(_value/100)*60;\n            \n            //Los lideres si llevan un conteo, los miembros no.\n            //Si el lider alcanza 100 ventas, se gana el 40% de la venta.\n            leaderBalance[_ID]+=1;\n\n            \n        }else{\n            //El ID entregado no es un lider\n            //Un miembro tiene un referido\n\n            //La ganancia asegurada aqui es del 88\n            BOVEDA=BOVEDA+(_value/100)*88;\n            \n            //Agrego el 2% al que refirio al referido\n            memberBalance[REFERALS[_ID]]+=(_value/100)*2;\n\n            //Le doy el 10% al ID del referido\n            memberBalance[_ID]+=(_value/100)*10;\n\n\n        }\n        //Mint del token\n        VRAKKA.privateMinting(msg.sender,1 ether,false);\n\n        //Si el usuario que compra no es miembro, hacerlo.\n        if(!isMember[msg.sender]){\n            isMember[msg.sender]=true;\n            REFERALS[msg.sender]=_ID;\n            //Genera un ID\n            Mint();\n        }\n        emit Referal1(true);\n        \n    }\n\n  \n\n    function getPrice()external view returns(uint256){\n        return MIN_PRICE;\n    }\n\n    function getIsMember(address _member)external view returns(bool){\n        return isMember[_member];\n    }\n\n    function Mint()public {\n        uint256 newItemId = IDs.current();\n        _mint(msg.sender, newItemId);\n        // _setTokenURI(newItemId, _uri);\n    }\n\n    //El administrador retira\n    function withdrawAdmin()external onlyOwner{\n        require(block.number>POINT,'Not the time yet');\n        \n        uint256 totalAmount=address(this).balance;\n        \n        (bool sent, ) = msg.sender.call{value:totalAmount}(\"\");\n        require(sent,\"No cool withdraw\");\n        POINT=block.number+MONTH;\n        //La BOVEDA esta vacia\n    }\n\n    //El lider retira su dinero\n    function withdrawLeader()external{\n        require(isLeader[msg.sender],'has to be a leader');\n        require(leaderBalance[msg.sender]>0,'leader balance cannot be 0');\n        require(block.number>POINT,'Not the time yet');\n\n        uint256 totalAmount=leaderBalance[msg.sender];\n        \n        //Filtro de exito\n        //si el lider alcanzo mas de 100 ventas\n        //dar recompenza\n        if(leaderCounter[msg.sender]>99){\n            totalAmount=totalAmount+leaderBalanceReward[msg.sender];\n        }else{\n            //El lider no alcanzo el objetivo\n            //La BOVEDA guarda las reservas que no fueron reclamadas\n            BOVEDA=BOVEDA+leaderBalanceReward[msg.sender];\n            \n        }\n        //Envio el pago\n        (bool sent, ) = msg.sender.call{value:totalAmount}(\"\");\n        require(sent,\"Fail in the withdraw\");\n\n        //Si el pago es exitoso, actualizar todos los balances.\n        //Reset del total de balances\n        leaderCounter[msg.sender]=0;\n        leaderBalance[msg.sender]=0;\n        leaderBalanceReward[msg.sender]=0;\n\n    }\n\n\n\n\n}",
  "sourcePath": "/Users/aarontolentino/Documents/A-Work/Vrakka/contracts/Referido.sol",
  "compiler": {
    "name": "solc",
    "version": "0.8.3+commit.8d00100c.Emscripten.clang"
  },
  "schemaVersion": "3.4.1",
  "updatedAt": "2023-07-15T03:07:06.701Z",
  "devdoc": {
    "kind": "dev",
    "methods": {
      "approve(address,uint256)": {
        "details": "See {IERC721-approve}."
      },
      "balanceOf(address)": {
        "details": "See {IERC721-balanceOf}."
      },
      "getApproved(uint256)": {
        "details": "See {IERC721-getApproved}."
      },
      "isApprovedForAll(address,address)": {
        "details": "See {IERC721-isApprovedForAll}."
      },
      "name()": {
        "details": "See {IERC721Metadata-name}."
      },
      "owner()": {
        "details": "Returns the address of the current owner."
      },
      "ownerOf(uint256)": {
        "details": "See {IERC721-ownerOf}."
      },
      "renounceOwnership()": {
        "details": "Leaves the contract without owner. It will not be possible to call `onlyOwner` functions anymore. Can only be called by the current owner. NOTE: Renouncing ownership will leave the contract without an owner, thereby removing any functionality that is only available to the owner."
      },
      "safeTransferFrom(address,address,uint256)": {
        "details": "See {IERC721-safeTransferFrom}."
      },
      "safeTransferFrom(address,address,uint256,bytes)": {
        "details": "See {IERC721-safeTransferFrom}."
      },
      "setApprovalForAll(address,bool)": {
        "details": "See {IERC721-setApprovalForAll}."
      },
      "supportsInterface(bytes4)": {
        "details": "See {IERC165-supportsInterface}."
      },
      "symbol()": {
        "details": "See {IERC721Metadata-symbol}."
      },
      "tokenURI(uint256)": {
        "details": "See {IERC721Metadata-tokenURI}."
      },
      "transferFrom(address,address,uint256)": {
        "details": "See {IERC721-transferFrom}."
      },
      "transferOwnership(address)": {
        "details": "Transfers ownership of the contract to a new account (`newOwner`). Can only be called by the current owner."
      }
    },
    "version": 1
  },
  "userdoc": {
    "kind": "user",
    "methods": {
      "setPrice(uint256)": {
        "notice": "SETTERS"
      }
    },
    "version": 1
  }
}