{
  "contractName": "StakingReward",
  "abi": [
    {
      "inputs": [
        {
          "internalType": "contract IERC20",
          "name": "_contrato",
          "type": "address"
        }
      ],
      "stateMutability": "nonpayable",
      "type": "constructor"
    },
    {
      "inputs": [],
      "name": "stakingToken",
      "outputs": [
        {
          "internalType": "contract IERC20",
          "name": "",
          "type": "address"
        }
      ],
      "stateMutability": "view",
      "type": "function"
    }
  ],
  "bytecode": "0x60a060405234801561001057600080fd5b5060405161022c38038061022c83398181016040528101906100329190610084565b8073ffffffffffffffffffffffffffffffffffffffff1660808173ffffffffffffffffffffffffffffffffffffffff1660601b8152505050610108565b60008151905061007e816100f1565b92915050565b60006020828403121561009657600080fd5b60006100a48482850161006f565b91505092915050565b60006100b8826100d1565b9050919050565b60006100ca826100ad565b9050919050565b600073ffffffffffffffffffffffffffffffffffffffff82169050919050565b6100fa816100bf565b811461010557600080fd5b50565b60805160601c6101076101256000396000604901526101076000f3fe6080604052348015600f57600080fd5b506004361060285760003560e01c806372f702f314602d575b600080fd5b60336047565b604051603e91906078565b60405180910390f35b7f000000000000000000000000000000000000000000000000000000000000000081565b60728160b1565b82525050565b6000602082019050608b6000830184606b565b92915050565b600073ffffffffffffffffffffffffffffffffffffffff82169050919050565b600060ba8260c1565b9050919050565b600060ca826091565b905091905056fea26469706673582212204938ef11959ec0ef5eae499265e584f24b508c8e7a9880c7e628fed3eac8d09e64736f6c63430008030033",
  "immutableReferences": {
    "492": [
      {
        "length": 32,
        "start": 73
      }
    ]
  },
  "source": "// SPDX-License-Identifier: MIT\npragma solidity ^0.8.0;\n\nimport \"@openzeppelin/contracts/token/ERC20/IERC20.sol\";\nimport \"@openzeppelin/contracts/access/Ownable.sol\";\n\ncontract StakingReward{\n\n    IERC20 public immutable stakingToken;\n\n    constructor(IERC20 _contrato){\n        stakingToken=_contrato;\n    }\n\n\n}",
  "sourcePath": "/Users/aarontolentino/Documents/A-Work/Vrakka/contracts/StakingRewards.sol",
  "compiler": {
    "name": "solc",
    "version": "0.8.3+commit.8d00100c.Emscripten.clang"
  },
  "schemaVersion": "3.4.1",
  "updatedAt": "2022-10-08T17:57:12.986Z",
  "devdoc": {
    "kind": "dev",
    "methods": {},
    "version": 1
  },
  "userdoc": {
    "kind": "user",
    "methods": {},
    "version": 1
  }
}