{
  "contractName": "VrakkaNFT",
  "abi": [
    {
      "inputs": [
        {
          "internalType": "address",
          "name": "stable_coin",
          "type": "address"
        }
      ],
      "stateMutability": "nonpayable",
      "type": "constructor"
    },
    {
      "anonymous": false,
      "inputs": [
        {
          "indexed": true,
          "internalType": "address",
          "name": "owner",
          "type": "address"
        },
        {
          "indexed": true,
          "internalType": "address",
          "name": "approved",
          "type": "address"
        },
        {
          "indexed": true,
          "internalType": "uint256",
          "name": "tokenId",
          "type": "uint256"
        }
      ],
      "name": "Approval",
      "type": "event"
    },
    {
      "anonymous": false,
      "inputs": [
        {
          "indexed": true,
          "internalType": "address",
          "name": "owner",
          "type": "address"
        },
        {
          "indexed": true,
          "internalType": "address",
          "name": "operator",
          "type": "address"
        },
        {
          "indexed": false,
          "internalType": "bool",
          "name": "approved",
          "type": "bool"
        }
      ],
      "name": "ApprovalForAll",
      "type": "event"
    },
    {
      "anonymous": false,
      "inputs": [
        {
          "indexed": true,
          "internalType": "address",
          "name": "previousOwner",
          "type": "address"
        },
        {
          "indexed": true,
          "internalType": "address",
          "name": "newOwner",
          "type": "address"
        }
      ],
      "name": "OwnershipTransferred",
      "type": "event"
    },
    {
      "anonymous": false,
      "inputs": [
        {
          "indexed": true,
          "internalType": "address",
          "name": "from",
          "type": "address"
        },
        {
          "indexed": true,
          "internalType": "address",
          "name": "to",
          "type": "address"
        },
        {
          "indexed": true,
          "internalType": "uint256",
          "name": "tokenId",
          "type": "uint256"
        }
      ],
      "name": "Transfer",
      "type": "event"
    },
    {
      "inputs": [
        {
          "internalType": "address",
          "name": "",
          "type": "address"
        }
      ],
      "name": "COINS_PRICE",
      "outputs": [
        {
          "internalType": "uint256",
          "name": "",
          "type": "uint256"
        }
      ],
      "stateMutability": "view",
      "type": "function"
    },
    {
      "inputs": [
        {
          "internalType": "address",
          "name": "to",
          "type": "address"
        },
        {
          "internalType": "uint256",
          "name": "tokenId",
          "type": "uint256"
        }
      ],
      "name": "approve",
      "outputs": [],
      "stateMutability": "nonpayable",
      "type": "function"
    },
    {
      "inputs": [
        {
          "internalType": "address",
          "name": "owner",
          "type": "address"
        }
      ],
      "name": "balanceOf",
      "outputs": [
        {
          "internalType": "uint256",
          "name": "",
          "type": "uint256"
        }
      ],
      "stateMutability": "view",
      "type": "function"
    },
    {
      "inputs": [
        {
          "internalType": "uint256",
          "name": "tokenId",
          "type": "uint256"
        }
      ],
      "name": "getApproved",
      "outputs": [
        {
          "internalType": "address",
          "name": "",
          "type": "address"
        }
      ],
      "stateMutability": "view",
      "type": "function"
    },
    {
      "inputs": [
        {
          "internalType": "address",
          "name": "owner",
          "type": "address"
        },
        {
          "internalType": "address",
          "name": "operator",
          "type": "address"
        }
      ],
      "name": "isApprovedForAll",
      "outputs": [
        {
          "internalType": "bool",
          "name": "",
          "type": "bool"
        }
      ],
      "stateMutability": "view",
      "type": "function"
    },
    {
      "inputs": [],
      "name": "name",
      "outputs": [
        {
          "internalType": "string",
          "name": "",
          "type": "string"
        }
      ],
      "stateMutability": "view",
      "type": "function"
    },
    {
      "inputs": [],
      "name": "owner",
      "outputs": [
        {
          "internalType": "address",
          "name": "",
          "type": "address"
        }
      ],
      "stateMutability": "view",
      "type": "function"
    },
    {
      "inputs": [
        {
          "internalType": "uint256",
          "name": "tokenId",
          "type": "uint256"
        }
      ],
      "name": "ownerOf",
      "outputs": [
        {
          "internalType": "address",
          "name": "",
          "type": "address"
        }
      ],
      "stateMutability": "view",
      "type": "function"
    },
    {
      "inputs": [],
      "name": "renounceOwnership",
      "outputs": [],
      "stateMutability": "nonpayable",
      "type": "function"
    },
    {
      "inputs": [
        {
          "internalType": "address",
          "name": "from",
          "type": "address"
        },
        {
          "internalType": "address",
          "name": "to",
          "type": "address"
        },
        {
          "internalType": "uint256",
          "name": "tokenId",
          "type": "uint256"
        }
      ],
      "name": "safeTransferFrom",
      "outputs": [],
      "stateMutability": "nonpayable",
      "type": "function"
    },
    {
      "inputs": [
        {
          "internalType": "address",
          "name": "from",
          "type": "address"
        },
        {
          "internalType": "address",
          "name": "to",
          "type": "address"
        },
        {
          "internalType": "uint256",
          "name": "tokenId",
          "type": "uint256"
        },
        {
          "internalType": "bytes",
          "name": "data",
          "type": "bytes"
        }
      ],
      "name": "safeTransferFrom",
      "outputs": [],
      "stateMutability": "nonpayable",
      "type": "function"
    },
    {
      "inputs": [
        {
          "internalType": "address",
          "name": "operator",
          "type": "address"
        },
        {
          "internalType": "bool",
          "name": "approved",
          "type": "bool"
        }
      ],
      "name": "setApprovalForAll",
      "outputs": [],
      "stateMutability": "nonpayable",
      "type": "function"
    },
    {
      "inputs": [
        {
          "internalType": "bytes4",
          "name": "interfaceId",
          "type": "bytes4"
        }
      ],
      "name": "supportsInterface",
      "outputs": [
        {
          "internalType": "bool",
          "name": "",
          "type": "bool"
        }
      ],
      "stateMutability": "view",
      "type": "function"
    },
    {
      "inputs": [],
      "name": "symbol",
      "outputs": [
        {
          "internalType": "string",
          "name": "",
          "type": "string"
        }
      ],
      "stateMutability": "view",
      "type": "function"
    },
    {
      "inputs": [
        {
          "internalType": "address",
          "name": "from",
          "type": "address"
        },
        {
          "internalType": "address",
          "name": "to",
          "type": "address"
        },
        {
          "internalType": "uint256",
          "name": "tokenId",
          "type": "uint256"
        }
      ],
      "name": "transferFrom",
      "outputs": [],
      "stateMutability": "nonpayable",
      "type": "function"
    },
    {
      "inputs": [
        {
          "internalType": "address",
          "name": "newOwner",
          "type": "address"
        }
      ],
      "name": "transferOwnership",
      "outputs": [],
      "stateMutability": "nonpayable",
      "type": "function"
    },
    {
      "inputs": [
        {
          "internalType": "address",
          "name": "who",
          "type": "address"
        },
        {
          "internalType": "uint256",
          "name": "_price",
          "type": "uint256"
        },
        {
          "internalType": "bool",
          "name": "forSale",
          "type": "bool"
        }
      ],
      "name": "privateMinting",
      "outputs": [
        {
          "internalType": "uint256",
          "name": "",
          "type": "uint256"
        }
      ],
      "stateMutability": "nonpayable",
      "type": "function"
    },
    {
      "inputs": [],
      "name": "publicMinting",
      "outputs": [
        {
          "internalType": "uint256",
          "name": "",
          "type": "uint256"
        }
      ],
      "stateMutability": "payable",
      "type": "function"
    },
    {
      "inputs": [
        {
          "internalType": "address",
          "name": "_token_address",
          "type": "address"
        },
        {
          "internalType": "bool",
          "name": "forSale",
          "type": "bool"
        }
      ],
      "name": "publicMintingERC20",
      "outputs": [
        {
          "internalType": "uint256",
          "name": "",
          "type": "uint256"
        }
      ],
      "stateMutability": "nonpayable",
      "type": "function"
    },
    {
      "inputs": [
        {
          "internalType": "uint256",
          "name": "_tokenId",
          "type": "uint256"
        }
      ],
      "name": "toggleForSale",
      "outputs": [],
      "stateMutability": "nonpayable",
      "type": "function"
    },
    {
      "inputs": [
        {
          "internalType": "uint256",
          "name": "_tokenId",
          "type": "uint256"
        },
        {
          "internalType": "uint256",
          "name": "_price",
          "type": "uint256"
        }
      ],
      "name": "toggleForSaleAndPrice",
      "outputs": [],
      "stateMutability": "nonpayable",
      "type": "function"
    },
    {
      "inputs": [
        {
          "internalType": "uint256",
          "name": "_tokenId",
          "type": "uint256"
        },
        {
          "internalType": "uint256",
          "name": "_newPrice",
          "type": "uint256"
        }
      ],
      "name": "changePrice",
      "outputs": [],
      "stateMutability": "nonpayable",
      "type": "function"
    },
    {
      "inputs": [
        {
          "internalType": "uint256",
          "name": "_tokenId",
          "type": "uint256"
        }
      ],
      "name": "buyToken",
      "outputs": [
        {
          "internalType": "bool",
          "name": "",
          "type": "bool"
        }
      ],
      "stateMutability": "payable",
      "type": "function"
    },
    {
      "inputs": [
        {
          "internalType": "address",
          "name": "coinAddress",
          "type": "address"
        }
      ],
      "name": "addCoin",
      "outputs": [],
      "stateMutability": "nonpayable",
      "type": "function"
    },
    {
      "inputs": [],
      "name": "getPrice",
      "outputs": [
        {
          "internalType": "uint256",
          "name": "",
          "type": "uint256"
        }
      ],
      "stateMutability": "view",
      "type": "function"
    },
    {
      "inputs": [
        {
          "internalType": "uint256",
          "name": "_newPrice",
          "type": "uint256"
        }
      ],
      "name": "setPrice",
      "outputs": [],
      "stateMutability": "nonpayable",
      "type": "function"
    },
    {
      "inputs": [
        {
          "internalType": "address",
          "name": "coin",
          "type": "address"
        },
        {
          "internalType": "uint256",
          "name": "_newPrice",
          "type": "uint256"
        }
      ],
      "name": "setPriceERC20",
      "outputs": [],
      "stateMutability": "nonpayable",
      "type": "function"
    },
    {
      "inputs": [
        {
          "internalType": "uint256",
          "name": "_index",
          "type": "uint256"
        }
      ],
      "name": "get",
      "outputs": [
        {
          "components": [
            {
              "internalType": "uint256",
              "name": "tokenId",
              "type": "uint256"
            },
            {
              "internalType": "address payable",
              "name": "currentOwner",
              "type": "address"
            },
            {
              "internalType": "address payable",
              "name": "previousOwner",
              "type": "address"
            },
            {
              "internalType": "uint256",
              "name": "price",
              "type": "uint256"
            },
            {
              "internalType": "bool",
              "name": "forSale",
              "type": "bool"
            },
            {
              "internalType": "uint256",
              "name": "blockNumber",
              "type": "uint256"
            },
            {
              "internalType": "uint256",
              "name": "time",
              "type": "uint256"
            },
            {
              "internalType": "uint256",
              "name": "class",
              "type": "uint256"
            }
          ],
          "internalType": "struct VrakkaNFT.Vrakka",
          "name": "",
          "type": "tuple"
        }
      ],
      "stateMutability": "view",
      "type": "function"
    },
    {
      "inputs": [
        {
          "internalType": "uint256",
          "name": "_index",
          "type": "uint256"
        }
      ],
      "name": "getClass",
      "outputs": [
        {
          "internalType": "uint256",
          "name": "",
          "type": "uint256"
        }
      ],
      "stateMutability": "view",
      "type": "function"
    },
    {
      "inputs": [],
      "name": "getTotal",
      "outputs": [
        {
          "internalType": "uint256",
          "name": "",
          "type": "uint256"
        }
      ],
      "stateMutability": "view",
      "type": "function"
    },
    {
      "inputs": [],
      "name": "random",
      "outputs": [
        {
          "internalType": "uint8",
          "name": "",
          "type": "uint8"
        }
      ],
      "stateMutability": "view",
      "type": "function"
    },
    {
      "inputs": [
        {
          "internalType": "uint256",
          "name": "tokenId",
          "type": "uint256"
        }
      ],
      "name": "tokenURI",
      "outputs": [
        {
          "internalType": "string",
          "name": "",
          "type": "string"
        }
      ],
      "stateMutability": "view",
      "type": "function"
    },
    {
      "inputs": [
        {
          "internalType": "string",
          "name": "new_uri",
          "type": "string"
        }
      ],
      "name": "_setTokenURI",
      "outputs": [],
      "stateMutability": "nonpayable",
      "type": "function"
    },
    {
      "inputs": [],
      "name": "withdrawAdmin",
      "outputs": [],
      "stateMutability": "nonpayable",
      "type": "function"
    },
    {
      "inputs": [
        {
          "internalType": "address",
          "name": "coin",
          "type": "address"
        }
      ],
      "name": "withdrawFunds",
      "outputs": [],
      "stateMutability": "nonpayable",
      "type": "function"
    }
  ],
  "bytecode": "0x60806040526710a741a462780000600b55612ee0600c55611770600d55611770600e556040518060400160405280601681526020017f68747470733a2f2f7672616b6b616e66742e636f6d2f00000000000000000000815250601190805190602001906200006f929190620002e8565b503480156200007d57600080fd5b5060405162005e3f38038062005e3f8339818101604052810190620000a39190620003af565b6040518060400160405280600a81526020017f5672616b6b61204e4654000000000000000000000000000000000000000000008152506040518060400160405280600681526020017f5652414b4b410000000000000000000000000000000000000000000000000000815250816000908051906020019062000127929190620002e8565b50806001908051906020019062000140929190620002e8565b50505062000163620001576200021a60201b60201c565b6200022260201b60201c565b6009819080600181540180825580915050600190039060005260206000200160009091909190916101000a81548173ffffffffffffffffffffffffffffffffffffffff021916908373ffffffffffffffffffffffffffffffffffffffff160217905550681043561a8829300000600a60008373ffffffffffffffffffffffffffffffffffffffff1673ffffffffffffffffffffffffffffffffffffffff16815260200190815260200160002081905550506200048e565b600033905090565b6000600760009054906101000a900473ffffffffffffffffffffffffffffffffffffffff16905081600760006101000a81548173ffffffffffffffffffffffffffffffffffffffff021916908373ffffffffffffffffffffffffffffffffffffffff1602179055508173ffffffffffffffffffffffffffffffffffffffff168173ffffffffffffffffffffffffffffffffffffffff167f8be0079c531659141344cd1fd0a4f28419497f9722a3daafe3b4186f6b6457e060405160405180910390a35050565b828054620002f6906200040f565b90600052602060002090601f0160209004810192826200031a576000855562000366565b82601f106200033557805160ff191683800117855562000366565b8280016001018555821562000366579182015b828111156200036557825182559160200191906001019062000348565b5b50905062000375919062000379565b5090565b5b80821115620003945760008160009055506001016200037a565b5090565b600081519050620003a98162000474565b92915050565b600060208284031215620003c257600080fd5b6000620003d28482850162000398565b91505092915050565b6000620003e882620003ef565b9050919050565b600073ffffffffffffffffffffffffffffffffffffffff82169050919050565b600060028204905060018216806200042857607f821691505b602082108114156200043f576200043e62000445565b5b50919050565b7f4e487b7100000000000000000000000000000000000000000000000000000000600052602260045260246000fd5b6200047f81620003db565b81146200048b57600080fd5b50565b6159a1806200049e6000396000f3fe6080604052600436106102045760003560e01c80636352211e1161011857806395d89b41116100a0578063b3de019c1161006f578063b3de019c1461076f578063b88d4fde14610798578063c87b56dd146107c1578063e985e9c5146107fe578063f2fde38b1461083b57610204565b806395d89b41146106c757806398d5fdca146106f2578063a22cb4651461071d578063a32018b91461074657610204565b8063775a25e3116100e7578063775a25e3146105e257806387f350b81461060d5780638da5cb5b1461063657806391b7f5ed146106615780639507d39a1461068a57610204565b80636352211e1461052857806368742da61461056557806370a082311461058e578063715018a6146105cb57610204565b80633cb9cd0f1161019b578063512d62df1161016a578063512d62df1461045057806353ac010a1461048d57806353eb50ae146104ab578063571429ba146104d45780635ec01e4d146104fd57610204565b80633cb9cd0f1461037057806342842e0e146103ad5780634ae041f3146103d65780634f55d8391461041357610204565b8063095ea7b3116101d7578063095ea7b3146102c557806316da8632146102ee57806323b872dd146103175780632d296bf11461034057610204565b806301ffc9a71461020957806304c76af01461024657806306fdde031461025d578063081812fc14610288575b600080fd5b34801561021557600080fd5b50610230600480360381019061022b9190614244565b610864565b60405161023d9190614afa565b60405180910390f35b34801561025257600080fd5b5061025b610946565b005b34801561026957600080fd5b50610272610a03565b60405161027f9190614b15565b60405180910390f35b34801561029457600080fd5b506102af60048036038101906102aa91906142d7565b610a95565b6040516102bc9190614a33565b60405180910390f35b3480156102d157600080fd5b506102ec60048036038101906102e79190614190565b610adb565b005b3480156102fa57600080fd5b5061031560048036038101906103109190614025565b610bf3565b005b34801561032357600080fd5b5061033e6004803603810190610339919061408a565b610c61565b005b61035a600480360381019061035591906142d7565b610cc1565b6040516103679190614afa565b60405180910390f35b34801561037c57600080fd5b5061039760048036038101906103929190614154565b61117d565b6040516103a49190614ed3565b60405180910390f35b3480156103b957600080fd5b506103d460048036038101906103cf919061408a565b6115a7565b005b3480156103e257600080fd5b506103fd60048036038101906103f89190614025565b6115c7565b60405161040a9190614ed3565b60405180910390f35b34801561041f57600080fd5b5061043a600480360381019061043591906141cc565b6115df565b6040516104479190614ed3565b60405180910390f35b34801561045c57600080fd5b50610477600480360381019061047291906142d7565b6117e3565b6040516104849190614ed3565b60405180910390f35b610495611803565b6040516104a29190614ed3565b60405180910390f35b3480156104b757600080fd5b506104d260048036038101906104cd9190614329565b611a42565b005b3480156104e057600080fd5b506104fb60048036038101906104f69190614190565b611da3565b005b34801561050957600080fd5b50610512611ef7565b60405161051f9190614eee565b60405180910390f35b34801561053457600080fd5b5061054f600480360381019061054a91906142d7565b611f36565b60405161055c9190614a33565b60405180910390f35b34801561057157600080fd5b5061058c60048036038101906105879190614025565b611fe8565b005b34801561059a57600080fd5b506105b560048036038101906105b09190614025565b612206565b6040516105c29190614ed3565b60405180910390f35b3480156105d757600080fd5b506105e06122be565b005b3480156105ee57600080fd5b506105f76122d2565b6040516106049190614ed3565b60405180910390f35b34801561061957600080fd5b50610634600480360381019061062f9190614296565b6122e3565b005b34801561064257600080fd5b5061064b612305565b6040516106589190614a33565b60405180910390f35b34801561066d57600080fd5b50610688600480360381019061068391906142d7565b61232f565b005b34801561069657600080fd5b506106b160048036038101906106ac91906142d7565b612341565b6040516106be9190614eb7565b60405180910390f35b3480156106d357600080fd5b506106dc612468565b6040516106e99190614b15565b60405180910390f35b3480156106fe57600080fd5b506107076124fa565b6040516107149190614ed3565b60405180910390f35b34801561072957600080fd5b50610744600480360381019061073f9190614154565b612504565b005b34801561075257600080fd5b5061076d600480360381019061076891906142d7565b61251a565b005b34801561077b57600080fd5b5061079660048036038101906107919190614329565b61282d565b005b3480156107a457600080fd5b506107bf60048036038101906107ba91906140d9565b612b5c565b005b3480156107cd57600080fd5b506107e860048036038101906107e391906142d7565b612bbe565b6040516107f59190614b15565b60405180910390f35b34801561080a57600080fd5b506108256004803603810190610820919061404e565b612c3a565b6040516108329190614afa565b60405180910390f35b34801561084757600080fd5b50610862600480360381019061085d9190614025565b612cce565b005b60007f80ac58cd000000000000000000000000000000000000000000000000000000007bffffffffffffffffffffffffffffffffffffffffffffffffffffffff1916827bffffffffffffffffffffffffffffffffffffffffffffffffffffffff1916148061092f57507f5b5e139f000000000000000000000000000000000000000000000000000000007bffffffffffffffffffffffffffffffffffffffffffffffffffffffff1916827bffffffffffffffffffffffffffffffffffffffffffffffffffffffff1916145b8061093f575061093e82612d52565b5b9050919050565b61094e612dbc565b600047905060003373ffffffffffffffffffffffffffffffffffffffff1682604051610979906149f2565b60006040518083038185875af1925050503d80600081146109b6576040519150601f19603f3d011682016040523d82523d6000602084013e6109bb565b606091505b50509050806109ff576040517f08c379a00000000000000000000000000000000000000000000000000000000081526004016109f690614e77565b60405180910390fd5b5050565b606060008054610a1290615183565b80601f0160208091040260200160405190810160405280929190818152602001828054610a3e90615183565b8015610a8b5780601f10610a6057610100808354040283529160200191610a8b565b820191906000526020600020905b815481529060010190602001808311610a6e57829003601f168201915b5050505050905090565b6000610aa082612e3a565b6004600083815260200190815260200160002060009054906101000a900473ffffffffffffffffffffffffffffffffffffffff169050919050565b6000610ae682611f36565b90508073ffffffffffffffffffffffffffffffffffffffff168373ffffffffffffffffffffffffffffffffffffffff161415610b57576040517f08c379a0000000000000000000000000000000000000000000000000000000008152600401610b4e90614d97565b60405180910390fd5b8073ffffffffffffffffffffffffffffffffffffffff16610b76612e85565b73ffffffffffffffffffffffffffffffffffffffff161480610ba55750610ba481610b9f612e85565b612c3a565b5b610be4576040517f08c379a0000000000000000000000000000000000000000000000000000000008152600401610bdb90614cf7565b60405180910390fd5b610bee8383612e8d565b505050565b610bfb612dbc565b6009819080600181540180825580915050600190039060005260206000200160009091909190916101000a81548173ffffffffffffffffffffffffffffffffffffffff021916908373ffffffffffffffffffffffffffffffffffffffff16021790555050565b610c72610c6c612e85565b82612f46565b610cb1576040517f08c379a0000000000000000000000000000000000000000000000000000000008152600401610ca890614e37565b60405180910390fd5b610cbc838383612fdb565b505050565b60008073ffffffffffffffffffffffffffffffffffffffff163373ffffffffffffffffffffffffffffffffffffffff161415610cfc57600080fd5b610d0582613242565b610d0e57600080fd5b6000610d1983611f36565b9050600073ffffffffffffffffffffffffffffffffffffffff168173ffffffffffffffffffffffffffffffffffffffff161415610d5557600080fd5b3373ffffffffffffffffffffffffffffffffffffffff168173ffffffffffffffffffffffffffffffffffffffff161415610d8e57600080fd5b60006012600085815260200190815260200160002060405180610100016040529081600082015481526020016001820160009054906101000a900473ffffffffffffffffffffffffffffffffffffffff1673ffffffffffffffffffffffffffffffffffffffff1673ffffffffffffffffffffffffffffffffffffffff1681526020016002820160009054906101000a900473ffffffffffffffffffffffffffffffffffffffff1673ffffffffffffffffffffffffffffffffffffffff1673ffffffffffffffffffffffffffffffffffffffff168152602001600382015481526020016004820160009054906101000a900460ff16151515158152602001600582015481526020016006820154815260200160078201548152505090508060600151341015610ef1576040517f08c379a0000000000000000000000000000000000000000000000000000000008152600401610ee890614d57565b60405180910390fd5b8060800151610f35576040517f08c379a0000000000000000000000000000000000000000000000000000000008152600401610f2c90614cd7565b60405180910390fd5b60008160200151905060008173ffffffffffffffffffffffffffffffffffffffff1634604051610f64906149f2565b60006040518083038185875af1925050503d8060008114610fa1576040519150601f19603f3d011682016040523d82523d6000602084013e610fa6565b606091505b5050905080610fea576040517f08c379a0000000000000000000000000000000000000000000000000000000008152600401610fe190614e97565b60405180910390fd5b610ff5843388612fdb565b8260200151836040019073ffffffffffffffffffffffffffffffffffffffff16908173ffffffffffffffffffffffffffffffffffffffff168152505033836020019073ffffffffffffffffffffffffffffffffffffffff16908173ffffffffffffffffffffffffffffffffffffffff1681525050600083608001901515908115158152505082601260008881526020019081526020016000206000820151816000015560208201518160010160006101000a81548173ffffffffffffffffffffffffffffffffffffffff021916908373ffffffffffffffffffffffffffffffffffffffff16021790555060408201518160020160006101000a81548173ffffffffffffffffffffffffffffffffffffffff021916908373ffffffffffffffffffffffffffffffffffffffff1602179055506060820151816003015560808201518160040160006101000a81548160ff02191690831515021790555060a0820151816005015560c0820151816006015560e0820151816007015590505080945050505050919050565b6000826000805b600980549050811015611245578273ffffffffffffffffffffffffffffffffffffffff16600982815481106111e2577f4e487b7100000000000000000000000000000000000000000000000000000000600052603260045260246000fd5b9060005260206000200160009054906101000a900473ffffffffffffffffffffffffffffffffffffffff1673ffffffffffffffffffffffffffffffffffffffff1614156112325760019150611245565b808061123d906151e6565b915050611184565b5080611286576040517f08c379a000000000000000000000000000000000000000000000000000000000815260040161127d90614df7565b60405180910390fd5b60006112906122d2565b9050600c548111156112d7576040517f08c379a00000000000000000000000000000000000000000000000000000000081526004016112ce90614c17565b60405180910390fd5b6000600a60008873ffffffffffffffffffffffffffffffffffffffff1673ffffffffffffffffffffffffffffffffffffffff1681526020019081526020016000205490506000811161132857600080fd5b60008773ffffffffffffffffffffffffffffffffffffffff166323b872dd3330856040518463ffffffff1660e01b815260040161136793929190614a4e565b602060405180830381600087803b15801561138157600080fd5b505af1158015611395573d6000803e3d6000fd5b505050506040513d601f19601f820116820180604052508101906113b9919061421b565b9050806113fb576040517f08c379a00000000000000000000000000000000000000000000000000000000081526004016113f290614db7565b60405180910390fd5b61140560086132ae565b600061141160086132c4565b905061141d33826132d2565b60006114276134ac565b9050611432816134dc565b60006040518061010001604052808481526020013373ffffffffffffffffffffffffffffffffffffffff168152602001600073ffffffffffffffffffffffffffffffffffffffff1681526020018681526020018b1515815260200143815260200142815260200183815250905080601260008581526020019081526020016000206000820151816000015560208201518160010160006101000a81548173ffffffffffffffffffffffffffffffffffffffff021916908373ffffffffffffffffffffffffffffffffffffffff16021790555060408201518160020160006101000a81548173ffffffffffffffffffffffffffffffffffffffff021916908373ffffffffffffffffffffffffffffffffffffffff1602179055506060820151816003015560808201518160040160006101000a81548160ff02191690831515021790555060a0820151816005015560c0820151816006015560e08201518160070155905050829850505050505050505092915050565b6115c283838360405180602001604052806000815250612b5c565b505050565b600a6020528060005260406000206000915090505481565b60006115e9612dbc565b60006115f36122d2565b9050600c5481111561163a576040517f08c379a000000000000000000000000000000000000000000000000000000000815260040161163190614c17565b60405180910390fd5b61164460086132ae565b600061165060086132c4565b905061165c86826132d2565b60006116666134ac565b9050611671816134dc565b60006040518061010001604052808481526020018973ffffffffffffffffffffffffffffffffffffffff168152602001600073ffffffffffffffffffffffffffffffffffffffff168152602001888152602001871515815260200143815260200142815260200183815250905080601260008581526020019081526020016000206000820151816000015560208201518160010160006101000a81548173ffffffffffffffffffffffffffffffffffffffff021916908373ffffffffffffffffffffffffffffffffffffffff16021790555060408201518160020160006101000a81548173ffffffffffffffffffffffffffffffffffffffff021916908373ffffffffffffffffffffffffffffffffffffffff1602179055506060820151816003015560808201518160040160006101000a81548160ff02191690831515021790555060a0820151816005015560c0820151816006015560e08201518160070155905050829450505050509392505050565b600060126000838152602001908152602001600020600701549050919050565b60008061180e6122d2565b9050600c54811115611855576040517f08c379a000000000000000000000000000000000000000000000000000000000815260040161184c90614c17565b60405180910390fd5b600b5434101561189a576040517f08c379a000000000000000000000000000000000000000000000000000000000815260040161189190614e17565b60405180910390fd5b6118a460086132ae565b60006118b060086132c4565b90506118bc33826132d2565b60006118c66134ac565b90506118d1816134dc565b60006040518061010001604052808481526020013373ffffffffffffffffffffffffffffffffffffffff168152602001600073ffffffffffffffffffffffffffffffffffffffff168152602001600b54815260200160001515815260200143815260200142815260200183815250905080601260008581526020019081526020016000206000820151816000015560208201518160010160006101000a81548173ffffffffffffffffffffffffffffffffffffffff021916908373ffffffffffffffffffffffffffffffffffffffff16021790555060408201518160020160006101000a81548173ffffffffffffffffffffffffffffffffffffffff021916908373ffffffffffffffffffffffffffffffffffffffff1602179055506060820151816003015560808201518160040160006101000a81548160ff02191690831515021790555060a0820151816005015560c0820151816006015560e082015181600701559050508294505050505090565b816000611a4e82611f36565b90503373ffffffffffffffffffffffffffffffffffffffff168173ffffffffffffffffffffffffffffffffffffffff1614611abe576040517f08c379a0000000000000000000000000000000000000000000000000000000008152600401611ab590614e57565b60405180910390fd5b600073ffffffffffffffffffffffffffffffffffffffff163373ffffffffffffffffffffffffffffffffffffffff161415611af857600080fd5b611b0184613242565b611b0a57600080fd5b60008311611b4d576040517f08c379a0000000000000000000000000000000000000000000000000000000008152600401611b4490614cb7565b60405180910390fd5b60006012600086815260200190815260200160002060405180610100016040529081600082015481526020016001820160009054906101000a900473ffffffffffffffffffffffffffffffffffffffff1673ffffffffffffffffffffffffffffffffffffffff1673ffffffffffffffffffffffffffffffffffffffff1681526020016002820160009054906101000a900473ffffffffffffffffffffffffffffffffffffffff1673ffffffffffffffffffffffffffffffffffffffff1673ffffffffffffffffffffffffffffffffffffffff168152602001600382015481526020016004820160009054906101000a900460ff1615151515815260200160058201548152602001600682015481526020016007820154815250509050806080015115611c89576000816080019015159081151581525050611c9b565b60018160800190151590811515815250505b8381606001818152505080601260008781526020019081526020016000206000820151816000015560208201518160010160006101000a81548173ffffffffffffffffffffffffffffffffffffffff021916908373ffffffffffffffffffffffffffffffffffffffff16021790555060408201518160020160006101000a81548173ffffffffffffffffffffffffffffffffffffffff021916908373ffffffffffffffffffffffffffffffffffffffff1602179055506060820151816003015560808201518160040160006101000a81548160ff02191690831515021790555060a0820151816005015560c0820151816006015560e082015181600701559050505050505050565b611dab612dbc565b60008111611dee576040517f08c379a0000000000000000000000000000000000000000000000000000000008152600401611de590614b77565b60405180910390fd5b60005b600980549050811015611ef2578273ffffffffffffffffffffffffffffffffffffffff1660098281548110611e4f577f4e487b7100000000000000000000000000000000000000000000000000000000600052603260045260246000fd5b9060005260206000200160009054906101000a900473ffffffffffffffffffffffffffffffffffffffff1673ffffffffffffffffffffffffffffffffffffffff161415611edf5781600a60008573ffffffffffffffffffffffffffffffffffffffff1673ffffffffffffffffffffffffffffffffffffffff16815260200190815260200160002081905550611ef2565b8080611eea906151e6565b915050611df1565b505050565b600060644243604051602001611f0e929190614a07565b6040516020818303038152906040528051906020012060001c611f319190615239565b905090565b6000806002600084815260200190815260200160002060009054906101000a900473ffffffffffffffffffffffffffffffffffffffff169050600073ffffffffffffffffffffffffffffffffffffffff168173ffffffffffffffffffffffffffffffffffffffff161415611fdf576040517f08c379a0000000000000000000000000000000000000000000000000000000008152600401611fd690614d77565b60405180910390fd5b80915050919050565b611ff0612dbc565b600073ffffffffffffffffffffffffffffffffffffffff168173ffffffffffffffffffffffffffffffffffffffff161415612060576040517f08c379a000000000000000000000000000000000000000000000000000000000815260040161205790614dd7565b60405180910390fd5b60008173ffffffffffffffffffffffffffffffffffffffff166370a08231306040518263ffffffff1660e01b815260040161209b9190614a33565b60206040518083038186803b1580156120b357600080fd5b505afa1580156120c7573d6000803e3d6000fd5b505050506040513d601f19601f820116820180604052508101906120eb9190614300565b905060008111612130576040517f08c379a000000000000000000000000000000000000000000000000000000000815260040161212790614c77565b60405180910390fd5b60008273ffffffffffffffffffffffffffffffffffffffff1663a9059cbb33846040518363ffffffff1660e01b815260040161216d929190614ad1565b602060405180830381600087803b15801561218757600080fd5b505af115801561219b573d6000803e3d6000fd5b505050506040513d601f19601f820116820180604052508101906121bf919061421b565b905080612201576040517f08c379a00000000000000000000000000000000000000000000000000000000081526004016121f890614b97565b60405180910390fd5b505050565b60008073ffffffffffffffffffffffffffffffffffffffff168273ffffffffffffffffffffffffffffffffffffffff161415612277576040517f08c379a000000000000000000000000000000000000000000000000000000000815260040161226e90614c97565b60405180910390fd5b600360008373ffffffffffffffffffffffffffffffffffffffff1673ffffffffffffffffffffffffffffffffffffffff168152602001908152602001600020549050919050565b6122c6612dbc565b6122d06000613528565b565b60006122de60086132c4565b905090565b6122eb612dbc565b8060119080519060200190612301929190613dac565b5050565b6000600760009054906101000a900473ffffffffffffffffffffffffffffffffffffffff16905090565b612337612dbc565b80600b8190555050565b612349613e32565b6012600083815260200190815260200160002060405180610100016040529081600082015481526020016001820160009054906101000a900473ffffffffffffffffffffffffffffffffffffffff1673ffffffffffffffffffffffffffffffffffffffff1673ffffffffffffffffffffffffffffffffffffffff1681526020016002820160009054906101000a900473ffffffffffffffffffffffffffffffffffffffff1673ffffffffffffffffffffffffffffffffffffffff1673ffffffffffffffffffffffffffffffffffffffff168152602001600382015481526020016004820160009054906101000a900460ff1615151515815260200160058201548152602001600682015481526020016007820154815250509050919050565b60606001805461247790615183565b80601f01602080910402602001604051908101604052809291908181526020018280546124a390615183565b80156124f05780601f106124c5576101008083540402835291602001916124f0565b820191906000526020600020905b8154815290600101906020018083116124d357829003601f168201915b5050505050905090565b6000600b54905090565b61251661250f612e85565b83836135ee565b5050565b80600061252682611f36565b90503373ffffffffffffffffffffffffffffffffffffffff168173ffffffffffffffffffffffffffffffffffffffff1614612596576040517f08c379a000000000000000000000000000000000000000000000000000000000815260040161258d90614e57565b60405180910390fd5b600073ffffffffffffffffffffffffffffffffffffffff163373ffffffffffffffffffffffffffffffffffffffff1614156125d057600080fd5b6125d983613242565b6125e257600080fd5b60006012600085815260200190815260200160002060405180610100016040529081600082015481526020016001820160009054906101000a900473ffffffffffffffffffffffffffffffffffffffff1673ffffffffffffffffffffffffffffffffffffffff1673ffffffffffffffffffffffffffffffffffffffff1681526020016002820160009054906101000a900473ffffffffffffffffffffffffffffffffffffffff1673ffffffffffffffffffffffffffffffffffffffff1673ffffffffffffffffffffffffffffffffffffffff168152602001600382015481526020016004820160009054906101000a900460ff161515151581526020016005820154815260200160068201548152602001600782015481525050905080608001511561271e576000816080019015159081151581525050612730565b60018160800190151590811515815250505b80601260008681526020019081526020016000206000820151816000015560208201518160010160006101000a81548173ffffffffffffffffffffffffffffffffffffffff021916908373ffffffffffffffffffffffffffffffffffffffff16021790555060408201518160020160006101000a81548173ffffffffffffffffffffffffffffffffffffffff021916908373ffffffffffffffffffffffffffffffffffffffff1602179055506060820151816003015560808201518160040160006101000a81548160ff02191690831515021790555060a0820151816005015560c0820151816006015560e0820151816007015590505050505050565b81600061283982611f36565b90503373ffffffffffffffffffffffffffffffffffffffff168173ffffffffffffffffffffffffffffffffffffffff16146128a9576040517f08c379a00000000000000000000000000000000000000000000000000000000081526004016128a090614e57565b60405180910390fd5b600073ffffffffffffffffffffffffffffffffffffffff163373ffffffffffffffffffffffffffffffffffffffff1614156128e357600080fd5b6128ec84613242565b6128f557600080fd5b60008311612938576040517f08c379a000000000000000000000000000000000000000000000000000000000815260040161292f90614cb7565b60405180910390fd5b60006012600086815260200190815260200160002060405180610100016040529081600082015481526020016001820160009054906101000a900473ffffffffffffffffffffffffffffffffffffffff1673ffffffffffffffffffffffffffffffffffffffff1673ffffffffffffffffffffffffffffffffffffffff1681526020016002820160009054906101000a900473ffffffffffffffffffffffffffffffffffffffff1673ffffffffffffffffffffffffffffffffffffffff1673ffffffffffffffffffffffffffffffffffffffff168152602001600382015481526020016004820160009054906101000a900460ff16151515158152602001600582015481526020016006820154815260200160078201548152505090508381606001818152505080601260008781526020019081526020016000206000820151816000015560208201518160010160006101000a81548173ffffffffffffffffffffffffffffffffffffffff021916908373ffffffffffffffffffffffffffffffffffffffff16021790555060408201518160020160006101000a81548173ffffffffffffffffffffffffffffffffffffffff021916908373ffffffffffffffffffffffffffffffffffffffff1602179055506060820151816003015560808201518160040160006101000a81548160ff02191690831515021790555060a0820151816005015560c0820151816006015560e082015181600701559050505050505050565b612b6d612b67612e85565b83612f46565b612bac576040517f08c379a0000000000000000000000000000000000000000000000000000000008152600401612ba390614e37565b60405180910390fd5b612bb88484848461375b565b50505050565b6060612bc982613242565b612c08576040517f08c379a0000000000000000000000000000000000000000000000000000000008152600401612bff90614b37565b60405180910390fd5b6011612c13836137b7565b604051602001612c249291906149c3565b6040516020818303038152906040529050919050565b6000600560008473ffffffffffffffffffffffffffffffffffffffff1673ffffffffffffffffffffffffffffffffffffffff16815260200190815260200160002060008373ffffffffffffffffffffffffffffffffffffffff1673ffffffffffffffffffffffffffffffffffffffff16815260200190815260200160002060009054906101000a900460ff16905092915050565b612cd6612dbc565b600073ffffffffffffffffffffffffffffffffffffffff168173ffffffffffffffffffffffffffffffffffffffff161415612d46576040517f08c379a0000000000000000000000000000000000000000000000000000000008152600401612d3d90614bb7565b60405180910390fd5b612d4f81613528565b50565b60007f01ffc9a7000000000000000000000000000000000000000000000000000000007bffffffffffffffffffffffffffffffffffffffffffffffffffffffff1916827bffffffffffffffffffffffffffffffffffffffffffffffffffffffff1916149050919050565b612dc4612e85565b73ffffffffffffffffffffffffffffffffffffffff16612de2612305565b73ffffffffffffffffffffffffffffffffffffffff1614612e38576040517f08c379a0000000000000000000000000000000000000000000000000000000008152600401612e2f90614d37565b60405180910390fd5b565b612e4381613242565b612e82576040517f08c379a0000000000000000000000000000000000000000000000000000000008152600401612e7990614d77565b60405180910390fd5b50565b600033905090565b816004600083815260200190815260200160002060006101000a81548173ffffffffffffffffffffffffffffffffffffffff021916908373ffffffffffffffffffffffffffffffffffffffff160217905550808273ffffffffffffffffffffffffffffffffffffffff16612f0083611f36565b73ffffffffffffffffffffffffffffffffffffffff167f8c5be1e5ebec7d5bd14f71427d1e84f3dd0314c0f7b2291e5b200ac8c7c3b92560405160405180910390a45050565b600080612f5283611f36565b90508073ffffffffffffffffffffffffffffffffffffffff168473ffffffffffffffffffffffffffffffffffffffff161480612f945750612f938185612c3a565b5b80612fd257508373ffffffffffffffffffffffffffffffffffffffff16612fba84610a95565b73ffffffffffffffffffffffffffffffffffffffff16145b91505092915050565b8273ffffffffffffffffffffffffffffffffffffffff16612ffb82611f36565b73ffffffffffffffffffffffffffffffffffffffff1614613051576040517f08c379a000000000000000000000000000000000000000000000000000000000815260040161304890614bd7565b60405180910390fd5b600073ffffffffffffffffffffffffffffffffffffffff168273ffffffffffffffffffffffffffffffffffffffff1614156130c1576040517f08c379a00000000000000000000000000000000000000000000000000000000081526004016130b890614c37565b60405180910390fd5b6130cc838383613964565b6130d7600082612e8d565b6001600360008573ffffffffffffffffffffffffffffffffffffffff1673ffffffffffffffffffffffffffffffffffffffff1681526020019081526020016000206000828254613127919061507a565b925050819055506001600360008473ffffffffffffffffffffffffffffffffffffffff1673ffffffffffffffffffffffffffffffffffffffff168152602001908152602001600020600082825461317e9190614ff3565b92505081905550816002600083815260200190815260200160002060006101000a81548173ffffffffffffffffffffffffffffffffffffffff021916908373ffffffffffffffffffffffffffffffffffffffff160217905550808273ffffffffffffffffffffffffffffffffffffffff168473ffffffffffffffffffffffffffffffffffffffff167fddf252ad1be2c89b69c2b068fc378daa952ba7f163c4a11628f55a4df523b3ef60405160405180910390a461323d838383613bed565b505050565b60008073ffffffffffffffffffffffffffffffffffffffff166002600084815260200190815260200160002060009054906101000a900473ffffffffffffffffffffffffffffffffffffffff1673ffffffffffffffffffffffffffffffffffffffff1614159050919050565b6001816000016000828254019250508190555050565b600081600001549050919050565b600073ffffffffffffffffffffffffffffffffffffffff168273ffffffffffffffffffffffffffffffffffffffff161415613342576040517f08c379a000000000000000000000000000000000000000000000000000000000815260040161333990614d17565b60405180910390fd5b61334b81613242565b1561338b576040517f08c379a000000000000000000000000000000000000000000000000000000000815260040161338290614bf7565b60405180910390fd5b61339760008383613964565b6001600360008473ffffffffffffffffffffffffffffffffffffffff1673ffffffffffffffffffffffffffffffffffffffff16815260200190815260200160002060008282546133e79190614ff3565b92505081905550816002600083815260200190815260200160002060006101000a81548173ffffffffffffffffffffffffffffffffffffffff021916908373ffffffffffffffffffffffffffffffffffffffff160217905550808273ffffffffffffffffffffffffffffffffffffffff16600073ffffffffffffffffffffffffffffffffffffffff167fddf252ad1be2c89b69c2b068fc378daa952ba7f163c4a11628f55a4df523b3ef60405160405180910390a46134a860008383613bed565b5050565b6000806134b7611ef7565b9050600060328260ff16116134cf57600190506134d4565b600290505b809250505090565b600181141561350257601060008154809291906134f8906151e6565b9190505550613525565b600281141561352457600f600081548092919061351e906151e6565b91905055505b5b50565b6000600760009054906101000a900473ffffffffffffffffffffffffffffffffffffffff16905081600760006101000a81548173ffffffffffffffffffffffffffffffffffffffff021916908373ffffffffffffffffffffffffffffffffffffffff1602179055508173ffffffffffffffffffffffffffffffffffffffff168173ffffffffffffffffffffffffffffffffffffffff167f8be0079c531659141344cd1fd0a4f28419497f9722a3daafe3b4186f6b6457e060405160405180910390a35050565b8173ffffffffffffffffffffffffffffffffffffffff168373ffffffffffffffffffffffffffffffffffffffff16141561365d576040517f08c379a000000000000000000000000000000000000000000000000000000000815260040161365490614c57565b60405180910390fd5b80600560008573ffffffffffffffffffffffffffffffffffffffff1673ffffffffffffffffffffffffffffffffffffffff16815260200190815260200160002060008473ffffffffffffffffffffffffffffffffffffffff1673ffffffffffffffffffffffffffffffffffffffff16815260200190815260200160002060006101000a81548160ff0219169083151502179055508173ffffffffffffffffffffffffffffffffffffffff168373ffffffffffffffffffffffffffffffffffffffff167f17307eab39ab6107e8899845ad3d59bd9653f200f220920489ca2b5937696c318360405161374e9190614afa565b60405180910390a3505050565b613766848484612fdb565b61377284848484613bf2565b6137b1576040517f08c379a00000000000000000000000000000000000000000000000000000000081526004016137a890614b57565b60405180910390fd5b50505050565b606060008214156137ff576040518060400160405280600181526020017f3000000000000000000000000000000000000000000000000000000000000000815250905061395f565b600082905060005b6000821461383157808061381a906151e6565b915050600a8261382a9190615049565b9150613807565b60008167ffffffffffffffff811115613873577f4e487b7100000000000000000000000000000000000000000000000000000000600052604160045260246000fd5b6040519080825280601f01601f1916602001820160405280156138a55781602001600182028036833780820191505090505b5090505b60008514613958576001826138be919061507a565b9150600a856138cd9190615239565b60306138d99190614ff3565b60f81b818381518110613915577f4e487b7100000000000000000000000000000000000000000000000000000000600052603260045260246000fd5b60200101907effffffffffffffffffffffffffffffffffffffffffffffffffffffffffffff1916908160001a905350600a856139519190615049565b94506138a9565b8093505050505b919050565b60006012600083815260200190815260200160002060405180610100016040529081600082015481526020016001820160009054906101000a900473ffffffffffffffffffffffffffffffffffffffff1673ffffffffffffffffffffffffffffffffffffffff1673ffffffffffffffffffffffffffffffffffffffff1681526020016002820160009054906101000a900473ffffffffffffffffffffffffffffffffffffffff1673ffffffffffffffffffffffffffffffffffffffff1673ffffffffffffffffffffffffffffffffffffffff168152602001600382015481526020016004820160009054906101000a900460ff161515151581526020016005820154815260200160068201548152602001600782015481525050905083816040019073ffffffffffffffffffffffffffffffffffffffff16908173ffffffffffffffffffffffffffffffffffffffff168152505082816020019073ffffffffffffffffffffffffffffffffffffffff16908173ffffffffffffffffffffffffffffffffffffffff168152505080601260008481526020019081526020016000206000820151816000015560208201518160010160006101000a81548173ffffffffffffffffffffffffffffffffffffffff021916908373ffffffffffffffffffffffffffffffffffffffff16021790555060408201518160020160006101000a81548173ffffffffffffffffffffffffffffffffffffffff021916908373ffffffffffffffffffffffffffffffffffffffff1602179055506060820151816003015560808201518160040160006101000a81548160ff02191690831515021790555060a0820151816005015560c0820151816006015560e0820151816007015590505050505050565b505050565b6000613c138473ffffffffffffffffffffffffffffffffffffffff16613d89565b15613d7c578373ffffffffffffffffffffffffffffffffffffffff1663150b7a02613c3c612e85565b8786866040518563ffffffff1660e01b8152600401613c5e9493929190614a85565b602060405180830381600087803b158015613c7857600080fd5b505af1925050508015613ca957506040513d601f19601f82011682018060405250810190613ca6919061426d565b60015b613d2c573d8060008114613cd9576040519150601f19603f3d011682016040523d82523d6000602084013e613cde565b606091505b50600081511415613d24576040517f08c379a0000000000000000000000000000000000000000000000000000000008152600401613d1b90614b57565b60405180910390fd5b805181602001fd5b63150b7a0260e01b7bffffffffffffffffffffffffffffffffffffffffffffffffffffffff1916817bffffffffffffffffffffffffffffffffffffffffffffffffffffffff191614915050613d81565b600190505b949350505050565b6000808273ffffffffffffffffffffffffffffffffffffffff163b119050919050565b828054613db890615183565b90600052602060002090601f016020900481019282613dda5760008555613e21565b82601f10613df357805160ff1916838001178555613e21565b82800160010185558215613e21579182015b82811115613e20578251825591602001919060010190613e05565b5b509050613e2e9190613ea5565b5090565b60405180610100016040528060008152602001600073ffffffffffffffffffffffffffffffffffffffff168152602001600073ffffffffffffffffffffffffffffffffffffffff168152602001600081526020016000151581526020016000815260200160008152602001600081525090565b5b80821115613ebe576000816000905550600101613ea6565b5090565b6000613ed5613ed084614f2e565b614f09565b905082815260208101848484011115613eed57600080fd5b613ef8848285615141565b509392505050565b6000613f13613f0e84614f5f565b614f09565b905082815260208101848484011115613f2b57600080fd5b613f36848285615141565b509392505050565b600081359050613f4d8161590f565b92915050565b600081359050613f6281615926565b92915050565b600081519050613f7781615926565b92915050565b600081359050613f8c8161593d565b92915050565b600081519050613fa18161593d565b92915050565b600082601f830112613fb857600080fd5b8135613fc8848260208601613ec2565b91505092915050565b600082601f830112613fe257600080fd5b8135613ff2848260208601613f00565b91505092915050565b60008135905061400a81615954565b92915050565b60008151905061401f81615954565b92915050565b60006020828403121561403757600080fd5b600061404584828501613f3e565b91505092915050565b6000806040838503121561406157600080fd5b600061406f85828601613f3e565b925050602061408085828601613f3e565b9150509250929050565b60008060006060848603121561409f57600080fd5b60006140ad86828701613f3e565b93505060206140be86828701613f3e565b92505060406140cf86828701613ffb565b9150509250925092565b600080600080608085870312156140ef57600080fd5b60006140fd87828801613f3e565b945050602061410e87828801613f3e565b935050604061411f87828801613ffb565b925050606085013567ffffffffffffffff81111561413c57600080fd5b61414887828801613fa7565b91505092959194509250565b6000806040838503121561416757600080fd5b600061417585828601613f3e565b925050602061418685828601613f53565b9150509250929050565b600080604083850312156141a357600080fd5b60006141b185828601613f3e565b92505060206141c285828601613ffb565b9150509250929050565b6000806000606084860312156141e157600080fd5b60006141ef86828701613f3e565b935050602061420086828701613ffb565b925050604061421186828701613f53565b9150509250925092565b60006020828403121561422d57600080fd5b600061423b84828501613f68565b91505092915050565b60006020828403121561425657600080fd5b600061426484828501613f7d565b91505092915050565b60006020828403121561427f57600080fd5b600061428d84828501613f92565b91505092915050565b6000602082840312156142a857600080fd5b600082013567ffffffffffffffff8111156142c257600080fd5b6142ce84828501613fd1565b91505092915050565b6000602082840312156142e957600080fd5b60006142f784828501613ffb565b91505092915050565b60006020828403121561431257600080fd5b600061432084828501614010565b91505092915050565b6000806040838503121561433c57600080fd5b600061434a85828601613ffb565b925050602061435b85828601613ffb565b9150509250929050565b61436e816150c0565b82525050565b61437d816150ae565b82525050565b61438c816150d2565b82525050565b61439b816150d2565b82525050565b60006143ac82614fa5565b6143b68185614fbb565b93506143c6818560208601615150565b6143cf81615326565b840191505092915050565b60006143e582614fb0565b6143ef8185614fd7565b93506143ff818560208601615150565b61440881615326565b840191505092915050565b600061441e82614fb0565b6144288185614fe8565b9350614438818560208601615150565b80840191505092915050565b6000815461445181615183565b61445b8186614fe8565b945060018216600081146144765760018114614487576144ba565b60ff198316865281860193506144ba565b61449085614f90565b60005b838110156144b257815481890152600182019150602081019050614493565b838801955050505b50505092915050565b60006144d0601f83614fd7565b91506144db82615337565b602082019050919050565b60006144f3603283614fd7565b91506144fe82615360565b604082019050919050565b6000614516601b83614fd7565b9150614521826153af565b602082019050919050565b6000614539601883614fd7565b9150614544826153d8565b602082019050919050565b600061455c602683614fd7565b915061456782615401565b604082019050919050565b600061457f602583614fd7565b915061458a82615450565b604082019050919050565b60006145a2601c83614fd7565b91506145ad8261549f565b602082019050919050565b60006145c5600e83614fd7565b91506145d0826154c8565b602082019050919050565b60006145e8602483614fd7565b91506145f3826154f1565b604082019050919050565b600061460b601983614fd7565b915061461682615540565b602082019050919050565b600061462e601483614fd7565b915061463982615569565b602082019050919050565b6000614651602983614fd7565b915061465c82615592565b604082019050919050565b6000614674601183614fd7565b915061467f826155e1565b602082019050919050565b6000614697601683614fd7565b91506146a28261560a565b602082019050919050565b60006146ba603e83614fd7565b91506146c582615633565b604082019050919050565b60006146dd602083614fd7565b91506146e882615682565b602082019050919050565b6000614700600583614fe8565b915061470b826156ab565b600582019050919050565b6000614723602083614fd7565b915061472e826156d4565b602082019050919050565b6000614746601483614fd7565b9150614751826156fd565b602082019050919050565b6000614769601883614fd7565b915061477482615726565b602082019050919050565b600061478c602183614fd7565b91506147978261574f565b604082019050919050565b60006147af600083614fcc565b91506147ba8261579e565b600082019050919050565b60006147d2600e83614fd7565b91506147dd826157a1565b602082019050919050565b60006147f5601483614fd7565b9150614800826157ca565b602082019050919050565b6000614818601183614fd7565b9150614823826157f3565b602082019050919050565b600061483b600c83614fd7565b91506148468261581c565b602082019050919050565b600061485e602e83614fd7565b915061486982615845565b604082019050919050565b6000614881601283614fd7565b915061488c82615894565b602082019050919050565b60006148a4601083614fd7565b91506148af826158bd565b602082019050919050565b60006148c7601a83614fd7565b91506148d2826158e6565b602082019050919050565b610100820160008201516148f4600085018261497f565b5060208201516149076020850182614365565b50604082015161491a6040850182614365565b50606082015161492d606085018261497f565b5060808201516149406080850182614383565b5060a082015161495360a085018261497f565b5060c082015161496660c085018261497f565b5060e082015161497960e085018261497f565b50505050565b6149888161512a565b82525050565b6149978161512a565b82525050565b6149ae6149a98261512a565b61522f565b82525050565b6149bd81615134565b82525050565b60006149cf8285614444565b91506149db8284614413565b91506149e6826146f3565b91508190509392505050565b60006149fd826147a2565b9150819050919050565b6000614a13828561499d565b602082019150614a23828461499d565b6020820191508190509392505050565b6000602082019050614a486000830184614374565b92915050565b6000606082019050614a636000830186614374565b614a706020830185614374565b614a7d604083018461498e565b949350505050565b6000608082019050614a9a6000830187614374565b614aa76020830186614374565b614ab4604083018561498e565b8181036060830152614ac681846143a1565b905095945050505050565b6000604082019050614ae66000830185614374565b614af3602083018461498e565b9392505050565b6000602082019050614b0f6000830184614392565b92915050565b60006020820190508181036000830152614b2f81846143da565b905092915050565b60006020820190508181036000830152614b50816144c3565b9050919050565b60006020820190508181036000830152614b70816144e6565b9050919050565b60006020820190508181036000830152614b9081614509565b9050919050565b60006020820190508181036000830152614bb08161452c565b9050919050565b60006020820190508181036000830152614bd08161454f565b9050919050565b60006020820190508181036000830152614bf081614572565b9050919050565b60006020820190508181036000830152614c1081614595565b9050919050565b60006020820190508181036000830152614c30816145b8565b9050919050565b60006020820190508181036000830152614c50816145db565b9050919050565b60006020820190508181036000830152614c70816145fe565b9050919050565b60006020820190508181036000830152614c9081614621565b9050919050565b60006020820190508181036000830152614cb081614644565b9050919050565b60006020820190508181036000830152614cd081614667565b9050919050565b60006020820190508181036000830152614cf08161468a565b9050919050565b60006020820190508181036000830152614d10816146ad565b9050919050565b60006020820190508181036000830152614d30816146d0565b9050919050565b60006020820190508181036000830152614d5081614716565b9050919050565b60006020820190508181036000830152614d7081614739565b9050919050565b60006020820190508181036000830152614d908161475c565b9050919050565b60006020820190508181036000830152614db08161477f565b9050919050565b60006020820190508181036000830152614dd0816147c5565b9050919050565b60006020820190508181036000830152614df0816147e8565b9050919050565b60006020820190508181036000830152614e108161480b565b9050919050565b60006020820190508181036000830152614e308161482e565b9050919050565b60006020820190508181036000830152614e5081614851565b9050919050565b60006020820190508181036000830152614e7081614874565b9050919050565b60006020820190508181036000830152614e9081614897565b9050919050565b60006020820190508181036000830152614eb0816148ba565b9050919050565b600061010082019050614ecd60008301846148dd565b92915050565b6000602082019050614ee8600083018461498e565b92915050565b6000602082019050614f0360008301846149b4565b92915050565b6000614f13614f24565b9050614f1f82826151b5565b919050565b6000604051905090565b600067ffffffffffffffff821115614f4957614f486152f7565b5b614f5282615326565b9050602081019050919050565b600067ffffffffffffffff821115614f7a57614f796152f7565b5b614f8382615326565b9050602081019050919050565b60008190508160005260206000209050919050565b600081519050919050565b600081519050919050565b600082825260208201905092915050565b600081905092915050565b600082825260208201905092915050565b600081905092915050565b6000614ffe8261512a565b91506150098361512a565b9250827fffffffffffffffffffffffffffffffffffffffffffffffffffffffffffffffff0382111561503e5761503d61526a565b5b828201905092915050565b60006150548261512a565b915061505f8361512a565b92508261506f5761506e615299565b5b828204905092915050565b60006150858261512a565b91506150908361512a565b9250828210156150a3576150a261526a565b5b828203905092915050565b60006150b98261510a565b9050919050565b60006150cb8261510a565b9050919050565b60008115159050919050565b60007fffffffff0000000000000000000000000000000000000000000000000000000082169050919050565b600073ffffffffffffffffffffffffffffffffffffffff82169050919050565b6000819050919050565b600060ff82169050919050565b82818337600083830152505050565b60005b8381101561516e578082015181840152602081019050615153565b8381111561517d576000848401525b50505050565b6000600282049050600182168061519b57607f821691505b602082108114156151af576151ae6152c8565b5b50919050565b6151be82615326565b810181811067ffffffffffffffff821117156151dd576151dc6152f7565b5b80604052505050565b60006151f18261512a565b91507fffffffffffffffffffffffffffffffffffffffffffffffffffffffffffffffff8214156152245761522361526a565b5b600182019050919050565b6000819050919050565b60006152448261512a565b915061524f8361512a565b92508261525f5761525e615299565b5b828206905092915050565b7f4e487b7100000000000000000000000000000000000000000000000000000000600052601160045260246000fd5b7f4e487b7100000000000000000000000000000000000000000000000000000000600052601260045260246000fd5b7f4e487b7100000000000000000000000000000000000000000000000000000000600052602260045260246000fd5b7f4e487b7100000000000000000000000000000000000000000000000000000000600052604160045260246000fd5b6000601f19601f8301169050919050565b7f55524920717565727920666f72206e6f6e6578697374656e7420746f6b656e00600082015250565b7f4552433732313a207472616e7366657220746f206e6f6e20455243373231526560008201527f63656976657220696d706c656d656e7465720000000000000000000000000000602082015250565b7f70726963652068617320746f206265206d6f7265207468616e20300000000000600082015250565b7f4661696c656420746f207472616e736665722066756e64730000000000000000600082015250565b7f4f776e61626c653a206e6577206f776e657220697320746865207a65726f206160008201527f6464726573730000000000000000000000000000000000000000000000000000602082015250565b7f4552433732313a207472616e736665722066726f6d20696e636f72726563742060008201527f6f776e6572000000000000000000000000000000000000000000000000000000602082015250565b7f4552433732313a20746f6b656e20616c7265616479206d696e74656400000000600082015250565b7f4861726420436170205265616368000000000000000000000000000000000000600082015250565b7f4552433732313a207472616e7366657220746f20746865207a65726f2061646460008201527f7265737300000000000000000000000000000000000000000000000000000000602082015250565b7f4552433732313a20617070726f766520746f2063616c6c657200000000000000600082015250565b7f4e6f2066756e647320746f207769746864726177000000000000000000000000600082015250565b7f4552433732313a2061646472657373207a65726f206973206e6f74206120766160008201527f6c6964206f776e65720000000000000000000000000000000000000000000000602082015250565b7f70726963652063616e6e6f742062652030000000000000000000000000000000600082015250565b7f68617368696d61206973206e6f7420696e2073616c6500000000000000000000600082015250565b7f4552433732313a20617070726f76652063616c6c6572206973206e6f7420746f60008201527f6b656e206f776e6572206e6f7220617070726f76656420666f7220616c6c0000602082015250565b7f4552433732313a206d696e7420746f20746865207a65726f2061646472657373600082015250565b7f2e6a736f6e000000000000000000000000000000000000000000000000000000600082015250565b7f4f776e61626c653a2063616c6c6572206973206e6f7420746865206f776e6572600082015250565b7f70726963652068617320746f2062652068696768000000000000000000000000600082015250565b7f4552433732313a20696e76616c696420746f6b656e2049440000000000000000600082015250565b7f4552433732313a20617070726f76616c20746f2063757272656e74206f776e6560008201527f7200000000000000000000000000000000000000000000000000000000000000602082015250565b50565b7f74786e206469646e7420776f726b000000000000000000000000000000000000600082015250565b7f496e76616c696420636f696e2061646472657373000000000000000000000000600082015250565b7f6e6f7420616363657074656420636f696e000000000000000000000000000000600082015250565b7f4e6f207468652070726963650000000000000000000000000000000000000000600082015250565b7f4552433732313a2063616c6c6572206973206e6f7420746f6b656e206f776e6560008201527f72206e6f7220617070726f766564000000000000000000000000000000000000602082015250565b7f6f6e6c7920746865204e4654206f776e65720000000000000000000000000000600082015250565b7f4e6f20636f6f6c20776974686472617700000000000000000000000000000000600082015250565b7f7472616e73616374696f6e206e6f74207375636365737366756c000000000000600082015250565b615918816150ae565b811461592357600080fd5b50565b61592f816150d2565b811461593a57600080fd5b50565b615946816150de565b811461595157600080fd5b50565b61595d8161512a565b811461596857600080fd5b5056fea26469706673582212203c2373ee08338df019a4dca3ae7f0a85f6f9e6f379b32039df6dae625ef8827164736f6c63430008030033",
  "immutableReferences": {},
  "source": "// SPDX-License-Identifier: MIT\npragma solidity ^0.8.0;\n\nimport \"@openzeppelin/contracts/token/ERC721/extensions/ERC721URIStorage.sol\";\nimport \"@openzeppelin/contracts/token/ERC20/IERC20.sol\";\nimport \"@openzeppelin/contracts/utils/Counters.sol\";\nimport \"@openzeppelin/contracts/access/Ownable.sol\";\n\n\ncontract VrakkaNFT is ERC721URIStorage, Ownable {\n    using Counters for Counters.Counter;\n\n    Counters.Counter private _tokenIds;\n    address[] acceptedCoins;\n\n    mapping(address => uint256) public COINS_PRICE;\n    uint256 PRICE_NATIVE = 1200000000000000000;\n\n\n    uint256 private MAX_SUPPLY = 12000;\n    uint256 private MAX_SUPPLY_RARE = 6000;\n    uint256 private MAX_SUPPLY_NORMAL = 6000;\n\n    uint256 private SUPPLY_RARE;\n    uint256 private SUPPLY_NORMAL;\n\n    string internal baseURI=\"https://vrakkanft.com/\";\n\n    constructor(address stable_coin) ERC721(\"Vrakka NFT\", \"VRAKKA\") {\n        acceptedCoins.push(stable_coin);\n        COINS_PRICE[stable_coin]=300000000000000000000;//en weis\n\n    }\n\n    struct Vrakka {\n        uint256 tokenId;\n        address payable currentOwner;\n        address payable previousOwner;\n        uint256 price;\n        bool forSale;\n        uint256 blockNumber;\n        uint256 time;\n        uint class;\n    }\n\n    mapping(uint256 => Vrakka) LIST;\n\n    modifier onlyNFTOwner(uint256 _tokenId) {\n        address tokenOwner = ownerOf(_tokenId);\n        require(tokenOwner == msg.sender, 'only the NFT owner');\n        _;\n    }\n\n    modifier checkHardCap() {\n        uint256 currentSupply = getTotal();\n        require(currentSupply <= MAX_SUPPLY, 'Hard Cap Reach');\n        _;\n    }\n\n    modifier legalCoin(address _coin) {\n        bool pass = false;\n        for (uint256 index = 0; index < acceptedCoins.length; index++) {\n            if (acceptedCoins[index] == _coin) {\n                pass = true;\n                break;\n            }\n        }\n        require(pass, 'not accepted coin');\n        _;\n    }\n\n    function _beforeTokenTransfer(address from, address to, uint256 tokenId) internal override {\n        Vrakka memory _vrakka = LIST[tokenId];\n        _vrakka.previousOwner = payable(from);\n        _vrakka.currentOwner = payable(to);\n        LIST[tokenId] = _vrakka;\n    }\n\n    function privateMinting(address who, uint256 _price, bool forSale) external onlyOwner checkHardCap returns (uint256) {\n        _tokenIds.increment();\n        uint256 newItemId = _tokenIds.current();\n        _mint(who, newItemId);\n\n        uint _class = selectClass();\n        updateSupplyClass(_class);\n\n        Vrakka memory newVrakka = Vrakka(\n            newItemId,\n            payable(who),\n            payable(address(0)),\n            _price,\n            forSale,\n            block.number,\n            block.timestamp,\n            _class\n        );\n\n        LIST[newItemId] = newVrakka;\n\n        return newItemId;\n    }\n\n    function publicMinting() external payable checkHardCap returns (uint256) {\n        require(msg.value >= PRICE_NATIVE, 'No the price');\n        _tokenIds.increment();\n        uint256 newItemId = _tokenIds.current();\n        _mint(msg.sender, newItemId);\n\n        uint _class = selectClass();\n        updateSupplyClass(_class);\n\n        Vrakka memory newVrakka = Vrakka(\n            newItemId,\n            payable(msg.sender),\n            payable(address(0)),\n            PRICE_NATIVE,\n            false,\n            block.number,\n            block.timestamp,\n            _class\n        );\n\n        LIST[newItemId] = newVrakka;\n\n        return newItemId;\n    }\n\n    function publicMintingERC20(address _token_address, bool forSale) external legalCoin(_token_address) checkHardCap returns (uint256) {\n        uint256 _price = COINS_PRICE[_token_address];\n        require(_price > 0);\n        bool succ = IERC20(_token_address).transferFrom(msg.sender, address(this), _price);\n        require(succ, 'txn didnt work');\n        _tokenIds.increment();\n\n        uint256 newItemId = _tokenIds.current();\n        _mint(msg.sender, newItemId);\n\n        uint _class = selectClass();\n        updateSupplyClass(_class);\n\n        Vrakka memory newVrakka = Vrakka(\n            newItemId,\n            payable(msg.sender),\n            payable(address(0)),\n            _price,\n            forSale,\n            block.number,\n            block.timestamp,\n            _class\n        );\n\n        LIST[newItemId] = newVrakka;\n\n        return newItemId;\n    }\n\n    function toggleForSale(uint256 _tokenId) public onlyNFTOwner(_tokenId) {\n        require(msg.sender != address(0));\n        require(_exists(_tokenId));\n\n        Vrakka memory _vrakka = LIST[_tokenId];\n\n        if (_vrakka.forSale) {\n            _vrakka.forSale = false;\n        } else {\n            _vrakka.forSale = true;\n        }\n\n        LIST[_tokenId] = _vrakka;\n    }\n\n    function toggleForSaleAndPrice(uint256 _tokenId, uint256 _price) public onlyNFTOwner(_tokenId) {\n        require(msg.sender != address(0));\n        require(_exists(_tokenId));\n        require(_price > 0, 'price cannot be 0');\n\n        Vrakka memory _vrakka = LIST[_tokenId];\n\n        if (_vrakka.forSale) {\n            _vrakka.forSale = false;\n        } else {\n            _vrakka.forSale = true;\n        }\n\n        _vrakka.price = _price;\n        LIST[_tokenId] = _vrakka;\n    }\n\n    function changePrice(uint256 _tokenId, uint256 _newPrice) public onlyNFTOwner(_tokenId) {\n        require(msg.sender != address(0));\n        require(_exists(_tokenId));\n        require(_newPrice > 0, 'price cannot be 0');\n\n        Vrakka memory _vrakka = LIST[_tokenId];\n        _vrakka.price = _newPrice;\n        LIST[_tokenId] = _vrakka;\n    }\n\n    function buyToken(uint256 _tokenId) public payable returns (bool) {\n        require(msg.sender != address(0));\n        require(_exists(_tokenId));\n\n        address tokenOwner = ownerOf(_tokenId);\n        require(tokenOwner != address(0));\n        require(tokenOwner != msg.sender);\n\n        Vrakka memory _vrakka = LIST[_tokenId];\n  \n        require(msg.value >= _vrakka.price, 'price has to be high');\n        require(_vrakka.forSale, 'hashima is not in sale');\n  \n        address payable sendTo = _vrakka.currentOwner;\n        (bool sent, ) = sendTo.call{value: msg.value}(\"\");\n        require(sent, 'transaction not successful');\n\n        _transfer(tokenOwner, msg.sender, _tokenId);\n\n        _vrakka.previousOwner = _vrakka.currentOwner;\n        _vrakka.currentOwner = payable(msg.sender);\n\n        _vrakka.forSale = false;\n        LIST[_tokenId] = _vrakka;\n\n        return sent;\n    }\n\n    function addCoin(address coinAddress) external onlyOwner {\n        acceptedCoins.push(coinAddress);\n    }\n\n    function getPrice() external view returns (uint256) {\n        return PRICE_NATIVE;\n    }\n\n    function setPrice(uint256 _newPrice) external onlyOwner {\n        PRICE_NATIVE = _newPrice;\n    }\n\n    function setPriceERC20(address coin, uint256 _newPrice) external onlyOwner {\n        require(_newPrice > 0, 'price has to be more than 0');\n        \n        for (uint256 index = 0; index < acceptedCoins.length; index++) {\n            if (acceptedCoins[index] == coin) {\n                COINS_PRICE[coin] = _newPrice;\n                break;\n            }\n        }\n    }\n\n    function get(uint256 _index) public view returns (Vrakka memory) {\n        return LIST[_index];\n    }\n\n    function getClass(uint256 _index) public view returns (uint) {\n        return LIST[_index].class;\n    }\n\n    function getTotal() public view returns (uint256) {\n        return (_tokenIds.current());\n    }\n\n    function random() public view returns (uint8) {\n        return uint8(uint256(keccak256(abi.encodePacked(block.timestamp, block.number))) % 100);\n    }\n\n    function selectClass() internal view returns (uint) {\n        uint8 randomNumber = random();\n        uint class;\n\n        if (randomNumber <= 50) {\n            class = 1;\n        } else {\n            class = 2;\n        }\n\n        return class;\n    }\n\n    function checkSupply(uint _class) private view returns (bool) {\n        if (_class == 1) {\n            return (SUPPLY_NORMAL >= MAX_SUPPLY_NORMAL);\n        } else {\n            return (SUPPLY_RARE >= MAX_SUPPLY_RARE);\n        }\n    }\n\n    function updateSupplyClass(uint _class) internal {\n        if (_class == 1) {\n            SUPPLY_NORMAL++;\n        } else if (_class == 2) {\n            SUPPLY_RARE++;\n        }\n    }\n\n    function tokenURI(uint256 tokenId) public view virtual override returns (string memory) {\n        require(_exists(tokenId), \"URI query for nonexistent token\");\n        return string(abi.encodePacked(baseURI,Strings.toString(tokenId),\".json\"));\n\n    }\n\n    // Ony owner can define a new API URL\n    function _setTokenURI(string memory new_uri)external onlyOwner{\n        // https://.....\n        baseURI=new_uri;\n    }   \n\n        //El administrador retira\n    function withdrawAdmin()external onlyOwner{\n        uint256 balance=address(this).balance;\n        (bool sent, ) = msg.sender.call{value:balance}(\"\");\n        require(sent,\"No cool withdraw\");\n        //Restablecer el valor de la Boveda\n        \n    }\n\n    function withdrawFunds(address coin) external onlyOwner {\n        require(coin != address(0), \"Invalid coin address\");\n        uint256 balance = IERC20(coin).balanceOf(address(this));\n        require(balance > 0, \"No funds to withdraw\");\n\n        bool success = IERC20(coin).transfer(msg.sender, balance);\n        require(success, \"Failed to transfer funds\");\n\n}\n\n}\n",
  "sourcePath": "/Users/aarontolentino/Documents/A-Work/Vrakka/contracts/VrakkaNFT.sol",
  "compiler": {
    "name": "solc",
    "version": "0.8.3+commit.8d00100c.Emscripten.clang"
  },
  "schemaVersion": "3.4.1",
  "updatedAt": "2023-07-15T03:07:06.726Z",
  "devdoc": {
    "kind": "dev",
    "methods": {
      "approve(address,uint256)": {
        "details": "See {IERC721-approve}."
      },
      "balanceOf(address)": {
        "details": "See {IERC721-balanceOf}."
      },
      "getApproved(uint256)": {
        "details": "See {IERC721-getApproved}."
      },
      "isApprovedForAll(address,address)": {
        "details": "See {IERC721-isApprovedForAll}."
      },
      "name()": {
        "details": "See {IERC721Metadata-name}."
      },
      "owner()": {
        "details": "Returns the address of the current owner."
      },
      "ownerOf(uint256)": {
        "details": "See {IERC721-ownerOf}."
      },
      "renounceOwnership()": {
        "details": "Leaves the contract without owner. It will not be possible to call `onlyOwner` functions anymore. Can only be called by the current owner. NOTE: Renouncing ownership will leave the contract without an owner, thereby removing any functionality that is only available to the owner."
      },
      "safeTransferFrom(address,address,uint256)": {
        "details": "See {IERC721-safeTransferFrom}."
      },
      "safeTransferFrom(address,address,uint256,bytes)": {
        "details": "See {IERC721-safeTransferFrom}."
      },
      "setApprovalForAll(address,bool)": {
        "details": "See {IERC721-setApprovalForAll}."
      },
      "supportsInterface(bytes4)": {
        "details": "See {IERC165-supportsInterface}."
      },
      "symbol()": {
        "details": "See {IERC721Metadata-symbol}."
      },
      "tokenURI(uint256)": {
        "details": "See {IERC721Metadata-tokenURI}."
      },
      "transferFrom(address,address,uint256)": {
        "details": "See {IERC721-transferFrom}."
      },
      "transferOwnership(address)": {
        "details": "Transfers ownership of the contract to a new account (`newOwner`). Can only be called by the current owner."
      }
    },
    "version": 1
  },
  "userdoc": {
    "kind": "user",
    "methods": {},
    "version": 1
  }
}