{
  "contractName": "VrakkaNFT",
  "abi": [
    {
      "inputs": [],
      "stateMutability": "nonpayable",
      "type": "constructor"
    },
    {
      "anonymous": false,
      "inputs": [
        {
          "indexed": true,
          "internalType": "address",
          "name": "owner",
          "type": "address"
        },
        {
          "indexed": true,
          "internalType": "address",
          "name": "approved",
          "type": "address"
        },
        {
          "indexed": true,
          "internalType": "uint256",
          "name": "tokenId",
          "type": "uint256"
        }
      ],
      "name": "Approval",
      "type": "event"
    },
    {
      "anonymous": false,
      "inputs": [
        {
          "indexed": true,
          "internalType": "address",
          "name": "owner",
          "type": "address"
        },
        {
          "indexed": true,
          "internalType": "address",
          "name": "operator",
          "type": "address"
        },
        {
          "indexed": false,
          "internalType": "bool",
          "name": "approved",
          "type": "bool"
        }
      ],
      "name": "ApprovalForAll",
      "type": "event"
    },
    {
      "anonymous": false,
      "inputs": [
        {
          "indexed": true,
          "internalType": "address",
          "name": "previousOwner",
          "type": "address"
        },
        {
          "indexed": true,
          "internalType": "address",
          "name": "newOwner",
          "type": "address"
        }
      ],
      "name": "OwnershipTransferred",
      "type": "event"
    },
    {
      "anonymous": false,
      "inputs": [
        {
          "indexed": true,
          "internalType": "address",
          "name": "from",
          "type": "address"
        },
        {
          "indexed": true,
          "internalType": "address",
          "name": "to",
          "type": "address"
        },
        {
          "indexed": true,
          "internalType": "uint256",
          "name": "tokenId",
          "type": "uint256"
        }
      ],
      "name": "Transfer",
      "type": "event"
    },
    {
      "inputs": [
        {
          "internalType": "address",
          "name": "to",
          "type": "address"
        },
        {
          "internalType": "uint256",
          "name": "tokenId",
          "type": "uint256"
        }
      ],
      "name": "approve",
      "outputs": [],
      "stateMutability": "nonpayable",
      "type": "function"
    },
    {
      "inputs": [
        {
          "internalType": "address",
          "name": "owner",
          "type": "address"
        }
      ],
      "name": "balanceOf",
      "outputs": [
        {
          "internalType": "uint256",
          "name": "",
          "type": "uint256"
        }
      ],
      "stateMutability": "view",
      "type": "function",
      "constant": true
    },
    {
      "inputs": [
        {
          "internalType": "uint256",
          "name": "tokenId",
          "type": "uint256"
        }
      ],
      "name": "getApproved",
      "outputs": [
        {
          "internalType": "address",
          "name": "",
          "type": "address"
        }
      ],
      "stateMutability": "view",
      "type": "function",
      "constant": true
    },
    {
      "inputs": [
        {
          "internalType": "address",
          "name": "owner",
          "type": "address"
        },
        {
          "internalType": "address",
          "name": "operator",
          "type": "address"
        }
      ],
      "name": "isApprovedForAll",
      "outputs": [
        {
          "internalType": "bool",
          "name": "",
          "type": "bool"
        }
      ],
      "stateMutability": "view",
      "type": "function",
      "constant": true
    },
    {
      "inputs": [],
      "name": "name",
      "outputs": [
        {
          "internalType": "string",
          "name": "",
          "type": "string"
        }
      ],
      "stateMutability": "view",
      "type": "function",
      "constant": true
    },
    {
      "inputs": [],
      "name": "owner",
      "outputs": [
        {
          "internalType": "address",
          "name": "",
          "type": "address"
        }
      ],
      "stateMutability": "view",
      "type": "function",
      "constant": true
    },
    {
      "inputs": [
        {
          "internalType": "uint256",
          "name": "tokenId",
          "type": "uint256"
        }
      ],
      "name": "ownerOf",
      "outputs": [
        {
          "internalType": "address",
          "name": "",
          "type": "address"
        }
      ],
      "stateMutability": "view",
      "type": "function",
      "constant": true
    },
    {
      "inputs": [],
      "name": "renounceOwnership",
      "outputs": [],
      "stateMutability": "nonpayable",
      "type": "function"
    },
    {
      "inputs": [
        {
          "internalType": "address",
          "name": "from",
          "type": "address"
        },
        {
          "internalType": "address",
          "name": "to",
          "type": "address"
        },
        {
          "internalType": "uint256",
          "name": "tokenId",
          "type": "uint256"
        }
      ],
      "name": "safeTransferFrom",
      "outputs": [],
      "stateMutability": "nonpayable",
      "type": "function"
    },
    {
      "inputs": [
        {
          "internalType": "address",
          "name": "from",
          "type": "address"
        },
        {
          "internalType": "address",
          "name": "to",
          "type": "address"
        },
        {
          "internalType": "uint256",
          "name": "tokenId",
          "type": "uint256"
        },
        {
          "internalType": "bytes",
          "name": "data",
          "type": "bytes"
        }
      ],
      "name": "safeTransferFrom",
      "outputs": [],
      "stateMutability": "nonpayable",
      "type": "function"
    },
    {
      "inputs": [
        {
          "internalType": "address",
          "name": "operator",
          "type": "address"
        },
        {
          "internalType": "bool",
          "name": "approved",
          "type": "bool"
        }
      ],
      "name": "setApprovalForAll",
      "outputs": [],
      "stateMutability": "nonpayable",
      "type": "function"
    },
    {
      "inputs": [
        {
          "internalType": "bytes4",
          "name": "interfaceId",
          "type": "bytes4"
        }
      ],
      "name": "supportsInterface",
      "outputs": [
        {
          "internalType": "bool",
          "name": "",
          "type": "bool"
        }
      ],
      "stateMutability": "view",
      "type": "function",
      "constant": true
    },
    {
      "inputs": [],
      "name": "symbol",
      "outputs": [
        {
          "internalType": "string",
          "name": "",
          "type": "string"
        }
      ],
      "stateMutability": "view",
      "type": "function",
      "constant": true
    },
    {
      "inputs": [
        {
          "internalType": "address",
          "name": "from",
          "type": "address"
        },
        {
          "internalType": "address",
          "name": "to",
          "type": "address"
        },
        {
          "internalType": "uint256",
          "name": "tokenId",
          "type": "uint256"
        }
      ],
      "name": "transferFrom",
      "outputs": [],
      "stateMutability": "nonpayable",
      "type": "function"
    },
    {
      "inputs": [
        {
          "internalType": "address",
          "name": "newOwner",
          "type": "address"
        }
      ],
      "name": "transferOwnership",
      "outputs": [],
      "stateMutability": "nonpayable",
      "type": "function"
    },
    {
      "inputs": [
        {
          "internalType": "address",
          "name": "who",
          "type": "address"
        },
        {
          "internalType": "uint256",
          "name": "_price",
          "type": "uint256"
        },
        {
          "internalType": "bool",
          "name": "forSale",
          "type": "bool"
        }
      ],
      "name": "privateMinting",
      "outputs": [
        {
          "internalType": "uint256",
          "name": "",
          "type": "uint256"
        }
      ],
      "stateMutability": "nonpayable",
      "type": "function"
    },
    {
      "inputs": [],
      "name": "publicMinting",
      "outputs": [
        {
          "internalType": "uint256",
          "name": "",
          "type": "uint256"
        }
      ],
      "stateMutability": "payable",
      "type": "function",
      "payable": true
    },
    {
      "inputs": [
        {
          "internalType": "address",
          "name": "_token_address",
          "type": "address"
        },
        {
          "internalType": "bool",
          "name": "forSale",
          "type": "bool"
        }
      ],
      "name": "publicMintingERC20",
      "outputs": [
        {
          "internalType": "uint256",
          "name": "",
          "type": "uint256"
        }
      ],
      "stateMutability": "nonpayable",
      "type": "function"
    },
    {
      "inputs": [
        {
          "internalType": "uint256",
          "name": "_tokenId",
          "type": "uint256"
        }
      ],
      "name": "toggleForSale",
      "outputs": [],
      "stateMutability": "nonpayable",
      "type": "function"
    },
    {
      "inputs": [
        {
          "internalType": "uint256",
          "name": "_tokenId",
          "type": "uint256"
        },
        {
          "internalType": "uint256",
          "name": "_price",
          "type": "uint256"
        }
      ],
      "name": "toggleForSaleAndPrice",
      "outputs": [],
      "stateMutability": "nonpayable",
      "type": "function"
    },
    {
      "inputs": [
        {
          "internalType": "uint256",
          "name": "_tokenId",
          "type": "uint256"
        },
        {
          "internalType": "uint256",
          "name": "_newPrice",
          "type": "uint256"
        }
      ],
      "name": "changePrice",
      "outputs": [],
      "stateMutability": "nonpayable",
      "type": "function"
    },
    {
      "inputs": [
        {
          "internalType": "uint256",
          "name": "_tokenId",
          "type": "uint256"
        }
      ],
      "name": "buyToken",
      "outputs": [
        {
          "internalType": "bool",
          "name": "",
          "type": "bool"
        }
      ],
      "stateMutability": "payable",
      "type": "function",
      "payable": true
    },
    {
      "inputs": [
        {
          "internalType": "address",
          "name": "coinAddress",
          "type": "address"
        }
      ],
      "name": "addCoin",
      "outputs": [],
      "stateMutability": "nonpayable",
      "type": "function"
    },
    {
      "inputs": [],
      "name": "getPrice",
      "outputs": [
        {
          "internalType": "uint256",
          "name": "",
          "type": "uint256"
        }
      ],
      "stateMutability": "view",
      "type": "function",
      "constant": true
    },
    {
      "inputs": [
        {
          "internalType": "uint256",
          "name": "_newPrice",
          "type": "uint256"
        }
      ],
      "name": "setPrice",
      "outputs": [],
      "stateMutability": "nonpayable",
      "type": "function"
    },
    {
      "inputs": [
        {
          "internalType": "address",
          "name": "coin",
          "type": "address"
        },
        {
          "internalType": "uint256",
          "name": "_newPrice",
          "type": "uint256"
        }
      ],
      "name": "setPriceERC20",
      "outputs": [],
      "stateMutability": "nonpayable",
      "type": "function"
    },
    {
      "inputs": [
        {
          "internalType": "uint256",
          "name": "_index",
          "type": "uint256"
        }
      ],
      "name": "get",
      "outputs": [
        {
          "components": [
            {
              "internalType": "uint256",
              "name": "tokenId",
              "type": "uint256"
            },
            {
              "internalType": "address payable",
              "name": "currentOwner",
              "type": "address"
            },
            {
              "internalType": "address payable",
              "name": "previousOwner",
              "type": "address"
            },
            {
              "internalType": "uint256",
              "name": "price",
              "type": "uint256"
            },
            {
              "internalType": "bool",
              "name": "forSale",
              "type": "bool"
            },
            {
              "internalType": "uint256",
              "name": "blockNumber",
              "type": "uint256"
            },
            {
              "internalType": "uint256",
              "name": "time",
              "type": "uint256"
            },
            {
              "internalType": "uint256",
              "name": "class",
              "type": "uint256"
            }
          ],
          "internalType": "struct VrakkaNFT.Vrakka",
          "name": "",
          "type": "tuple"
        }
      ],
      "stateMutability": "view",
      "type": "function",
      "constant": true
    },
    {
      "inputs": [
        {
          "internalType": "uint256",
          "name": "_index",
          "type": "uint256"
        }
      ],
      "name": "getClass",
      "outputs": [
        {
          "internalType": "uint256",
          "name": "",
          "type": "uint256"
        }
      ],
      "stateMutability": "view",
      "type": "function",
      "constant": true
    },
    {
      "inputs": [],
      "name": "getTotal",
      "outputs": [
        {
          "internalType": "uint256",
          "name": "",
          "type": "uint256"
        }
      ],
      "stateMutability": "view",
      "type": "function",
      "constant": true
    },
    {
      "inputs": [],
      "name": "random",
      "outputs": [
        {
          "internalType": "uint8",
          "name": "",
          "type": "uint8"
        }
      ],
      "stateMutability": "view",
      "type": "function",
      "constant": true
    },
    {
      "inputs": [
        {
          "internalType": "uint256",
          "name": "tokenId",
          "type": "uint256"
        }
      ],
      "name": "tokenURI",
      "outputs": [
        {
          "internalType": "string",
          "name": "",
          "type": "string"
        }
      ],
      "stateMutability": "view",
      "type": "function",
      "constant": true
    },
    {
      "inputs": [
        {
          "internalType": "string",
          "name": "new_uri",
          "type": "string"
        }
      ],
      "name": "_setTokenURI",
      "outputs": [],
      "stateMutability": "nonpayable",
      "type": "function"
    }
  ],
  "bytecode": "0x6080604052662386f26fc10000600b55612ee0600c55611770600d55611770600e556040518060400160405280601681526020017f68747470733a2f2f7672616b6b616e66742e636f6d2f00000000000000000000815250601190805190602001906200006e92919062000211565b503480156200007c57600080fd5b506040518060400160405280600a81526020017f5672616b6b61204e4654000000000000000000000000000000000000000000008152506040518060400160405280600681526020017f5652414b4b41000000000000000000000000000000000000000000000000000081525081600090805190602001906200010192919062000211565b5080600190805190602001906200011a92919062000211565b5050506200013d620001316200014360201b60201c565b6200014b60201b60201c565b62000326565b600033905090565b6000600760009054906101000a900473ffffffffffffffffffffffffffffffffffffffff16905081600760006101000a81548173ffffffffffffffffffffffffffffffffffffffff021916908373ffffffffffffffffffffffffffffffffffffffff1602179055508173ffffffffffffffffffffffffffffffffffffffff168173ffffffffffffffffffffffffffffffffffffffff167f8be0079c531659141344cd1fd0a4f28419497f9722a3daafe3b4186f6b6457e060405160405180910390a35050565b8280546200021f90620002c1565b90600052602060002090601f0160209004810192826200024357600085556200028f565b82601f106200025e57805160ff19168380011785556200028f565b828001600101855582156200028f579182015b828111156200028e57825182559160200191906001019062000271565b5b5090506200029e9190620002a2565b5090565b5b80821115620002bd576000816000905550600101620002a3565b5090565b60006002820490506001821680620002da57607f821691505b60208210811415620002f157620002f0620002f7565b5b50919050565b7f4e487b7100000000000000000000000000000000000000000000000000000000600052602260045260246000fd5b6153f980620003366000396000f3fe6080604052600436106101e35760003560e01c806370a082311161010257806398d5fdca11610095578063b88d4fde11610064578063b88d4fde146106fa578063c87b56dd14610723578063e985e9c514610760578063f2fde38b1461079d576101e3565b806398d5fdca14610654578063a22cb4651461067f578063a32018b9146106a8578063b3de019c146106d1576101e3565b80638da5cb5b116100d15780638da5cb5b1461059857806391b7f5ed146105c35780639507d39a146105ec57806395d89b4114610629576101e3565b806370a08231146104f0578063715018a61461052d578063775a25e31461054457806387f350b81461056f576101e3565b806342842e0e1161017a57806353eb50ae1161014957806353eb50ae14610436578063571429ba1461045f5780635ec01e4d146104885780636352211e146104b3576101e3565b806342842e0e146103755780634f55d8391461039e578063512d62df146103db57806353ac010a14610418576101e3565b806316da8632116101b657806316da8632146102b657806323b872dd146102df5780632d296bf1146103085780633cb9cd0f14610338576101e3565b806301ffc9a7146101e857806306fdde0314610225578063081812fc14610250578063095ea7b31461028d575b600080fd5b3480156101f457600080fd5b5061020f600480360381019061020a9190613e9e565b6107c6565b60405161021c9190614676565b60405180910390f35b34801561023157600080fd5b5061023a6108a8565b6040516102479190614691565b60405180910390f35b34801561025c57600080fd5b5061027760048036038101906102729190613f31565b61093a565b60405161028491906145d8565b60405180910390f35b34801561029957600080fd5b506102b460048036038101906102af9190613dea565b610980565b005b3480156102c257600080fd5b506102dd60048036038101906102d89190613c7f565b610a98565b005b3480156102eb57600080fd5b5061030660048036038101906103019190613ce4565b610b06565b005b610322600480360381019061031d9190613f31565b610b66565b60405161032f9190614676565b60405180910390f35b34801561034457600080fd5b5061035f600480360381019061035a9190613dae565b611022565b60405161036c91906149cf565b60405180910390f35b34801561038157600080fd5b5061039c60048036038101906103979190613ce4565b61144c565b005b3480156103aa57600080fd5b506103c560048036038101906103c09190613e26565b61146c565b6040516103d291906149cf565b60405180910390f35b3480156103e757600080fd5b5061040260048036038101906103fd9190613f31565b611670565b60405161040f91906149cf565b60405180910390f35b610420611690565b60405161042d91906149cf565b60405180910390f35b34801561044257600080fd5b5061045d60048036038101906104589190613f5a565b6118cf565b005b34801561046b57600080fd5b5061048660048036038101906104819190613dea565b611c30565b005b34801561049457600080fd5b5061049d611d84565b6040516104aa91906149ea565b60405180910390f35b3480156104bf57600080fd5b506104da60048036038101906104d59190613f31565b611dc3565b6040516104e791906145d8565b60405180910390f35b3480156104fc57600080fd5b5061051760048036038101906105129190613c7f565b611e75565b60405161052491906149cf565b60405180910390f35b34801561053957600080fd5b50610542611f2d565b005b34801561055057600080fd5b50610559611f41565b60405161056691906149cf565b60405180910390f35b34801561057b57600080fd5b5061059660048036038101906105919190613ef0565b611f52565b005b3480156105a457600080fd5b506105ad611f74565b6040516105ba91906145d8565b60405180910390f35b3480156105cf57600080fd5b506105ea60048036038101906105e59190613f31565b611f9e565b005b3480156105f857600080fd5b50610613600480360381019061060e9190613f31565b611fb0565b60405161062091906149b3565b60405180910390f35b34801561063557600080fd5b5061063e6120d7565b60405161064b9190614691565b60405180910390f35b34801561066057600080fd5b50610669612169565b60405161067691906149cf565b60405180910390f35b34801561068b57600080fd5b506106a660048036038101906106a19190613dae565b612173565b005b3480156106b457600080fd5b506106cf60048036038101906106ca9190613f31565b612189565b005b3480156106dd57600080fd5b506106f860048036038101906106f39190613f5a565b61249c565b005b34801561070657600080fd5b50610721600480360381019061071c9190613d33565b6127cb565b005b34801561072f57600080fd5b5061074a60048036038101906107459190613f31565b61282d565b6040516107579190614691565b60405180910390f35b34801561076c57600080fd5b5061078760048036038101906107829190613ca8565b6128a9565b6040516107949190614676565b60405180910390f35b3480156107a957600080fd5b506107c460048036038101906107bf9190613c7f565b61293d565b005b60007f80ac58cd000000000000000000000000000000000000000000000000000000007bffffffffffffffffffffffffffffffffffffffffffffffffffffffff1916827bffffffffffffffffffffffffffffffffffffffffffffffffffffffff1916148061089157507f5b5e139f000000000000000000000000000000000000000000000000000000007bffffffffffffffffffffffffffffffffffffffffffffffffffffffff1916827bffffffffffffffffffffffffffffffffffffffffffffffffffffffff1916145b806108a157506108a0826129c1565b5b9050919050565b6060600080546108b790614c7f565b80601f01602080910402602001604051908101604052809291908181526020018280546108e390614c7f565b80156109305780601f1061090557610100808354040283529160200191610930565b820191906000526020600020905b81548152906001019060200180831161091357829003601f168201915b5050505050905090565b600061094582612a2b565b6004600083815260200190815260200160002060009054906101000a900473ffffffffffffffffffffffffffffffffffffffff169050919050565b600061098b82611dc3565b90508073ffffffffffffffffffffffffffffffffffffffff168373ffffffffffffffffffffffffffffffffffffffff1614156109fc576040517f08c379a00000000000000000000000000000000000000000000000000000000081526004016109f3906148d3565b60405180910390fd5b8073ffffffffffffffffffffffffffffffffffffffff16610a1b612a76565b73ffffffffffffffffffffffffffffffffffffffff161480610a4a5750610a4981610a44612a76565b6128a9565b5b610a89576040517f08c379a0000000000000000000000000000000000000000000000000000000008152600401610a8090614833565b60405180910390fd5b610a938383612a7e565b505050565b610aa0612b37565b6009819080600181540180825580915050600190039060005260206000200160009091909190916101000a81548173ffffffffffffffffffffffffffffffffffffffff021916908373ffffffffffffffffffffffffffffffffffffffff16021790555050565b610b17610b11612a76565b82612bb5565b610b56576040517f08c379a0000000000000000000000000000000000000000000000000000000008152600401610b4d90614953565b60405180910390fd5b610b61838383612c4a565b505050565b60008073ffffffffffffffffffffffffffffffffffffffff163373ffffffffffffffffffffffffffffffffffffffff161415610ba157600080fd5b610baa82612eb1565b610bb357600080fd5b6000610bbe83611dc3565b9050600073ffffffffffffffffffffffffffffffffffffffff168173ffffffffffffffffffffffffffffffffffffffff161415610bfa57600080fd5b3373ffffffffffffffffffffffffffffffffffffffff168173ffffffffffffffffffffffffffffffffffffffff161415610c3357600080fd5b60006012600085815260200190815260200160002060405180610100016040529081600082015481526020016001820160009054906101000a900473ffffffffffffffffffffffffffffffffffffffff1673ffffffffffffffffffffffffffffffffffffffff1673ffffffffffffffffffffffffffffffffffffffff1681526020016002820160009054906101000a900473ffffffffffffffffffffffffffffffffffffffff1673ffffffffffffffffffffffffffffffffffffffff1673ffffffffffffffffffffffffffffffffffffffff168152602001600382015481526020016004820160009054906101000a900460ff16151515158152602001600582015481526020016006820154815260200160078201548152505090508060600151341015610d96576040517f08c379a0000000000000000000000000000000000000000000000000000000008152600401610d8d90614893565b60405180910390fd5b8060800151610dda576040517f08c379a0000000000000000000000000000000000000000000000000000000008152600401610dd190614813565b60405180910390fd5b60008160200151905060008173ffffffffffffffffffffffffffffffffffffffff1634604051610e0990614597565b60006040518083038185875af1925050503d8060008114610e46576040519150601f19603f3d011682016040523d82523d6000602084013e610e4b565b606091505b5050905080610e8f576040517f08c379a0000000000000000000000000000000000000000000000000000000008152600401610e8690614993565b60405180910390fd5b610e9a843388612c4a565b8260200151836040019073ffffffffffffffffffffffffffffffffffffffff16908173ffffffffffffffffffffffffffffffffffffffff168152505033836020019073ffffffffffffffffffffffffffffffffffffffff16908173ffffffffffffffffffffffffffffffffffffffff1681525050600083608001901515908115158152505082601260008881526020019081526020016000206000820151816000015560208201518160010160006101000a81548173ffffffffffffffffffffffffffffffffffffffff021916908373ffffffffffffffffffffffffffffffffffffffff16021790555060408201518160020160006101000a81548173ffffffffffffffffffffffffffffffffffffffff021916908373ffffffffffffffffffffffffffffffffffffffff1602179055506060820151816003015560808201518160040160006101000a81548160ff02191690831515021790555060a0820151816005015560c0820151816006015560e0820151816007015590505080945050505050919050565b6000826000805b6009805490508110156110ea578273ffffffffffffffffffffffffffffffffffffffff1660098281548110611087577f4e487b7100000000000000000000000000000000000000000000000000000000600052603260045260246000fd5b9060005260206000200160009054906101000a900473ffffffffffffffffffffffffffffffffffffffff1673ffffffffffffffffffffffffffffffffffffffff1614156110d757600191506110ea565b80806110e290614ce2565b915050611029565b508061112b576040517f08c379a000000000000000000000000000000000000000000000000000000000815260040161112290614913565b60405180910390fd5b6000611135611f41565b9050600c5481111561117c576040517f08c379a000000000000000000000000000000000000000000000000000000000815260040161117390614773565b60405180910390fd5b6000600a60008873ffffffffffffffffffffffffffffffffffffffff1673ffffffffffffffffffffffffffffffffffffffff168152602001908152602001600020549050600081116111cd57600080fd5b60008773ffffffffffffffffffffffffffffffffffffffff166323b872dd3330856040518463ffffffff1660e01b815260040161120c939291906145f3565b602060405180830381600087803b15801561122657600080fd5b505af115801561123a573d6000803e3d6000fd5b505050506040513d601f19601f8201168201806040525081019061125e9190613e75565b9050806112a0576040517f08c379a0000000000000000000000000000000000000000000000000000000008152600401611297906148f3565b60405180910390fd5b6112aa6008612f1d565b60006112b66008612f33565b90506112c23382612f41565b60006112cc61311b565b90506112d78161314b565b60006040518061010001604052808481526020013373ffffffffffffffffffffffffffffffffffffffff168152602001600073ffffffffffffffffffffffffffffffffffffffff1681526020018681526020018b1515815260200143815260200142815260200183815250905080601260008581526020019081526020016000206000820151816000015560208201518160010160006101000a81548173ffffffffffffffffffffffffffffffffffffffff021916908373ffffffffffffffffffffffffffffffffffffffff16021790555060408201518160020160006101000a81548173ffffffffffffffffffffffffffffffffffffffff021916908373ffffffffffffffffffffffffffffffffffffffff1602179055506060820151816003015560808201518160040160006101000a81548160ff02191690831515021790555060a0820151816005015560c0820151816006015560e08201518160070155905050829850505050505050505092915050565b611467838383604051806020016040528060008152506127cb565b505050565b6000611476612b37565b6000611480611f41565b9050600c548111156114c7576040517f08c379a00000000000000000000000000000000000000000000000000000000081526004016114be90614773565b60405180910390fd5b6114d16008612f1d565b60006114dd6008612f33565b90506114e93382612f41565b60006114f361311b565b90506114fe8161314b565b60006040518061010001604052808481526020018973ffffffffffffffffffffffffffffffffffffffff168152602001600073ffffffffffffffffffffffffffffffffffffffff168152602001888152602001871515815260200143815260200142815260200183815250905080601260008581526020019081526020016000206000820151816000015560208201518160010160006101000a81548173ffffffffffffffffffffffffffffffffffffffff021916908373ffffffffffffffffffffffffffffffffffffffff16021790555060408201518160020160006101000a81548173ffffffffffffffffffffffffffffffffffffffff021916908373ffffffffffffffffffffffffffffffffffffffff1602179055506060820151816003015560808201518160040160006101000a81548160ff02191690831515021790555060a0820151816005015560c0820151816006015560e08201518160070155905050829450505050509392505050565b600060126000838152602001908152602001600020600701549050919050565b60008061169b611f41565b9050600c548111156116e2576040517f08c379a00000000000000000000000000000000000000000000000000000000081526004016116d990614773565b60405180910390fd5b600b54341015611727576040517f08c379a000000000000000000000000000000000000000000000000000000000815260040161171e90614933565b60405180910390fd5b6117316008612f1d565b600061173d6008612f33565b90506117493382612f41565b600061175361311b565b905061175e8161314b565b60006040518061010001604052808481526020013373ffffffffffffffffffffffffffffffffffffffff168152602001600073ffffffffffffffffffffffffffffffffffffffff168152602001600b54815260200160001515815260200143815260200142815260200183815250905080601260008581526020019081526020016000206000820151816000015560208201518160010160006101000a81548173ffffffffffffffffffffffffffffffffffffffff021916908373ffffffffffffffffffffffffffffffffffffffff16021790555060408201518160020160006101000a81548173ffffffffffffffffffffffffffffffffffffffff021916908373ffffffffffffffffffffffffffffffffffffffff1602179055506060820151816003015560808201518160040160006101000a81548160ff02191690831515021790555060a0820151816005015560c0820151816006015560e082015181600701559050508294505050505090565b8160006118db82611dc3565b90503373ffffffffffffffffffffffffffffffffffffffff168173ffffffffffffffffffffffffffffffffffffffff161461194b576040517f08c379a000000000000000000000000000000000000000000000000000000000815260040161194290614973565b60405180910390fd5b600073ffffffffffffffffffffffffffffffffffffffff163373ffffffffffffffffffffffffffffffffffffffff16141561198557600080fd5b61198e84612eb1565b61199757600080fd5b600083116119da576040517f08c379a00000000000000000000000000000000000000000000000000000000081526004016119d1906147f3565b60405180910390fd5b60006012600086815260200190815260200160002060405180610100016040529081600082015481526020016001820160009054906101000a900473ffffffffffffffffffffffffffffffffffffffff1673ffffffffffffffffffffffffffffffffffffffff1673ffffffffffffffffffffffffffffffffffffffff1681526020016002820160009054906101000a900473ffffffffffffffffffffffffffffffffffffffff1673ffffffffffffffffffffffffffffffffffffffff1673ffffffffffffffffffffffffffffffffffffffff168152602001600382015481526020016004820160009054906101000a900460ff1615151515815260200160058201548152602001600682015481526020016007820154815250509050806080015115611b16576000816080019015159081151581525050611b28565b60018160800190151590811515815250505b8381606001818152505080601260008781526020019081526020016000206000820151816000015560208201518160010160006101000a81548173ffffffffffffffffffffffffffffffffffffffff021916908373ffffffffffffffffffffffffffffffffffffffff16021790555060408201518160020160006101000a81548173ffffffffffffffffffffffffffffffffffffffff021916908373ffffffffffffffffffffffffffffffffffffffff1602179055506060820151816003015560808201518160040160006101000a81548160ff02191690831515021790555060a0820151816005015560c0820151816006015560e082015181600701559050505050505050565b611c38612b37565b60008111611c7b576040517f08c379a0000000000000000000000000000000000000000000000000000000008152600401611c72906146f3565b60405180910390fd5b60005b600980549050811015611d7f578273ffffffffffffffffffffffffffffffffffffffff1660098281548110611cdc577f4e487b7100000000000000000000000000000000000000000000000000000000600052603260045260246000fd5b9060005260206000200160009054906101000a900473ffffffffffffffffffffffffffffffffffffffff1673ffffffffffffffffffffffffffffffffffffffff161415611d6c5781600a60008573ffffffffffffffffffffffffffffffffffffffff1673ffffffffffffffffffffffffffffffffffffffff16815260200190815260200160002081905550611d7f565b8080611d7790614ce2565b915050611c7e565b505050565b600060644243604051602001611d9b9291906145ac565b6040516020818303038152906040528051906020012060001c611dbe9190614d35565b905090565b6000806002600084815260200190815260200160002060009054906101000a900473ffffffffffffffffffffffffffffffffffffffff169050600073ffffffffffffffffffffffffffffffffffffffff168173ffffffffffffffffffffffffffffffffffffffff161415611e6c576040517f08c379a0000000000000000000000000000000000000000000000000000000008152600401611e63906148b3565b60405180910390fd5b80915050919050565b60008073ffffffffffffffffffffffffffffffffffffffff168273ffffffffffffffffffffffffffffffffffffffff161415611ee6576040517f08c379a0000000000000000000000000000000000000000000000000000000008152600401611edd906147d3565b60405180910390fd5b600360008373ffffffffffffffffffffffffffffffffffffffff1673ffffffffffffffffffffffffffffffffffffffff168152602001908152602001600020549050919050565b611f35612b37565b611f3f6000613197565b565b6000611f4d6008612f33565b905090565b611f5a612b37565b8060119080519060200190611f70929190613a1b565b5050565b6000600760009054906101000a900473ffffffffffffffffffffffffffffffffffffffff16905090565b611fa6612b37565b80600b8190555050565b611fb8613aa1565b6012600083815260200190815260200160002060405180610100016040529081600082015481526020016001820160009054906101000a900473ffffffffffffffffffffffffffffffffffffffff1673ffffffffffffffffffffffffffffffffffffffff1673ffffffffffffffffffffffffffffffffffffffff1681526020016002820160009054906101000a900473ffffffffffffffffffffffffffffffffffffffff1673ffffffffffffffffffffffffffffffffffffffff1673ffffffffffffffffffffffffffffffffffffffff168152602001600382015481526020016004820160009054906101000a900460ff1615151515815260200160058201548152602001600682015481526020016007820154815250509050919050565b6060600180546120e690614c7f565b80601f016020809104026020016040519081016040528092919081815260200182805461211290614c7f565b801561215f5780601f106121345761010080835404028352916020019161215f565b820191906000526020600020905b81548152906001019060200180831161214257829003601f168201915b5050505050905090565b6000600b54905090565b61218561217e612a76565b838361325d565b5050565b80600061219582611dc3565b90503373ffffffffffffffffffffffffffffffffffffffff168173ffffffffffffffffffffffffffffffffffffffff1614612205576040517f08c379a00000000000000000000000000000000000000000000000000000000081526004016121fc90614973565b60405180910390fd5b600073ffffffffffffffffffffffffffffffffffffffff163373ffffffffffffffffffffffffffffffffffffffff16141561223f57600080fd5b61224883612eb1565b61225157600080fd5b60006012600085815260200190815260200160002060405180610100016040529081600082015481526020016001820160009054906101000a900473ffffffffffffffffffffffffffffffffffffffff1673ffffffffffffffffffffffffffffffffffffffff1673ffffffffffffffffffffffffffffffffffffffff1681526020016002820160009054906101000a900473ffffffffffffffffffffffffffffffffffffffff1673ffffffffffffffffffffffffffffffffffffffff1673ffffffffffffffffffffffffffffffffffffffff168152602001600382015481526020016004820160009054906101000a900460ff161515151581526020016005820154815260200160068201548152602001600782015481525050905080608001511561238d57600081608001901515908115158152505061239f565b60018160800190151590811515815250505b80601260008681526020019081526020016000206000820151816000015560208201518160010160006101000a81548173ffffffffffffffffffffffffffffffffffffffff021916908373ffffffffffffffffffffffffffffffffffffffff16021790555060408201518160020160006101000a81548173ffffffffffffffffffffffffffffffffffffffff021916908373ffffffffffffffffffffffffffffffffffffffff1602179055506060820151816003015560808201518160040160006101000a81548160ff02191690831515021790555060a0820151816005015560c0820151816006015560e0820151816007015590505050505050565b8160006124a882611dc3565b90503373ffffffffffffffffffffffffffffffffffffffff168173ffffffffffffffffffffffffffffffffffffffff1614612518576040517f08c379a000000000000000000000000000000000000000000000000000000000815260040161250f90614973565b60405180910390fd5b600073ffffffffffffffffffffffffffffffffffffffff163373ffffffffffffffffffffffffffffffffffffffff16141561255257600080fd5b61255b84612eb1565b61256457600080fd5b600083116125a7576040517f08c379a000000000000000000000000000000000000000000000000000000000815260040161259e906147f3565b60405180910390fd5b60006012600086815260200190815260200160002060405180610100016040529081600082015481526020016001820160009054906101000a900473ffffffffffffffffffffffffffffffffffffffff1673ffffffffffffffffffffffffffffffffffffffff1673ffffffffffffffffffffffffffffffffffffffff1681526020016002820160009054906101000a900473ffffffffffffffffffffffffffffffffffffffff1673ffffffffffffffffffffffffffffffffffffffff1673ffffffffffffffffffffffffffffffffffffffff168152602001600382015481526020016004820160009054906101000a900460ff16151515158152602001600582015481526020016006820154815260200160078201548152505090508381606001818152505080601260008781526020019081526020016000206000820151816000015560208201518160010160006101000a81548173ffffffffffffffffffffffffffffffffffffffff021916908373ffffffffffffffffffffffffffffffffffffffff16021790555060408201518160020160006101000a81548173ffffffffffffffffffffffffffffffffffffffff021916908373ffffffffffffffffffffffffffffffffffffffff1602179055506060820151816003015560808201518160040160006101000a81548160ff02191690831515021790555060a0820151816005015560c0820151816006015560e082015181600701559050505050505050565b6127dc6127d6612a76565b83612bb5565b61281b576040517f08c379a000000000000000000000000000000000000000000000000000000000815260040161281290614953565b60405180910390fd5b612827848484846133ca565b50505050565b606061283882612eb1565b612877576040517f08c379a000000000000000000000000000000000000000000000000000000000815260040161286e906146b3565b60405180910390fd5b601161288283613426565b604051602001612893929190614568565b6040516020818303038152906040529050919050565b6000600560008473ffffffffffffffffffffffffffffffffffffffff1673ffffffffffffffffffffffffffffffffffffffff16815260200190815260200160002060008373ffffffffffffffffffffffffffffffffffffffff1673ffffffffffffffffffffffffffffffffffffffff16815260200190815260200160002060009054906101000a900460ff16905092915050565b612945612b37565b600073ffffffffffffffffffffffffffffffffffffffff168173ffffffffffffffffffffffffffffffffffffffff1614156129b5576040517f08c379a00000000000000000000000000000000000000000000000000000000081526004016129ac90614713565b60405180910390fd5b6129be81613197565b50565b60007f01ffc9a7000000000000000000000000000000000000000000000000000000007bffffffffffffffffffffffffffffffffffffffffffffffffffffffff1916827bffffffffffffffffffffffffffffffffffffffffffffffffffffffff1916149050919050565b612a3481612eb1565b612a73576040517f08c379a0000000000000000000000000000000000000000000000000000000008152600401612a6a906148b3565b60405180910390fd5b50565b600033905090565b816004600083815260200190815260200160002060006101000a81548173ffffffffffffffffffffffffffffffffffffffff021916908373ffffffffffffffffffffffffffffffffffffffff160217905550808273ffffffffffffffffffffffffffffffffffffffff16612af183611dc3565b73ffffffffffffffffffffffffffffffffffffffff167f8c5be1e5ebec7d5bd14f71427d1e84f3dd0314c0f7b2291e5b200ac8c7c3b92560405160405180910390a45050565b612b3f612a76565b73ffffffffffffffffffffffffffffffffffffffff16612b5d611f74565b73ffffffffffffffffffffffffffffffffffffffff1614612bb3576040517f08c379a0000000000000000000000000000000000000000000000000000000008152600401612baa90614873565b60405180910390fd5b565b600080612bc183611dc3565b90508073ffffffffffffffffffffffffffffffffffffffff168473ffffffffffffffffffffffffffffffffffffffff161480612c035750612c0281856128a9565b5b80612c4157508373ffffffffffffffffffffffffffffffffffffffff16612c298461093a565b73ffffffffffffffffffffffffffffffffffffffff16145b91505092915050565b8273ffffffffffffffffffffffffffffffffffffffff16612c6a82611dc3565b73ffffffffffffffffffffffffffffffffffffffff1614612cc0576040517f08c379a0000000000000000000000000000000000000000000000000000000008152600401612cb790614733565b60405180910390fd5b600073ffffffffffffffffffffffffffffffffffffffff168273ffffffffffffffffffffffffffffffffffffffff161415612d30576040517f08c379a0000000000000000000000000000000000000000000000000000000008152600401612d2790614793565b60405180910390fd5b612d3b8383836135d3565b612d46600082612a7e565b6001600360008573ffffffffffffffffffffffffffffffffffffffff1673ffffffffffffffffffffffffffffffffffffffff1681526020019081526020016000206000828254612d969190614b76565b925050819055506001600360008473ffffffffffffffffffffffffffffffffffffffff1673ffffffffffffffffffffffffffffffffffffffff1681526020019081526020016000206000828254612ded9190614aef565b92505081905550816002600083815260200190815260200160002060006101000a81548173ffffffffffffffffffffffffffffffffffffffff021916908373ffffffffffffffffffffffffffffffffffffffff160217905550808273ffffffffffffffffffffffffffffffffffffffff168473ffffffffffffffffffffffffffffffffffffffff167fddf252ad1be2c89b69c2b068fc378daa952ba7f163c4a11628f55a4df523b3ef60405160405180910390a4612eac83838361385c565b505050565b60008073ffffffffffffffffffffffffffffffffffffffff166002600084815260200190815260200160002060009054906101000a900473ffffffffffffffffffffffffffffffffffffffff1673ffffffffffffffffffffffffffffffffffffffff1614159050919050565b6001816000016000828254019250508190555050565b600081600001549050919050565b600073ffffffffffffffffffffffffffffffffffffffff168273ffffffffffffffffffffffffffffffffffffffff161415612fb1576040517f08c379a0000000000000000000000000000000000000000000000000000000008152600401612fa890614853565b60405180910390fd5b612fba81612eb1565b15612ffa576040517f08c379a0000000000000000000000000000000000000000000000000000000008152600401612ff190614753565b60405180910390fd5b613006600083836135d3565b6001600360008473ffffffffffffffffffffffffffffffffffffffff1673ffffffffffffffffffffffffffffffffffffffff16815260200190815260200160002060008282546130569190614aef565b92505081905550816002600083815260200190815260200160002060006101000a81548173ffffffffffffffffffffffffffffffffffffffff021916908373ffffffffffffffffffffffffffffffffffffffff160217905550808273ffffffffffffffffffffffffffffffffffffffff16600073ffffffffffffffffffffffffffffffffffffffff167fddf252ad1be2c89b69c2b068fc378daa952ba7f163c4a11628f55a4df523b3ef60405160405180910390a46131176000838361385c565b5050565b600080613126611d84565b9050600060328260ff161161313e5760019050613143565b600290505b809250505090565b6001811415613171576010600081548092919061316790614ce2565b9190505550613194565b600281141561319357600f600081548092919061318d90614ce2565b91905055505b5b50565b6000600760009054906101000a900473ffffffffffffffffffffffffffffffffffffffff16905081600760006101000a81548173ffffffffffffffffffffffffffffffffffffffff021916908373ffffffffffffffffffffffffffffffffffffffff1602179055508173ffffffffffffffffffffffffffffffffffffffff168173ffffffffffffffffffffffffffffffffffffffff167f8be0079c531659141344cd1fd0a4f28419497f9722a3daafe3b4186f6b6457e060405160405180910390a35050565b8173ffffffffffffffffffffffffffffffffffffffff168373ffffffffffffffffffffffffffffffffffffffff1614156132cc576040517f08c379a00000000000000000000000000000000000000000000000000000000081526004016132c3906147b3565b60405180910390fd5b80600560008573ffffffffffffffffffffffffffffffffffffffff1673ffffffffffffffffffffffffffffffffffffffff16815260200190815260200160002060008473ffffffffffffffffffffffffffffffffffffffff1673ffffffffffffffffffffffffffffffffffffffff16815260200190815260200160002060006101000a81548160ff0219169083151502179055508173ffffffffffffffffffffffffffffffffffffffff168373ffffffffffffffffffffffffffffffffffffffff167f17307eab39ab6107e8899845ad3d59bd9653f200f220920489ca2b5937696c31836040516133bd9190614676565b60405180910390a3505050565b6133d5848484612c4a565b6133e184848484613861565b613420576040517f08c379a0000000000000000000000000000000000000000000000000000000008152600401613417906146d3565b60405180910390fd5b50505050565b6060600082141561346e576040518060400160405280600181526020017f300000000000000000000000000000000000000000000000000000000000000081525090506135ce565b600082905060005b600082146134a057808061348990614ce2565b915050600a826134999190614b45565b9150613476565b60008167ffffffffffffffff8111156134e2577f4e487b7100000000000000000000000000000000000000000000000000000000600052604160045260246000fd5b6040519080825280601f01601f1916602001820160405280156135145781602001600182028036833780820191505090505b5090505b600085146135c75760018261352d9190614b76565b9150600a8561353c9190614d35565b60306135489190614aef565b60f81b818381518110613584577f4e487b7100000000000000000000000000000000000000000000000000000000600052603260045260246000fd5b60200101907effffffffffffffffffffffffffffffffffffffffffffffffffffffffffffff1916908160001a905350600a856135c09190614b45565b9450613518565b8093505050505b919050565b60006012600083815260200190815260200160002060405180610100016040529081600082015481526020016001820160009054906101000a900473ffffffffffffffffffffffffffffffffffffffff1673ffffffffffffffffffffffffffffffffffffffff1673ffffffffffffffffffffffffffffffffffffffff1681526020016002820160009054906101000a900473ffffffffffffffffffffffffffffffffffffffff1673ffffffffffffffffffffffffffffffffffffffff1673ffffffffffffffffffffffffffffffffffffffff168152602001600382015481526020016004820160009054906101000a900460ff161515151581526020016005820154815260200160068201548152602001600782015481525050905083816040019073ffffffffffffffffffffffffffffffffffffffff16908173ffffffffffffffffffffffffffffffffffffffff168152505082816020019073ffffffffffffffffffffffffffffffffffffffff16908173ffffffffffffffffffffffffffffffffffffffff168152505080601260008481526020019081526020016000206000820151816000015560208201518160010160006101000a81548173ffffffffffffffffffffffffffffffffffffffff021916908373ffffffffffffffffffffffffffffffffffffffff16021790555060408201518160020160006101000a81548173ffffffffffffffffffffffffffffffffffffffff021916908373ffffffffffffffffffffffffffffffffffffffff1602179055506060820151816003015560808201518160040160006101000a81548160ff02191690831515021790555060a0820151816005015560c0820151816006015560e0820151816007015590505050505050565b505050565b60006138828473ffffffffffffffffffffffffffffffffffffffff166139f8565b156139eb578373ffffffffffffffffffffffffffffffffffffffff1663150b7a026138ab612a76565b8786866040518563ffffffff1660e01b81526004016138cd949392919061462a565b602060405180830381600087803b1580156138e757600080fd5b505af192505050801561391857506040513d601f19601f820116820180604052508101906139159190613ec7565b60015b61399b573d8060008114613948576040519150601f19603f3d011682016040523d82523d6000602084013e61394d565b606091505b50600081511415613993576040517f08c379a000000000000000000000000000000000000000000000000000000000815260040161398a906146d3565b60405180910390fd5b805181602001fd5b63150b7a0260e01b7bffffffffffffffffffffffffffffffffffffffffffffffffffffffff1916817bffffffffffffffffffffffffffffffffffffffffffffffffffffffff1916149150506139f0565b600190505b949350505050565b6000808273ffffffffffffffffffffffffffffffffffffffff163b119050919050565b828054613a2790614c7f565b90600052602060002090601f016020900481019282613a495760008555613a90565b82601f10613a6257805160ff1916838001178555613a90565b82800160010185558215613a90579182015b82811115613a8f578251825591602001919060010190613a74565b5b509050613a9d9190613b14565b5090565b60405180610100016040528060008152602001600073ffffffffffffffffffffffffffffffffffffffff168152602001600073ffffffffffffffffffffffffffffffffffffffff168152602001600081526020016000151581526020016000815260200160008152602001600081525090565b5b80821115613b2d576000816000905550600101613b15565b5090565b6000613b44613b3f84614a2a565b614a05565b905082815260208101848484011115613b5c57600080fd5b613b67848285614c3d565b509392505050565b6000613b82613b7d84614a5b565b614a05565b905082815260208101848484011115613b9a57600080fd5b613ba5848285614c3d565b509392505050565b600081359050613bbc81615367565b92915050565b600081359050613bd18161537e565b92915050565b600081519050613be68161537e565b92915050565b600081359050613bfb81615395565b92915050565b600081519050613c1081615395565b92915050565b600082601f830112613c2757600080fd5b8135613c37848260208601613b31565b91505092915050565b600082601f830112613c5157600080fd5b8135613c61848260208601613b6f565b91505092915050565b600081359050613c79816153ac565b92915050565b600060208284031215613c9157600080fd5b6000613c9f84828501613bad565b91505092915050565b60008060408385031215613cbb57600080fd5b6000613cc985828601613bad565b9250506020613cda85828601613bad565b9150509250929050565b600080600060608486031215613cf957600080fd5b6000613d0786828701613bad565b9350506020613d1886828701613bad565b9250506040613d2986828701613c6a565b9150509250925092565b60008060008060808587031215613d4957600080fd5b6000613d5787828801613bad565b9450506020613d6887828801613bad565b9350506040613d7987828801613c6a565b925050606085013567ffffffffffffffff811115613d9657600080fd5b613da287828801613c16565b91505092959194509250565b60008060408385031215613dc157600080fd5b6000613dcf85828601613bad565b9250506020613de085828601613bc2565b9150509250929050565b60008060408385031215613dfd57600080fd5b6000613e0b85828601613bad565b9250506020613e1c85828601613c6a565b9150509250929050565b600080600060608486031215613e3b57600080fd5b6000613e4986828701613bad565b9350506020613e5a86828701613c6a565b9250506040613e6b86828701613bc2565b9150509250925092565b600060208284031215613e8757600080fd5b6000613e9584828501613bd7565b91505092915050565b600060208284031215613eb057600080fd5b6000613ebe84828501613bec565b91505092915050565b600060208284031215613ed957600080fd5b6000613ee784828501613c01565b91505092915050565b600060208284031215613f0257600080fd5b600082013567ffffffffffffffff811115613f1c57600080fd5b613f2884828501613c40565b91505092915050565b600060208284031215613f4357600080fd5b6000613f5184828501613c6a565b91505092915050565b60008060408385031215613f6d57600080fd5b6000613f7b85828601613c6a565b9250506020613f8c85828601613c6a565b9150509250929050565b613f9f81614bbc565b82525050565b613fae81614baa565b82525050565b613fbd81614bce565b82525050565b613fcc81614bce565b82525050565b6000613fdd82614aa1565b613fe78185614ab7565b9350613ff7818560208601614c4c565b61400081614e22565b840191505092915050565b600061401682614aac565b6140208185614ad3565b9350614030818560208601614c4c565b61403981614e22565b840191505092915050565b600061404f82614aac565b6140598185614ae4565b9350614069818560208601614c4c565b80840191505092915050565b6000815461408281614c7f565b61408c8186614ae4565b945060018216600081146140a757600181146140b8576140eb565b60ff198316865281860193506140eb565b6140c185614a8c565b60005b838110156140e3578154818901526001820191506020810190506140c4565b838801955050505b50505092915050565b6000614101601f83614ad3565b915061410c82614e33565b602082019050919050565b6000614124603283614ad3565b915061412f82614e5c565b604082019050919050565b6000614147601b83614ad3565b915061415282614eab565b602082019050919050565b600061416a602683614ad3565b915061417582614ed4565b604082019050919050565b600061418d602583614ad3565b915061419882614f23565b604082019050919050565b60006141b0601c83614ad3565b91506141bb82614f72565b602082019050919050565b60006141d3600e83614ad3565b91506141de82614f9b565b602082019050919050565b60006141f6602483614ad3565b915061420182614fc4565b604082019050919050565b6000614219601983614ad3565b915061422482615013565b602082019050919050565b600061423c602983614ad3565b91506142478261503c565b604082019050919050565b600061425f601183614ad3565b915061426a8261508b565b602082019050919050565b6000614282601683614ad3565b915061428d826150b4565b602082019050919050565b60006142a5603e83614ad3565b91506142b0826150dd565b604082019050919050565b60006142c8602083614ad3565b91506142d38261512c565b602082019050919050565b60006142eb600583614ae4565b91506142f682615155565b600582019050919050565b600061430e602083614ad3565b91506143198261517e565b602082019050919050565b6000614331601483614ad3565b915061433c826151a7565b602082019050919050565b6000614354601883614ad3565b915061435f826151d0565b602082019050919050565b6000614377602183614ad3565b9150614382826151f9565b604082019050919050565b600061439a600083614ac8565b91506143a582615248565b600082019050919050565b60006143bd600e83614ad3565b91506143c88261524b565b602082019050919050565b60006143e0601183614ad3565b91506143eb82615274565b602082019050919050565b6000614403600c83614ad3565b915061440e8261529d565b602082019050919050565b6000614426602e83614ad3565b9150614431826152c6565b604082019050919050565b6000614449601283614ad3565b915061445482615315565b602082019050919050565b600061446c601a83614ad3565b91506144778261533e565b602082019050919050565b610100820160008201516144996000850182614524565b5060208201516144ac6020850182613f96565b5060408201516144bf6040850182613f96565b5060608201516144d26060850182614524565b5060808201516144e56080850182613fb4565b5060a08201516144f860a0850182614524565b5060c082015161450b60c0850182614524565b5060e082015161451e60e0850182614524565b50505050565b61452d81614c26565b82525050565b61453c81614c26565b82525050565b61455361454e82614c26565b614d2b565b82525050565b61456281614c30565b82525050565b60006145748285614075565b91506145808284614044565b915061458b826142de565b91508190509392505050565b60006145a28261438d565b9150819050919050565b60006145b88285614542565b6020820191506145c88284614542565b6020820191508190509392505050565b60006020820190506145ed6000830184613fa5565b92915050565b60006060820190506146086000830186613fa5565b6146156020830185613fa5565b6146226040830184614533565b949350505050565b600060808201905061463f6000830187613fa5565b61464c6020830186613fa5565b6146596040830185614533565b818103606083015261466b8184613fd2565b905095945050505050565b600060208201905061468b6000830184613fc3565b92915050565b600060208201905081810360008301526146ab818461400b565b905092915050565b600060208201905081810360008301526146cc816140f4565b9050919050565b600060208201905081810360008301526146ec81614117565b9050919050565b6000602082019050818103600083015261470c8161413a565b9050919050565b6000602082019050818103600083015261472c8161415d565b9050919050565b6000602082019050818103600083015261474c81614180565b9050919050565b6000602082019050818103600083015261476c816141a3565b9050919050565b6000602082019050818103600083015261478c816141c6565b9050919050565b600060208201905081810360008301526147ac816141e9565b9050919050565b600060208201905081810360008301526147cc8161420c565b9050919050565b600060208201905081810360008301526147ec8161422f565b9050919050565b6000602082019050818103600083015261480c81614252565b9050919050565b6000602082019050818103600083015261482c81614275565b9050919050565b6000602082019050818103600083015261484c81614298565b9050919050565b6000602082019050818103600083015261486c816142bb565b9050919050565b6000602082019050818103600083015261488c81614301565b9050919050565b600060208201905081810360008301526148ac81614324565b9050919050565b600060208201905081810360008301526148cc81614347565b9050919050565b600060208201905081810360008301526148ec8161436a565b9050919050565b6000602082019050818103600083015261490c816143b0565b9050919050565b6000602082019050818103600083015261492c816143d3565b9050919050565b6000602082019050818103600083015261494c816143f6565b9050919050565b6000602082019050818103600083015261496c81614419565b9050919050565b6000602082019050818103600083015261498c8161443c565b9050919050565b600060208201905081810360008301526149ac8161445f565b9050919050565b6000610100820190506149c96000830184614482565b92915050565b60006020820190506149e46000830184614533565b92915050565b60006020820190506149ff6000830184614559565b92915050565b6000614a0f614a20565b9050614a1b8282614cb1565b919050565b6000604051905090565b600067ffffffffffffffff821115614a4557614a44614df3565b5b614a4e82614e22565b9050602081019050919050565b600067ffffffffffffffff821115614a7657614a75614df3565b5b614a7f82614e22565b9050602081019050919050565b60008190508160005260206000209050919050565b600081519050919050565b600081519050919050565b600082825260208201905092915050565b600081905092915050565b600082825260208201905092915050565b600081905092915050565b6000614afa82614c26565b9150614b0583614c26565b9250827fffffffffffffffffffffffffffffffffffffffffffffffffffffffffffffffff03821115614b3a57614b39614d66565b5b828201905092915050565b6000614b5082614c26565b9150614b5b83614c26565b925082614b6b57614b6a614d95565b5b828204905092915050565b6000614b8182614c26565b9150614b8c83614c26565b925082821015614b9f57614b9e614d66565b5b828203905092915050565b6000614bb582614c06565b9050919050565b6000614bc782614c06565b9050919050565b60008115159050919050565b60007fffffffff0000000000000000000000000000000000000000000000000000000082169050919050565b600073ffffffffffffffffffffffffffffffffffffffff82169050919050565b6000819050919050565b600060ff82169050919050565b82818337600083830152505050565b60005b83811015614c6a578082015181840152602081019050614c4f565b83811115614c79576000848401525b50505050565b60006002820490506001821680614c9757607f821691505b60208210811415614cab57614caa614dc4565b5b50919050565b614cba82614e22565b810181811067ffffffffffffffff82111715614cd957614cd8614df3565b5b80604052505050565b6000614ced82614c26565b91507fffffffffffffffffffffffffffffffffffffffffffffffffffffffffffffffff821415614d2057614d1f614d66565b5b600182019050919050565b6000819050919050565b6000614d4082614c26565b9150614d4b83614c26565b925082614d5b57614d5a614d95565b5b828206905092915050565b7f4e487b7100000000000000000000000000000000000000000000000000000000600052601160045260246000fd5b7f4e487b7100000000000000000000000000000000000000000000000000000000600052601260045260246000fd5b7f4e487b7100000000000000000000000000000000000000000000000000000000600052602260045260246000fd5b7f4e487b7100000000000000000000000000000000000000000000000000000000600052604160045260246000fd5b6000601f19601f8301169050919050565b7f55524920717565727920666f72206e6f6e6578697374656e7420746f6b656e00600082015250565b7f4552433732313a207472616e7366657220746f206e6f6e20455243373231526560008201527f63656976657220696d706c656d656e7465720000000000000000000000000000602082015250565b7f70726963652068617320746f206265206d6f7265207468616e20300000000000600082015250565b7f4f776e61626c653a206e6577206f776e657220697320746865207a65726f206160008201527f6464726573730000000000000000000000000000000000000000000000000000602082015250565b7f4552433732313a207472616e736665722066726f6d20696e636f72726563742060008201527f6f776e6572000000000000000000000000000000000000000000000000000000602082015250565b7f4552433732313a20746f6b656e20616c7265616479206d696e74656400000000600082015250565b7f4861726420436170205265616368000000000000000000000000000000000000600082015250565b7f4552433732313a207472616e7366657220746f20746865207a65726f2061646460008201527f7265737300000000000000000000000000000000000000000000000000000000602082015250565b7f4552433732313a20617070726f766520746f2063616c6c657200000000000000600082015250565b7f4552433732313a2061646472657373207a65726f206973206e6f74206120766160008201527f6c6964206f776e65720000000000000000000000000000000000000000000000602082015250565b7f70726963652063616e6e6f742062652030000000000000000000000000000000600082015250565b7f68617368696d61206973206e6f7420696e2073616c6500000000000000000000600082015250565b7f4552433732313a20617070726f76652063616c6c6572206973206e6f7420746f60008201527f6b656e206f776e6572206e6f7220617070726f76656420666f7220616c6c0000602082015250565b7f4552433732313a206d696e7420746f20746865207a65726f2061646472657373600082015250565b7f2e6a736f6e000000000000000000000000000000000000000000000000000000600082015250565b7f4f776e61626c653a2063616c6c6572206973206e6f7420746865206f776e6572600082015250565b7f70726963652068617320746f2062652068696768000000000000000000000000600082015250565b7f4552433732313a20696e76616c696420746f6b656e2049440000000000000000600082015250565b7f4552433732313a20617070726f76616c20746f2063757272656e74206f776e6560008201527f7200000000000000000000000000000000000000000000000000000000000000602082015250565b50565b7f74786e206469646e7420776f726b000000000000000000000000000000000000600082015250565b7f6e6f7420616363657074656420636f696e000000000000000000000000000000600082015250565b7f4e6f207468652070726963650000000000000000000000000000000000000000600082015250565b7f4552433732313a2063616c6c6572206973206e6f7420746f6b656e206f776e6560008201527f72206e6f7220617070726f766564000000000000000000000000000000000000602082015250565b7f6f6e6c7920746865204e4654206f776e65720000000000000000000000000000600082015250565b7f7472616e73616374696f6e206e6f74207375636365737366756c000000000000600082015250565b61537081614baa565b811461537b57600080fd5b50565b61538781614bce565b811461539257600080fd5b50565b61539e81614bda565b81146153a957600080fd5b50565b6153b581614c26565b81146153c057600080fd5b5056fea2646970667358221220aa187e656642ee0981facad81e1db4652f4356e84eb71ddd4c98bc042b58ae4064736f6c63430008030033",
  "immutableReferences": {},
  "source": "// SPDX-License-Identifier: MIT\npragma solidity ^0.8.0;\n\nimport \"@openzeppelin/contracts/token/ERC721/extensions/ERC721URIStorage.sol\";\nimport \"@openzeppelin/contracts/token/ERC20/IERC20.sol\";\nimport \"@openzeppelin/contracts/utils/Counters.sol\";\nimport \"@openzeppelin/contracts/access/Ownable.sol\";\n\n\n\ncontract VrakkaNFT is ERC721URIStorage, Ownable {\n    using Counters for Counters.Counter;\n\n    Counters.Counter private _tokenIds;\n    address[] acceptedCoins;\n\n    mapping(address => uint256) private COINS_PRICE;\n    uint256 PRICE_NATIVE = 10**16 wei;\n\n    uint256 private MAX_SUPPLY = 12000;\n    uint256 private MAX_SUPPLY_RARE = 6000;\n    uint256 private MAX_SUPPLY_NORMAL = 6000;\n\n    uint256 private SUPPLY_RARE;\n    uint256 private SUPPLY_NORMAL;\n\n    string internal baseURI=\"https://vrakkanft.com/\";\n\n    constructor() ERC721(\"Vrakka NFT\", \"VRAKKA\") {}\n\n    struct Vrakka {\n        uint256 tokenId;\n        address payable currentOwner;\n        address payable previousOwner;\n        uint256 price;\n        bool forSale;\n        uint256 blockNumber;\n        uint256 time;\n        uint class;\n    }\n\n    mapping(uint256 => Vrakka) LIST;\n\n    modifier onlyNFTOwner(uint256 _tokenId) {\n        address tokenOwner = ownerOf(_tokenId);\n        require(tokenOwner == msg.sender, 'only the NFT owner');\n        _;\n    }\n\n    modifier checkHardCap() {\n        uint256 currentSupply = getTotal();\n        require(currentSupply <= MAX_SUPPLY, 'Hard Cap Reach');\n        _;\n    }\n\n    modifier legalCoin(address _coin) {\n        bool pass = false;\n        for (uint256 index = 0; index < acceptedCoins.length; index++) {\n            if (acceptedCoins[index] == _coin) {\n                pass = true;\n                break;\n            }\n        }\n        require(pass, 'not accepted coin');\n        _;\n    }\n\n    function _beforeTokenTransfer(address from, address to, uint256 tokenId) internal override {\n        Vrakka memory _vrakka = LIST[tokenId];\n        _vrakka.previousOwner = payable(from);\n        _vrakka.currentOwner = payable(to);\n        LIST[tokenId] = _vrakka;\n    }\n\n    function privateMinting(address who, uint256 _price, bool forSale) external onlyOwner checkHardCap returns (uint256) {\n        _tokenIds.increment();\n        uint256 newItemId = _tokenIds.current();\n        _mint(msg.sender, newItemId);\n\n        uint _class = selectClass();\n        updateSupplyClass(_class);\n\n        Vrakka memory newVrakka = Vrakka(\n            newItemId,\n            payable(who),\n            payable(address(0)),\n            _price,\n            forSale,\n            block.number,\n            block.timestamp,\n            _class\n        );\n\n        LIST[newItemId] = newVrakka;\n\n        return newItemId;\n    }\n\n    function publicMinting() external payable checkHardCap returns (uint256) {\n        require(msg.value >= PRICE_NATIVE, 'No the price');\n        _tokenIds.increment();\n        uint256 newItemId = _tokenIds.current();\n        _mint(msg.sender, newItemId);\n\n        uint _class = selectClass();\n        updateSupplyClass(_class);\n\n        Vrakka memory newVrakka = Vrakka(\n            newItemId,\n            payable(msg.sender),\n            payable(address(0)),\n            PRICE_NATIVE,\n            false,\n            block.number,\n            block.timestamp,\n            _class\n        );\n\n        LIST[newItemId] = newVrakka;\n\n        return newItemId;\n    }\n\n    function publicMintingERC20(address _token_address, bool forSale) external legalCoin(_token_address) checkHardCap returns (uint256) {\n        uint256 _price = COINS_PRICE[_token_address];\n        require(_price > 0);\n        bool succ = IERC20(_token_address).transferFrom(msg.sender, address(this), _price);\n        require(succ, 'txn didnt work');\n        _tokenIds.increment();\n\n        uint256 newItemId = _tokenIds.current();\n        _mint(msg.sender, newItemId);\n\n        uint _class = selectClass();\n        updateSupplyClass(_class);\n\n        Vrakka memory newVrakka = Vrakka(\n            newItemId,\n            payable(msg.sender),\n            payable(address(0)),\n            _price,\n            forSale,\n            block.number,\n            block.timestamp,\n            _class\n        );\n\n        LIST[newItemId] = newVrakka;\n\n        return newItemId;\n    }\n\n    function toggleForSale(uint256 _tokenId) public onlyNFTOwner(_tokenId) {\n        require(msg.sender != address(0));\n        require(_exists(_tokenId));\n\n        Vrakka memory _vrakka = LIST[_tokenId];\n\n        if (_vrakka.forSale) {\n            _vrakka.forSale = false;\n        } else {\n            _vrakka.forSale = true;\n        }\n\n        LIST[_tokenId] = _vrakka;\n    }\n\n    function toggleForSaleAndPrice(uint256 _tokenId, uint256 _price) public onlyNFTOwner(_tokenId) {\n        require(msg.sender != address(0));\n        require(_exists(_tokenId));\n        require(_price > 0, 'price cannot be 0');\n\n        Vrakka memory _vrakka = LIST[_tokenId];\n\n        if (_vrakka.forSale) {\n            _vrakka.forSale = false;\n        } else {\n            _vrakka.forSale = true;\n        }\n\n        _vrakka.price = _price;\n        LIST[_tokenId] = _vrakka;\n    }\n\n    function changePrice(uint256 _tokenId, uint256 _newPrice) public onlyNFTOwner(_tokenId) {\n        require(msg.sender != address(0));\n        require(_exists(_tokenId));\n        require(_newPrice > 0, 'price cannot be 0');\n\n        Vrakka memory _vrakka = LIST[_tokenId];\n        _vrakka.price = _newPrice;\n        LIST[_tokenId] = _vrakka;\n    }\n\n    function buyToken(uint256 _tokenId) public payable returns (bool) {\n        require(msg.sender != address(0));\n        require(_exists(_tokenId));\n\n        address tokenOwner = ownerOf(_tokenId);\n        require(tokenOwner != address(0));\n        require(tokenOwner != msg.sender);\n\n        Vrakka memory _vrakka = LIST[_tokenId];\n  \n        require(msg.value >= _vrakka.price, 'price has to be high');\n        require(_vrakka.forSale, 'hashima is not in sale');\n  \n        address payable sendTo = _vrakka.currentOwner;\n        (bool sent, ) = sendTo.call{value: msg.value}(\"\");\n        require(sent, 'transaction not successful');\n\n        _transfer(tokenOwner, msg.sender, _tokenId);\n\n        _vrakka.previousOwner = _vrakka.currentOwner;\n        _vrakka.currentOwner = payable(msg.sender);\n\n        _vrakka.forSale = false;\n        LIST[_tokenId] = _vrakka;\n\n        return sent;\n    }\n\n    function addCoin(address coinAddress) external onlyOwner {\n        acceptedCoins.push(coinAddress);\n    }\n\n    function getPrice() external view returns (uint256) {\n        return PRICE_NATIVE;\n    }\n\n    function setPrice(uint256 _newPrice) external onlyOwner {\n        PRICE_NATIVE = _newPrice;\n    }\n\n    function setPriceERC20(address coin, uint256 _newPrice) external onlyOwner {\n        require(_newPrice > 0, 'price has to be more than 0');\n        \n        for (uint256 index = 0; index < acceptedCoins.length; index++) {\n            if (acceptedCoins[index] == coin) {\n                COINS_PRICE[coin] = _newPrice;\n                break;\n            }\n        }\n    }\n\n    function get(uint256 _index) public view returns (Vrakka memory) {\n        return LIST[_index];\n    }\n\n    function getClass(uint256 _index) public view returns (uint) {\n        return LIST[_index].class;\n    }\n\n    function getTotal() public view returns (uint256) {\n        return (_tokenIds.current());\n    }\n\n    function random() public view returns (uint8) {\n        return uint8(uint256(keccak256(abi.encodePacked(block.timestamp, block.number))) % 100);\n    }\n\n    function selectClass() internal view returns (uint) {\n        uint8 randomNumber = random();\n        uint class;\n\n        if (randomNumber <= 50) {\n            class = 1;\n        } else {\n            class = 2;\n        }\n\n        return class;\n    }\n\n    function checkSupply(uint _class) private view returns (bool) {\n        if (_class == 1) {\n            return (SUPPLY_NORMAL >= MAX_SUPPLY_NORMAL);\n        } else {\n            return (SUPPLY_RARE >= MAX_SUPPLY_RARE);\n        }\n    }\n\n    function updateSupplyClass(uint _class) internal {\n        if (_class == 1) {\n            SUPPLY_NORMAL++;\n        } else if (_class == 2) {\n            SUPPLY_RARE++;\n        }\n    }\n\n    function tokenURI(uint256 tokenId) public view virtual override returns (string memory) {\n        require(_exists(tokenId), \"URI query for nonexistent token\");\n        return string(abi.encodePacked(baseURI,Strings.toString(tokenId),\".json\"));\n\n    }\n\n\n    // Ony owner can define a new API URL\n    function _setTokenURI(string memory new_uri)external onlyOwner{\n        // https://.....\n        baseURI=new_uri;\n    }   \n}\n",
  "sourcePath": "/Users/aarontolentino/Documents/A-Work/Vrakka/contracts/VrakkaNFT.sol",
  "compiler": {
    "name": "solc",
    "version": "0.8.3+commit.8d00100c.Emscripten.clang"
  },
  "schemaVersion": "3.4.1",
  "updatedAt": "2023-07-11T17:40:53.355Z",
  "networkType": "ethereum",
  "devdoc": {
    "kind": "dev",
    "methods": {
      "approve(address,uint256)": {
        "details": "See {IERC721-approve}."
      },
      "balanceOf(address)": {
        "details": "See {IERC721-balanceOf}."
      },
      "getApproved(uint256)": {
        "details": "See {IERC721-getApproved}."
      },
      "isApprovedForAll(address,address)": {
        "details": "See {IERC721-isApprovedForAll}."
      },
      "name()": {
        "details": "See {IERC721Metadata-name}."
      },
      "owner()": {
        "details": "Returns the address of the current owner."
      },
      "ownerOf(uint256)": {
        "details": "See {IERC721-ownerOf}."
      },
      "renounceOwnership()": {
        "details": "Leaves the contract without owner. It will not be possible to call `onlyOwner` functions anymore. Can only be called by the current owner. NOTE: Renouncing ownership will leave the contract without an owner, thereby removing any functionality that is only available to the owner."
      },
      "safeTransferFrom(address,address,uint256)": {
        "details": "See {IERC721-safeTransferFrom}."
      },
      "safeTransferFrom(address,address,uint256,bytes)": {
        "details": "See {IERC721-safeTransferFrom}."
      },
      "setApprovalForAll(address,bool)": {
        "details": "See {IERC721-setApprovalForAll}."
      },
      "supportsInterface(bytes4)": {
        "details": "See {IERC165-supportsInterface}."
      },
      "symbol()": {
        "details": "See {IERC721Metadata-symbol}."
      },
      "tokenURI(uint256)": {
        "details": "See {IERC721Metadata-tokenURI}."
      },
      "transferFrom(address,address,uint256)": {
        "details": "See {IERC721-transferFrom}."
      },
      "transferOwnership(address)": {
        "details": "Transfers ownership of the contract to a new account (`newOwner`). Can only be called by the current owner."
      }
    },
    "version": 1
  },
  "userdoc": {
    "kind": "user",
    "methods": {},
    "version": 1
  }
}