{
  "contractName": "VrakkaNFT",
  "abi": [
    {
      "inputs": [],
      "stateMutability": "nonpayable",
      "type": "constructor"
    },
    {
      "anonymous": false,
      "inputs": [
        {
          "indexed": true,
          "internalType": "address",
          "name": "owner",
          "type": "address"
        },
        {
          "indexed": true,
          "internalType": "address",
          "name": "approved",
          "type": "address"
        },
        {
          "indexed": true,
          "internalType": "uint256",
          "name": "tokenId",
          "type": "uint256"
        }
      ],
      "name": "Approval",
      "type": "event"
    },
    {
      "anonymous": false,
      "inputs": [
        {
          "indexed": true,
          "internalType": "address",
          "name": "owner",
          "type": "address"
        },
        {
          "indexed": true,
          "internalType": "address",
          "name": "operator",
          "type": "address"
        },
        {
          "indexed": false,
          "internalType": "bool",
          "name": "approved",
          "type": "bool"
        }
      ],
      "name": "ApprovalForAll",
      "type": "event"
    },
    {
      "anonymous": false,
      "inputs": [
        {
          "indexed": true,
          "internalType": "address",
          "name": "previousOwner",
          "type": "address"
        },
        {
          "indexed": true,
          "internalType": "address",
          "name": "newOwner",
          "type": "address"
        }
      ],
      "name": "OwnershipTransferred",
      "type": "event"
    },
    {
      "anonymous": false,
      "inputs": [
        {
          "indexed": true,
          "internalType": "address",
          "name": "from",
          "type": "address"
        },
        {
          "indexed": true,
          "internalType": "address",
          "name": "to",
          "type": "address"
        },
        {
          "indexed": true,
          "internalType": "uint256",
          "name": "tokenId",
          "type": "uint256"
        }
      ],
      "name": "Transfer",
      "type": "event"
    },
    {
      "inputs": [
        {
          "internalType": "address",
          "name": "to",
          "type": "address"
        },
        {
          "internalType": "uint256",
          "name": "tokenId",
          "type": "uint256"
        }
      ],
      "name": "approve",
      "outputs": [],
      "stateMutability": "nonpayable",
      "type": "function"
    },
    {
      "inputs": [
        {
          "internalType": "address",
          "name": "owner",
          "type": "address"
        }
      ],
      "name": "balanceOf",
      "outputs": [
        {
          "internalType": "uint256",
          "name": "",
          "type": "uint256"
        }
      ],
      "stateMutability": "view",
      "type": "function",
      "constant": true
    },
    {
      "inputs": [
        {
          "internalType": "uint256",
          "name": "tokenId",
          "type": "uint256"
        }
      ],
      "name": "getApproved",
      "outputs": [
        {
          "internalType": "address",
          "name": "",
          "type": "address"
        }
      ],
      "stateMutability": "view",
      "type": "function",
      "constant": true
    },
    {
      "inputs": [
        {
          "internalType": "address",
          "name": "owner",
          "type": "address"
        },
        {
          "internalType": "address",
          "name": "operator",
          "type": "address"
        }
      ],
      "name": "isApprovedForAll",
      "outputs": [
        {
          "internalType": "bool",
          "name": "",
          "type": "bool"
        }
      ],
      "stateMutability": "view",
      "type": "function",
      "constant": true
    },
    {
      "inputs": [],
      "name": "name",
      "outputs": [
        {
          "internalType": "string",
          "name": "",
          "type": "string"
        }
      ],
      "stateMutability": "view",
      "type": "function",
      "constant": true
    },
    {
      "inputs": [],
      "name": "owner",
      "outputs": [
        {
          "internalType": "address",
          "name": "",
          "type": "address"
        }
      ],
      "stateMutability": "view",
      "type": "function",
      "constant": true
    },
    {
      "inputs": [
        {
          "internalType": "uint256",
          "name": "tokenId",
          "type": "uint256"
        }
      ],
      "name": "ownerOf",
      "outputs": [
        {
          "internalType": "address",
          "name": "",
          "type": "address"
        }
      ],
      "stateMutability": "view",
      "type": "function",
      "constant": true
    },
    {
      "inputs": [],
      "name": "renounceOwnership",
      "outputs": [],
      "stateMutability": "nonpayable",
      "type": "function"
    },
    {
      "inputs": [
        {
          "internalType": "address",
          "name": "from",
          "type": "address"
        },
        {
          "internalType": "address",
          "name": "to",
          "type": "address"
        },
        {
          "internalType": "uint256",
          "name": "tokenId",
          "type": "uint256"
        }
      ],
      "name": "safeTransferFrom",
      "outputs": [],
      "stateMutability": "nonpayable",
      "type": "function"
    },
    {
      "inputs": [
        {
          "internalType": "address",
          "name": "from",
          "type": "address"
        },
        {
          "internalType": "address",
          "name": "to",
          "type": "address"
        },
        {
          "internalType": "uint256",
          "name": "tokenId",
          "type": "uint256"
        },
        {
          "internalType": "bytes",
          "name": "data",
          "type": "bytes"
        }
      ],
      "name": "safeTransferFrom",
      "outputs": [],
      "stateMutability": "nonpayable",
      "type": "function"
    },
    {
      "inputs": [
        {
          "internalType": "address",
          "name": "operator",
          "type": "address"
        },
        {
          "internalType": "bool",
          "name": "approved",
          "type": "bool"
        }
      ],
      "name": "setApprovalForAll",
      "outputs": [],
      "stateMutability": "nonpayable",
      "type": "function"
    },
    {
      "inputs": [
        {
          "internalType": "bytes4",
          "name": "interfaceId",
          "type": "bytes4"
        }
      ],
      "name": "supportsInterface",
      "outputs": [
        {
          "internalType": "bool",
          "name": "",
          "type": "bool"
        }
      ],
      "stateMutability": "view",
      "type": "function",
      "constant": true
    },
    {
      "inputs": [],
      "name": "symbol",
      "outputs": [
        {
          "internalType": "string",
          "name": "",
          "type": "string"
        }
      ],
      "stateMutability": "view",
      "type": "function",
      "constant": true
    },
    {
      "inputs": [
        {
          "internalType": "uint256",
          "name": "tokenId",
          "type": "uint256"
        }
      ],
      "name": "tokenURI",
      "outputs": [
        {
          "internalType": "string",
          "name": "",
          "type": "string"
        }
      ],
      "stateMutability": "view",
      "type": "function",
      "constant": true
    },
    {
      "inputs": [
        {
          "internalType": "address",
          "name": "from",
          "type": "address"
        },
        {
          "internalType": "address",
          "name": "to",
          "type": "address"
        },
        {
          "internalType": "uint256",
          "name": "tokenId",
          "type": "uint256"
        }
      ],
      "name": "transferFrom",
      "outputs": [],
      "stateMutability": "nonpayable",
      "type": "function"
    },
    {
      "inputs": [
        {
          "internalType": "address",
          "name": "newOwner",
          "type": "address"
        }
      ],
      "name": "transferOwnership",
      "outputs": [],
      "stateMutability": "nonpayable",
      "type": "function"
    },
    {
      "inputs": [
        {
          "internalType": "address",
          "name": "who",
          "type": "address"
        },
        {
          "internalType": "uint256",
          "name": "_price",
          "type": "uint256"
        },
        {
          "internalType": "bool",
          "name": "forSale",
          "type": "bool"
        }
      ],
      "name": "PrivateMinting",
      "outputs": [
        {
          "internalType": "uint256",
          "name": "",
          "type": "uint256"
        }
      ],
      "stateMutability": "nonpayable",
      "type": "function"
    },
    {
      "inputs": [
        {
          "internalType": "string",
          "name": "_uri",
          "type": "string"
        }
      ],
      "name": "PublicMinting",
      "outputs": [
        {
          "internalType": "uint256",
          "name": "",
          "type": "uint256"
        }
      ],
      "stateMutability": "payable",
      "type": "function",
      "payable": true
    },
    {
      "inputs": [
        {
          "internalType": "string",
          "name": "_uri",
          "type": "string"
        },
        {
          "internalType": "address",
          "name": "_token_address",
          "type": "address"
        },
        {
          "internalType": "bool",
          "name": "forSale",
          "type": "bool"
        }
      ],
      "name": "PublicMintingERC20",
      "outputs": [
        {
          "internalType": "uint256",
          "name": "",
          "type": "uint256"
        }
      ],
      "stateMutability": "nonpayable",
      "type": "function"
    },
    {
      "inputs": [
        {
          "internalType": "uint256",
          "name": "_tokenId",
          "type": "uint256"
        }
      ],
      "name": "toggleForSale",
      "outputs": [],
      "stateMutability": "nonpayable",
      "type": "function"
    },
    {
      "inputs": [
        {
          "internalType": "uint256",
          "name": "_tokenId",
          "type": "uint256"
        },
        {
          "internalType": "uint256",
          "name": "_price",
          "type": "uint256"
        }
      ],
      "name": "toggleForSaleAndPrice",
      "outputs": [],
      "stateMutability": "nonpayable",
      "type": "function"
    },
    {
      "inputs": [
        {
          "internalType": "uint256",
          "name": "_tokenId",
          "type": "uint256"
        },
        {
          "internalType": "uint256",
          "name": "_newPrice",
          "type": "uint256"
        }
      ],
      "name": "changePrice",
      "outputs": [],
      "stateMutability": "nonpayable",
      "type": "function"
    },
    {
      "inputs": [
        {
          "internalType": "uint256",
          "name": "_tokenId",
          "type": "uint256"
        }
      ],
      "name": "buyToken",
      "outputs": [
        {
          "internalType": "bool",
          "name": "",
          "type": "bool"
        }
      ],
      "stateMutability": "payable",
      "type": "function",
      "payable": true
    },
    {
      "inputs": [
        {
          "internalType": "address",
          "name": "coinAddress",
          "type": "address"
        }
      ],
      "name": "addCoin",
      "outputs": [],
      "stateMutability": "nonpayable",
      "type": "function"
    },
    {
      "inputs": [],
      "name": "getPrice",
      "outputs": [
        {
          "internalType": "uint256",
          "name": "",
          "type": "uint256"
        }
      ],
      "stateMutability": "view",
      "type": "function",
      "constant": true
    },
    {
      "inputs": [
        {
          "internalType": "uint256",
          "name": "_newPrice",
          "type": "uint256"
        }
      ],
      "name": "setPrice",
      "outputs": [],
      "stateMutability": "nonpayable",
      "type": "function"
    },
    {
      "inputs": [
        {
          "internalType": "address",
          "name": "coin",
          "type": "address"
        },
        {
          "internalType": "uint256",
          "name": "_newPrice",
          "type": "uint256"
        }
      ],
      "name": "setPriceERC20",
      "outputs": [],
      "stateMutability": "nonpayable",
      "type": "function"
    },
    {
      "inputs": [
        {
          "internalType": "uint256",
          "name": "_index",
          "type": "uint256"
        }
      ],
      "name": "get",
      "outputs": [
        {
          "components": [
            {
              "internalType": "uint256",
              "name": "tokenId",
              "type": "uint256"
            },
            {
              "internalType": "address payable",
              "name": "currentOwner",
              "type": "address"
            },
            {
              "internalType": "address payable",
              "name": "previousOwner",
              "type": "address"
            },
            {
              "internalType": "uint256",
              "name": "price",
              "type": "uint256"
            },
            {
              "internalType": "bool",
              "name": "forSale",
              "type": "bool"
            },
            {
              "internalType": "uint256",
              "name": "blockNumber",
              "type": "uint256"
            },
            {
              "internalType": "uint256",
              "name": "time",
              "type": "uint256"
            },
            {
              "internalType": "uint256",
              "name": "class",
              "type": "uint256"
            }
          ],
          "internalType": "struct VrakkaNFT.Vrakka",
          "name": "",
          "type": "tuple"
        }
      ],
      "stateMutability": "view",
      "type": "function",
      "constant": true
    },
    {
      "inputs": [
        {
          "internalType": "uint256",
          "name": "_index",
          "type": "uint256"
        }
      ],
      "name": "getClass",
      "outputs": [
        {
          "internalType": "uint256",
          "name": "",
          "type": "uint256"
        }
      ],
      "stateMutability": "view",
      "type": "function",
      "constant": true
    },
    {
      "inputs": [],
      "name": "getTotal",
      "outputs": [
        {
          "internalType": "uint256",
          "name": "",
          "type": "uint256"
        }
      ],
      "stateMutability": "view",
      "type": "function",
      "constant": true
    },
    {
      "inputs": [],
      "name": "random",
      "outputs": [
        {
          "internalType": "uint8",
          "name": "",
          "type": "uint8"
        }
      ],
      "stateMutability": "view",
      "type": "function",
      "constant": true
    }
  ],
  "bytecode": "0x6080604052662386f26fc10000600b55612ee0600c55610168600d556105a0600e55611068600f556117706010553480156200003a57600080fd5b506040518060400160405280600a81526020017f5672616b6b61204e4654000000000000000000000000000000000000000000008152506040518060400160405280600681526020017f5652414b4b4100000000000000000000000000000000000000000000000000008152508160009080519060200190620000bf929190620001cf565b508060019080519060200190620000d8929190620001cf565b505050620000fb620000ef6200010160201b60201c565b6200010960201b60201c565b620002e4565b600033905090565b6000600760009054906101000a900473ffffffffffffffffffffffffffffffffffffffff16905081600760006101000a81548173ffffffffffffffffffffffffffffffffffffffff021916908373ffffffffffffffffffffffffffffffffffffffff1602179055508173ffffffffffffffffffffffffffffffffffffffff168173ffffffffffffffffffffffffffffffffffffffff167f8be0079c531659141344cd1fd0a4f28419497f9722a3daafe3b4186f6b6457e060405160405180910390a35050565b828054620001dd906200027f565b90600052602060002090601f0160209004810192826200020157600085556200024d565b82601f106200021c57805160ff19168380011785556200024d565b828001600101855582156200024d579182015b828111156200024c5782518255916020019190600101906200022f565b5b5090506200025c919062000260565b5090565b5b808211156200027b57600081600090555060010162000261565b5090565b600060028204905060018216806200029857607f821691505b60208210811415620002af57620002ae620002b5565b5b50919050565b7f4e487b7100000000000000000000000000000000000000000000000000000000600052602260045260246000fd5b61563280620002f46000396000f3fe6080604052600436106101d85760003560e01c8063715018a611610102578063a0eb181811610095578063b88d4fde11610064578063b88d4fde146106d8578063c87b56dd14610701578063e985e9c51461073e578063f2fde38b1461077b576101d8565b8063a0eb18181461062d578063a22cb4651461065d578063a32018b914610686578063b3de019c146106af576101d8565b806391b7f5ed116100d157806391b7f5ed146105715780639507d39a1461059a57806395d89b41146105d757806398d5fdca14610602576101d8565b8063715018a6146104c7578063775a25e3146104de5780638da5cb5b146105095780639052b19214610534576101d8565b806330f2c5101161017a578063571429ba11610149578063571429ba146103f95780635ec01e4d146104225780636352211e1461044d57806370a082311461048a576101d8565b806330f2c5101461032d57806342842e0e1461036a578063512d62df1461039357806353eb50ae146103d0576101d8565b8063095ea7b3116101b6578063095ea7b31461028257806316da8632146102ab57806323b872dd146102d45780632d296bf1146102fd576101d8565b806301ffc9a7146101dd57806306fdde031461021a578063081812fc14610245575b600080fd5b3480156101e957600080fd5b5061020460048036038101906101ff9190614124565b6107a4565b60405161021191906148c7565b60405180910390f35b34801561022657600080fd5b5061022f610886565b60405161023c91906148e2565b60405180910390f35b34801561025157600080fd5b5061026c6004803603810190610267919061421e565b610918565b6040516102799190614829565b60405180910390f35b34801561028e57600080fd5b506102a960048036038101906102a49190614070565b61095e565b005b3480156102b757600080fd5b506102d260048036038101906102cd9190613f05565b610a76565b005b3480156102e057600080fd5b506102fb60048036038101906102f69190613f6a565b610ae4565b005b6103176004803603810190610312919061421e565b610b44565b60405161032491906148c7565b60405180910390f35b34801561033957600080fd5b50610354600480360381019061034f91906141b7565b611000565b6040516103619190614c20565b60405180910390f35b34801561037657600080fd5b50610391600480360381019061038c9190613f6a565b611434565b005b34801561039f57600080fd5b506103ba60048036038101906103b5919061421e565b611454565b6040516103c79190614c20565b60405180910390f35b3480156103dc57600080fd5b506103f760048036038101906103f29190614247565b611474565b005b34801561040557600080fd5b50610420600480360381019061041b9190614070565b6117d5565b005b34801561042e57600080fd5b50610437611929565b6040516104449190614c3b565b60405180910390f35b34801561045957600080fd5b50610474600480360381019061046f919061421e565b61196a565b6040516104819190614829565b60405180910390f35b34801561049657600080fd5b506104b160048036038101906104ac9190613f05565b611a1c565b6040516104be9190614c20565b60405180910390f35b3480156104d357600080fd5b506104dc611ad4565b005b3480156104ea57600080fd5b506104f3611ae8565b6040516105009190614c20565b60405180910390f35b34801561051557600080fd5b5061051e611af9565b60405161052b9190614829565b60405180910390f35b34801561054057600080fd5b5061055b600480360381019061055691906140ac565b611b23565b6040516105689190614c20565b60405180910390f35b34801561057d57600080fd5b506105986004803603810190610593919061421e565b611d26565b005b3480156105a657600080fd5b506105c160048036038101906105bc919061421e565b611d38565b6040516105ce9190614c04565b60405180910390f35b3480156105e357600080fd5b506105ec611e5f565b6040516105f991906148e2565b60405180910390f35b34801561060e57600080fd5b50610617611ef1565b6040516106249190614c20565b60405180910390f35b61064760048036038101906106429190614176565b611efb565b6040516106549190614c20565b60405180910390f35b34801561066957600080fd5b50610684600480360381019061067f9190614034565b612145565b005b34801561069257600080fd5b506106ad60048036038101906106a8919061421e565b61215b565b005b3480156106bb57600080fd5b506106d660048036038101906106d19190614247565b61246e565b005b3480156106e457600080fd5b506106ff60048036038101906106fa9190613fb9565b61279d565b005b34801561070d57600080fd5b506107286004803603810190610723919061421e565b6127ff565b60405161073591906148e2565b60405180910390f35b34801561074a57600080fd5b5061076560048036038101906107609190613f2e565b612912565b60405161077291906148c7565b60405180910390f35b34801561078757600080fd5b506107a2600480360381019061079d9190613f05565b6129a6565b005b60007f80ac58cd000000000000000000000000000000000000000000000000000000007bffffffffffffffffffffffffffffffffffffffffffffffffffffffff1916827bffffffffffffffffffffffffffffffffffffffffffffffffffffffff1916148061086f57507f5b5e139f000000000000000000000000000000000000000000000000000000007bffffffffffffffffffffffffffffffffffffffffffffffffffffffff1916827bffffffffffffffffffffffffffffffffffffffffffffffffffffffff1916145b8061087f575061087e82612a2a565b5b9050919050565b60606000805461089590614ebb565b80601f01602080910402602001604051908101604052809291908181526020018280546108c190614ebb565b801561090e5780601f106108e35761010080835404028352916020019161090e565b820191906000526020600020905b8154815290600101906020018083116108f157829003601f168201915b5050505050905090565b600061092382612a94565b6004600083815260200190815260200160002060009054906101000a900473ffffffffffffffffffffffffffffffffffffffff169050919050565b60006109698261196a565b90508073ffffffffffffffffffffffffffffffffffffffff168373ffffffffffffffffffffffffffffffffffffffff1614156109da576040517f08c379a00000000000000000000000000000000000000000000000000000000081526004016109d190614b24565b60405180910390fd5b8073ffffffffffffffffffffffffffffffffffffffff166109f9612adf565b73ffffffffffffffffffffffffffffffffffffffff161480610a285750610a2781610a22612adf565b612912565b5b610a67576040517f08c379a0000000000000000000000000000000000000000000000000000000008152600401610a5e90614a84565b60405180910390fd5b610a718383612ae7565b505050565b610a7e612ba0565b6009819080600181540180825580915050600190039060005260206000200160009091909190916101000a81548173ffffffffffffffffffffffffffffffffffffffff021916908373ffffffffffffffffffffffffffffffffffffffff16021790555050565b610af5610aef612adf565b82612c1e565b610b34576040517f08c379a0000000000000000000000000000000000000000000000000000000008152600401610b2b90614ba4565b60405180910390fd5b610b3f838383612cb3565b505050565b60008073ffffffffffffffffffffffffffffffffffffffff163373ffffffffffffffffffffffffffffffffffffffff161415610b7f57600080fd5b610b8882612f1a565b610b9157600080fd5b6000610b9c8361196a565b9050600073ffffffffffffffffffffffffffffffffffffffff168173ffffffffffffffffffffffffffffffffffffffff161415610bd857600080fd5b3373ffffffffffffffffffffffffffffffffffffffff168173ffffffffffffffffffffffffffffffffffffffff161415610c1157600080fd5b60006016600085815260200190815260200160002060405180610100016040529081600082015481526020016001820160009054906101000a900473ffffffffffffffffffffffffffffffffffffffff1673ffffffffffffffffffffffffffffffffffffffff1673ffffffffffffffffffffffffffffffffffffffff1681526020016002820160009054906101000a900473ffffffffffffffffffffffffffffffffffffffff1673ffffffffffffffffffffffffffffffffffffffff1673ffffffffffffffffffffffffffffffffffffffff168152602001600382015481526020016004820160009054906101000a900460ff16151515158152602001600582015481526020016006820154815260200160078201548152505090508060600151341015610d74576040517f08c379a0000000000000000000000000000000000000000000000000000000008152600401610d6b90614ae4565b60405180910390fd5b8060800151610db8576040517f08c379a0000000000000000000000000000000000000000000000000000000008152600401610daf90614a64565b60405180910390fd5b60008160200151905060008173ffffffffffffffffffffffffffffffffffffffff1634604051610de7906147d7565b60006040518083038185875af1925050503d8060008114610e24576040519150601f19603f3d011682016040523d82523d6000602084013e610e29565b606091505b5050905080610e6d576040517f08c379a0000000000000000000000000000000000000000000000000000000008152600401610e6490614be4565b60405180910390fd5b610e78843388612cb3565b8260200151836040019073ffffffffffffffffffffffffffffffffffffffff16908173ffffffffffffffffffffffffffffffffffffffff168152505033836020019073ffffffffffffffffffffffffffffffffffffffff16908173ffffffffffffffffffffffffffffffffffffffff1681525050600083608001901515908115158152505082601660008881526020019081526020016000206000820151816000015560208201518160010160006101000a81548173ffffffffffffffffffffffffffffffffffffffff021916908373ffffffffffffffffffffffffffffffffffffffff16021790555060408201518160020160006101000a81548173ffffffffffffffffffffffffffffffffffffffff021916908373ffffffffffffffffffffffffffffffffffffffff1602179055506060820151816003015560808201518160040160006101000a81548160ff02191690831515021790555060a0820151816005015560c0820151816006015560e0820151816007015590505080945050505050919050565b6000826000805b6009805490508110156110c8578273ffffffffffffffffffffffffffffffffffffffff1660098281548110611065577f4e487b7100000000000000000000000000000000000000000000000000000000600052603260045260246000fd5b9060005260206000200160009054906101000a900473ffffffffffffffffffffffffffffffffffffffff1673ffffffffffffffffffffffffffffffffffffffff1614156110b557600191506110c8565b80806110c090614f1e565b915050611007565b5080611109576040517f08c379a000000000000000000000000000000000000000000000000000000000815260040161110090614b64565b60405180910390fd5b6000611113611ae8565b9050600c548110611159576040517f08c379a0000000000000000000000000000000000000000000000000000000008152600401611150906149a4565b60405180910390fd5b6000600a60008873ffffffffffffffffffffffffffffffffffffffff1673ffffffffffffffffffffffffffffffffffffffff168152602001908152602001600020549050600081116111aa57600080fd5b60008773ffffffffffffffffffffffffffffffffffffffff166323b872dd3330856040518463ffffffff1660e01b81526004016111e993929190614844565b602060405180830381600087803b15801561120357600080fd5b505af1158015611217573d6000803e3d6000fd5b505050506040513d601f19601f8201168201806040525081019061123b91906140fb565b90508061127d576040517f08c379a000000000000000000000000000000000000000000000000000000000815260040161127490614b44565b60405180910390fd5b6112876008612f86565b60006112936008612f9c565b905061129f3382612faa565b6112a9818b613184565b60006112b36131f8565b90506112be8161327d565b60006040518061010001604052808481526020013373ffffffffffffffffffffffffffffffffffffffff168152602001600073ffffffffffffffffffffffffffffffffffffffff1681526020018681526020018b1515815260200143815260200142815260200183815250905080601660008581526020019081526020016000206000820151816000015560208201518160010160006101000a81548173ffffffffffffffffffffffffffffffffffffffff021916908373ffffffffffffffffffffffffffffffffffffffff16021790555060408201518160020160006101000a81548173ffffffffffffffffffffffffffffffffffffffff021916908373ffffffffffffffffffffffffffffffffffffffff1602179055506060820151816003015560808201518160040160006101000a81548160ff02191690831515021790555060a0820151816005015560c0820151816006015560e0820151816007015590505082985050505050505050509392505050565b61144f8383836040518060200160405280600081525061279d565b505050565b600060166000838152602001908152602001600020600701549050919050565b8160006114808261196a565b90503373ffffffffffffffffffffffffffffffffffffffff168173ffffffffffffffffffffffffffffffffffffffff16146114f0576040517f08c379a00000000000000000000000000000000000000000000000000000000081526004016114e790614bc4565b60405180910390fd5b600073ffffffffffffffffffffffffffffffffffffffff163373ffffffffffffffffffffffffffffffffffffffff16141561152a57600080fd5b61153384612f1a565b61153c57600080fd5b6000831161157f576040517f08c379a000000000000000000000000000000000000000000000000000000000815260040161157690614a44565b60405180910390fd5b60006016600086815260200190815260200160002060405180610100016040529081600082015481526020016001820160009054906101000a900473ffffffffffffffffffffffffffffffffffffffff1673ffffffffffffffffffffffffffffffffffffffff1673ffffffffffffffffffffffffffffffffffffffff1681526020016002820160009054906101000a900473ffffffffffffffffffffffffffffffffffffffff1673ffffffffffffffffffffffffffffffffffffffff1673ffffffffffffffffffffffffffffffffffffffff168152602001600382015481526020016004820160009054906101000a900460ff16151515158152602001600582015481526020016006820154815260200160078201548152505090508060800151156116bb5760008160800190151590811515815250506116cd565b60018160800190151590811515815250505b8381606001818152505080601660008781526020019081526020016000206000820151816000015560208201518160010160006101000a81548173ffffffffffffffffffffffffffffffffffffffff021916908373ffffffffffffffffffffffffffffffffffffffff16021790555060408201518160020160006101000a81548173ffffffffffffffffffffffffffffffffffffffff021916908373ffffffffffffffffffffffffffffffffffffffff1602179055506060820151816003015560808201518160040160006101000a81548160ff02191690831515021790555060a0820151816005015560c0820151816006015560e082015181600701559050505050505050565b6117dd612ba0565b60008111611820576040517f08c379a000000000000000000000000000000000000000000000000000000000815260040161181790614924565b60405180910390fd5b60005b600980549050811015611924578273ffffffffffffffffffffffffffffffffffffffff1660098281548110611881577f4e487b7100000000000000000000000000000000000000000000000000000000600052603260045260246000fd5b9060005260206000200160009054906101000a900473ffffffffffffffffffffffffffffffffffffffff1673ffffffffffffffffffffffffffffffffffffffff1614156119115781600a60008573ffffffffffffffffffffffffffffffffffffffff1673ffffffffffffffffffffffffffffffffffffffff16815260200190815260200160002081905550611924565b808061191c90614f1e565b915050611823565b505050565b60006064424443604051602001611942939291906147ec565b6040516020818303038152906040528051906020012060001c6119659190614f71565b905090565b6000806002600084815260200190815260200160002060009054906101000a900473ffffffffffffffffffffffffffffffffffffffff169050600073ffffffffffffffffffffffffffffffffffffffff168173ffffffffffffffffffffffffffffffffffffffff161415611a13576040517f08c379a0000000000000000000000000000000000000000000000000000000008152600401611a0a90614b04565b60405180910390fd5b80915050919050565b60008073ffffffffffffffffffffffffffffffffffffffff168273ffffffffffffffffffffffffffffffffffffffff161415611a8d576040517f08c379a0000000000000000000000000000000000000000000000000000000008152600401611a8490614a04565b60405180910390fd5b600360008373ffffffffffffffffffffffffffffffffffffffff1673ffffffffffffffffffffffffffffffffffffffff168152602001908152602001600020549050919050565b611adc612ba0565b611ae66000613317565b565b6000611af46008612f9c565b905090565b6000600760009054906101000a900473ffffffffffffffffffffffffffffffffffffffff16905090565b6000611b2d612ba0565b6000611b37611ae8565b9050600c548110611b7d576040517f08c379a0000000000000000000000000000000000000000000000000000000008152600401611b74906149a4565b60405180910390fd5b611b876008612f86565b6000611b936008612f9c565b9050611b9f3382612faa565b6000611ba96131f8565b9050611bb48161327d565b60006040518061010001604052808481526020018973ffffffffffffffffffffffffffffffffffffffff168152602001600073ffffffffffffffffffffffffffffffffffffffff168152602001888152602001871515815260200143815260200142815260200183815250905080601660008581526020019081526020016000206000820151816000015560208201518160010160006101000a81548173ffffffffffffffffffffffffffffffffffffffff021916908373ffffffffffffffffffffffffffffffffffffffff16021790555060408201518160020160006101000a81548173ffffffffffffffffffffffffffffffffffffffff021916908373ffffffffffffffffffffffffffffffffffffffff1602179055506060820151816003015560808201518160040160006101000a81548160ff02191690831515021790555060a0820151816005015560c0820151816006015560e08201518160070155905050829450505050509392505050565b611d2e612ba0565b80600b8190555050565b611d40613ca1565b6016600083815260200190815260200160002060405180610100016040529081600082015481526020016001820160009054906101000a900473ffffffffffffffffffffffffffffffffffffffff1673ffffffffffffffffffffffffffffffffffffffff1673ffffffffffffffffffffffffffffffffffffffff1681526020016002820160009054906101000a900473ffffffffffffffffffffffffffffffffffffffff1673ffffffffffffffffffffffffffffffffffffffff1673ffffffffffffffffffffffffffffffffffffffff168152602001600382015481526020016004820160009054906101000a900460ff1615151515815260200160058201548152602001600682015481526020016007820154815250509050919050565b606060018054611e6e90614ebb565b80601f0160208091040260200160405190810160405280929190818152602001828054611e9a90614ebb565b8015611ee75780601f10611ebc57610100808354040283529160200191611ee7565b820191906000526020600020905b815481529060010190602001808311611eca57829003601f168201915b5050505050905090565b6000600b54905090565b600080611f06611ae8565b9050600c548110611f4c576040517f08c379a0000000000000000000000000000000000000000000000000000000008152600401611f43906149a4565b60405180910390fd5b600b54341015611f91576040517f08c379a0000000000000000000000000000000000000000000000000000000008152600401611f8890614b84565b60405180910390fd5b611f9b6008612f86565b6000611fa76008612f9c565b9050611fb33382612faa565b611fbd8185613184565b6000611fc76131f8565b9050611fd28161327d565b60006040518061010001604052808481526020013373ffffffffffffffffffffffffffffffffffffffff168152602001600073ffffffffffffffffffffffffffffffffffffffff168152602001600b54815260200160001515815260200143815260200142815260200183815250905080601660008581526020019081526020016000206000820151816000015560208201518160010160006101000a81548173ffffffffffffffffffffffffffffffffffffffff021916908373ffffffffffffffffffffffffffffffffffffffff16021790555060408201518160020160006101000a81548173ffffffffffffffffffffffffffffffffffffffff021916908373ffffffffffffffffffffffffffffffffffffffff1602179055506060820151816003015560808201518160040160006101000a81548160ff02191690831515021790555060a0820151816005015560c0820151816006015560e0820151816007015590505082945050505050919050565b612157612150612adf565b83836133dd565b5050565b8060006121678261196a565b90503373ffffffffffffffffffffffffffffffffffffffff168173ffffffffffffffffffffffffffffffffffffffff16146121d7576040517f08c379a00000000000000000000000000000000000000000000000000000000081526004016121ce90614bc4565b60405180910390fd5b600073ffffffffffffffffffffffffffffffffffffffff163373ffffffffffffffffffffffffffffffffffffffff16141561221157600080fd5b61221a83612f1a565b61222357600080fd5b60006016600085815260200190815260200160002060405180610100016040529081600082015481526020016001820160009054906101000a900473ffffffffffffffffffffffffffffffffffffffff1673ffffffffffffffffffffffffffffffffffffffff1673ffffffffffffffffffffffffffffffffffffffff1681526020016002820160009054906101000a900473ffffffffffffffffffffffffffffffffffffffff1673ffffffffffffffffffffffffffffffffffffffff1673ffffffffffffffffffffffffffffffffffffffff168152602001600382015481526020016004820160009054906101000a900460ff161515151581526020016005820154815260200160068201548152602001600782015481525050905080608001511561235f576000816080019015159081151581525050612371565b60018160800190151590811515815250505b80601660008681526020019081526020016000206000820151816000015560208201518160010160006101000a81548173ffffffffffffffffffffffffffffffffffffffff021916908373ffffffffffffffffffffffffffffffffffffffff16021790555060408201518160020160006101000a81548173ffffffffffffffffffffffffffffffffffffffff021916908373ffffffffffffffffffffffffffffffffffffffff1602179055506060820151816003015560808201518160040160006101000a81548160ff02191690831515021790555060a0820151816005015560c0820151816006015560e0820151816007015590505050505050565b81600061247a8261196a565b90503373ffffffffffffffffffffffffffffffffffffffff168173ffffffffffffffffffffffffffffffffffffffff16146124ea576040517f08c379a00000000000000000000000000000000000000000000000000000000081526004016124e190614bc4565b60405180910390fd5b600073ffffffffffffffffffffffffffffffffffffffff163373ffffffffffffffffffffffffffffffffffffffff16141561252457600080fd5b61252d84612f1a565b61253657600080fd5b60008311612579576040517f08c379a000000000000000000000000000000000000000000000000000000000815260040161257090614a44565b60405180910390fd5b60006016600086815260200190815260200160002060405180610100016040529081600082015481526020016001820160009054906101000a900473ffffffffffffffffffffffffffffffffffffffff1673ffffffffffffffffffffffffffffffffffffffff1673ffffffffffffffffffffffffffffffffffffffff1681526020016002820160009054906101000a900473ffffffffffffffffffffffffffffffffffffffff1673ffffffffffffffffffffffffffffffffffffffff1673ffffffffffffffffffffffffffffffffffffffff168152602001600382015481526020016004820160009054906101000a900460ff16151515158152602001600582015481526020016006820154815260200160078201548152505090508381606001818152505080601660008781526020019081526020016000206000820151816000015560208201518160010160006101000a81548173ffffffffffffffffffffffffffffffffffffffff021916908373ffffffffffffffffffffffffffffffffffffffff16021790555060408201518160020160006101000a81548173ffffffffffffffffffffffffffffffffffffffff021916908373ffffffffffffffffffffffffffffffffffffffff1602179055506060820151816003015560808201518160040160006101000a81548160ff02191690831515021790555060a0820151816005015560c0820151816006015560e082015181600701559050505050505050565b6127ae6127a8612adf565b83612c1e565b6127ed576040517f08c379a00000000000000000000000000000000000000000000000000000000081526004016127e490614ba4565b60405180910390fd5b6127f98484848461354a565b50505050565b606061280a82612a94565b600060066000848152602001908152602001600020805461282a90614ebb565b80601f016020809104026020016040519081016040528092919081815260200182805461285690614ebb565b80156128a35780601f10612878576101008083540402835291602001916128a3565b820191906000526020600020905b81548152906001019060200180831161288657829003601f168201915b5050505050905060006128b46135a6565b90506000815114156128ca57819250505061290d565b6000825111156128ff5780826040516020016128e79291906147b3565b6040516020818303038152906040529250505061290d565b612908846135bd565b925050505b919050565b6000600560008473ffffffffffffffffffffffffffffffffffffffff1673ffffffffffffffffffffffffffffffffffffffff16815260200190815260200160002060008373ffffffffffffffffffffffffffffffffffffffff1673ffffffffffffffffffffffffffffffffffffffff16815260200190815260200160002060009054906101000a900460ff16905092915050565b6129ae612ba0565b600073ffffffffffffffffffffffffffffffffffffffff168173ffffffffffffffffffffffffffffffffffffffff161415612a1e576040517f08c379a0000000000000000000000000000000000000000000000000000000008152600401612a1590614944565b60405180910390fd5b612a2781613317565b50565b60007f01ffc9a7000000000000000000000000000000000000000000000000000000007bffffffffffffffffffffffffffffffffffffffffffffffffffffffff1916827bffffffffffffffffffffffffffffffffffffffffffffffffffffffff1916149050919050565b612a9d81612f1a565b612adc576040517f08c379a0000000000000000000000000000000000000000000000000000000008152600401612ad390614b04565b60405180910390fd5b50565b600033905090565b816004600083815260200190815260200160002060006101000a81548173ffffffffffffffffffffffffffffffffffffffff021916908373ffffffffffffffffffffffffffffffffffffffff160217905550808273ffffffffffffffffffffffffffffffffffffffff16612b5a8361196a565b73ffffffffffffffffffffffffffffffffffffffff167f8c5be1e5ebec7d5bd14f71427d1e84f3dd0314c0f7b2291e5b200ac8c7c3b92560405160405180910390a45050565b612ba8612adf565b73ffffffffffffffffffffffffffffffffffffffff16612bc6611af9565b73ffffffffffffffffffffffffffffffffffffffff1614612c1c576040517f08c379a0000000000000000000000000000000000000000000000000000000008152600401612c1390614ac4565b60405180910390fd5b565b600080612c2a8361196a565b90508073ffffffffffffffffffffffffffffffffffffffff168473ffffffffffffffffffffffffffffffffffffffff161480612c6c5750612c6b8185612912565b5b80612caa57508373ffffffffffffffffffffffffffffffffffffffff16612c9284610918565b73ffffffffffffffffffffffffffffffffffffffff16145b91505092915050565b8273ffffffffffffffffffffffffffffffffffffffff16612cd38261196a565b73ffffffffffffffffffffffffffffffffffffffff1614612d29576040517f08c379a0000000000000000000000000000000000000000000000000000000008152600401612d2090614964565b60405180910390fd5b600073ffffffffffffffffffffffffffffffffffffffff168273ffffffffffffffffffffffffffffffffffffffff161415612d99576040517f08c379a0000000000000000000000000000000000000000000000000000000008152600401612d90906149c4565b60405180910390fd5b612da4838383613625565b612daf600082612ae7565b6001600360008573ffffffffffffffffffffffffffffffffffffffff1673ffffffffffffffffffffffffffffffffffffffff1681526020019081526020016000206000828254612dff9190614db2565b925050819055506001600360008473ffffffffffffffffffffffffffffffffffffffff1673ffffffffffffffffffffffffffffffffffffffff1681526020019081526020016000206000828254612e569190614d2b565b92505081905550816002600083815260200190815260200160002060006101000a81548173ffffffffffffffffffffffffffffffffffffffff021916908373ffffffffffffffffffffffffffffffffffffffff160217905550808273ffffffffffffffffffffffffffffffffffffffff168473ffffffffffffffffffffffffffffffffffffffff167fddf252ad1be2c89b69c2b068fc378daa952ba7f163c4a11628f55a4df523b3ef60405160405180910390a4612f158383836138ae565b505050565b60008073ffffffffffffffffffffffffffffffffffffffff166002600084815260200190815260200160002060009054906101000a900473ffffffffffffffffffffffffffffffffffffffff1673ffffffffffffffffffffffffffffffffffffffff1614159050919050565b6001816000016000828254019250508190555050565b600081600001549050919050565b600073ffffffffffffffffffffffffffffffffffffffff168273ffffffffffffffffffffffffffffffffffffffff16141561301a576040517f08c379a000000000000000000000000000000000000000000000000000000000815260040161301190614aa4565b60405180910390fd5b61302381612f1a565b15613063576040517f08c379a000000000000000000000000000000000000000000000000000000000815260040161305a90614984565b60405180910390fd5b61306f60008383613625565b6001600360008473ffffffffffffffffffffffffffffffffffffffff1673ffffffffffffffffffffffffffffffffffffffff16815260200190815260200160002060008282546130bf9190614d2b565b92505081905550816002600083815260200190815260200160002060006101000a81548173ffffffffffffffffffffffffffffffffffffffff021916908373ffffffffffffffffffffffffffffffffffffffff160217905550808273ffffffffffffffffffffffffffffffffffffffff16600073ffffffffffffffffffffffffffffffffffffffff167fddf252ad1be2c89b69c2b068fc378daa952ba7f163c4a11628f55a4df523b3ef60405160405180910390a4613180600083836138ae565b5050565b61318d82612f1a565b6131cc576040517f08c379a00000000000000000000000000000000000000000000000000000000081526004016131c390614a24565b60405180910390fd5b806006600084815260200190815260200160002090805190602001906131f3929190613d14565b505050565b600080613203611929565b9050600080600190505b80156132745760328360ff16116132275760019150613264565b60558360ff16101561323c5760029150613263565b60618360ff1610156132515760039150613262565b60648360ff161161326157600491505b5b5b5b61326d826138b3565b905061320d565b81935050505090565b60018114156132a3576014600081548092919061329990614f1e565b9190505550613314565b60028114156132c957601360008154809291906132bf90614f1e565b9190505550613313565b60038114156132ef57601260008154809291906132e590614f1e565b9190505550613312565b6004811415613311576011600081548092919061330b90614f1e565b91905055505b5b5b5b50565b6000600760009054906101000a900473ffffffffffffffffffffffffffffffffffffffff16905081600760006101000a81548173ffffffffffffffffffffffffffffffffffffffff021916908373ffffffffffffffffffffffffffffffffffffffff1602179055508173ffffffffffffffffffffffffffffffffffffffff168173ffffffffffffffffffffffffffffffffffffffff167f8be0079c531659141344cd1fd0a4f28419497f9722a3daafe3b4186f6b6457e060405160405180910390a35050565b8173ffffffffffffffffffffffffffffffffffffffff168373ffffffffffffffffffffffffffffffffffffffff16141561344c576040517f08c379a0000000000000000000000000000000000000000000000000000000008152600401613443906149e4565b60405180910390fd5b80600560008573ffffffffffffffffffffffffffffffffffffffff1673ffffffffffffffffffffffffffffffffffffffff16815260200190815260200160002060008473ffffffffffffffffffffffffffffffffffffffff1673ffffffffffffffffffffffffffffffffffffffff16815260200190815260200160002060006101000a81548160ff0219169083151502179055508173ffffffffffffffffffffffffffffffffffffffff168373ffffffffffffffffffffffffffffffffffffffff167f17307eab39ab6107e8899845ad3d59bd9653f200f220920489ca2b5937696c318360405161353d91906148c7565b60405180910390a3505050565b613555848484612cb3565b6135618484848461393a565b6135a0576040517f08c379a000000000000000000000000000000000000000000000000000000000815260040161359790614904565b60405180910390fd5b50505050565b606060405180602001604052806000815250905090565b60606135c882612a94565b60006135d26135a6565b905060008151116135f2576040518060200160405280600081525061361d565b806135fc84613ad1565b60405160200161360d9291906147b3565b6040516020818303038152906040525b915050919050565b60006016600083815260200190815260200160002060405180610100016040529081600082015481526020016001820160009054906101000a900473ffffffffffffffffffffffffffffffffffffffff1673ffffffffffffffffffffffffffffffffffffffff1673ffffffffffffffffffffffffffffffffffffffff1681526020016002820160009054906101000a900473ffffffffffffffffffffffffffffffffffffffff1673ffffffffffffffffffffffffffffffffffffffff1673ffffffffffffffffffffffffffffffffffffffff168152602001600382015481526020016004820160009054906101000a900460ff161515151581526020016005820154815260200160068201548152602001600782015481525050905083816040019073ffffffffffffffffffffffffffffffffffffffff16908173ffffffffffffffffffffffffffffffffffffffff168152505082816020019073ffffffffffffffffffffffffffffffffffffffff16908173ffffffffffffffffffffffffffffffffffffffff168152505080601660008481526020019081526020016000206000820151816000015560208201518160010160006101000a81548173ffffffffffffffffffffffffffffffffffffffff021916908373ffffffffffffffffffffffffffffffffffffffff16021790555060408201518160020160006101000a81548173ffffffffffffffffffffffffffffffffffffffff021916908373ffffffffffffffffffffffffffffffffffffffff1602179055506060820151816003015560808201518160040160006101000a81548160ff02191690831515021790555060a0820151816005015560c0820151816006015560e0820151816007015590505050505050565b505050565b6000806000905060018314156138d857601054601454106138d357600190505b613931565b60028314156138f657600f54601354106138f157600190505b613930565b600383141561391457600e546012541061390f57600190505b61392f565b600483141561392e57600d546011541061392d57600190505b5b5b5b5b80915050919050565b600061395b8473ffffffffffffffffffffffffffffffffffffffff16613c7e565b15613ac4578373ffffffffffffffffffffffffffffffffffffffff1663150b7a02613984612adf565b8786866040518563ffffffff1660e01b81526004016139a6949392919061487b565b602060405180830381600087803b1580156139c057600080fd5b505af19250505080156139f157506040513d601f19601f820116820180604052508101906139ee919061414d565b60015b613a74573d8060008114613a21576040519150601f19603f3d011682016040523d82523d6000602084013e613a26565b606091505b50600081511415613a6c576040517f08c379a0000000000000000000000000000000000000000000000000000000008152600401613a6390614904565b60405180910390fd5b805181602001fd5b63150b7a0260e01b7bffffffffffffffffffffffffffffffffffffffffffffffffffffffff1916817bffffffffffffffffffffffffffffffffffffffffffffffffffffffff191614915050613ac9565b600190505b949350505050565b60606000821415613b19576040518060400160405280600181526020017f30000000000000000000000000000000000000000000000000000000000000008152509050613c79565b600082905060005b60008214613b4b578080613b3490614f1e565b915050600a82613b449190614d81565b9150613b21565b60008167ffffffffffffffff811115613b8d577f4e487b7100000000000000000000000000000000000000000000000000000000600052604160045260246000fd5b6040519080825280601f01601f191660200182016040528015613bbf5781602001600182028036833780820191505090505b5090505b60008514613c7257600182613bd89190614db2565b9150600a85613be79190614f71565b6030613bf39190614d2b565b60f81b818381518110613c2f577f4e487b7100000000000000000000000000000000000000000000000000000000600052603260045260246000fd5b60200101907effffffffffffffffffffffffffffffffffffffffffffffffffffffffffffff1916908160001a905350600a85613c6b9190614d81565b9450613bc3565b8093505050505b919050565b6000808273ffffffffffffffffffffffffffffffffffffffff163b119050919050565b60405180610100016040528060008152602001600073ffffffffffffffffffffffffffffffffffffffff168152602001600073ffffffffffffffffffffffffffffffffffffffff168152602001600081526020016000151581526020016000815260200160008152602001600081525090565b828054613d2090614ebb565b90600052602060002090601f016020900481019282613d425760008555613d89565b82601f10613d5b57805160ff1916838001178555613d89565b82800160010185558215613d89579182015b82811115613d88578251825591602001919060010190613d6d565b5b509050613d969190613d9a565b5090565b5b80821115613db3576000816000905550600101613d9b565b5090565b6000613dca613dc584614c7b565b614c56565b905082815260208101848484011115613de257600080fd5b613ded848285614e79565b509392505050565b6000613e08613e0384614cac565b614c56565b905082815260208101848484011115613e2057600080fd5b613e2b848285614e79565b509392505050565b600081359050613e42816155a0565b92915050565b600081359050613e57816155b7565b92915050565b600081519050613e6c816155b7565b92915050565b600081359050613e81816155ce565b92915050565b600081519050613e96816155ce565b92915050565b600082601f830112613ead57600080fd5b8135613ebd848260208601613db7565b91505092915050565b600082601f830112613ed757600080fd5b8135613ee7848260208601613df5565b91505092915050565b600081359050613eff816155e5565b92915050565b600060208284031215613f1757600080fd5b6000613f2584828501613e33565b91505092915050565b60008060408385031215613f4157600080fd5b6000613f4f85828601613e33565b9250506020613f6085828601613e33565b9150509250929050565b600080600060608486031215613f7f57600080fd5b6000613f8d86828701613e33565b9350506020613f9e86828701613e33565b9250506040613faf86828701613ef0565b9150509250925092565b60008060008060808587031215613fcf57600080fd5b6000613fdd87828801613e33565b9450506020613fee87828801613e33565b9350506040613fff87828801613ef0565b925050606085013567ffffffffffffffff81111561401c57600080fd5b61402887828801613e9c565b91505092959194509250565b6000806040838503121561404757600080fd5b600061405585828601613e33565b925050602061406685828601613e48565b9150509250929050565b6000806040838503121561408357600080fd5b600061409185828601613e33565b92505060206140a285828601613ef0565b9150509250929050565b6000806000606084860312156140c157600080fd5b60006140cf86828701613e33565b93505060206140e086828701613ef0565b92505060406140f186828701613e48565b9150509250925092565b60006020828403121561410d57600080fd5b600061411b84828501613e5d565b91505092915050565b60006020828403121561413657600080fd5b600061414484828501613e72565b91505092915050565b60006020828403121561415f57600080fd5b600061416d84828501613e87565b91505092915050565b60006020828403121561418857600080fd5b600082013567ffffffffffffffff8111156141a257600080fd5b6141ae84828501613ec6565b91505092915050565b6000806000606084860312156141cc57600080fd5b600084013567ffffffffffffffff8111156141e657600080fd5b6141f286828701613ec6565b935050602061420386828701613e33565b925050604061421486828701613e48565b9150509250925092565b60006020828403121561423057600080fd5b600061423e84828501613ef0565b91505092915050565b6000806040838503121561425a57600080fd5b600061426885828601613ef0565b925050602061427985828601613ef0565b9150509250929050565b61428c81614df8565b82525050565b61429b81614de6565b82525050565b6142aa81614e0a565b82525050565b6142b981614e0a565b82525050565b60006142ca82614cdd565b6142d48185614cf3565b93506142e4818560208601614e88565b6142ed8161505e565b840191505092915050565b600061430382614ce8565b61430d8185614d0f565b935061431d818560208601614e88565b6143268161505e565b840191505092915050565b600061433c82614ce8565b6143468185614d20565b9350614356818560208601614e88565b80840191505092915050565b600061436f603283614d0f565b915061437a8261506f565b604082019050919050565b6000614392601b83614d0f565b915061439d826150be565b602082019050919050565b60006143b5602683614d0f565b91506143c0826150e7565b604082019050919050565b60006143d8602583614d0f565b91506143e382615136565b604082019050919050565b60006143fb601c83614d0f565b915061440682615185565b602082019050919050565b600061441e600e83614d0f565b9150614429826151ae565b602082019050919050565b6000614441602483614d0f565b915061444c826151d7565b604082019050919050565b6000614464601983614d0f565b915061446f82615226565b602082019050919050565b6000614487602983614d0f565b91506144928261524f565b604082019050919050565b60006144aa602e83614d0f565b91506144b58261529e565b604082019050919050565b60006144cd601183614d0f565b91506144d8826152ed565b602082019050919050565b60006144f0601683614d0f565b91506144fb82615316565b602082019050919050565b6000614513603e83614d0f565b915061451e8261533f565b604082019050919050565b6000614536602083614d0f565b91506145418261538e565b602082019050919050565b6000614559602083614d0f565b9150614564826153b7565b602082019050919050565b600061457c601483614d0f565b9150614587826153e0565b602082019050919050565b600061459f601883614d0f565b91506145aa82615409565b602082019050919050565b60006145c2602183614d0f565b91506145cd82615432565b604082019050919050565b60006145e5600083614d04565b91506145f082615481565b600082019050919050565b6000614608600e83614d0f565b915061461382615484565b602082019050919050565b600061462b601183614d0f565b9150614636826154ad565b602082019050919050565b600061464e600c83614d0f565b9150614659826154d6565b602082019050919050565b6000614671602e83614d0f565b915061467c826154ff565b604082019050919050565b6000614694601283614d0f565b915061469f8261554e565b602082019050919050565b60006146b7601983614d0f565b91506146c282615577565b602082019050919050565b610100820160008201516146e4600085018261476f565b5060208201516146f76020850182614283565b50604082015161470a6040850182614283565b50606082015161471d606085018261476f565b50608082015161473060808501826142a1565b5060a082015161474360a085018261476f565b5060c082015161475660c085018261476f565b5060e082015161476960e085018261476f565b50505050565b61477881614e62565b82525050565b61478781614e62565b82525050565b61479e61479982614e62565b614f67565b82525050565b6147ad81614e6c565b82525050565b60006147bf8285614331565b91506147cb8284614331565b91508190509392505050565b60006147e2826145d8565b9150819050919050565b60006147f8828661478d565b602082019150614808828561478d565b602082019150614818828461478d565b602082019150819050949350505050565b600060208201905061483e6000830184614292565b92915050565b60006060820190506148596000830186614292565b6148666020830185614292565b614873604083018461477e565b949350505050565b60006080820190506148906000830187614292565b61489d6020830186614292565b6148aa604083018561477e565b81810360608301526148bc81846142bf565b905095945050505050565b60006020820190506148dc60008301846142b0565b92915050565b600060208201905081810360008301526148fc81846142f8565b905092915050565b6000602082019050818103600083015261491d81614362565b9050919050565b6000602082019050818103600083015261493d81614385565b9050919050565b6000602082019050818103600083015261495d816143a8565b9050919050565b6000602082019050818103600083015261497d816143cb565b9050919050565b6000602082019050818103600083015261499d816143ee565b9050919050565b600060208201905081810360008301526149bd81614411565b9050919050565b600060208201905081810360008301526149dd81614434565b9050919050565b600060208201905081810360008301526149fd81614457565b9050919050565b60006020820190508181036000830152614a1d8161447a565b9050919050565b60006020820190508181036000830152614a3d8161449d565b9050919050565b60006020820190508181036000830152614a5d816144c0565b9050919050565b60006020820190508181036000830152614a7d816144e3565b9050919050565b60006020820190508181036000830152614a9d81614506565b9050919050565b60006020820190508181036000830152614abd81614529565b9050919050565b60006020820190508181036000830152614add8161454c565b9050919050565b60006020820190508181036000830152614afd8161456f565b9050919050565b60006020820190508181036000830152614b1d81614592565b9050919050565b60006020820190508181036000830152614b3d816145b5565b9050919050565b60006020820190508181036000830152614b5d816145fb565b9050919050565b60006020820190508181036000830152614b7d8161461e565b9050919050565b60006020820190508181036000830152614b9d81614641565b9050919050565b60006020820190508181036000830152614bbd81614664565b9050919050565b60006020820190508181036000830152614bdd81614687565b9050919050565b60006020820190508181036000830152614bfd816146aa565b9050919050565b600061010082019050614c1a60008301846146cd565b92915050565b6000602082019050614c35600083018461477e565b92915050565b6000602082019050614c5060008301846147a4565b92915050565b6000614c60614c71565b9050614c6c8282614eed565b919050565b6000604051905090565b600067ffffffffffffffff821115614c9657614c9561502f565b5b614c9f8261505e565b9050602081019050919050565b600067ffffffffffffffff821115614cc757614cc661502f565b5b614cd08261505e565b9050602081019050919050565b600081519050919050565b600081519050919050565b600082825260208201905092915050565b600081905092915050565b600082825260208201905092915050565b600081905092915050565b6000614d3682614e62565b9150614d4183614e62565b9250827fffffffffffffffffffffffffffffffffffffffffffffffffffffffffffffffff03821115614d7657614d75614fa2565b5b828201905092915050565b6000614d8c82614e62565b9150614d9783614e62565b925082614da757614da6614fd1565b5b828204905092915050565b6000614dbd82614e62565b9150614dc883614e62565b925082821015614ddb57614dda614fa2565b5b828203905092915050565b6000614df182614e42565b9050919050565b6000614e0382614e42565b9050919050565b60008115159050919050565b60007fffffffff0000000000000000000000000000000000000000000000000000000082169050919050565b600073ffffffffffffffffffffffffffffffffffffffff82169050919050565b6000819050919050565b600060ff82169050919050565b82818337600083830152505050565b60005b83811015614ea6578082015181840152602081019050614e8b565b83811115614eb5576000848401525b50505050565b60006002820490506001821680614ed357607f821691505b60208210811415614ee757614ee6615000565b5b50919050565b614ef68261505e565b810181811067ffffffffffffffff82111715614f1557614f1461502f565b5b80604052505050565b6000614f2982614e62565b91507fffffffffffffffffffffffffffffffffffffffffffffffffffffffffffffffff821415614f5c57614f5b614fa2565b5b600182019050919050565b6000819050919050565b6000614f7c82614e62565b9150614f8783614e62565b925082614f9757614f96614fd1565b5b828206905092915050565b7f4e487b7100000000000000000000000000000000000000000000000000000000600052601160045260246000fd5b7f4e487b7100000000000000000000000000000000000000000000000000000000600052601260045260246000fd5b7f4e487b7100000000000000000000000000000000000000000000000000000000600052602260045260246000fd5b7f4e487b7100000000000000000000000000000000000000000000000000000000600052604160045260246000fd5b6000601f19601f8301169050919050565b7f4552433732313a207472616e7366657220746f206e6f6e20455243373231526560008201527f63656976657220696d706c656d656e7465720000000000000000000000000000602082015250565b7f70726963652068617320746f206265206d6f7265207468616e20300000000000600082015250565b7f4f776e61626c653a206e6577206f776e657220697320746865207a65726f206160008201527f6464726573730000000000000000000000000000000000000000000000000000602082015250565b7f4552433732313a207472616e736665722066726f6d20696e636f72726563742060008201527f6f776e6572000000000000000000000000000000000000000000000000000000602082015250565b7f4552433732313a20746f6b656e20616c7265616479206d696e74656400000000600082015250565b7f4861726420436170205265616368000000000000000000000000000000000000600082015250565b7f4552433732313a207472616e7366657220746f20746865207a65726f2061646460008201527f7265737300000000000000000000000000000000000000000000000000000000602082015250565b7f4552433732313a20617070726f766520746f2063616c6c657200000000000000600082015250565b7f4552433732313a2061646472657373207a65726f206973206e6f74206120766160008201527f6c6964206f776e65720000000000000000000000000000000000000000000000602082015250565b7f45524337323155524953746f726167653a2055524920736574206f66206e6f6e60008201527f6578697374656e7420746f6b656e000000000000000000000000000000000000602082015250565b7f70726963652063616e6e6f742062652030000000000000000000000000000000600082015250565b7f68617368696d61206973206e6f7420696e2073616c6500000000000000000000600082015250565b7f4552433732313a20617070726f76652063616c6c6572206973206e6f7420746f60008201527f6b656e206f776e6572206e6f7220617070726f76656420666f7220616c6c0000602082015250565b7f4552433732313a206d696e7420746f20746865207a65726f2061646472657373600082015250565b7f4f776e61626c653a2063616c6c6572206973206e6f7420746865206f776e6572600082015250565b7f70726963652068617320746f2062652068696768000000000000000000000000600082015250565b7f4552433732313a20696e76616c696420746f6b656e2049440000000000000000600082015250565b7f4552433732313a20617070726f76616c20746f2063757272656e74206f776e6560008201527f7200000000000000000000000000000000000000000000000000000000000000602082015250565b50565b7f74786e206469646e7420776f726b000000000000000000000000000000000000600082015250565b7f6e6f7420616363657074656420636f696e000000000000000000000000000000600082015250565b7f4e6f207468652070726963650000000000000000000000000000000000000000600082015250565b7f4552433732313a2063616c6c6572206973206e6f7420746f6b656e206f776e6560008201527f72206e6f7220617070726f766564000000000000000000000000000000000000602082015250565b7f6f6e6c7920746865204e4654206f776e65720000000000000000000000000000600082015250565b7f7472616e73616374696f6e206e6f742073756363657366756c00000000000000600082015250565b6155a981614de6565b81146155b457600080fd5b50565b6155c081614e0a565b81146155cb57600080fd5b50565b6155d781614e16565b81146155e257600080fd5b50565b6155ee81614e62565b81146155f957600080fd5b5056fea2646970667358221220c9d71cce4a59baa9a51e59f18eda4ff1b6b7817cd42caa6e598ad1e20e08729064736f6c63430008030033",
  "immutableReferences": {},
  "source": "// SPDX-License-Identifier: MIT\npragma solidity ^0.8.0;\n\nimport \"@openzeppelin/contracts/token/ERC721/extensions/ERC721URIStorage.sol\";\nimport \"@openzeppelin/contracts/token/ERC20/IERC20.sol\";\nimport \"@openzeppelin/contracts/utils/Counters.sol\";\nimport \"@openzeppelin/contracts/access/Ownable.sol\";\n\n\n/**@dev\nSmart contract of the NFT assets inside the ecosystem.\n */\ncontract VrakkaNFT is ERC721URIStorage,Ownable{\n\n    using Counters for Counters.Counter;\n\n    ///////////////-----Variable-------------///////////\n    Counters.Counter private _tokenIds;\n    address[] acceptedCoins;\n\n    mapping(address=>uint256) private COINS_PRICE;\n    uint256 PRICE_NATIVE=10**16 wei; \n\n    uint256 private MAX_SUPPLY=12000;\n    uint256 private MAX_SUPPLY_LEGENDARY=360;\n    uint256 private MAX_SUPPLY_EPIC=1440;\n    uint256 private MAX_SUPPLY_RARE=4200;\n    uint256 private MAX_SUPPLY_NORMAL=6000;\n\n    uint256 private SUPPLY_LEGENDARY;\n    uint256 private SUPPLY_EPIC;\n    uint256 private SUPPLY_RARE;\n    uint256 private SUPPLY_NORMAL;\n\n    string internal baseURI;\n\n    constructor() ERC721(\"Vrakka NFT\", \"VRAKKA\") {}\n\n    struct Vrakka {\n        uint256 tokenId;\n        address payable currentOwner;\n        address payable previousOwner;\n        uint256 price;\n        bool forSale;       \n        uint256 blockNumber;\n        uint256 time; \n        uint class;\n    }\n\n    mapping(uint256=>Vrakka) LIST ;\n\n\n\n//-----------------MODIFICADORES--------------------------//\n\nmodifier onlyNFTOwner(uint256 _tokenId){\n    address tokenOwner = ownerOf(_tokenId);\n    require(tokenOwner == msg.sender,'only the NFT owner');\n    _;\n}\n\nmodifier checkHardCap(){\n    uint256 currentSupply = getTotal();\n    require(currentSupply<MAX_SUPPLY,'Hard Cap Reach');\n    _;\n}\n\n\nmodifier legalCoin(address _coin){\n    bool pass=false;\n    for (uint256 index = 0; index < acceptedCoins.length; index++) {\n        if(acceptedCoins[index]==_coin){\n            pass=true;\n            break;\n        }\n    }\n    require(pass,'not accepted coin');\n    _;\n}\n//-------------------MODIFICADORES--------------------------//\n\nfunction _beforeTokenTransfer(address from,address to,uint256 tokenId)internal override{\n        Vrakka memory _vrakka = LIST[tokenId];\n        // update the token's previous owner\n        _vrakka.previousOwner = payable(from);\n        // update the token's current owner\n        _vrakka.currentOwner =payable(to);\n        LIST[tokenId] = _vrakka;\n\n}\n\n\n/**\n@dev\nPrivateMinting function is only for the owner \n */\nfunction PrivateMinting(\n    address who,\n    uint256 _price,\n    bool forSale\n    ) external onlyOwner checkHardCap returns(uint256){\n\n    //incrementamos en 1 el contador\n    _tokenIds.increment();\n\n    uint256 newItemId = _tokenIds.current();\n    _mint(msg.sender, newItemId);\n    // _setTokenURI(newItemId, _uri);\n\n\n    uint _class=selectClass();\n    \n    updateSupplyClass(_class);\n\n    Vrakka memory newVrakka= Vrakka(\n    newItemId,//token id of VRAKKA NFT\n    payable(who),\n    payable(address(0)),\n    _price,\n    forSale,\n    block.number,\n    block.timestamp,\n    _class\n    );\n\n    LIST[newItemId] = newVrakka;\n\n    return newItemId;\n\n}\n\n\n/**\n@dev\nPublicMinting function lets any user to create their own NFT\nbase on \n */\nfunction PublicMinting(\n    string memory _uri\n    ) external payable checkHardCap returns(uint256){\n    \n    require(msg.value>=PRICE_NATIVE,'No the price');\n    _tokenIds.increment();\n\n    uint256 newItemId = _tokenIds.current();\n    _mint(msg.sender, newItemId);\n    _setTokenURI(newItemId, _uri);\n\n    uint _class=selectClass();\n    updateSupplyClass(_class);\n\n    Vrakka memory newVrakka= Vrakka(\n    newItemId,//token id of VRAKKA NFT\n    payable(msg.sender),\n    payable(address(0)),\n    PRICE_NATIVE,\n    false,\n    block.number,\n    block.timestamp,\n    _class\n    );\n\n    LIST[newItemId] = newVrakka;\n\n    return newItemId;\n\n}\n\n    \n//Any user can call this function and mint their own Vrakkaficate \nfunction PublicMintingERC20(\n    string memory _uri,\n    address _token_address,\n    bool forSale\n    ) external legalCoin(_token_address) checkHardCap returns (uint256){\n    \n    uint256 _price=COINS_PRICE[_token_address];\n    require(_price>0);\n    bool succ=IERC20(_token_address).transferFrom(msg.sender, address(this), _price);\n    require(succ,'txn didnt work');\n    _tokenIds.increment();\n\n    uint256 newItemId = _tokenIds.current();\n    _mint(msg.sender, newItemId);\n    _setTokenURI(newItemId, _uri);\n\n    uint _class=selectClass();\n    updateSupplyClass(_class);\n\n    Vrakka memory newVrakka= Vrakka(\n    newItemId,//token id of VRAKKA NFT\n    payable(msg.sender),\n    payable(address(0)),\n    _price,\n    forSale,\n    block.number,\n    block.timestamp,\n    _class\n    );\n\n    LIST[newItemId] = newVrakka;\n\n    return newItemId;\n\n}\n\n/////////////////////////////////////////////////////////////////////////////////////\n\nfunction toggleForSale(uint256 _tokenId) public onlyNFTOwner(_tokenId){\n  require(msg.sender != address(0));\n  require(_exists(_tokenId));\n\n  Vrakka memory _vrakka = LIST[_tokenId];\n\n  // if token's forSale is false make it true and vice versa\n  if(_vrakka.forSale) {\n    _vrakka.forSale = false;\n  } else {\n    _vrakka.forSale = true;\n  }\n  // set and update that token in the mapping\n  LIST[_tokenId] = _vrakka;\n}\n\nfunction toggleForSaleAndPrice(uint256 _tokenId,uint256 _price) public onlyNFTOwner(_tokenId){\n  require(msg.sender != address(0));\n  require(_exists(_tokenId));\n  require(_price>0,'price cannot be 0');\n\n  Vrakka memory _vrakka = LIST[_tokenId];\n\n  // if token's forSale is false make it true and vice versa\n  if(_vrakka.forSale) {\n    _vrakka.forSale = false;\n  } else {\n    _vrakka.forSale = true;\n    \n  }\n  //This function main goal is change the price\n  _vrakka.price = _price;\n\n  // set and update that token in the mapping\n  LIST[_tokenId] = _vrakka;\n}\n\nfunction changePrice(uint256 _tokenId,uint256 _newPrice) public onlyNFTOwner(_tokenId){\n  require(msg.sender != address(0));\n  require(_exists(_tokenId));\n  require(_newPrice>0,'price cannot be 0');\n\n  Vrakka memory _vrakka = LIST[_tokenId];\n\n  _vrakka.price = _newPrice;\n  \n  LIST[_tokenId] = _vrakka;\n}\n\n\nfunction buyToken(uint256 _tokenId) public payable returns(bool){\n  require(msg.sender != address(0));\n  require(_exists(_tokenId));\n  // get the token's owner\n  address tokenOwner = ownerOf(_tokenId);\n\n  require(tokenOwner != address(0));\n  require(tokenOwner != msg.sender);\n\n  Vrakka memory _vrakka = LIST[_tokenId];\n  \n  require(msg.value >= _vrakka.price,'price has to be high');\n  require(_vrakka.forSale,'hashima is not in sale');\n  \n  // get owner of the token\n  address payable sendTo = _vrakka.currentOwner;\n  // send token's worth of ethers to the owner\n  (bool sent, ) = sendTo.call{value: msg.value}(\"\");\n  require(sent,'transaction not succesful');\n\n  _transfer(tokenOwner, msg.sender, _tokenId);\n\n  // update the token's previous owner\n  _vrakka.previousOwner = _vrakka.currentOwner;\n  // update the token's current owner\n  _vrakka.currentOwner =payable(msg.sender);\n\n  //Change market state, so there is no possibility of quick buy\n  _vrakka.forSale=false;\n  // set and update that token in the mapping\n  LIST[_tokenId] = _vrakka;\n\n  return sent;\n}\n\n\nfunction addCoin(address coinAddress)external onlyOwner{\n    acceptedCoins.push(coinAddress);\n}\n\nfunction getPrice()external view returns(uint256){\n    return PRICE_NATIVE;\n}\n\n/////////////----SETTERS----//////////////\nfunction setPrice(uint256 _newPrice)external onlyOwner{\n    PRICE_NATIVE=_newPrice;\n}\n\nfunction setPriceERC20(address coin,uint256 _newPrice)external onlyOwner{\n    require(_newPrice>0,'price has to be more than 0');\n    for (uint256 index = 0; index < acceptedCoins.length; index++) {\n        \n        if(acceptedCoins[index]==coin){\n            COINS_PRICE[coin]=_newPrice;\n            break;\n        }\n    }\n    \n}\n\n\nfunction get(uint256 _index)public view returns(Vrakka memory){\n        return LIST[_index];\n}\n\nfunction getClass(uint256 _index)public view returns(uint){\n      return LIST[_index].class;\n}\n\nfunction getTotal()public view returns(uint256){\n    return(_tokenIds.current());\n}\n  \n\n/**\n  * @dev\n  3 Inputs for the Hash divided by the total number of minted NFTs: \n  -timestamp in unix time\n  -difficulty of the blockchain\n  -height of the current block\n  */\nfunction random() public view returns (uint8) {\n  return uint8(uint256(keccak256(abi.encodePacked(block.timestamp, block.difficulty,block.number)))%100);\n}\n\n\nfunction selectClass()internal view returns(uint){\n  uint8 randomNumber=random();\n  uint class;\n  bool pass=true;\n\n  while(pass){\n    if(randomNumber<=50){\n      class=1;\n    }else if(randomNumber<85){\n      class=2;\n    }else if(randomNumber<97){\n      class=3;\n    }else if(randomNumber<=100){\n      class=4;\n    }\n    pass=checkSupply(class);\n\n  }\n  return class;\n}\n\nfunction checkSupply(uint _class)private view returns(bool){\n  bool answer=false;\n  if(_class==1){\n    if(SUPPLY_NORMAL>=MAX_SUPPLY_NORMAL){\n      answer=true;\n    }\n  }else if(_class==2){\n    if(SUPPLY_RARE>=MAX_SUPPLY_RARE){\n      answer=true;\n    }\n\n  }else if(_class==3){\n    if(SUPPLY_EPIC>=MAX_SUPPLY_EPIC){\n      answer=true;\n    }\n\n  }else if(_class==4){\n    if(SUPPLY_LEGENDARY>=MAX_SUPPLY_LEGENDARY){\n      answer=true;\n    }\n\n  }\n  return answer;\n}\n\nfunction updateSupplyClass(uint _class)internal{\n  if(_class==1){\n    SUPPLY_NORMAL++;\n  }else if(_class==2){\n    SUPPLY_RARE++;\n  }else if(_class==3){\n    SUPPLY_EPIC++;\n  }else if(_class==4){\n    SUPPLY_LEGENDARY++;\n  }\n}\n\n// function setBaseURI(string calldata newEntry)external onlyOwner{\n//     baseURI=newEntry;\n// }\n\n// function tokenURI(uint256 tokenId) public view override returns (string memory) {\n//     require(_exists(tokenId), \"URI query for nonexistent token\");\n//     return string(abi.encodePacked(baseURI,Strings.toString(tokenId),\".json\"));\n// }\n\n}",
  "sourcePath": "/Users/aarontolentino/Documents/A-Work/Vrakka/contracts/VrakkaNFT.sol",
  "compiler": {
    "name": "solc",
    "version": "0.8.3+commit.8d00100c.Emscripten.clang"
  },
  "schemaVersion": "3.4.1",
  "updatedAt": "2023-05-09T04:46:40.374Z",
  "networkType": "ethereum",
  "devdoc": {
    "details": "Smart contract of the NFT assets inside the ecosystem.",
    "kind": "dev",
    "methods": {
      "PrivateMinting(address,uint256,bool)": {
        "details": "PrivateMinting function is only for the owner "
      },
      "PublicMinting(string)": {
        "details": "PublicMinting function lets any user to create their own NFT base on "
      },
      "approve(address,uint256)": {
        "details": "See {IERC721-approve}."
      },
      "balanceOf(address)": {
        "details": "See {IERC721-balanceOf}."
      },
      "getApproved(uint256)": {
        "details": "See {IERC721-getApproved}."
      },
      "isApprovedForAll(address,address)": {
        "details": "See {IERC721-isApprovedForAll}."
      },
      "name()": {
        "details": "See {IERC721Metadata-name}."
      },
      "owner()": {
        "details": "Returns the address of the current owner."
      },
      "ownerOf(uint256)": {
        "details": "See {IERC721-ownerOf}."
      },
      "random()": {
        "details": "3 Inputs for the Hash divided by the total number of minted NFTs:  -timestamp in unix time -difficulty of the blockchain -height of the current block"
      },
      "renounceOwnership()": {
        "details": "Leaves the contract without owner. It will not be possible to call `onlyOwner` functions anymore. Can only be called by the current owner. NOTE: Renouncing ownership will leave the contract without an owner, thereby removing any functionality that is only available to the owner."
      },
      "safeTransferFrom(address,address,uint256)": {
        "details": "See {IERC721-safeTransferFrom}."
      },
      "safeTransferFrom(address,address,uint256,bytes)": {
        "details": "See {IERC721-safeTransferFrom}."
      },
      "setApprovalForAll(address,bool)": {
        "details": "See {IERC721-setApprovalForAll}."
      },
      "supportsInterface(bytes4)": {
        "details": "See {IERC165-supportsInterface}."
      },
      "symbol()": {
        "details": "See {IERC721Metadata-symbol}."
      },
      "tokenURI(uint256)": {
        "details": "See {IERC721Metadata-tokenURI}."
      },
      "transferFrom(address,address,uint256)": {
        "details": "See {IERC721-transferFrom}."
      },
      "transferOwnership(address)": {
        "details": "Transfers ownership of the contract to a new account (`newOwner`). Can only be called by the current owner."
      }
    },
    "version": 1
  },
  "userdoc": {
    "kind": "user",
    "methods": {},
    "version": 1
  }
}