{
  "contractName": "Vrakka",
  "abi": [
    {
      "inputs": [
        {
          "internalType": "contract VrakkaNFT",
          "name": "vrakka_nft_contract",
          "type": "address"
        },
        {
          "internalType": "contract Ico",
          "name": "ico_contract",
          "type": "address"
        }
      ],
      "stateMutability": "nonpayable",
      "type": "constructor"
    },
    {
      "anonymous": false,
      "inputs": [
        {
          "indexed": true,
          "internalType": "address",
          "name": "owner",
          "type": "address"
        },
        {
          "indexed": true,
          "internalType": "address",
          "name": "spender",
          "type": "address"
        },
        {
          "indexed": false,
          "internalType": "uint256",
          "name": "value",
          "type": "uint256"
        }
      ],
      "name": "Approval",
      "type": "event"
    },
    {
      "anonymous": false,
      "inputs": [
        {
          "indexed": true,
          "internalType": "address",
          "name": "previousOwner",
          "type": "address"
        },
        {
          "indexed": true,
          "internalType": "address",
          "name": "newOwner",
          "type": "address"
        }
      ],
      "name": "OwnershipTransferred",
      "type": "event"
    },
    {
      "anonymous": false,
      "inputs": [
        {
          "indexed": true,
          "internalType": "address",
          "name": "from",
          "type": "address"
        },
        {
          "indexed": true,
          "internalType": "address",
          "name": "to",
          "type": "address"
        },
        {
          "indexed": false,
          "internalType": "uint256",
          "name": "value",
          "type": "uint256"
        }
      ],
      "name": "Transfer",
      "type": "event"
    },
    {
      "inputs": [],
      "name": "REWARD_PER_BLOCK",
      "outputs": [
        {
          "internalType": "uint256",
          "name": "",
          "type": "uint256"
        }
      ],
      "stateMutability": "view",
      "type": "function",
      "constant": true
    },
    {
      "inputs": [
        {
          "internalType": "string",
          "name": "",
          "type": "string"
        }
      ],
      "name": "_names",
      "outputs": [
        {
          "internalType": "bool",
          "name": "",
          "type": "bool"
        }
      ],
      "stateMutability": "view",
      "type": "function",
      "constant": true
    },
    {
      "inputs": [
        {
          "internalType": "address",
          "name": "owner",
          "type": "address"
        },
        {
          "internalType": "address",
          "name": "spender",
          "type": "address"
        }
      ],
      "name": "allowance",
      "outputs": [
        {
          "internalType": "uint256",
          "name": "",
          "type": "uint256"
        }
      ],
      "stateMutability": "view",
      "type": "function",
      "constant": true
    },
    {
      "inputs": [
        {
          "internalType": "address",
          "name": "spender",
          "type": "address"
        },
        {
          "internalType": "uint256",
          "name": "amount",
          "type": "uint256"
        }
      ],
      "name": "approve",
      "outputs": [
        {
          "internalType": "bool",
          "name": "",
          "type": "bool"
        }
      ],
      "stateMutability": "nonpayable",
      "type": "function"
    },
    {
      "inputs": [
        {
          "internalType": "address",
          "name": "account",
          "type": "address"
        }
      ],
      "name": "balanceOf",
      "outputs": [
        {
          "internalType": "uint256",
          "name": "",
          "type": "uint256"
        }
      ],
      "stateMutability": "view",
      "type": "function",
      "constant": true
    },
    {
      "inputs": [
        {
          "internalType": "address",
          "name": "",
          "type": "address"
        },
        {
          "internalType": "uint256",
          "name": "",
          "type": "uint256"
        }
      ],
      "name": "checkpoints",
      "outputs": [
        {
          "internalType": "uint256",
          "name": "",
          "type": "uint256"
        }
      ],
      "stateMutability": "view",
      "type": "function",
      "constant": true
    },
    {
      "inputs": [],
      "name": "decimals",
      "outputs": [
        {
          "internalType": "uint8",
          "name": "",
          "type": "uint8"
        }
      ],
      "stateMutability": "view",
      "type": "function",
      "constant": true
    },
    {
      "inputs": [
        {
          "internalType": "address",
          "name": "spender",
          "type": "address"
        },
        {
          "internalType": "uint256",
          "name": "subtractedValue",
          "type": "uint256"
        }
      ],
      "name": "decreaseAllowance",
      "outputs": [
        {
          "internalType": "bool",
          "name": "",
          "type": "bool"
        }
      ],
      "stateMutability": "nonpayable",
      "type": "function"
    },
    {
      "inputs": [
        {
          "internalType": "uint256",
          "name": "",
          "type": "uint256"
        }
      ],
      "name": "has_deposited",
      "outputs": [
        {
          "internalType": "bool",
          "name": "",
          "type": "bool"
        }
      ],
      "stateMutability": "view",
      "type": "function",
      "constant": true
    },
    {
      "inputs": [
        {
          "internalType": "address",
          "name": "spender",
          "type": "address"
        },
        {
          "internalType": "uint256",
          "name": "addedValue",
          "type": "uint256"
        }
      ],
      "name": "increaseAllowance",
      "outputs": [
        {
          "internalType": "bool",
          "name": "",
          "type": "bool"
        }
      ],
      "stateMutability": "nonpayable",
      "type": "function"
    },
    {
      "inputs": [],
      "name": "name",
      "outputs": [
        {
          "internalType": "string",
          "name": "",
          "type": "string"
        }
      ],
      "stateMutability": "view",
      "type": "function",
      "constant": true
    },
    {
      "inputs": [],
      "name": "owner",
      "outputs": [
        {
          "internalType": "address",
          "name": "",
          "type": "address"
        }
      ],
      "stateMutability": "view",
      "type": "function",
      "constant": true
    },
    {
      "inputs": [],
      "name": "renounceOwnership",
      "outputs": [],
      "stateMutability": "nonpayable",
      "type": "function"
    },
    {
      "inputs": [
        {
          "internalType": "uint256",
          "name": "",
          "type": "uint256"
        }
      ],
      "name": "staking_accounts",
      "outputs": [
        {
          "internalType": "address",
          "name": "",
          "type": "address"
        }
      ],
      "stateMutability": "view",
      "type": "function",
      "constant": true
    },
    {
      "inputs": [],
      "name": "symbol",
      "outputs": [
        {
          "internalType": "string",
          "name": "",
          "type": "string"
        }
      ],
      "stateMutability": "view",
      "type": "function",
      "constant": true
    },
    {
      "inputs": [],
      "name": "totalSupply",
      "outputs": [
        {
          "internalType": "uint256",
          "name": "",
          "type": "uint256"
        }
      ],
      "stateMutability": "view",
      "type": "function",
      "constant": true
    },
    {
      "inputs": [
        {
          "internalType": "address",
          "name": "to",
          "type": "address"
        },
        {
          "internalType": "uint256",
          "name": "amount",
          "type": "uint256"
        }
      ],
      "name": "transfer",
      "outputs": [
        {
          "internalType": "bool",
          "name": "",
          "type": "bool"
        }
      ],
      "stateMutability": "nonpayable",
      "type": "function"
    },
    {
      "inputs": [
        {
          "internalType": "address",
          "name": "from",
          "type": "address"
        },
        {
          "internalType": "address",
          "name": "to",
          "type": "address"
        },
        {
          "internalType": "uint256",
          "name": "amount",
          "type": "uint256"
        }
      ],
      "name": "transferFrom",
      "outputs": [
        {
          "internalType": "bool",
          "name": "",
          "type": "bool"
        }
      ],
      "stateMutability": "nonpayable",
      "type": "function"
    },
    {
      "inputs": [
        {
          "internalType": "address",
          "name": "newOwner",
          "type": "address"
        }
      ],
      "name": "transferOwnership",
      "outputs": [],
      "stateMutability": "nonpayable",
      "type": "function"
    },
    {
      "inputs": [
        {
          "internalType": "uint256",
          "name": "tokenId",
          "type": "uint256"
        }
      ],
      "name": "deposit",
      "outputs": [],
      "stateMutability": "nonpayable",
      "type": "function"
    },
    {
      "inputs": [
        {
          "internalType": "uint256",
          "name": "tokenId",
          "type": "uint256"
        }
      ],
      "name": "claimSupply",
      "outputs": [],
      "stateMutability": "nonpayable",
      "type": "function"
    },
    {
      "inputs": [
        {
          "internalType": "uint256",
          "name": "tokenId",
          "type": "uint256"
        }
      ],
      "name": "withdraw",
      "outputs": [],
      "stateMutability": "nonpayable",
      "type": "function"
    },
    {
      "inputs": [
        {
          "internalType": "address",
          "name": "beneficiary",
          "type": "address"
        },
        {
          "internalType": "uint256",
          "name": "tokenId",
          "type": "uint256"
        }
      ],
      "name": "collect",
      "outputs": [],
      "stateMutability": "nonpayable",
      "type": "function"
    },
    {
      "inputs": [
        {
          "internalType": "uint256",
          "name": "tokenId",
          "type": "uint256"
        }
      ],
      "name": "onStaking",
      "outputs": [
        {
          "internalType": "bool",
          "name": "",
          "type": "bool"
        }
      ],
      "stateMutability": "view",
      "type": "function",
      "constant": true
    },
    {
      "inputs": [
        {
          "internalType": "address",
          "name": "beneficiary",
          "type": "address"
        },
        {
          "internalType": "uint256",
          "name": "tokenId",
          "type": "uint256"
        }
      ],
      "name": "calculateReward",
      "outputs": [
        {
          "internalType": "uint256",
          "name": "",
          "type": "uint256"
        }
      ],
      "stateMutability": "view",
      "type": "function",
      "constant": true
    }
  ],
  "bytecode": "0x6080604052607d6009553480156200001657600080fd5b5060405162002f7838038062002f7883398181016040528101906200003c9190620004dc565b6040518060400160405280600681526020017f5672616b6b6100000000000000000000000000000000000000000000000000008152506040518060400160405280600381526020017f56524b00000000000000000000000000000000000000000000000000000000008152508160039080519060200190620000c0929190620003fe565b508060049080519060200190620000d9929190620003fe565b505050620000fc620000f0620001ad60201b60201c565b620001b560201b60201c565b620001233374029c30f1029939b146664242d97d9f6490000000006200027b60201b60201c565b81600c60006101000a81548173ffffffffffffffffffffffffffffffffffffffff021916908373ffffffffffffffffffffffffffffffffffffffff16021790555080600d60006101000a81548173ffffffffffffffffffffffffffffffffffffffff021916908373ffffffffffffffffffffffffffffffffffffffff160217905550505062000759565b600033905090565b6000600560009054906101000a900473ffffffffffffffffffffffffffffffffffffffff16905081600560006101000a81548173ffffffffffffffffffffffffffffffffffffffff021916908373ffffffffffffffffffffffffffffffffffffffff1602179055508173ffffffffffffffffffffffffffffffffffffffff168173ffffffffffffffffffffffffffffffffffffffff167f8be0079c531659141344cd1fd0a4f28419497f9722a3daafe3b4186f6b6457e060405160405180910390a35050565b600073ffffffffffffffffffffffffffffffffffffffff168273ffffffffffffffffffffffffffffffffffffffff161415620002ee576040517f08c379a0000000000000000000000000000000000000000000000000000000008152600401620002e59062000555565b60405180910390fd5b6200030260008383620003f460201b60201c565b8060026000828254620003169190620005a5565b92505081905550806000808473ffffffffffffffffffffffffffffffffffffffff1673ffffffffffffffffffffffffffffffffffffffff16815260200190815260200160002060008282546200036d9190620005a5565b925050819055508173ffffffffffffffffffffffffffffffffffffffff16600073ffffffffffffffffffffffffffffffffffffffff167fddf252ad1be2c89b69c2b068fc378daa952ba7f163c4a11628f55a4df523b3ef83604051620003d4919062000577565b60405180910390a3620003f060008383620003f960201b60201c565b5050565b505050565b505050565b8280546200040c9062000668565b90600052602060002090601f0160209004810192826200043057600085556200047c565b82601f106200044b57805160ff19168380011785556200047c565b828001600101855582156200047c579182015b828111156200047b5782518255916020019190600101906200045e565b5b5090506200048b91906200048f565b5090565b5b80821115620004aa57600081600090555060010162000490565b5090565b600081519050620004bf8162000725565b92915050565b600081519050620004d6816200073f565b92915050565b60008060408385031215620004f057600080fd5b60006200050085828601620004c5565b92505060206200051385828601620004ae565b9150509250929050565b60006200052c601f8362000594565b91506200053982620006fc565b602082019050919050565b6200054f816200065e565b82525050565b6000602082019050818103600083015262000570816200051d565b9050919050565b60006020820190506200058e600083018462000544565b92915050565b600082825260208201905092915050565b6000620005b2826200065e565b9150620005bf836200065e565b9250827fffffffffffffffffffffffffffffffffffffffffffffffffffffffffffffffff03821115620005f757620005f66200069e565b5b828201905092915050565b60006200060f826200063e565b9050919050565b6000620006238262000602565b9050919050565b6000620006378262000602565b9050919050565b600073ffffffffffffffffffffffffffffffffffffffff82169050919050565b6000819050919050565b600060028204905060018216806200068157607f821691505b60208210811415620006985762000697620006cd565b5b50919050565b7f4e487b7100000000000000000000000000000000000000000000000000000000600052601160045260246000fd5b7f4e487b7100000000000000000000000000000000000000000000000000000000600052602260045260246000fd5b7f45524332303a206d696e7420746f20746865207a65726f206164647265737300600082015250565b620007308162000616565b81146200073c57600080fd5b50565b6200074a816200062a565b81146200075657600080fd5b50565b61280f80620007696000396000f3fe608060405234801561001057600080fd5b50600436106101735760003560e01c806370a08231116100de578063a9059cbb11610097578063d1760fac11610071578063d1760fac14610486578063dd62ed3e146104b6578063e68039c6146104e6578063f2fde38b1461051657610173565b8063a9059cbb1461040a578063af9d16321461043a578063b6b55f251461046a57610173565b806370a0823114610346578063715018a6146103765780638da5cb5b1461038057806395d89b411461039e578063975532dc146103bc578063a457c2d7146103da57610173565b80632e1a7d4d116101305780632e1a7d4d14610274578063313ce5671461029057806339509351146102ae5780633967a4f8146102de5780636b8357ac1461030e5780636e8632701461032a57610173565b806306fdde0314610178578063095ea7b3146101965780630cdfebfa146101c657806318160ddd146101f65780631852e8d91461021457806323b872dd14610244575b600080fd5b610180610532565b60405161018d9190611f14565b60405180910390f35b6101b060048036038101906101ab9190611b56565b6105c4565b6040516101bd9190611ef9565b60405180910390f35b6101e060048036038101906101db9190611b56565b6105e7565b6040516101ed9190612116565b60405180910390f35b6101fe61060c565b60405161020b9190612116565b60405180910390f35b61022e60048036038101906102299190611b56565b610616565b60405161023b9190612116565b60405180910390f35b61025e60048036038101906102599190611b07565b6106c3565b60405161026b9190611ef9565b60405180910390f35b61028e60048036038101906102899190611bd3565b6106f2565b005b6102986108bd565b6040516102a59190612131565b60405180910390f35b6102c860048036038101906102c39190611b56565b6108c6565b6040516102d59190611ef9565b60405180910390f35b6102f860048036038101906102f39190611bd3565b6108fd565b6040516103059190611ef9565b60405180910390f35b61032860048036038101906103239190611b56565b610927565b005b610344600480360381019061033f9190611bd3565b610999565b005b610360600480360381019061035b9190611a79565b610c03565b60405161036d9190612116565b60405180910390f35b61037e610c4b565b005b610388610c5f565b6040516103959190611ea7565b60405180910390f35b6103a6610c89565b6040516103b39190611f14565b60405180910390f35b6103c4610d1b565b6040516103d19190612116565b60405180910390f35b6103f460048036038101906103ef9190611b56565b610d21565b6040516104019190611ef9565b60405180910390f35b610424600480360381019061041f9190611b56565b610d98565b6040516104319190611ef9565b60405180910390f35b610454600480360381019061044f9190611bd3565b610dbb565b6040516104619190611ef9565b60405180910390f35b610484600480360381019061047f9190611bd3565b610ddb565b005b6104a0600480360381019061049b9190611b92565b6110bb565b6040516104ad9190611ef9565b60405180910390f35b6104d060048036038101906104cb9190611acb565b6110f1565b6040516104dd9190612116565b60405180910390f35b61050060048036038101906104fb9190611bd3565b611178565b60405161050d9190611ea7565b60405180910390f35b610530600480360381019061052b9190611a79565b6111ab565b005b60606003805461054190612339565b80601f016020809104026020016040519081016040528092919081815260200182805461056d90612339565b80156105ba5780601f1061058f576101008083540402835291602001916105ba565b820191906000526020600020905b81548152906001019060200180831161059d57829003601f168201915b5050505050905090565b6000806105cf61122f565b90506105dc818585611237565b600191505092915050565b6006602052816000526040600020602052806000526040600020600091509150505481565b6000600254905090565b60006007600083815260200190815260200160002060009054906101000a900460ff1661064657600090506106bd565b6000600290506000600660008673ffffffffffffffffffffffffffffffffffffffff1673ffffffffffffffffffffffffffffffffffffffff168152602001908152602001600020600085815260200190815260200160002054905080436106ad919061226e565b826106b89190612214565b925050505b92915050565b6000806106ce61122f565b90506106db858285611402565b6106e685858561148e565b60019150509392505050565b6007600082815260200190815260200160002060009054906101000a900460ff16610752576040517f08c379a000000000000000000000000000000000000000000000000000000000815260040161074990612036565b60405180910390fd5b3373ffffffffffffffffffffffffffffffffffffffff166008600083815260200190815260200160002060009054906101000a900473ffffffffffffffffffffffffffffffffffffffff1673ffffffffffffffffffffffffffffffffffffffff16146107f3576040517f08c379a00000000000000000000000000000000000000000000000000000000081526004016107ea90611f56565b60405180910390fd5b6107fd3382610927565b600c60009054906101000a900473ffffffffffffffffffffffffffffffffffffffff1673ffffffffffffffffffffffffffffffffffffffff166323b872dd3033846040518463ffffffff1660e01b815260040161085c93929190611ec2565b600060405180830381600087803b15801561087657600080fd5b505af115801561088a573d6000803e3d6000fd5b5050505060006007600083815260200190815260200160002060006101000a81548160ff02191690831515021790555050565b60006012905090565b6000806108d161122f565b90506108f28185856108e385896110f1565b6108ed91906121be565b611237565b600191505092915050565b60006007600083815260200190815260200160002060009054906101000a900460ff169050919050565b60006109338383610616565b905043600660008573ffffffffffffffffffffffffffffffffffffffff1673ffffffffffffffffffffffffffffffffffffffff168152602001908152602001600020600084815260200190815260200160002081905550610994338261170f565b505050565b806000600d60009054906101000a900473ffffffffffffffffffffffffffffffffffffffff1673ffffffffffffffffffffffffffffffffffffffff16636352211e836040518263ffffffff1660e01b81526004016109f79190612116565b60206040518083038186803b158015610a0f57600080fd5b505afa158015610a23573d6000803e3d6000fd5b505050506040513d601f19601f82011682018060405250810190610a479190611aa2565b90503373ffffffffffffffffffffffffffffffffffffffff168173ffffffffffffffffffffffffffffffffffffffff1614610ab7576040517f08c379a0000000000000000000000000000000000000000000000000000000008152600401610aae90612056565b60405180910390fd5b6000600d60009054906101000a900473ffffffffffffffffffffffffffffffffffffffff1673ffffffffffffffffffffffffffffffffffffffff1663e96e2ced856040518263ffffffff1660e01b8152600401610b149190612116565b60206040518083038186803b158015610b2c57600080fd5b505afa158015610b40573d6000803e3d6000fd5b505050506040513d601f19601f82011682018060405250810190610b649190611bfc565b9050610b70338261170f565b600d60009054906101000a900473ffffffffffffffffffffffffffffffffffffffff1673ffffffffffffffffffffffffffffffffffffffff166342966c68856040518263ffffffff1660e01b8152600401610bcb9190612116565b600060405180830381600087803b158015610be557600080fd5b505af1158015610bf9573d6000803e3d6000fd5b5050505050505050565b60008060008373ffffffffffffffffffffffffffffffffffffffff1673ffffffffffffffffffffffffffffffffffffffff168152602001908152602001600020549050919050565b610c5361186f565b610c5d60006118ed565b565b6000600560009054906101000a900473ffffffffffffffffffffffffffffffffffffffff16905090565b606060048054610c9890612339565b80601f0160208091040260200160405190810160405280929190818152602001828054610cc490612339565b8015610d115780601f10610ce657610100808354040283529160200191610d11565b820191906000526020600020905b815481529060010190602001808311610cf457829003601f168201915b5050505050905090565b60095481565b600080610d2c61122f565b90506000610d3a82866110f1565b905083811015610d7f576040517f08c379a0000000000000000000000000000000000000000000000000000000008152600401610d76906120d6565b60405180910390fd5b610d8c8286868403611237565b60019250505092915050565b600080610da361122f565b9050610db081858561148e565b600191505092915050565b60076020528060005260406000206000915054906101000a900460ff1681565b600c60009054906101000a900473ffffffffffffffffffffffffffffffffffffffff1673ffffffffffffffffffffffffffffffffffffffff16636352211e826040518263ffffffff1660e01b8152600401610e369190612116565b60206040518083038186803b158015610e4e57600080fd5b505afa158015610e62573d6000803e3d6000fd5b505050506040513d601f19601f82011682018060405250810190610e869190611aa2565b73ffffffffffffffffffffffffffffffffffffffff163373ffffffffffffffffffffffffffffffffffffffff1614610ef3576040517f08c379a0000000000000000000000000000000000000000000000000000000008152600401610eea90611fd6565b60405180910390fd5b6007600082815260200190815260200160002060009054906101000a900460ff1615610f54576040517f08c379a0000000000000000000000000000000000000000000000000000000008152600401610f4b90612016565b60405180910390fd5b43600660003373ffffffffffffffffffffffffffffffffffffffff1673ffffffffffffffffffffffffffffffffffffffff168152602001908152602001600020600083815260200190815260200160002081905550336008600083815260200190815260200160002060006101000a81548173ffffffffffffffffffffffffffffffffffffffff021916908373ffffffffffffffffffffffffffffffffffffffff160217905550600c60009054906101000a900473ffffffffffffffffffffffffffffffffffffffff1673ffffffffffffffffffffffffffffffffffffffff166323b872dd3330846040518463ffffffff1660e01b815260040161105a93929190611ec2565b600060405180830381600087803b15801561107457600080fd5b505af1158015611088573d6000803e3d6000fd5b5050505060016007600083815260200190815260200160002060006101000a81548160ff02191690831515021790555050565b600b818051602081018201805184825260208301602085012081835280955050505050506000915054906101000a900460ff1681565b6000600160008473ffffffffffffffffffffffffffffffffffffffff1673ffffffffffffffffffffffffffffffffffffffff16815260200190815260200160002060008373ffffffffffffffffffffffffffffffffffffffff1673ffffffffffffffffffffffffffffffffffffffff16815260200190815260200160002054905092915050565b60086020528060005260406000206000915054906101000a900473ffffffffffffffffffffffffffffffffffffffff1681565b6111b361186f565b600073ffffffffffffffffffffffffffffffffffffffff168173ffffffffffffffffffffffffffffffffffffffff161415611223576040517f08c379a000000000000000000000000000000000000000000000000000000000815260040161121a90611f76565b60405180910390fd5b61122c816118ed565b50565b600033905090565b600073ffffffffffffffffffffffffffffffffffffffff168373ffffffffffffffffffffffffffffffffffffffff1614156112a7576040517f08c379a000000000000000000000000000000000000000000000000000000000815260040161129e906120b6565b60405180910390fd5b600073ffffffffffffffffffffffffffffffffffffffff168273ffffffffffffffffffffffffffffffffffffffff161415611317576040517f08c379a000000000000000000000000000000000000000000000000000000000815260040161130e90611f96565b60405180910390fd5b80600160008573ffffffffffffffffffffffffffffffffffffffff1673ffffffffffffffffffffffffffffffffffffffff16815260200190815260200160002060008473ffffffffffffffffffffffffffffffffffffffff1673ffffffffffffffffffffffffffffffffffffffff168152602001908152602001600020819055508173ffffffffffffffffffffffffffffffffffffffff168373ffffffffffffffffffffffffffffffffffffffff167f8c5be1e5ebec7d5bd14f71427d1e84f3dd0314c0f7b2291e5b200ac8c7c3b925836040516113f59190612116565b60405180910390a3505050565b600061140e84846110f1565b90507fffffffffffffffffffffffffffffffffffffffffffffffffffffffffffffffff8114611488578181101561147a576040517f08c379a000000000000000000000000000000000000000000000000000000000815260040161147190611fb6565b60405180910390fd5b6114878484848403611237565b5b50505050565b600073ffffffffffffffffffffffffffffffffffffffff168373ffffffffffffffffffffffffffffffffffffffff1614156114fe576040517f08c379a00000000000000000000000000000000000000000000000000000000081526004016114f590612096565b60405180910390fd5b600073ffffffffffffffffffffffffffffffffffffffff168273ffffffffffffffffffffffffffffffffffffffff16141561156e576040517f08c379a000000000000000000000000000000000000000000000000000000000815260040161156590611f36565b60405180910390fd5b6115798383836119b3565b60008060008573ffffffffffffffffffffffffffffffffffffffff1673ffffffffffffffffffffffffffffffffffffffff168152602001908152602001600020549050818110156115ff576040517f08c379a00000000000000000000000000000000000000000000000000000000081526004016115f690611ff6565b60405180910390fd5b8181036000808673ffffffffffffffffffffffffffffffffffffffff1673ffffffffffffffffffffffffffffffffffffffff16815260200190815260200160002081905550816000808573ffffffffffffffffffffffffffffffffffffffff1673ffffffffffffffffffffffffffffffffffffffff168152602001908152602001600020600082825461169291906121be565b925050819055508273ffffffffffffffffffffffffffffffffffffffff168473ffffffffffffffffffffffffffffffffffffffff167fddf252ad1be2c89b69c2b068fc378daa952ba7f163c4a11628f55a4df523b3ef846040516116f69190612116565b60405180910390a36117098484846119b8565b50505050565b600073ffffffffffffffffffffffffffffffffffffffff168273ffffffffffffffffffffffffffffffffffffffff16141561177f576040517f08c379a0000000000000000000000000000000000000000000000000000000008152600401611776906120f6565b60405180910390fd5b61178b600083836119b3565b806002600082825461179d91906121be565b92505081905550806000808473ffffffffffffffffffffffffffffffffffffffff1673ffffffffffffffffffffffffffffffffffffffff16815260200190815260200160002060008282546117f291906121be565b925050819055508173ffffffffffffffffffffffffffffffffffffffff16600073ffffffffffffffffffffffffffffffffffffffff167fddf252ad1be2c89b69c2b068fc378daa952ba7f163c4a11628f55a4df523b3ef836040516118579190612116565b60405180910390a361186b600083836119b8565b5050565b61187761122f565b73ffffffffffffffffffffffffffffffffffffffff16611895610c5f565b73ffffffffffffffffffffffffffffffffffffffff16146118eb576040517f08c379a00000000000000000000000000000000000000000000000000000000081526004016118e290612076565b60405180910390fd5b565b6000600560009054906101000a900473ffffffffffffffffffffffffffffffffffffffff16905081600560006101000a81548173ffffffffffffffffffffffffffffffffffffffff021916908373ffffffffffffffffffffffffffffffffffffffff1602179055508173ffffffffffffffffffffffffffffffffffffffff168173ffffffffffffffffffffffffffffffffffffffff167f8be0079c531659141344cd1fd0a4f28419497f9722a3daafe3b4186f6b6457e060405160405180910390a35050565b505050565b505050565b60006119d06119cb84612171565b61214c565b9050828152602081018484840111156119e857600080fd5b6119f38482856122f7565b509392505050565b600081359050611a0a816127ab565b92915050565b600081519050611a1f816127ab565b92915050565b600082601f830112611a3657600080fd5b8135611a468482602086016119bd565b91505092915050565b600081359050611a5e816127c2565b92915050565b600081519050611a73816127c2565b92915050565b600060208284031215611a8b57600080fd5b6000611a99848285016119fb565b91505092915050565b600060208284031215611ab457600080fd5b6000611ac284828501611a10565b91505092915050565b60008060408385031215611ade57600080fd5b6000611aec858286016119fb565b9250506020611afd858286016119fb565b9150509250929050565b600080600060608486031215611b1c57600080fd5b6000611b2a868287016119fb565b9350506020611b3b868287016119fb565b9250506040611b4c86828701611a4f565b9150509250925092565b60008060408385031215611b6957600080fd5b6000611b77858286016119fb565b9250506020611b8885828601611a4f565b9150509250929050565b600060208284031215611ba457600080fd5b600082013567ffffffffffffffff811115611bbe57600080fd5b611bca84828501611a25565b91505092915050565b600060208284031215611be557600080fd5b6000611bf384828501611a4f565b91505092915050565b600060208284031215611c0e57600080fd5b6000611c1c84828501611a64565b91505092915050565b611c2e816122a2565b82525050565b611c3d816122b4565b82525050565b6000611c4e826121a2565b611c5881856121ad565b9350611c68818560208601612306565b611c7181612429565b840191505092915050565b6000611c896023836121ad565b9150611c948261243a565b604082019050919050565b6000611cac600f836121ad565b9150611cb782612489565b602082019050919050565b6000611ccf6026836121ad565b9150611cda826124b2565b604082019050919050565b6000611cf26022836121ad565b9150611cfd82612501565b604082019050919050565b6000611d15601d836121ad565b9150611d2082612550565b602082019050919050565b6000611d386014836121ad565b9150611d4382612579565b602082019050919050565b6000611d5b6026836121ad565b9150611d66826125a2565b604082019050919050565b6000611d7e6018836121ad565b9150611d89826125f1565b602082019050919050565b6000611da16015836121ad565b9150611dac8261261a565b602082019050919050565b6000611dc4601d836121ad565b9150611dcf82612643565b602082019050919050565b6000611de76020836121ad565b9150611df28261266c565b602082019050919050565b6000611e0a6025836121ad565b9150611e1582612695565b604082019050919050565b6000611e2d6024836121ad565b9150611e38826126e4565b604082019050919050565b6000611e506025836121ad565b9150611e5b82612733565b604082019050919050565b6000611e73601f836121ad565b9150611e7e82612782565b602082019050919050565b611e92816122e0565b82525050565b611ea1816122ea565b82525050565b6000602082019050611ebc6000830184611c25565b92915050565b6000606082019050611ed76000830186611c25565b611ee46020830185611c25565b611ef16040830184611e89565b949350505050565b6000602082019050611f0e6000830184611c34565b92915050565b60006020820190508181036000830152611f2e8184611c43565b905092915050565b60006020820190508181036000830152611f4f81611c7c565b9050919050565b60006020820190508181036000830152611f6f81611c9f565b9050919050565b60006020820190508181036000830152611f8f81611cc2565b9050919050565b60006020820190508181036000830152611faf81611ce5565b9050919050565b60006020820190508181036000830152611fcf81611d08565b9050919050565b60006020820190508181036000830152611fef81611d2b565b9050919050565b6000602082019050818103600083015261200f81611d4e565b9050919050565b6000602082019050818103600083015261202f81611d71565b9050919050565b6000602082019050818103600083015261204f81611d94565b9050919050565b6000602082019050818103600083015261206f81611db7565b9050919050565b6000602082019050818103600083015261208f81611dda565b9050919050565b600060208201905081810360008301526120af81611dfd565b9050919050565b600060208201905081810360008301526120cf81611e20565b9050919050565b600060208201905081810360008301526120ef81611e43565b9050919050565b6000602082019050818103600083015261210f81611e66565b9050919050565b600060208201905061212b6000830184611e89565b92915050565b60006020820190506121466000830184611e98565b92915050565b6000612156612167565b9050612162828261236b565b919050565b6000604051905090565b600067ffffffffffffffff82111561218c5761218b6123fa565b5b61219582612429565b9050602081019050919050565b600081519050919050565b600082825260208201905092915050565b60006121c9826122e0565b91506121d4836122e0565b9250827fffffffffffffffffffffffffffffffffffffffffffffffffffffffffffffffff038211156122095761220861239c565b5b828201905092915050565b600061221f826122e0565b915061222a836122e0565b9250817fffffffffffffffffffffffffffffffffffffffffffffffffffffffffffffffff04831182151516156122635761226261239c565b5b828202905092915050565b6000612279826122e0565b9150612284836122e0565b9250828210156122975761229661239c565b5b828203905092915050565b60006122ad826122c0565b9050919050565b60008115159050919050565b600073ffffffffffffffffffffffffffffffffffffffff82169050919050565b6000819050919050565b600060ff82169050919050565b82818337600083830152505050565b60005b83811015612324578082015181840152602081019050612309565b83811115612333576000848401525b50505050565b6000600282049050600182168061235157607f821691505b60208210811415612365576123646123cb565b5b50919050565b61237482612429565b810181811067ffffffffffffffff82111715612393576123926123fa565b5b80604052505050565b7f4e487b7100000000000000000000000000000000000000000000000000000000600052601160045260246000fd5b7f4e487b7100000000000000000000000000000000000000000000000000000000600052602260045260246000fd5b7f4e487b7100000000000000000000000000000000000000000000000000000000600052604160045260246000fd5b6000601f19601f8301169050919050565b7f45524332303a207472616e7366657220746f20746865207a65726f206164647260008201527f6573730000000000000000000000000000000000000000000000000000000000602082015250565b7f4f6e6c7920746865205374616b65720000000000000000000000000000000000600082015250565b7f4f776e61626c653a206e6577206f776e657220697320746865207a65726f206160008201527f6464726573730000000000000000000000000000000000000000000000000000602082015250565b7f45524332303a20617070726f766520746f20746865207a65726f20616464726560008201527f7373000000000000000000000000000000000000000000000000000000000000602082015250565b7f45524332303a20696e73756666696369656e7420616c6c6f77616e6365000000600082015250565b7f53656e646572206d757374206265206f776e6572000000000000000000000000600082015250565b7f45524332303a207472616e7366657220616d6f756e742065786365656473206260008201527f616c616e63650000000000000000000000000000000000000000000000000000602082015250565b7f53656e64657220616c7265616479206465706f73697465640000000000000000600082015250565b7f4e6f20746f6b656e7320746f2077697468647261770000000000000000000000600082015250565b7f6f6e6c7920746865206f776e6572206f66207468652049434f204e4654000000600082015250565b7f4f776e61626c653a2063616c6c6572206973206e6f7420746865206f776e6572600082015250565b7f45524332303a207472616e736665722066726f6d20746865207a65726f20616460008201527f6472657373000000000000000000000000000000000000000000000000000000602082015250565b7f45524332303a20617070726f76652066726f6d20746865207a65726f2061646460008201527f7265737300000000000000000000000000000000000000000000000000000000602082015250565b7f45524332303a2064656372656173656420616c6c6f77616e63652062656c6f7760008201527f207a65726f000000000000000000000000000000000000000000000000000000602082015250565b7f45524332303a206d696e7420746f20746865207a65726f206164647265737300600082015250565b6127b4816122a2565b81146127bf57600080fd5b50565b6127cb816122e0565b81146127d657600080fd5b5056fea26469706673582212203f5a67d2d7b19ae7e7de4ef249ad106af61cb1b05b2c3630eb8ba7353d1bba9f64736f6c63430008030033",
  "immutableReferences": {},
  "source": "// SPDX-License-Identifier: MIT\npragma solidity ^0.8.0;\n\nimport \"@openzeppelin/contracts/token/ERC20/ERC20.sol\";\nimport \"@openzeppelin/contracts/utils/Counters.sol\";\nimport \"@openzeppelin/contracts/access/Ownable.sol\";\nimport \"@openzeppelin/contracts/token/ERC721/IERC721.sol\";\nimport \"./Ico.sol\";\nimport \"./VrakkaNFT.sol\";\n\n\ncontract Vrakka is ERC20,Ownable{\n\n    mapping(address => mapping(uint256=>uint256)) public checkpoints;\n    mapping(uint256 => bool) public has_deposited;\n    mapping(uint256 => address) public staking_accounts;\n\n    uint public REWARD_PER_BLOCK = 125;\n \n    mapping(address=>uint256) private tolerance;\n    //check the string use by the user is not repeat\n    mapping(string=>bool)public _names;\n\n    VrakkaNFT private BASE_CONTRACT;\n    Ico private ICO_CONTRACT;\n    \n    constructor(\n      VrakkaNFT vrakka_nft_contract,\n      Ico ico_contract) ERC20(\"Vrakka\", \"VRK\") {\n\n      _mint(msg.sender, 500**18);\n      BASE_CONTRACT=vrakka_nft_contract;\n      ICO_CONTRACT=ico_contract;\n    }\n\n    //////////////---Modifiers---------------------------------------------------------------------\n    modifier onlyTokenOwner(uint256 _tokenId){\n        address tokenOwner = IERC721(ICO_CONTRACT).ownerOf(_tokenId);\n        require(tokenOwner == msg.sender,'only the owner of the ICO NFT');\n        _;\n    }\n    ////////////////////////////////////////////////////////////////////////////////////////\n    \n\n    function deposit(uint256 tokenId) external{\n        require (msg.sender == BASE_CONTRACT.ownerOf(tokenId), 'Sender must be owner');\n        require (!has_deposited[tokenId], 'Sender already deposited');\n\n        //Height of the staking block\n        checkpoints[msg.sender][tokenId] = block.number;\n        staking_accounts[tokenId]=msg.sender;\n        \n        BASE_CONTRACT.transferFrom(msg.sender, address(this), tokenId);\n      \n        has_deposited[tokenId]=true;\n   }\n\n   function claimSupply(uint256 tokenId)public onlyTokenOwner(tokenId){\n      uint256 _supply=ICO_CONTRACT.checkSupply(tokenId);\n      _mint(msg.sender,_supply);\n      ICO_CONTRACT.burn(tokenId);\n   }\n\n\n    function withdraw(uint256 tokenId) external{\n        require(has_deposited[tokenId], 'No tokens to withdraw');\n        require(staking_accounts[tokenId]==msg.sender,'Only the Staker');\n        collect(msg.sender,tokenId);\n        BASE_CONTRACT.transferFrom(address(this), msg.sender, tokenId);\n        \n        has_deposited[tokenId]=false;\n    }\n\n    function collect(address beneficiary,uint256 tokenId) public{\n        uint256 reward = calculateReward(beneficiary,tokenId);\n        checkpoints[beneficiary][tokenId] = block.number;      \n        _mint(msg.sender, reward);\n    }\n\n    function onStaking(uint256 tokenId)public view returns(bool){\n        return has_deposited[tokenId];\n    }\n\n    function calculateReward(address beneficiary,uint256 tokenId) public view returns(uint256){\n        if(!has_deposited[tokenId])\n        {\n            return 0;\n        }\n        uint256 pesoEstrella=2;\n        uint256 checkpoint = checkpoints[beneficiary][tokenId];\n        return pesoEstrella*(block.number-checkpoint);\n    }   \n\n}",
  "sourcePath": "/Users/aarontolentino/Documents/A-Work/Vrakka/contracts/Vrakka.sol",
  "compiler": {
    "name": "solc",
    "version": "0.8.3+commit.8d00100c.Emscripten.clang"
  },
  "schemaVersion": "3.4.1",
  "updatedAt": "2022-08-25T19:19:17.105Z",
  "networkType": "ethereum",
  "devdoc": {
    "kind": "dev",
    "methods": {
      "allowance(address,address)": {
        "details": "See {IERC20-allowance}."
      },
      "approve(address,uint256)": {
        "details": "See {IERC20-approve}. NOTE: If `amount` is the maximum `uint256`, the allowance is not updated on `transferFrom`. This is semantically equivalent to an infinite approval. Requirements: - `spender` cannot be the zero address."
      },
      "balanceOf(address)": {
        "details": "See {IERC20-balanceOf}."
      },
      "decimals()": {
        "details": "Returns the number of decimals used to get its user representation. For example, if `decimals` equals `2`, a balance of `505` tokens should be displayed to a user as `5.05` (`505 / 10 ** 2`). Tokens usually opt for a value of 18, imitating the relationship between Ether and Wei. This is the value {ERC20} uses, unless this function is overridden; NOTE: This information is only used for _display_ purposes: it in no way affects any of the arithmetic of the contract, including {IERC20-balanceOf} and {IERC20-transfer}."
      },
      "decreaseAllowance(address,uint256)": {
        "details": "Atomically decreases the allowance granted to `spender` by the caller. This is an alternative to {approve} that can be used as a mitigation for problems described in {IERC20-approve}. Emits an {Approval} event indicating the updated allowance. Requirements: - `spender` cannot be the zero address. - `spender` must have allowance for the caller of at least `subtractedValue`."
      },
      "increaseAllowance(address,uint256)": {
        "details": "Atomically increases the allowance granted to `spender` by the caller. This is an alternative to {approve} that can be used as a mitigation for problems described in {IERC20-approve}. Emits an {Approval} event indicating the updated allowance. Requirements: - `spender` cannot be the zero address."
      },
      "name()": {
        "details": "Returns the name of the token."
      },
      "owner()": {
        "details": "Returns the address of the current owner."
      },
      "renounceOwnership()": {
        "details": "Leaves the contract without owner. It will not be possible to call `onlyOwner` functions anymore. Can only be called by the current owner. NOTE: Renouncing ownership will leave the contract without an owner, thereby removing any functionality that is only available to the owner."
      },
      "symbol()": {
        "details": "Returns the symbol of the token, usually a shorter version of the name."
      },
      "totalSupply()": {
        "details": "See {IERC20-totalSupply}."
      },
      "transfer(address,uint256)": {
        "details": "See {IERC20-transfer}. Requirements: - `to` cannot be the zero address. - the caller must have a balance of at least `amount`."
      },
      "transferFrom(address,address,uint256)": {
        "details": "See {IERC20-transferFrom}. Emits an {Approval} event indicating the updated allowance. This is not required by the EIP. See the note at the beginning of {ERC20}. NOTE: Does not update the allowance if the current allowance is the maximum `uint256`. Requirements: - `from` and `to` cannot be the zero address. - `from` must have a balance of at least `amount`. - the caller must have allowance for ``from``'s tokens of at least `amount`."
      },
      "transferOwnership(address)": {
        "details": "Transfers ownership of the contract to a new account (`newOwner`). Can only be called by the current owner."
      }
    },
    "version": 1
  },
  "userdoc": {
    "kind": "user",
    "methods": {},
    "version": 1
  }
}