{
  "contractName": "Vrk",
  "abi": [
    {
      "inputs": [
        {
          "internalType": "contract VrakkaNFT",
          "name": "vrakka_nft_contract",
          "type": "address"
        },
        {
          "internalType": "contract Ico",
          "name": "ico_contract",
          "type": "address"
        }
      ],
      "stateMutability": "nonpayable",
      "type": "constructor"
    },
    {
      "anonymous": false,
      "inputs": [
        {
          "indexed": true,
          "internalType": "address",
          "name": "owner",
          "type": "address"
        },
        {
          "indexed": true,
          "internalType": "address",
          "name": "spender",
          "type": "address"
        },
        {
          "indexed": false,
          "internalType": "uint256",
          "name": "value",
          "type": "uint256"
        }
      ],
      "name": "Approval",
      "type": "event"
    },
    {
      "anonymous": false,
      "inputs": [
        {
          "indexed": true,
          "internalType": "address",
          "name": "previousOwner",
          "type": "address"
        },
        {
          "indexed": true,
          "internalType": "address",
          "name": "newOwner",
          "type": "address"
        }
      ],
      "name": "OwnershipTransferred",
      "type": "event"
    },
    {
      "anonymous": false,
      "inputs": [
        {
          "indexed": true,
          "internalType": "address",
          "name": "from",
          "type": "address"
        },
        {
          "indexed": true,
          "internalType": "address",
          "name": "to",
          "type": "address"
        },
        {
          "indexed": false,
          "internalType": "uint256",
          "name": "value",
          "type": "uint256"
        }
      ],
      "name": "Transfer",
      "type": "event"
    },
    {
      "inputs": [
        {
          "internalType": "string",
          "name": "",
          "type": "string"
        }
      ],
      "name": "_names",
      "outputs": [
        {
          "internalType": "bool",
          "name": "",
          "type": "bool"
        }
      ],
      "stateMutability": "view",
      "type": "function",
      "constant": true
    },
    {
      "inputs": [
        {
          "internalType": "address",
          "name": "owner",
          "type": "address"
        },
        {
          "internalType": "address",
          "name": "spender",
          "type": "address"
        }
      ],
      "name": "allowance",
      "outputs": [
        {
          "internalType": "uint256",
          "name": "",
          "type": "uint256"
        }
      ],
      "stateMutability": "view",
      "type": "function",
      "constant": true
    },
    {
      "inputs": [
        {
          "internalType": "address",
          "name": "spender",
          "type": "address"
        },
        {
          "internalType": "uint256",
          "name": "amount",
          "type": "uint256"
        }
      ],
      "name": "approve",
      "outputs": [
        {
          "internalType": "bool",
          "name": "",
          "type": "bool"
        }
      ],
      "stateMutability": "nonpayable",
      "type": "function"
    },
    {
      "inputs": [
        {
          "internalType": "address",
          "name": "account",
          "type": "address"
        }
      ],
      "name": "balanceOf",
      "outputs": [
        {
          "internalType": "uint256",
          "name": "",
          "type": "uint256"
        }
      ],
      "stateMutability": "view",
      "type": "function",
      "constant": true
    },
    {
      "inputs": [
        {
          "internalType": "address",
          "name": "",
          "type": "address"
        },
        {
          "internalType": "uint256",
          "name": "",
          "type": "uint256"
        }
      ],
      "name": "checkpoints",
      "outputs": [
        {
          "internalType": "uint256",
          "name": "",
          "type": "uint256"
        }
      ],
      "stateMutability": "view",
      "type": "function",
      "constant": true
    },
    {
      "inputs": [],
      "name": "decimals",
      "outputs": [
        {
          "internalType": "uint8",
          "name": "",
          "type": "uint8"
        }
      ],
      "stateMutability": "view",
      "type": "function",
      "constant": true
    },
    {
      "inputs": [
        {
          "internalType": "address",
          "name": "spender",
          "type": "address"
        },
        {
          "internalType": "uint256",
          "name": "subtractedValue",
          "type": "uint256"
        }
      ],
      "name": "decreaseAllowance",
      "outputs": [
        {
          "internalType": "bool",
          "name": "",
          "type": "bool"
        }
      ],
      "stateMutability": "nonpayable",
      "type": "function"
    },
    {
      "inputs": [
        {
          "internalType": "uint256",
          "name": "",
          "type": "uint256"
        }
      ],
      "name": "has_deposited",
      "outputs": [
        {
          "internalType": "bool",
          "name": "",
          "type": "bool"
        }
      ],
      "stateMutability": "view",
      "type": "function",
      "constant": true
    },
    {
      "inputs": [
        {
          "internalType": "address",
          "name": "spender",
          "type": "address"
        },
        {
          "internalType": "uint256",
          "name": "addedValue",
          "type": "uint256"
        }
      ],
      "name": "increaseAllowance",
      "outputs": [
        {
          "internalType": "bool",
          "name": "",
          "type": "bool"
        }
      ],
      "stateMutability": "nonpayable",
      "type": "function"
    },
    {
      "inputs": [],
      "name": "name",
      "outputs": [
        {
          "internalType": "string",
          "name": "",
          "type": "string"
        }
      ],
      "stateMutability": "view",
      "type": "function",
      "constant": true
    },
    {
      "inputs": [],
      "name": "owner",
      "outputs": [
        {
          "internalType": "address",
          "name": "",
          "type": "address"
        }
      ],
      "stateMutability": "view",
      "type": "function",
      "constant": true
    },
    {
      "inputs": [],
      "name": "renounceOwnership",
      "outputs": [],
      "stateMutability": "nonpayable",
      "type": "function"
    },
    {
      "inputs": [
        {
          "internalType": "uint256",
          "name": "",
          "type": "uint256"
        }
      ],
      "name": "staking_accounts",
      "outputs": [
        {
          "internalType": "address",
          "name": "",
          "type": "address"
        }
      ],
      "stateMutability": "view",
      "type": "function",
      "constant": true
    },
    {
      "inputs": [],
      "name": "symbol",
      "outputs": [
        {
          "internalType": "string",
          "name": "",
          "type": "string"
        }
      ],
      "stateMutability": "view",
      "type": "function",
      "constant": true
    },
    {
      "inputs": [],
      "name": "totalSupply",
      "outputs": [
        {
          "internalType": "uint256",
          "name": "",
          "type": "uint256"
        }
      ],
      "stateMutability": "view",
      "type": "function",
      "constant": true
    },
    {
      "inputs": [
        {
          "internalType": "address",
          "name": "to",
          "type": "address"
        },
        {
          "internalType": "uint256",
          "name": "amount",
          "type": "uint256"
        }
      ],
      "name": "transfer",
      "outputs": [
        {
          "internalType": "bool",
          "name": "",
          "type": "bool"
        }
      ],
      "stateMutability": "nonpayable",
      "type": "function"
    },
    {
      "inputs": [
        {
          "internalType": "address",
          "name": "from",
          "type": "address"
        },
        {
          "internalType": "address",
          "name": "to",
          "type": "address"
        },
        {
          "internalType": "uint256",
          "name": "amount",
          "type": "uint256"
        }
      ],
      "name": "transferFrom",
      "outputs": [
        {
          "internalType": "bool",
          "name": "",
          "type": "bool"
        }
      ],
      "stateMutability": "nonpayable",
      "type": "function"
    },
    {
      "inputs": [
        {
          "internalType": "address",
          "name": "newOwner",
          "type": "address"
        }
      ],
      "name": "transferOwnership",
      "outputs": [],
      "stateMutability": "nonpayable",
      "type": "function"
    },
    {
      "inputs": [
        {
          "internalType": "uint256",
          "name": "tokenId",
          "type": "uint256"
        }
      ],
      "name": "deposit",
      "outputs": [],
      "stateMutability": "nonpayable",
      "type": "function"
    },
    {
      "inputs": [
        {
          "internalType": "uint256",
          "name": "tokenId",
          "type": "uint256"
        }
      ],
      "name": "claimSupply",
      "outputs": [],
      "stateMutability": "nonpayable",
      "type": "function"
    },
    {
      "inputs": [
        {
          "internalType": "uint256",
          "name": "tokenId",
          "type": "uint256"
        }
      ],
      "name": "withdraw",
      "outputs": [],
      "stateMutability": "nonpayable",
      "type": "function"
    },
    {
      "inputs": [
        {
          "internalType": "address",
          "name": "beneficiary",
          "type": "address"
        },
        {
          "internalType": "uint256",
          "name": "tokenId",
          "type": "uint256"
        }
      ],
      "name": "collect",
      "outputs": [],
      "stateMutability": "nonpayable",
      "type": "function"
    },
    {
      "inputs": [
        {
          "internalType": "uint256",
          "name": "tokenId",
          "type": "uint256"
        }
      ],
      "name": "onStaking",
      "outputs": [
        {
          "internalType": "bool",
          "name": "",
          "type": "bool"
        }
      ],
      "stateMutability": "view",
      "type": "function",
      "constant": true
    },
    {
      "inputs": [
        {
          "internalType": "address",
          "name": "beneficiary",
          "type": "address"
        },
        {
          "internalType": "uint256",
          "name": "tokenId",
          "type": "uint256"
        }
      ],
      "name": "calculateReward",
      "outputs": [
        {
          "internalType": "uint256",
          "name": "",
          "type": "uint256"
        }
      ],
      "stateMutability": "view",
      "type": "function",
      "constant": true
    }
  ],
  "bytecode": "0x60806040526b43dacaf91c1a84ff08000000600d553480156200002157600080fd5b5060405162003037380380620030378339818101604052810190620000479190620004e7565b6040518060400160405280600681526020017f5672616b6b6100000000000000000000000000000000000000000000000000008152506040518060400160405280600381526020017f56524b00000000000000000000000000000000000000000000000000000000008152508160039080519060200190620000cb92919062000409565b508060049080519060200190620000e492919062000409565b50505062000107620000fb620001b860201b60201c565b620001c060201b60201c565b6200012e3374029c30f1029939b146664242d97d9f6490000000006200028660201b60201c565b81600b60006101000a81548173ffffffffffffffffffffffffffffffffffffffff021916908373ffffffffffffffffffffffffffffffffffffffff16021790555080600c60006101000a81548173ffffffffffffffffffffffffffffffffffffffff021916908373ffffffffffffffffffffffffffffffffffffffff160217905550505062000764565b600033905090565b6000600560009054906101000a900473ffffffffffffffffffffffffffffffffffffffff16905081600560006101000a81548173ffffffffffffffffffffffffffffffffffffffff021916908373ffffffffffffffffffffffffffffffffffffffff1602179055508173ffffffffffffffffffffffffffffffffffffffff168173ffffffffffffffffffffffffffffffffffffffff167f8be0079c531659141344cd1fd0a4f28419497f9722a3daafe3b4186f6b6457e060405160405180910390a35050565b600073ffffffffffffffffffffffffffffffffffffffff168273ffffffffffffffffffffffffffffffffffffffff161415620002f9576040517f08c379a0000000000000000000000000000000000000000000000000000000008152600401620002f09062000560565b60405180910390fd5b6200030d60008383620003ff60201b60201c565b8060026000828254620003219190620005b0565b92505081905550806000808473ffffffffffffffffffffffffffffffffffffffff1673ffffffffffffffffffffffffffffffffffffffff1681526020019081526020016000206000828254620003789190620005b0565b925050819055508173ffffffffffffffffffffffffffffffffffffffff16600073ffffffffffffffffffffffffffffffffffffffff167fddf252ad1be2c89b69c2b068fc378daa952ba7f163c4a11628f55a4df523b3ef83604051620003df919062000582565b60405180910390a3620003fb600083836200040460201b60201c565b5050565b505050565b505050565b828054620004179062000673565b90600052602060002090601f0160209004810192826200043b576000855562000487565b82601f106200045657805160ff191683800117855562000487565b8280016001018555821562000487579182015b828111156200048657825182559160200191906001019062000469565b5b5090506200049691906200049a565b5090565b5b80821115620004b55760008160009055506001016200049b565b5090565b600081519050620004ca8162000730565b92915050565b600081519050620004e1816200074a565b92915050565b60008060408385031215620004fb57600080fd5b60006200050b85828601620004d0565b92505060206200051e85828601620004b9565b9150509250929050565b600062000537601f836200059f565b9150620005448262000707565b602082019050919050565b6200055a8162000669565b82525050565b600060208201905081810360008301526200057b8162000528565b9050919050565b60006020820190506200059960008301846200054f565b92915050565b600082825260208201905092915050565b6000620005bd8262000669565b9150620005ca8362000669565b9250827fffffffffffffffffffffffffffffffffffffffffffffffffffffffffffffffff03821115620006025762000601620006a9565b5b828201905092915050565b60006200061a8262000649565b9050919050565b60006200062e826200060d565b9050919050565b600062000642826200060d565b9050919050565b600073ffffffffffffffffffffffffffffffffffffffff82169050919050565b6000819050919050565b600060028204905060018216806200068c57607f821691505b60208210811415620006a357620006a2620006d8565b5b50919050565b7f4e487b7100000000000000000000000000000000000000000000000000000000600052601160045260246000fd5b7f4e487b7100000000000000000000000000000000000000000000000000000000600052602260045260246000fd5b7f45524332303a206d696e7420746f20746865207a65726f206164647265737300600082015250565b6200073b8162000621565b81146200074757600080fd5b50565b620007558162000635565b81146200076157600080fd5b50565b6128c380620007746000396000f3fe608060405234801561001057600080fd5b50600436106101585760003560e01c806370a08231116100c3578063af9d16321161007c578063af9d163214610401578063b6b55f2514610431578063d1760fac1461044d578063dd62ed3e1461047d578063e68039c6146104ad578063f2fde38b146104dd57610158565b806370a082311461032b578063715018a61461035b5780638da5cb5b1461036557806395d89b4114610383578063a457c2d7146103a1578063a9059cbb146103d157610158565b80632e1a7d4d116101155780632e1a7d4d14610259578063313ce5671461027557806339509351146102935780633967a4f8146102c35780636b8357ac146102f35780636e8632701461030f57610158565b806306fdde031461015d578063095ea7b31461017b5780630cdfebfa146101ab57806318160ddd146101db5780631852e8d9146101f957806323b872dd14610229575b600080fd5b6101656104f9565b6040516101729190611fc8565b60405180910390f35b61019560048036038101906101909190611c0a565b61058b565b6040516101a29190611fad565b60405180910390f35b6101c560048036038101906101c09190611c0a565b6105ae565b6040516101d291906121ca565b60405180910390f35b6101e36105d3565b6040516101f091906121ca565b60405180910390f35b610213600480360381019061020e9190611c0a565b6105dd565b60405161022091906121ca565b60405180910390f35b610243600480360381019061023e9190611bbb565b61077d565b6040516102509190611fad565b60405180910390f35b610273600480360381019061026e9190611c87565b6107ac565b005b61027d610977565b60405161028a91906121e5565b60405180910390f35b6102ad60048036038101906102a89190611c0a565b610980565b6040516102ba9190611fad565b60405180910390f35b6102dd60048036038101906102d89190611c87565b6109b7565b6040516102ea9190611fad565b60405180910390f35b61030d60048036038101906103089190611c0a565b6109e1565b005b61032960048036038101906103249190611c87565b610a53565b005b61034560048036038101906103409190611b2d565b610cbd565b60405161035291906121ca565b60405180910390f35b610363610d05565b005b61036d610d19565b60405161037a9190611f5b565b60405180910390f35b61038b610d43565b6040516103989190611fc8565b60405180910390f35b6103bb60048036038101906103b69190611c0a565b610dd5565b6040516103c89190611fad565b60405180910390f35b6103eb60048036038101906103e69190611c0a565b610e4c565b6040516103f89190611fad565b60405180910390f35b61041b60048036038101906104169190611c87565b610e6f565b6040516104289190611fad565b60405180910390f35b61044b60048036038101906104469190611c87565b610e8f565b005b61046760048036038101906104629190611c46565b61116f565b6040516104749190611fad565b60405180910390f35b61049760048036038101906104929190611b7f565b6111a5565b6040516104a491906121ca565b60405180910390f35b6104c760048036038101906104c29190611c87565b61122c565b6040516104d49190611f5b565b60405180910390f35b6104f760048036038101906104f29190611b2d565b61125f565b005b606060038054610508906123ed565b80601f0160208091040260200160405190810160405280929190818152602001828054610534906123ed565b80156105815780601f1061055657610100808354040283529160200191610581565b820191906000526020600020905b81548152906001019060200180831161056457829003601f168201915b5050505050905090565b6000806105966112e3565b90506105a38185856112eb565b600191505092915050565b6006602052816000526040600020602052806000526040600020600091509150505481565b6000600254905090565b60006007600083815260200190815260200160002060009054906101000a900460ff1661060d5760009050610777565b6000600b60009054906101000a900473ffffffffffffffffffffffffffffffffffffffff1673ffffffffffffffffffffffffffffffffffffffff1663512d62df846040518263ffffffff1660e01b815260040161066a91906121ca565b60206040518083038186803b15801561068257600080fd5b505afa158015610696573d6000803e3d6000fd5b505050506040513d601f19601f820116820180604052508101906106ba9190611cb0565b90506000600660008673ffffffffffffffffffffffffffffffffffffffff1673ffffffffffffffffffffffffffffffffffffffff168152602001908152602001600020600085815260200190815260200160002054905060006001831415610725576004905061075a565b60028314156107375760069050610759565b60038314156107495760089050610758565b600483141561075757600a90505b5b5b5b81436107669190612322565b8161077191906122c8565b93505050505b92915050565b6000806107886112e3565b90506107958582856114b6565b6107a0858585611542565b60019150509392505050565b6007600082815260200190815260200160002060009054906101000a900460ff1661080c576040517f08c379a0000000000000000000000000000000000000000000000000000000008152600401610803906120ea565b60405180910390fd5b3373ffffffffffffffffffffffffffffffffffffffff166008600083815260200190815260200160002060009054906101000a900473ffffffffffffffffffffffffffffffffffffffff1673ffffffffffffffffffffffffffffffffffffffff16146108ad576040517f08c379a00000000000000000000000000000000000000000000000000000000081526004016108a49061200a565b60405180910390fd5b6108b733826109e1565b600b60009054906101000a900473ffffffffffffffffffffffffffffffffffffffff1673ffffffffffffffffffffffffffffffffffffffff166323b872dd3033846040518463ffffffff1660e01b815260040161091693929190611f76565b600060405180830381600087803b15801561093057600080fd5b505af1158015610944573d6000803e3d6000fd5b5050505060006007600083815260200190815260200160002060006101000a81548160ff02191690831515021790555050565b60006012905090565b60008061098b6112e3565b90506109ac81858561099d85896111a5565b6109a79190612272565b6112eb565b600191505092915050565b60006007600083815260200190815260200160002060009054906101000a900460ff169050919050565b60006109ed83836105dd565b905043600660008573ffffffffffffffffffffffffffffffffffffffff1673ffffffffffffffffffffffffffffffffffffffff168152602001908152602001600020600084815260200190815260200160002081905550610a4e33826117c3565b505050565b806000600c60009054906101000a900473ffffffffffffffffffffffffffffffffffffffff1673ffffffffffffffffffffffffffffffffffffffff16636352211e836040518263ffffffff1660e01b8152600401610ab191906121ca565b60206040518083038186803b158015610ac957600080fd5b505afa158015610add573d6000803e3d6000fd5b505050506040513d601f19601f82011682018060405250810190610b019190611b56565b90503373ffffffffffffffffffffffffffffffffffffffff168173ffffffffffffffffffffffffffffffffffffffff1614610b71576040517f08c379a0000000000000000000000000000000000000000000000000000000008152600401610b689061210a565b60405180910390fd5b6000600c60009054906101000a900473ffffffffffffffffffffffffffffffffffffffff1673ffffffffffffffffffffffffffffffffffffffff1663e96e2ced856040518263ffffffff1660e01b8152600401610bce91906121ca565b60206040518083038186803b158015610be657600080fd5b505afa158015610bfa573d6000803e3d6000fd5b505050506040513d601f19601f82011682018060405250810190610c1e9190611cb0565b9050610c2a33826117c3565b600c60009054906101000a900473ffffffffffffffffffffffffffffffffffffffff1673ffffffffffffffffffffffffffffffffffffffff166342966c68856040518263ffffffff1660e01b8152600401610c8591906121ca565b600060405180830381600087803b158015610c9f57600080fd5b505af1158015610cb3573d6000803e3d6000fd5b5050505050505050565b60008060008373ffffffffffffffffffffffffffffffffffffffff1673ffffffffffffffffffffffffffffffffffffffff168152602001908152602001600020549050919050565b610d0d611923565b610d1760006119a1565b565b6000600560009054906101000a900473ffffffffffffffffffffffffffffffffffffffff16905090565b606060048054610d52906123ed565b80601f0160208091040260200160405190810160405280929190818152602001828054610d7e906123ed565b8015610dcb5780601f10610da057610100808354040283529160200191610dcb565b820191906000526020600020905b815481529060010190602001808311610dae57829003601f168201915b5050505050905090565b600080610de06112e3565b90506000610dee82866111a5565b905083811015610e33576040517f08c379a0000000000000000000000000000000000000000000000000000000008152600401610e2a9061218a565b60405180910390fd5b610e4082868684036112eb565b60019250505092915050565b600080610e576112e3565b9050610e64818585611542565b600191505092915050565b60076020528060005260406000206000915054906101000a900460ff1681565b600b60009054906101000a900473ffffffffffffffffffffffffffffffffffffffff1673ffffffffffffffffffffffffffffffffffffffff16636352211e826040518263ffffffff1660e01b8152600401610eea91906121ca565b60206040518083038186803b158015610f0257600080fd5b505afa158015610f16573d6000803e3d6000fd5b505050506040513d601f19601f82011682018060405250810190610f3a9190611b56565b73ffffffffffffffffffffffffffffffffffffffff163373ffffffffffffffffffffffffffffffffffffffff1614610fa7576040517f08c379a0000000000000000000000000000000000000000000000000000000008152600401610f9e9061208a565b60405180910390fd5b6007600082815260200190815260200160002060009054906101000a900460ff1615611008576040517f08c379a0000000000000000000000000000000000000000000000000000000008152600401610fff906120ca565b60405180910390fd5b43600660003373ffffffffffffffffffffffffffffffffffffffff1673ffffffffffffffffffffffffffffffffffffffff168152602001908152602001600020600083815260200190815260200160002081905550336008600083815260200190815260200160002060006101000a81548173ffffffffffffffffffffffffffffffffffffffff021916908373ffffffffffffffffffffffffffffffffffffffff160217905550600b60009054906101000a900473ffffffffffffffffffffffffffffffffffffffff1673ffffffffffffffffffffffffffffffffffffffff166323b872dd3330846040518463ffffffff1660e01b815260040161110e93929190611f76565b600060405180830381600087803b15801561112857600080fd5b505af115801561113c573d6000803e3d6000fd5b5050505060016007600083815260200190815260200160002060006101000a81548160ff02191690831515021790555050565b600a818051602081018201805184825260208301602085012081835280955050505050506000915054906101000a900460ff1681565b6000600160008473ffffffffffffffffffffffffffffffffffffffff1673ffffffffffffffffffffffffffffffffffffffff16815260200190815260200160002060008373ffffffffffffffffffffffffffffffffffffffff1673ffffffffffffffffffffffffffffffffffffffff16815260200190815260200160002054905092915050565b60086020528060005260406000206000915054906101000a900473ffffffffffffffffffffffffffffffffffffffff1681565b611267611923565b600073ffffffffffffffffffffffffffffffffffffffff168173ffffffffffffffffffffffffffffffffffffffff1614156112d7576040517f08c379a00000000000000000000000000000000000000000000000000000000081526004016112ce9061202a565b60405180910390fd5b6112e0816119a1565b50565b600033905090565b600073ffffffffffffffffffffffffffffffffffffffff168373ffffffffffffffffffffffffffffffffffffffff16141561135b576040517f08c379a00000000000000000000000000000000000000000000000000000000081526004016113529061216a565b60405180910390fd5b600073ffffffffffffffffffffffffffffffffffffffff168273ffffffffffffffffffffffffffffffffffffffff1614156113cb576040517f08c379a00000000000000000000000000000000000000000000000000000000081526004016113c29061204a565b60405180910390fd5b80600160008573ffffffffffffffffffffffffffffffffffffffff1673ffffffffffffffffffffffffffffffffffffffff16815260200190815260200160002060008473ffffffffffffffffffffffffffffffffffffffff1673ffffffffffffffffffffffffffffffffffffffff168152602001908152602001600020819055508173ffffffffffffffffffffffffffffffffffffffff168373ffffffffffffffffffffffffffffffffffffffff167f8c5be1e5ebec7d5bd14f71427d1e84f3dd0314c0f7b2291e5b200ac8c7c3b925836040516114a991906121ca565b60405180910390a3505050565b60006114c284846111a5565b90507fffffffffffffffffffffffffffffffffffffffffffffffffffffffffffffffff811461153c578181101561152e576040517f08c379a00000000000000000000000000000000000000000000000000000000081526004016115259061206a565b60405180910390fd5b61153b84848484036112eb565b5b50505050565b600073ffffffffffffffffffffffffffffffffffffffff168373ffffffffffffffffffffffffffffffffffffffff1614156115b2576040517f08c379a00000000000000000000000000000000000000000000000000000000081526004016115a99061214a565b60405180910390fd5b600073ffffffffffffffffffffffffffffffffffffffff168273ffffffffffffffffffffffffffffffffffffffff161415611622576040517f08c379a000000000000000000000000000000000000000000000000000000000815260040161161990611fea565b60405180910390fd5b61162d838383611a67565b60008060008573ffffffffffffffffffffffffffffffffffffffff1673ffffffffffffffffffffffffffffffffffffffff168152602001908152602001600020549050818110156116b3576040517f08c379a00000000000000000000000000000000000000000000000000000000081526004016116aa906120aa565b60405180910390fd5b8181036000808673ffffffffffffffffffffffffffffffffffffffff1673ffffffffffffffffffffffffffffffffffffffff16815260200190815260200160002081905550816000808573ffffffffffffffffffffffffffffffffffffffff1673ffffffffffffffffffffffffffffffffffffffff16815260200190815260200160002060008282546117469190612272565b925050819055508273ffffffffffffffffffffffffffffffffffffffff168473ffffffffffffffffffffffffffffffffffffffff167fddf252ad1be2c89b69c2b068fc378daa952ba7f163c4a11628f55a4df523b3ef846040516117aa91906121ca565b60405180910390a36117bd848484611a6c565b50505050565b600073ffffffffffffffffffffffffffffffffffffffff168273ffffffffffffffffffffffffffffffffffffffff161415611833576040517f08c379a000000000000000000000000000000000000000000000000000000000815260040161182a906121aa565b60405180910390fd5b61183f60008383611a67565b80600260008282546118519190612272565b92505081905550806000808473ffffffffffffffffffffffffffffffffffffffff1673ffffffffffffffffffffffffffffffffffffffff16815260200190815260200160002060008282546118a69190612272565b925050819055508173ffffffffffffffffffffffffffffffffffffffff16600073ffffffffffffffffffffffffffffffffffffffff167fddf252ad1be2c89b69c2b068fc378daa952ba7f163c4a11628f55a4df523b3ef8360405161190b91906121ca565b60405180910390a361191f60008383611a6c565b5050565b61192b6112e3565b73ffffffffffffffffffffffffffffffffffffffff16611949610d19565b73ffffffffffffffffffffffffffffffffffffffff161461199f576040517f08c379a00000000000000000000000000000000000000000000000000000000081526004016119969061212a565b60405180910390fd5b565b6000600560009054906101000a900473ffffffffffffffffffffffffffffffffffffffff16905081600560006101000a81548173ffffffffffffffffffffffffffffffffffffffff021916908373ffffffffffffffffffffffffffffffffffffffff1602179055508173ffffffffffffffffffffffffffffffffffffffff168173ffffffffffffffffffffffffffffffffffffffff167f8be0079c531659141344cd1fd0a4f28419497f9722a3daafe3b4186f6b6457e060405160405180910390a35050565b505050565b505050565b6000611a84611a7f84612225565b612200565b905082815260208101848484011115611a9c57600080fd5b611aa78482856123ab565b509392505050565b600081359050611abe8161285f565b92915050565b600081519050611ad38161285f565b92915050565b600082601f830112611aea57600080fd5b8135611afa848260208601611a71565b91505092915050565b600081359050611b1281612876565b92915050565b600081519050611b2781612876565b92915050565b600060208284031215611b3f57600080fd5b6000611b4d84828501611aaf565b91505092915050565b600060208284031215611b6857600080fd5b6000611b7684828501611ac4565b91505092915050565b60008060408385031215611b9257600080fd5b6000611ba085828601611aaf565b9250506020611bb185828601611aaf565b9150509250929050565b600080600060608486031215611bd057600080fd5b6000611bde86828701611aaf565b9350506020611bef86828701611aaf565b9250506040611c0086828701611b03565b9150509250925092565b60008060408385031215611c1d57600080fd5b6000611c2b85828601611aaf565b9250506020611c3c85828601611b03565b9150509250929050565b600060208284031215611c5857600080fd5b600082013567ffffffffffffffff811115611c7257600080fd5b611c7e84828501611ad9565b91505092915050565b600060208284031215611c9957600080fd5b6000611ca784828501611b03565b91505092915050565b600060208284031215611cc257600080fd5b6000611cd084828501611b18565b91505092915050565b611ce281612356565b82525050565b611cf181612368565b82525050565b6000611d0282612256565b611d0c8185612261565b9350611d1c8185602086016123ba565b611d25816124dd565b840191505092915050565b6000611d3d602383612261565b9150611d48826124ee565b604082019050919050565b6000611d60600f83612261565b9150611d6b8261253d565b602082019050919050565b6000611d83602683612261565b9150611d8e82612566565b604082019050919050565b6000611da6602283612261565b9150611db1826125b5565b604082019050919050565b6000611dc9601d83612261565b9150611dd482612604565b602082019050919050565b6000611dec601483612261565b9150611df78261262d565b602082019050919050565b6000611e0f602683612261565b9150611e1a82612656565b604082019050919050565b6000611e32601883612261565b9150611e3d826126a5565b602082019050919050565b6000611e55601583612261565b9150611e60826126ce565b602082019050919050565b6000611e78601d83612261565b9150611e83826126f7565b602082019050919050565b6000611e9b602083612261565b9150611ea682612720565b602082019050919050565b6000611ebe602583612261565b9150611ec982612749565b604082019050919050565b6000611ee1602483612261565b9150611eec82612798565b604082019050919050565b6000611f04602583612261565b9150611f0f826127e7565b604082019050919050565b6000611f27601f83612261565b9150611f3282612836565b602082019050919050565b611f4681612394565b82525050565b611f558161239e565b82525050565b6000602082019050611f706000830184611cd9565b92915050565b6000606082019050611f8b6000830186611cd9565b611f986020830185611cd9565b611fa56040830184611f3d565b949350505050565b6000602082019050611fc26000830184611ce8565b92915050565b60006020820190508181036000830152611fe28184611cf7565b905092915050565b6000602082019050818103600083015261200381611d30565b9050919050565b6000602082019050818103600083015261202381611d53565b9050919050565b6000602082019050818103600083015261204381611d76565b9050919050565b6000602082019050818103600083015261206381611d99565b9050919050565b6000602082019050818103600083015261208381611dbc565b9050919050565b600060208201905081810360008301526120a381611ddf565b9050919050565b600060208201905081810360008301526120c381611e02565b9050919050565b600060208201905081810360008301526120e381611e25565b9050919050565b6000602082019050818103600083015261210381611e48565b9050919050565b6000602082019050818103600083015261212381611e6b565b9050919050565b6000602082019050818103600083015261214381611e8e565b9050919050565b6000602082019050818103600083015261216381611eb1565b9050919050565b6000602082019050818103600083015261218381611ed4565b9050919050565b600060208201905081810360008301526121a381611ef7565b9050919050565b600060208201905081810360008301526121c381611f1a565b9050919050565b60006020820190506121df6000830184611f3d565b92915050565b60006020820190506121fa6000830184611f4c565b92915050565b600061220a61221b565b9050612216828261241f565b919050565b6000604051905090565b600067ffffffffffffffff8211156122405761223f6124ae565b5b612249826124dd565b9050602081019050919050565b600081519050919050565b600082825260208201905092915050565b600061227d82612394565b915061228883612394565b9250827fffffffffffffffffffffffffffffffffffffffffffffffffffffffffffffffff038211156122bd576122bc612450565b5b828201905092915050565b60006122d382612394565b91506122de83612394565b9250817fffffffffffffffffffffffffffffffffffffffffffffffffffffffffffffffff048311821515161561231757612316612450565b5b828202905092915050565b600061232d82612394565b915061233883612394565b92508282101561234b5761234a612450565b5b828203905092915050565b600061236182612374565b9050919050565b60008115159050919050565b600073ffffffffffffffffffffffffffffffffffffffff82169050919050565b6000819050919050565b600060ff82169050919050565b82818337600083830152505050565b60005b838110156123d85780820151818401526020810190506123bd565b838111156123e7576000848401525b50505050565b6000600282049050600182168061240557607f821691505b602082108114156124195761241861247f565b5b50919050565b612428826124dd565b810181811067ffffffffffffffff82111715612447576124466124ae565b5b80604052505050565b7f4e487b7100000000000000000000000000000000000000000000000000000000600052601160045260246000fd5b7f4e487b7100000000000000000000000000000000000000000000000000000000600052602260045260246000fd5b7f4e487b7100000000000000000000000000000000000000000000000000000000600052604160045260246000fd5b6000601f19601f8301169050919050565b7f45524332303a207472616e7366657220746f20746865207a65726f206164647260008201527f6573730000000000000000000000000000000000000000000000000000000000602082015250565b7f4f6e6c7920746865205374616b65720000000000000000000000000000000000600082015250565b7f4f776e61626c653a206e6577206f776e657220697320746865207a65726f206160008201527f6464726573730000000000000000000000000000000000000000000000000000602082015250565b7f45524332303a20617070726f766520746f20746865207a65726f20616464726560008201527f7373000000000000000000000000000000000000000000000000000000000000602082015250565b7f45524332303a20696e73756666696369656e7420616c6c6f77616e6365000000600082015250565b7f53656e646572206d757374206265206f776e6572000000000000000000000000600082015250565b7f45524332303a207472616e7366657220616d6f756e742065786365656473206260008201527f616c616e63650000000000000000000000000000000000000000000000000000602082015250565b7f53656e64657220616c7265616479206465706f73697465640000000000000000600082015250565b7f4e6f20746f6b656e7320746f2077697468647261770000000000000000000000600082015250565b7f6f6e6c7920746865206f776e6572206f66207468652049434f204e4654000000600082015250565b7f4f776e61626c653a2063616c6c6572206973206e6f7420746865206f776e6572600082015250565b7f45524332303a207472616e736665722066726f6d20746865207a65726f20616460008201527f6472657373000000000000000000000000000000000000000000000000000000602082015250565b7f45524332303a20617070726f76652066726f6d20746865207a65726f2061646460008201527f7265737300000000000000000000000000000000000000000000000000000000602082015250565b7f45524332303a2064656372656173656420616c6c6f77616e63652062656c6f7760008201527f207a65726f000000000000000000000000000000000000000000000000000000602082015250565b7f45524332303a206d696e7420746f20746865207a65726f206164647265737300600082015250565b61286881612356565b811461287357600080fd5b50565b61287f81612394565b811461288a57600080fd5b5056fea26469706673582212206b0fa9ff23c60d7442fe96ad087afadb3a73163296c0db0692101c5b66df3dc664736f6c63430008030033",
  "immutableReferences": {},
  "source": "// SPDX-License-Identifier: MIT\npragma solidity ^0.8.0;\n\nimport \"@openzeppelin/contracts/token/ERC20/ERC20.sol\";\nimport \"@openzeppelin/contracts/utils/Counters.sol\";\nimport \"@openzeppelin/contracts/access/Ownable.sol\";\nimport \"@openzeppelin/contracts/token/ERC721/IERC721.sol\";\nimport \"./Ico.sol\";\nimport \"./VrakkaNFT.sol\";\n\n\ncontract Vrk is ERC20,Ownable{\n\n    mapping(address => mapping(uint256=>uint256)) public checkpoints;\n    mapping(uint256 => bool) public has_deposited;\n    mapping(uint256 => address) public staking_accounts;\n \n    mapping(address=>uint256) private tolerance;\n    //check the string use by the user is not repeat\n    mapping(string=>bool)public _names;\n\n    VrakkaNFT private BASE_CONTRACT;\n\n    //Smart Contract for the Initial Coin Offering\n    Ico private ICO_CONTRACT;\n\n    uint256 internal HARD_CAP=21*1e27;\n\n    \n    constructor(\n      VrakkaNFT vrakka_nft_contract,\n      Ico ico_contract) ERC20(\"Vrakka\", \"VRK\") {\n\n      _mint(msg.sender, 500**18);\n      BASE_CONTRACT=vrakka_nft_contract;\n      ICO_CONTRACT=ico_contract;\n    }\n\n    //////////////---Modifiers---------------------------------------------------------------------\n    modifier onlyTokenOwner(uint256 _tokenId){\n        address tokenOwner = IERC721(ICO_CONTRACT).ownerOf(_tokenId);\n        require(tokenOwner == msg.sender,'only the owner of the ICO NFT');\n        _;\n    }\n    ////////////////////////////////////////////////////////////////////////////////////////\n    \n\n    function deposit(uint256 tokenId) external{\n        require (msg.sender == BASE_CONTRACT.ownerOf(tokenId), 'Sender must be owner');\n        require (!has_deposited[tokenId], 'Sender already deposited');\n\n        //Height of the staking block\n        checkpoints[msg.sender][tokenId] = block.number;\n        staking_accounts[tokenId]=msg.sender;\n        \n        BASE_CONTRACT.transferFrom(msg.sender, address(this), tokenId);\n      \n        has_deposited[tokenId]=true;\n   }\n\n   function claimSupply(uint256 tokenId)public onlyTokenOwner(tokenId){\n      uint256 _supply=ICO_CONTRACT.checkSupply(tokenId);\n      _mint(msg.sender,_supply);\n      ICO_CONTRACT.burn(tokenId);\n   }\n\n\n    function withdraw(uint256 tokenId) external{\n        require(has_deposited[tokenId], 'No tokens to withdraw');\n        require(staking_accounts[tokenId]==msg.sender,'Only the Staker');\n        collect(msg.sender,tokenId);\n        BASE_CONTRACT.transferFrom(address(this), msg.sender, tokenId);\n        \n        has_deposited[tokenId]=false;\n    }\n\n    function collect(address beneficiary,uint256 tokenId) public{\n        uint256 reward = calculateReward(beneficiary,tokenId);\n        checkpoints[beneficiary][tokenId] = block.number;      \n        _mint(msg.sender, reward);\n    }\n\n    function onStaking(uint256 tokenId)public view returns(bool){\n        return has_deposited[tokenId];\n    }\n\n    function calculateReward(address beneficiary,uint256 tokenId) public view returns(uint256){\n        if(!has_deposited[tokenId])\n        {\n            return 0;\n        }\n        uint classType=BASE_CONTRACT.getClass(tokenId);\n        uint256 checkpoint = checkpoints[beneficiary][tokenId];\n        uint256 weight;\n\n        if(classType==1){\n            weight=4;\n        }else if(classType==2){\n            weight=6;\n        }else if(classType==3){\n            weight=8;\n        }else if(classType==4){\n            weight=10;\n        }\n\n        return weight*(block.number-checkpoint);\n    }   \n\n}",
  "sourcePath": "/Users/aarontolentino/Documents/A-Work/Vrakka/contracts/Vrk.sol",
  "compiler": {
    "name": "solc",
    "version": "0.8.3+commit.8d00100c.Emscripten.clang"
  },
  "schemaVersion": "3.4.1",
  "updatedAt": "2023-05-09T04:46:40.406Z",
  "networkType": "ethereum",
  "devdoc": {
    "kind": "dev",
    "methods": {
      "allowance(address,address)": {
        "details": "See {IERC20-allowance}."
      },
      "approve(address,uint256)": {
        "details": "See {IERC20-approve}. NOTE: If `amount` is the maximum `uint256`, the allowance is not updated on `transferFrom`. This is semantically equivalent to an infinite approval. Requirements: - `spender` cannot be the zero address."
      },
      "balanceOf(address)": {
        "details": "See {IERC20-balanceOf}."
      },
      "decimals()": {
        "details": "Returns the number of decimals used to get its user representation. For example, if `decimals` equals `2`, a balance of `505` tokens should be displayed to a user as `5.05` (`505 / 10 ** 2`). Tokens usually opt for a value of 18, imitating the relationship between Ether and Wei. This is the value {ERC20} uses, unless this function is overridden; NOTE: This information is only used for _display_ purposes: it in no way affects any of the arithmetic of the contract, including {IERC20-balanceOf} and {IERC20-transfer}."
      },
      "decreaseAllowance(address,uint256)": {
        "details": "Atomically decreases the allowance granted to `spender` by the caller. This is an alternative to {approve} that can be used as a mitigation for problems described in {IERC20-approve}. Emits an {Approval} event indicating the updated allowance. Requirements: - `spender` cannot be the zero address. - `spender` must have allowance for the caller of at least `subtractedValue`."
      },
      "increaseAllowance(address,uint256)": {
        "details": "Atomically increases the allowance granted to `spender` by the caller. This is an alternative to {approve} that can be used as a mitigation for problems described in {IERC20-approve}. Emits an {Approval} event indicating the updated allowance. Requirements: - `spender` cannot be the zero address."
      },
      "name()": {
        "details": "Returns the name of the token."
      },
      "owner()": {
        "details": "Returns the address of the current owner."
      },
      "renounceOwnership()": {
        "details": "Leaves the contract without owner. It will not be possible to call `onlyOwner` functions anymore. Can only be called by the current owner. NOTE: Renouncing ownership will leave the contract without an owner, thereby removing any functionality that is only available to the owner."
      },
      "symbol()": {
        "details": "Returns the symbol of the token, usually a shorter version of the name."
      },
      "totalSupply()": {
        "details": "See {IERC20-totalSupply}."
      },
      "transfer(address,uint256)": {
        "details": "See {IERC20-transfer}. Requirements: - `to` cannot be the zero address. - the caller must have a balance of at least `amount`."
      },
      "transferFrom(address,address,uint256)": {
        "details": "See {IERC20-transferFrom}. Emits an {Approval} event indicating the updated allowance. This is not required by the EIP. See the note at the beginning of {ERC20}. NOTE: Does not update the allowance if the current allowance is the maximum `uint256`. Requirements: - `from` and `to` cannot be the zero address. - `from` must have a balance of at least `amount`. - the caller must have allowance for ``from``'s tokens of at least `amount`."
      },
      "transferOwnership(address)": {
        "details": "Transfers ownership of the contract to a new account (`newOwner`). Can only be called by the current owner."
      }
    },
    "version": 1
  },
  "userdoc": {
    "kind": "user",
    "methods": {},
    "version": 1
  }
}